{
	"contracts/MultisigWallet.sol": {
		"MultisigWallet": {
			"abi": [
				{
					"inputs": [
						{
							"internalType": "address[]",
							"name": "_owners",
							"type": "address[]"
						}
					],
					"stateMutability": "nonpayable",
					"type": "constructor"
				},
				{
					"anonymous": false,
					"inputs": [
						{
							"indexed": true,
							"internalType": "address",
							"name": "sender",
							"type": "address"
						},
						{
							"indexed": false,
							"internalType": "uint256",
							"name": "value",
							"type": "uint256"
						}
					],
					"name": "Deposit",
					"type": "event"
				},
				{
					"anonymous": false,
					"inputs": [
						{
							"indexed": true,
							"internalType": "uint256",
							"name": "requestIndex",
							"type": "uint256"
						},
						{
							"indexed": true,
							"internalType": "address",
							"name": "confirmer",
							"type": "address"
						}
					],
					"name": "OwnerChangeRequestConfirmed",
					"type": "event"
				},
				{
					"anonymous": false,
					"inputs": [
						{
							"indexed": true,
							"internalType": "uint256",
							"name": "requestIndex",
							"type": "uint256"
						},
						{
							"indexed": true,
							"internalType": "address",
							"name": "owner",
							"type": "address"
						},
						{
							"indexed": false,
							"internalType": "bool",
							"name": "isAdding",
							"type": "bool"
						}
					],
					"name": "OwnerChangeRequestCreated",
					"type": "event"
				},
				{
					"anonymous": false,
					"inputs": [
						{
							"indexed": true,
							"internalType": "uint256",
							"name": "requestIndex",
							"type": "uint256"
						},
						{
							"indexed": true,
							"internalType": "address",
							"name": "owner",
							"type": "address"
						},
						{
							"indexed": false,
							"internalType": "bool",
							"name": "isAdding",
							"type": "bool"
						}
					],
					"name": "OwnerChangeRequestExecuted",
					"type": "event"
				},
				{
					"anonymous": false,
					"inputs": [
						{
							"indexed": true,
							"internalType": "uint256",
							"name": "txIndex",
							"type": "uint256"
						},
						{
							"indexed": true,
							"internalType": "address",
							"name": "owner",
							"type": "address"
						}
					],
					"name": "TransactionConfirmed",
					"type": "event"
				},
				{
					"anonymous": false,
					"inputs": [
						{
							"indexed": true,
							"internalType": "uint256",
							"name": "txIndex",
							"type": "uint256"
						},
						{
							"indexed": true,
							"internalType": "address",
							"name": "to",
							"type": "address"
						},
						{
							"indexed": false,
							"internalType": "uint256",
							"name": "value",
							"type": "uint256"
						},
						{
							"indexed": false,
							"internalType": "bytes",
							"name": "data",
							"type": "bytes"
						}
					],
					"name": "TransactionCreated",
					"type": "event"
				},
				{
					"anonymous": false,
					"inputs": [
						{
							"indexed": true,
							"internalType": "uint256",
							"name": "txIndex",
							"type": "uint256"
						}
					],
					"name": "TransactionExecuted",
					"type": "event"
				},
				{
					"inputs": [
						{
							"internalType": "uint256",
							"name": "_requestIndex",
							"type": "uint256"
						}
					],
					"name": "confirmOwnerChangeRequest",
					"outputs": [],
					"stateMutability": "nonpayable",
					"type": "function"
				},
				{
					"inputs": [
						{
							"internalType": "uint256",
							"name": "_txIndex",
							"type": "uint256"
						}
					],
					"name": "confirmTransaction",
					"outputs": [],
					"stateMutability": "nonpayable",
					"type": "function"
				},
				{
					"inputs": [
						{
							"internalType": "uint256",
							"name": "",
							"type": "uint256"
						},
						{
							"internalType": "address",
							"name": "",
							"type": "address"
						}
					],
					"name": "confirmations",
					"outputs": [
						{
							"internalType": "bool",
							"name": "",
							"type": "bool"
						}
					],
					"stateMutability": "view",
					"type": "function"
				},
				{
					"inputs": [
						{
							"internalType": "address",
							"name": "_owner",
							"type": "address"
						},
						{
							"internalType": "bool",
							"name": "_isAdding",
							"type": "bool"
						}
					],
					"name": "createOwnerChangeRequest",
					"outputs": [],
					"stateMutability": "nonpayable",
					"type": "function"
				},
				{
					"inputs": [
						{
							"internalType": "address",
							"name": "_to",
							"type": "address"
						},
						{
							"internalType": "uint256",
							"name": "_value",
							"type": "uint256"
						},
						{
							"internalType": "bytes",
							"name": "_data",
							"type": "bytes"
						}
					],
					"name": "createTransaction",
					"outputs": [],
					"stateMutability": "nonpayable",
					"type": "function"
				},
				{
					"inputs": [],
					"name": "getAllTransactions",
					"outputs": [
						{
							"components": [
								{
									"internalType": "address",
									"name": "to",
									"type": "address"
								},
								{
									"internalType": "uint256",
									"name": "value",
									"type": "uint256"
								},
								{
									"internalType": "bytes",
									"name": "data",
									"type": "bytes"
								},
								{
									"internalType": "bool",
									"name": "executed",
									"type": "bool"
								},
								{
									"internalType": "uint256",
									"name": "confirmations",
									"type": "uint256"
								}
							],
							"internalType": "struct MultisigWallet.Transaction[]",
							"name": "",
							"type": "tuple[]"
						}
					],
					"stateMutability": "view",
					"type": "function"
				},
				{
					"inputs": [],
					"name": "getBalance",
					"outputs": [
						{
							"internalType": "uint256",
							"name": "",
							"type": "uint256"
						}
					],
					"stateMutability": "view",
					"type": "function"
				},
				{
					"inputs": [
						{
							"internalType": "uint256",
							"name": "_txIndex",
							"type": "uint256"
						}
					],
					"name": "getTransaction",
					"outputs": [
						{
							"internalType": "address",
							"name": "to",
							"type": "address"
						},
						{
							"internalType": "uint256",
							"name": "value",
							"type": "uint256"
						},
						{
							"internalType": "bytes",
							"name": "data",
							"type": "bytes"
						},
						{
							"internalType": "bool",
							"name": "executed",
							"type": "bool"
						},
						{
							"internalType": "uint256",
							"name": "confirmationsCount",
							"type": "uint256"
						}
					],
					"stateMutability": "view",
					"type": "function"
				},
				{
					"inputs": [
						{
							"internalType": "address",
							"name": "",
							"type": "address"
						}
					],
					"name": "isOwner",
					"outputs": [
						{
							"internalType": "bool",
							"name": "",
							"type": "bool"
						}
					],
					"stateMutability": "view",
					"type": "function"
				},
				{
					"inputs": [
						{
							"internalType": "uint256",
							"name": "",
							"type": "uint256"
						},
						{
							"internalType": "address",
							"name": "",
							"type": "address"
						}
					],
					"name": "ownerChangeConfirmations",
					"outputs": [
						{
							"internalType": "bool",
							"name": "",
							"type": "bool"
						}
					],
					"stateMutability": "view",
					"type": "function"
				},
				{
					"inputs": [
						{
							"internalType": "uint256",
							"name": "",
							"type": "uint256"
						}
					],
					"name": "ownerChangeRequests",
					"outputs": [
						{
							"internalType": "address",
							"name": "owner",
							"type": "address"
						},
						{
							"internalType": "bool",
							"name": "isAdding",
							"type": "bool"
						},
						{
							"internalType": "uint256",
							"name": "confirmations",
							"type": "uint256"
						},
						{
							"internalType": "bool",
							"name": "executed",
							"type": "bool"
						}
					],
					"stateMutability": "view",
					"type": "function"
				},
				{
					"inputs": [
						{
							"internalType": "uint256",
							"name": "",
							"type": "uint256"
						}
					],
					"name": "owners",
					"outputs": [
						{
							"internalType": "address",
							"name": "",
							"type": "address"
						}
					],
					"stateMutability": "view",
					"type": "function"
				},
				{
					"inputs": [],
					"name": "requiredSignatures",
					"outputs": [
						{
							"internalType": "uint256",
							"name": "",
							"type": "uint256"
						}
					],
					"stateMutability": "view",
					"type": "function"
				},
				{
					"inputs": [
						{
							"internalType": "uint256",
							"name": "",
							"type": "uint256"
						}
					],
					"name": "transactions",
					"outputs": [
						{
							"internalType": "address",
							"name": "to",
							"type": "address"
						},
						{
							"internalType": "uint256",
							"name": "value",
							"type": "uint256"
						},
						{
							"internalType": "bytes",
							"name": "data",
							"type": "bytes"
						},
						{
							"internalType": "bool",
							"name": "executed",
							"type": "bool"
						},
						{
							"internalType": "uint256",
							"name": "confirmations",
							"type": "uint256"
						}
					],
					"stateMutability": "view",
					"type": "function"
				},
				{
					"stateMutability": "payable",
					"type": "receive"
				}
			],
			"devdoc": {
				"kind": "dev",
				"methods": {},
				"version": 1
			},
			"evm": {
				"assembly": "    /* \"contracts/MultisigWallet.sol\":57:5831  contract MultisigWallet {... */\n  mstore(0x40, 0x80)\n    /* \"contracts/MultisigWallet.sol\":1772:2222  constructor(address[] memory _owners) {... */\n  callvalue\n  dup1\n  iszero\n  tag_1\n  jumpi\n  0x00\n  dup1\n  revert\ntag_1:\n  pop\n  mload(0x40)\n  sub(codesize, bytecodeSize)\n  dup1\n  bytecodeSize\n  dup4\n  codecopy\n  dup2\n  dup2\n  add\n  0x40\n  mstore\n  dup2\n  add\n  swap1\n  tag_2\n  swap2\n  swap1\n  tag_3\n  jump\t// in\ntag_2:\n    /* \"contracts/MultisigWallet.sol\":1845:1846  0 */\n  0x00\n    /* \"contracts/MultisigWallet.sol\":1828:1835  _owners */\n  dup2\n    /* \"contracts/MultisigWallet.sol\":1828:1842  _owners.length */\n  mload\n    /* \"contracts/MultisigWallet.sol\":1828:1846  _owners.length > 0 */\n  gt\n    /* \"contracts/MultisigWallet.sol\":1820:1866  require(_owners.length > 0, \"Owners required\") */\n  tag_6\n  jumpi\n  mload(0x40)\n  0x08c379a000000000000000000000000000000000000000000000000000000000\n  dup2\n  mstore\n  0x04\n  add\n  tag_7\n  swap1\n  tag_8\n  jump\t// in\ntag_7:\n  mload(0x40)\n  dup1\n  swap2\n  sub\n  swap1\n  revert\ntag_6:\n    /* \"contracts/MultisigWallet.sol\":1882:1888  uint i */\n  0x00\n    /* \"contracts/MultisigWallet.sol\":1877:2163  for (uint i = 0; i < _owners.length; i++) {... */\ntag_9:\n    /* \"contracts/MultisigWallet.sol\":1898:1905  _owners */\n  dup2\n    /* \"contracts/MultisigWallet.sol\":1898:1912  _owners.length */\n  mload\n    /* \"contracts/MultisigWallet.sol\":1894:1895  i */\n  dup2\n    /* \"contracts/MultisigWallet.sol\":1894:1912  i < _owners.length */\n  lt\n    /* \"contracts/MultisigWallet.sol\":1877:2163  for (uint i = 0; i < _owners.length; i++) {... */\n  iszero\n  tag_10\n  jumpi\n    /* \"contracts/MultisigWallet.sol\":1933:1946  address owner */\n  0x00\n    /* \"contracts/MultisigWallet.sol\":1949:1956  _owners */\n  dup3\n    /* \"contracts/MultisigWallet.sol\":1957:1958  i */\n  dup3\n    /* \"contracts/MultisigWallet.sol\":1949:1959  _owners[i] */\n  dup2\n  mload\n  dup2\n  lt\n  tag_12\n  jumpi\n  tag_13\n  tag_14\n  jump\t// in\ntag_13:\ntag_12:\n  0x20\n  mul\n  0x20\n  add\n  add\n  mload\n    /* \"contracts/MultisigWallet.sol\":1933:1959  address owner = _owners[i] */\n  swap1\n  pop\n    /* \"contracts/MultisigWallet.sol\":1998:1999  0 */\n  0x00\n    /* \"contracts/MultisigWallet.sol\":1981:2000  owner != address(0) */\n  0xffffffffffffffffffffffffffffffffffffffff\n  and\n    /* \"contracts/MultisigWallet.sol\":1981:1986  owner */\n  dup2\n    /* \"contracts/MultisigWallet.sol\":1981:2000  owner != address(0) */\n  0xffffffffffffffffffffffffffffffffffffffff\n  and\n  sub\n    /* \"contracts/MultisigWallet.sol\":1973:2026  require(owner != address(0), \"Invalid owner address\") */\n  tag_15\n  jumpi\n  mload(0x40)\n  0x08c379a000000000000000000000000000000000000000000000000000000000\n  dup2\n  mstore\n  0x04\n  add\n  tag_16\n  swap1\n  tag_17\n  jump\t// in\ntag_16:\n  mload(0x40)\n  dup1\n  swap2\n  sub\n  swap1\n  revert\ntag_15:\n    /* \"contracts/MultisigWallet.sol\":2049:2056  isOwner */\n  0x01\n    /* \"contracts/MultisigWallet.sol\":2049:2063  isOwner[owner] */\n  0x00\n    /* \"contracts/MultisigWallet.sol\":2057:2062  owner */\n  dup3\n    /* \"contracts/MultisigWallet.sol\":2049:2063  isOwner[owner] */\n  0xffffffffffffffffffffffffffffffffffffffff\n  and\n  0xffffffffffffffffffffffffffffffffffffffff\n  and\n  dup2\n  mstore\n  0x20\n  add\n  swap1\n  dup2\n  mstore\n  0x20\n  add\n  0x00\n  keccak256\n  0x00\n  swap1\n  sload\n  swap1\n  0x0100\n  exp\n  swap1\n  div\n  0xff\n  and\n    /* \"contracts/MultisigWallet.sol\":2048:2063  !isOwner[owner] */\n  iszero\n    /* \"contracts/MultisigWallet.sol\":2040:2084  require(!isOwner[owner], \"Owner not unique\") */\n  tag_18\n  jumpi\n  mload(0x40)\n  0x08c379a000000000000000000000000000000000000000000000000000000000\n  dup2\n  mstore\n  0x04\n  add\n  tag_19\n  swap1\n  tag_20\n  jump\t// in\ntag_19:\n  mload(0x40)\n  dup1\n  swap2\n  sub\n  swap1\n  revert\ntag_18:\n    /* \"contracts/MultisigWallet.sol\":2115:2119  true */\n  0x01\n    /* \"contracts/MultisigWallet.sol\":2098:2105  isOwner */\n  dup1\n    /* \"contracts/MultisigWallet.sol\":2098:2112  isOwner[owner] */\n  0x00\n    /* \"contracts/MultisigWallet.sol\":2106:2111  owner */\n  dup4\n    /* \"contracts/MultisigWallet.sol\":2098:2112  isOwner[owner] */\n  0xffffffffffffffffffffffffffffffffffffffff\n  and\n  0xffffffffffffffffffffffffffffffffffffffff\n  and\n  dup2\n  mstore\n  0x20\n  add\n  swap1\n  dup2\n  mstore\n  0x20\n  add\n  0x00\n  keccak256\n  0x00\n    /* \"contracts/MultisigWallet.sol\":2098:2119  isOwner[owner] = true */\n  0x0100\n  exp\n  dup2\n  sload\n  dup2\n  0xff\n  mul\n  not\n  and\n  swap1\n  dup4\n  iszero\n  iszero\n  mul\n  or\n  swap1\n  sstore\n  pop\n    /* \"contracts/MultisigWallet.sol\":2134:2140  owners */\n  0x00\n    /* \"contracts/MultisigWallet.sol\":2146:2151  owner */\n  dup2\n    /* \"contracts/MultisigWallet.sol\":2134:2152  owners.push(owner) */\n  swap1\n  dup1\n  0x01\n  dup2\n  sload\n  add\n  dup1\n  dup3\n  sstore\n  dup1\n  swap2\n  pop\n  pop\n  0x01\n  swap1\n  sub\n  swap1\n  0x00\n  mstore\n  keccak256(0x00, 0x20)\n  add\n  0x00\n  swap1\n  swap2\n  swap1\n  swap2\n  swap1\n  swap2\n  0x0100\n  exp\n  dup2\n  sload\n  dup2\n  0xffffffffffffffffffffffffffffffffffffffff\n  mul\n  not\n  and\n  swap1\n  dup4\n  0xffffffffffffffffffffffffffffffffffffffff\n  and\n  mul\n  or\n  swap1\n  sstore\n  pop\n    /* \"contracts/MultisigWallet.sol\":1919:2163  {... */\n  pop\n    /* \"contracts/MultisigWallet.sol\":1914:1917  i++ */\n  dup1\n  dup1\n  0x01\n  add\n  swap2\n  pop\n  pop\n    /* \"contracts/MultisigWallet.sol\":1877:2163  for (uint i = 0; i < _owners.length; i++) {... */\n  jump(tag_9)\ntag_10:\n  pop\n    /* \"contracts/MultisigWallet.sol\":2214:2215  1 */\n  0x01\n    /* \"contracts/MultisigWallet.sol\":2210:2211  2 */\n  0x02\n    /* \"contracts/MultisigWallet.sol\":2194:2200  owners */\n  0x00\n    /* \"contracts/MultisigWallet.sol\":2194:2207  owners.length */\n  dup1\n  sload\n  swap1\n  pop\n    /* \"contracts/MultisigWallet.sol\":2194:2211  owners.length / 2 */\n  tag_22\n  swap2\n  swap1\n  tag_23\n  jump\t// in\ntag_22:\n    /* \"contracts/MultisigWallet.sol\":2194:2215  owners.length / 2 + 1 */\n  tag_24\n  swap2\n  swap1\n  tag_25\n  jump\t// in\ntag_24:\n    /* \"contracts/MultisigWallet.sol\":2173:2191  requiredSignatures */\n  0x02\n    /* \"contracts/MultisigWallet.sol\":2173:2215  requiredSignatures = owners.length / 2 + 1 */\n  dup2\n  swap1\n  sstore\n  pop\n    /* \"contracts/MultisigWallet.sol\":1772:2222  constructor(address[] memory _owners) {... */\n  pop\n    /* \"contracts/MultisigWallet.sol\":57:5831  contract MultisigWallet {... */\n  jump(tag_26)\n    /* \"#utility.yul\":7:82   */\ntag_27:\n    /* \"#utility.yul\":40:46   */\n  0x00\n    /* \"#utility.yul\":73:75   */\n  0x40\n    /* \"#utility.yul\":67:76   */\n  mload\n    /* \"#utility.yul\":57:76   */\n  swap1\n  pop\n    /* \"#utility.yul\":7:82   */\n  swap1\n  jump\t// out\n    /* \"#utility.yul\":88:205   */\ntag_28:\n    /* \"#utility.yul\":197:198   */\n  0x00\n    /* \"#utility.yul\":194:195   */\n  dup1\n    /* \"#utility.yul\":187:199   */\n  revert\n    /* \"#utility.yul\":211:328   */\ntag_29:\n    /* \"#utility.yul\":320:321   */\n  0x00\n    /* \"#utility.yul\":317:318   */\n  dup1\n    /* \"#utility.yul\":310:322   */\n  revert\n    /* \"#utility.yul\":334:451   */\ntag_30:\n    /* \"#utility.yul\":443:444   */\n  0x00\n    /* \"#utility.yul\":440:441   */\n  dup1\n    /* \"#utility.yul\":433:445   */\n  revert\n    /* \"#utility.yul\":457:559   */\ntag_31:\n    /* \"#utility.yul\":498:504   */\n  0x00\n    /* \"#utility.yul\":549:551   */\n  0x1f\n    /* \"#utility.yul\":545:552   */\n  not\n    /* \"#utility.yul\":540:542   */\n  0x1f\n    /* \"#utility.yul\":533:538   */\n  dup4\n    /* \"#utility.yul\":529:543   */\n  add\n    /* \"#utility.yul\":525:553   */\n  and\n    /* \"#utility.yul\":515:553   */\n  swap1\n  pop\n    /* \"#utility.yul\":457:559   */\n  swap2\n  swap1\n  pop\n  jump\t// out\n    /* \"#utility.yul\":565:745   */\ntag_32:\n    /* \"#utility.yul\":613:690   */\n  0x4e487b7100000000000000000000000000000000000000000000000000000000\n    /* \"#utility.yul\":610:611   */\n  0x00\n    /* \"#utility.yul\":603:691   */\n  mstore\n    /* \"#utility.yul\":710:714   */\n  0x41\n    /* \"#utility.yul\":707:708   */\n  0x04\n    /* \"#utility.yul\":700:715   */\n  mstore\n    /* \"#utility.yul\":734:738   */\n  0x24\n    /* \"#utility.yul\":731:732   */\n  0x00\n    /* \"#utility.yul\":724:739   */\n  revert\n    /* \"#utility.yul\":751:1032   */\ntag_33:\n    /* \"#utility.yul\":834:861   */\n  tag_61\n    /* \"#utility.yul\":856:860   */\n  dup3\n    /* \"#utility.yul\":834:861   */\n  tag_31\n  jump\t// in\ntag_61:\n    /* \"#utility.yul\":826:832   */\n  dup2\n    /* \"#utility.yul\":822:862   */\n  add\n    /* \"#utility.yul\":964:970   */\n  dup2\n    /* \"#utility.yul\":952:962   */\n  dup2\n    /* \"#utility.yul\":949:971   */\n  lt\n    /* \"#utility.yul\":928:946   */\n  0xffffffffffffffff\n    /* \"#utility.yul\":916:926   */\n  dup3\n    /* \"#utility.yul\":913:947   */\n  gt\n    /* \"#utility.yul\":910:972   */\n  or\n    /* \"#utility.yul\":907:995   */\n  iszero\n  tag_62\n  jumpi\n    /* \"#utility.yul\":975:993   */\n  tag_63\n  tag_32\n  jump\t// in\ntag_63:\n    /* \"#utility.yul\":907:995   */\ntag_62:\n    /* \"#utility.yul\":1015:1025   */\n  dup1\n    /* \"#utility.yul\":1011:1013   */\n  0x40\n    /* \"#utility.yul\":1004:1026   */\n  mstore\n    /* \"#utility.yul\":794:1032   */\n  pop\n    /* \"#utility.yul\":751:1032   */\n  pop\n  pop\n  jump\t// out\n    /* \"#utility.yul\":1038:1167   */\ntag_34:\n    /* \"#utility.yul\":1072:1078   */\n  0x00\n    /* \"#utility.yul\":1099:1119   */\n  tag_65\n  tag_27\n  jump\t// in\ntag_65:\n    /* \"#utility.yul\":1089:1119   */\n  swap1\n  pop\n    /* \"#utility.yul\":1128:1161   */\n  tag_66\n    /* \"#utility.yul\":1156:1160   */\n  dup3\n    /* \"#utility.yul\":1148:1154   */\n  dup3\n    /* \"#utility.yul\":1128:1161   */\n  tag_33\n  jump\t// in\ntag_66:\n    /* \"#utility.yul\":1038:1167   */\n  swap2\n  swap1\n  pop\n  jump\t// out\n    /* \"#utility.yul\":1173:1484   */\ntag_35:\n    /* \"#utility.yul\":1250:1254   */\n  0x00\n    /* \"#utility.yul\":1340:1358   */\n  0xffffffffffffffff\n    /* \"#utility.yul\":1332:1338   */\n  dup3\n    /* \"#utility.yul\":1329:1359   */\n  gt\n    /* \"#utility.yul\":1326:1382   */\n  iszero\n  tag_68\n  jumpi\n    /* \"#utility.yul\":1362:1380   */\n  tag_69\n  tag_32\n  jump\t// in\ntag_69:\n    /* \"#utility.yul\":1326:1382   */\ntag_68:\n    /* \"#utility.yul\":1412:1416   */\n  0x20\n    /* \"#utility.yul\":1404:1410   */\n  dup3\n    /* \"#utility.yul\":1400:1417   */\n  mul\n    /* \"#utility.yul\":1392:1417   */\n  swap1\n  pop\n    /* \"#utility.yul\":1472:1476   */\n  0x20\n    /* \"#utility.yul\":1466:1470   */\n  dup2\n    /* \"#utility.yul\":1462:1477   */\n  add\n    /* \"#utility.yul\":1454:1477   */\n  swap1\n  pop\n    /* \"#utility.yul\":1173:1484   */\n  swap2\n  swap1\n  pop\n  jump\t// out\n    /* \"#utility.yul\":1490:1607   */\ntag_36:\n    /* \"#utility.yul\":1599:1600   */\n  0x00\n    /* \"#utility.yul\":1596:1597   */\n  dup1\n    /* \"#utility.yul\":1589:1601   */\n  revert\n    /* \"#utility.yul\":1613:1739   */\ntag_37:\n    /* \"#utility.yul\":1650:1657   */\n  0x00\n    /* \"#utility.yul\":1690:1732   */\n  0xffffffffffffffffffffffffffffffffffffffff\n    /* \"#utility.yul\":1683:1688   */\n  dup3\n    /* \"#utility.yul\":1679:1733   */\n  and\n    /* \"#utility.yul\":1668:1733   */\n  swap1\n  pop\n    /* \"#utility.yul\":1613:1739   */\n  swap2\n  swap1\n  pop\n  jump\t// out\n    /* \"#utility.yul\":1745:1841   */\ntag_38:\n    /* \"#utility.yul\":1782:1789   */\n  0x00\n    /* \"#utility.yul\":1811:1835   */\n  tag_73\n    /* \"#utility.yul\":1829:1834   */\n  dup3\n    /* \"#utility.yul\":1811:1835   */\n  tag_37\n  jump\t// in\ntag_73:\n    /* \"#utility.yul\":1800:1835   */\n  swap1\n  pop\n    /* \"#utility.yul\":1745:1841   */\n  swap2\n  swap1\n  pop\n  jump\t// out\n    /* \"#utility.yul\":1847:1969   */\ntag_39:\n    /* \"#utility.yul\":1920:1944   */\n  tag_75\n    /* \"#utility.yul\":1938:1943   */\n  dup2\n    /* \"#utility.yul\":1920:1944   */\n  tag_38\n  jump\t// in\ntag_75:\n    /* \"#utility.yul\":1913:1918   */\n  dup2\n    /* \"#utility.yul\":1910:1945   */\n  eq\n    /* \"#utility.yul\":1900:1963   */\n  tag_76\n  jumpi\n    /* \"#utility.yul\":1959:1960   */\n  0x00\n    /* \"#utility.yul\":1956:1957   */\n  dup1\n    /* \"#utility.yul\":1949:1961   */\n  revert\n    /* \"#utility.yul\":1900:1963   */\ntag_76:\n    /* \"#utility.yul\":1847:1969   */\n  pop\n  jump\t// out\n    /* \"#utility.yul\":1975:2118   */\ntag_40:\n    /* \"#utility.yul\":2032:2037   */\n  0x00\n    /* \"#utility.yul\":2063:2069   */\n  dup2\n    /* \"#utility.yul\":2057:2070   */\n  mload\n    /* \"#utility.yul\":2048:2070   */\n  swap1\n  pop\n    /* \"#utility.yul\":2079:2112   */\n  tag_78\n    /* \"#utility.yul\":2106:2111   */\n  dup2\n    /* \"#utility.yul\":2079:2112   */\n  tag_39\n  jump\t// in\ntag_78:\n    /* \"#utility.yul\":1975:2118   */\n  swap3\n  swap2\n  pop\n  pop\n  jump\t// out\n    /* \"#utility.yul\":2141:2873   */\ntag_41:\n    /* \"#utility.yul\":2248:2253   */\n  0x00\n    /* \"#utility.yul\":2273:2354   */\n  tag_80\n    /* \"#utility.yul\":2289:2353   */\n  tag_81\n    /* \"#utility.yul\":2346:2352   */\n  dup5\n    /* \"#utility.yul\":2289:2353   */\n  tag_35\n  jump\t// in\ntag_81:\n    /* \"#utility.yul\":2273:2354   */\n  tag_34\n  jump\t// in\ntag_80:\n    /* \"#utility.yul\":2264:2354   */\n  swap1\n  pop\n    /* \"#utility.yul\":2374:2379   */\n  dup1\n    /* \"#utility.yul\":2403:2409   */\n  dup4\n    /* \"#utility.yul\":2396:2401   */\n  dup3\n    /* \"#utility.yul\":2389:2410   */\n  mstore\n    /* \"#utility.yul\":2437:2441   */\n  0x20\n    /* \"#utility.yul\":2430:2435   */\n  dup3\n    /* \"#utility.yul\":2426:2442   */\n  add\n    /* \"#utility.yul\":2419:2442   */\n  swap1\n  pop\n    /* \"#utility.yul\":2490:2494   */\n  0x20\n    /* \"#utility.yul\":2482:2488   */\n  dup5\n    /* \"#utility.yul\":2478:2495   */\n  mul\n    /* \"#utility.yul\":2470:2476   */\n  dup4\n    /* \"#utility.yul\":2466:2496   */\n  add\n    /* \"#utility.yul\":2519:2522   */\n  dup6\n    /* \"#utility.yul\":2511:2517   */\n  dup2\n    /* \"#utility.yul\":2508:2523   */\n  gt\n    /* \"#utility.yul\":2505:2627   */\n  iszero\n  tag_82\n  jumpi\n    /* \"#utility.yul\":2538:2617   */\n  tag_83\n  tag_36\n  jump\t// in\ntag_83:\n    /* \"#utility.yul\":2505:2627   */\ntag_82:\n    /* \"#utility.yul\":2653:2659   */\n  dup4\n    /* \"#utility.yul\":2636:2867   */\ntag_84:\n    /* \"#utility.yul\":2670:2676   */\n  dup2\n    /* \"#utility.yul\":2665:2668   */\n  dup2\n    /* \"#utility.yul\":2662:2677   */\n  lt\n    /* \"#utility.yul\":2636:2867   */\n  iszero\n  tag_86\n  jumpi\n    /* \"#utility.yul\":2745:2748   */\n  dup1\n    /* \"#utility.yul\":2774:2822   */\n  tag_87\n    /* \"#utility.yul\":2818:2821   */\n  dup9\n    /* \"#utility.yul\":2806:2816   */\n  dup3\n    /* \"#utility.yul\":2774:2822   */\n  tag_40\n  jump\t// in\ntag_87:\n    /* \"#utility.yul\":2769:2772   */\n  dup5\n    /* \"#utility.yul\":2762:2823   */\n  mstore\n    /* \"#utility.yul\":2852:2856   */\n  0x20\n    /* \"#utility.yul\":2847:2850   */\n  dup5\n    /* \"#utility.yul\":2843:2857   */\n  add\n    /* \"#utility.yul\":2836:2857   */\n  swap4\n  pop\n    /* \"#utility.yul\":2712:2867   */\n  pop\n    /* \"#utility.yul\":2696:2700   */\n  0x20\n    /* \"#utility.yul\":2691:2694   */\n  dup2\n    /* \"#utility.yul\":2687:2701   */\n  add\n    /* \"#utility.yul\":2680:2701   */\n  swap1\n  pop\n    /* \"#utility.yul\":2636:2867   */\n  jump(tag_84)\ntag_86:\n    /* \"#utility.yul\":2640:2661   */\n  pop\n    /* \"#utility.yul\":2254:2873   */\n  pop\n  pop\n    /* \"#utility.yul\":2141:2873   */\n  swap4\n  swap3\n  pop\n  pop\n  pop\n  jump\t// out\n    /* \"#utility.yul\":2896:3281   */\ntag_42:\n    /* \"#utility.yul\":2978:2983   */\n  0x00\n    /* \"#utility.yul\":3027:3030   */\n  dup3\n    /* \"#utility.yul\":3020:3024   */\n  0x1f\n    /* \"#utility.yul\":3012:3018   */\n  dup4\n    /* \"#utility.yul\":3008:3025   */\n  add\n    /* \"#utility.yul\":3004:3031   */\n  slt\n    /* \"#utility.yul\":2994:3116   */\n  tag_89\n  jumpi\n    /* \"#utility.yul\":3035:3114   */\n  tag_90\n  tag_30\n  jump\t// in\ntag_90:\n    /* \"#utility.yul\":2994:3116   */\ntag_89:\n    /* \"#utility.yul\":3145:3151   */\n  dup2\n    /* \"#utility.yul\":3139:3152   */\n  mload\n    /* \"#utility.yul\":3170:3275   */\n  tag_91\n    /* \"#utility.yul\":3271:3274   */\n  dup5\n    /* \"#utility.yul\":3263:3269   */\n  dup3\n    /* \"#utility.yul\":3256:3260   */\n  0x20\n    /* \"#utility.yul\":3248:3254   */\n  dup7\n    /* \"#utility.yul\":3244:3261   */\n  add\n    /* \"#utility.yul\":3170:3275   */\n  tag_41\n  jump\t// in\ntag_91:\n    /* \"#utility.yul\":3161:3275   */\n  swap2\n  pop\n    /* \"#utility.yul\":2984:3281   */\n  pop\n    /* \"#utility.yul\":2896:3281   */\n  swap3\n  swap2\n  pop\n  pop\n  jump\t// out\n    /* \"#utility.yul\":3287:3841   */\ntag_3:\n    /* \"#utility.yul\":3382:3388   */\n  0x00\n    /* \"#utility.yul\":3431:3433   */\n  0x20\n    /* \"#utility.yul\":3419:3428   */\n  dup3\n    /* \"#utility.yul\":3410:3417   */\n  dup5\n    /* \"#utility.yul\":3406:3429   */\n  sub\n    /* \"#utility.yul\":3402:3434   */\n  slt\n    /* \"#utility.yul\":3399:3518   */\n  iszero\n  tag_93\n  jumpi\n    /* \"#utility.yul\":3437:3516   */\n  tag_94\n  tag_28\n  jump\t// in\ntag_94:\n    /* \"#utility.yul\":3399:3518   */\ntag_93:\n    /* \"#utility.yul\":3578:3579   */\n  0x00\n    /* \"#utility.yul\":3567:3576   */\n  dup3\n    /* \"#utility.yul\":3563:3580   */\n  add\n    /* \"#utility.yul\":3557:3581   */\n  mload\n    /* \"#utility.yul\":3608:3626   */\n  0xffffffffffffffff\n    /* \"#utility.yul\":3600:3606   */\n  dup2\n    /* \"#utility.yul\":3597:3627   */\n  gt\n    /* \"#utility.yul\":3594:3711   */\n  iszero\n  tag_95\n  jumpi\n    /* \"#utility.yul\":3630:3709   */\n  tag_96\n  tag_29\n  jump\t// in\ntag_96:\n    /* \"#utility.yul\":3594:3711   */\ntag_95:\n    /* \"#utility.yul\":3735:3824   */\n  tag_97\n    /* \"#utility.yul\":3816:3823   */\n  dup5\n    /* \"#utility.yul\":3807:3813   */\n  dup3\n    /* \"#utility.yul\":3796:3805   */\n  dup6\n    /* \"#utility.yul\":3792:3814   */\n  add\n    /* \"#utility.yul\":3735:3824   */\n  tag_42\n  jump\t// in\ntag_97:\n    /* \"#utility.yul\":3725:3824   */\n  swap2\n  pop\n    /* \"#utility.yul\":3528:3834   */\n  pop\n    /* \"#utility.yul\":3287:3841   */\n  swap3\n  swap2\n  pop\n  pop\n  jump\t// out\n    /* \"#utility.yul\":3847:4016   */\ntag_43:\n    /* \"#utility.yul\":3931:3942   */\n  0x00\n    /* \"#utility.yul\":3965:3971   */\n  dup3\n    /* \"#utility.yul\":3960:3963   */\n  dup3\n    /* \"#utility.yul\":3953:3972   */\n  mstore\n    /* \"#utility.yul\":4005:4009   */\n  0x20\n    /* \"#utility.yul\":4000:4003   */\n  dup3\n    /* \"#utility.yul\":3996:4010   */\n  add\n    /* \"#utility.yul\":3981:4010   */\n  swap1\n  pop\n    /* \"#utility.yul\":3847:4016   */\n  swap3\n  swap2\n  pop\n  pop\n  jump\t// out\n    /* \"#utility.yul\":4022:4187   */\ntag_44:\n    /* \"#utility.yul\":4162:4179   */\n  0x4f776e6572732072657175697265640000000000000000000000000000000000\n    /* \"#utility.yul\":4158:4159   */\n  0x00\n    /* \"#utility.yul\":4150:4156   */\n  dup3\n    /* \"#utility.yul\":4146:4160   */\n  add\n    /* \"#utility.yul\":4139:4180   */\n  mstore\n    /* \"#utility.yul\":4022:4187   */\n  pop\n  jump\t// out\n    /* \"#utility.yul\":4193:4559   */\ntag_45:\n    /* \"#utility.yul\":4335:4338   */\n  0x00\n    /* \"#utility.yul\":4356:4423   */\n  tag_101\n    /* \"#utility.yul\":4420:4422   */\n  0x0f\n    /* \"#utility.yul\":4415:4418   */\n  dup4\n    /* \"#utility.yul\":4356:4423   */\n  tag_43\n  jump\t// in\ntag_101:\n    /* \"#utility.yul\":4349:4423   */\n  swap2\n  pop\n    /* \"#utility.yul\":4432:4525   */\n  tag_102\n    /* \"#utility.yul\":4521:4524   */\n  dup3\n    /* \"#utility.yul\":4432:4525   */\n  tag_44\n  jump\t// in\ntag_102:\n    /* \"#utility.yul\":4550:4552   */\n  0x20\n    /* \"#utility.yul\":4545:4548   */\n  dup3\n    /* \"#utility.yul\":4541:4553   */\n  add\n    /* \"#utility.yul\":4534:4553   */\n  swap1\n  pop\n    /* \"#utility.yul\":4193:4559   */\n  swap2\n  swap1\n  pop\n  jump\t// out\n    /* \"#utility.yul\":4565:4984   */\ntag_8:\n    /* \"#utility.yul\":4731:4735   */\n  0x00\n    /* \"#utility.yul\":4769:4771   */\n  0x20\n    /* \"#utility.yul\":4758:4767   */\n  dup3\n    /* \"#utility.yul\":4754:4772   */\n  add\n    /* \"#utility.yul\":4746:4772   */\n  swap1\n  pop\n    /* \"#utility.yul\":4818:4827   */\n  dup2\n    /* \"#utility.yul\":4812:4816   */\n  dup2\n    /* \"#utility.yul\":4808:4828   */\n  sub\n    /* \"#utility.yul\":4804:4805   */\n  0x00\n    /* \"#utility.yul\":4793:4802   */\n  dup4\n    /* \"#utility.yul\":4789:4806   */\n  add\n    /* \"#utility.yul\":4782:4829   */\n  mstore\n    /* \"#utility.yul\":4846:4977   */\n  tag_104\n    /* \"#utility.yul\":4972:4976   */\n  dup2\n    /* \"#utility.yul\":4846:4977   */\n  tag_45\n  jump\t// in\ntag_104:\n    /* \"#utility.yul\":4838:4977   */\n  swap1\n  pop\n    /* \"#utility.yul\":4565:4984   */\n  swap2\n  swap1\n  pop\n  jump\t// out\n    /* \"#utility.yul\":4990:5170   */\ntag_14:\n    /* \"#utility.yul\":5038:5115   */\n  0x4e487b7100000000000000000000000000000000000000000000000000000000\n    /* \"#utility.yul\":5035:5036   */\n  0x00\n    /* \"#utility.yul\":5028:5116   */\n  mstore\n    /* \"#utility.yul\":5135:5139   */\n  0x32\n    /* \"#utility.yul\":5132:5133   */\n  0x04\n    /* \"#utility.yul\":5125:5140   */\n  mstore\n    /* \"#utility.yul\":5159:5163   */\n  0x24\n    /* \"#utility.yul\":5156:5157   */\n  0x00\n    /* \"#utility.yul\":5149:5164   */\n  revert\n    /* \"#utility.yul\":5176:5347   */\ntag_46:\n    /* \"#utility.yul\":5316:5339   */\n  0x496e76616c6964206f776e657220616464726573730000000000000000000000\n    /* \"#utility.yul\":5312:5313   */\n  0x00\n    /* \"#utility.yul\":5304:5310   */\n  dup3\n    /* \"#utility.yul\":5300:5314   */\n  add\n    /* \"#utility.yul\":5293:5340   */\n  mstore\n    /* \"#utility.yul\":5176:5347   */\n  pop\n  jump\t// out\n    /* \"#utility.yul\":5353:5719   */\ntag_47:\n    /* \"#utility.yul\":5495:5498   */\n  0x00\n    /* \"#utility.yul\":5516:5583   */\n  tag_108\n    /* \"#utility.yul\":5580:5582   */\n  0x15\n    /* \"#utility.yul\":5575:5578   */\n  dup4\n    /* \"#utility.yul\":5516:5583   */\n  tag_43\n  jump\t// in\ntag_108:\n    /* \"#utility.yul\":5509:5583   */\n  swap2\n  pop\n    /* \"#utility.yul\":5592:5685   */\n  tag_109\n    /* \"#utility.yul\":5681:5684   */\n  dup3\n    /* \"#utility.yul\":5592:5685   */\n  tag_46\n  jump\t// in\ntag_109:\n    /* \"#utility.yul\":5710:5712   */\n  0x20\n    /* \"#utility.yul\":5705:5708   */\n  dup3\n    /* \"#utility.yul\":5701:5713   */\n  add\n    /* \"#utility.yul\":5694:5713   */\n  swap1\n  pop\n    /* \"#utility.yul\":5353:5719   */\n  swap2\n  swap1\n  pop\n  jump\t// out\n    /* \"#utility.yul\":5725:6144   */\ntag_17:\n    /* \"#utility.yul\":5891:5895   */\n  0x00\n    /* \"#utility.yul\":5929:5931   */\n  0x20\n    /* \"#utility.yul\":5918:5927   */\n  dup3\n    /* \"#utility.yul\":5914:5932   */\n  add\n    /* \"#utility.yul\":5906:5932   */\n  swap1\n  pop\n    /* \"#utility.yul\":5978:5987   */\n  dup2\n    /* \"#utility.yul\":5972:5976   */\n  dup2\n    /* \"#utility.yul\":5968:5988   */\n  sub\n    /* \"#utility.yul\":5964:5965   */\n  0x00\n    /* \"#utility.yul\":5953:5962   */\n  dup4\n    /* \"#utility.yul\":5949:5966   */\n  add\n    /* \"#utility.yul\":5942:5989   */\n  mstore\n    /* \"#utility.yul\":6006:6137   */\n  tag_111\n    /* \"#utility.yul\":6132:6136   */\n  dup2\n    /* \"#utility.yul\":6006:6137   */\n  tag_47\n  jump\t// in\ntag_111:\n    /* \"#utility.yul\":5998:6137   */\n  swap1\n  pop\n    /* \"#utility.yul\":5725:6144   */\n  swap2\n  swap1\n  pop\n  jump\t// out\n    /* \"#utility.yul\":6150:6316   */\ntag_48:\n    /* \"#utility.yul\":6290:6308   */\n  0x4f776e6572206e6f7420756e6971756500000000000000000000000000000000\n    /* \"#utility.yul\":6286:6287   */\n  0x00\n    /* \"#utility.yul\":6278:6284   */\n  dup3\n    /* \"#utility.yul\":6274:6288   */\n  add\n    /* \"#utility.yul\":6267:6309   */\n  mstore\n    /* \"#utility.yul\":6150:6316   */\n  pop\n  jump\t// out\n    /* \"#utility.yul\":6322:6688   */\ntag_49:\n    /* \"#utility.yul\":6464:6467   */\n  0x00\n    /* \"#utility.yul\":6485:6552   */\n  tag_114\n    /* \"#utility.yul\":6549:6551   */\n  0x10\n    /* \"#utility.yul\":6544:6547   */\n  dup4\n    /* \"#utility.yul\":6485:6552   */\n  tag_43\n  jump\t// in\ntag_114:\n    /* \"#utility.yul\":6478:6552   */\n  swap2\n  pop\n    /* \"#utility.yul\":6561:6654   */\n  tag_115\n    /* \"#utility.yul\":6650:6653   */\n  dup3\n    /* \"#utility.yul\":6561:6654   */\n  tag_48\n  jump\t// in\ntag_115:\n    /* \"#utility.yul\":6679:6681   */\n  0x20\n    /* \"#utility.yul\":6674:6677   */\n  dup3\n    /* \"#utility.yul\":6670:6682   */\n  add\n    /* \"#utility.yul\":6663:6682   */\n  swap1\n  pop\n    /* \"#utility.yul\":6322:6688   */\n  swap2\n  swap1\n  pop\n  jump\t// out\n    /* \"#utility.yul\":6694:7113   */\ntag_20:\n    /* \"#utility.yul\":6860:6864   */\n  0x00\n    /* \"#utility.yul\":6898:6900   */\n  0x20\n    /* \"#utility.yul\":6887:6896   */\n  dup3\n    /* \"#utility.yul\":6883:6901   */\n  add\n    /* \"#utility.yul\":6875:6901   */\n  swap1\n  pop\n    /* \"#utility.yul\":6947:6956   */\n  dup2\n    /* \"#utility.yul\":6941:6945   */\n  dup2\n    /* \"#utility.yul\":6937:6957   */\n  sub\n    /* \"#utility.yul\":6933:6934   */\n  0x00\n    /* \"#utility.yul\":6922:6931   */\n  dup4\n    /* \"#utility.yul\":6918:6935   */\n  add\n    /* \"#utility.yul\":6911:6958   */\n  mstore\n    /* \"#utility.yul\":6975:7106   */\n  tag_117\n    /* \"#utility.yul\":7101:7105   */\n  dup2\n    /* \"#utility.yul\":6975:7106   */\n  tag_49\n  jump\t// in\ntag_117:\n    /* \"#utility.yul\":6967:7106   */\n  swap1\n  pop\n    /* \"#utility.yul\":6694:7113   */\n  swap2\n  swap1\n  pop\n  jump\t// out\n    /* \"#utility.yul\":7119:7196   */\ntag_50:\n    /* \"#utility.yul\":7156:7163   */\n  0x00\n    /* \"#utility.yul\":7185:7190   */\n  dup2\n    /* \"#utility.yul\":7174:7190   */\n  swap1\n  pop\n    /* \"#utility.yul\":7119:7196   */\n  swap2\n  swap1\n  pop\n  jump\t// out\n    /* \"#utility.yul\":7202:7382   */\ntag_51:\n    /* \"#utility.yul\":7250:7327   */\n  0x4e487b7100000000000000000000000000000000000000000000000000000000\n    /* \"#utility.yul\":7247:7248   */\n  0x00\n    /* \"#utility.yul\":7240:7328   */\n  mstore\n    /* \"#utility.yul\":7347:7351   */\n  0x12\n    /* \"#utility.yul\":7344:7345   */\n  0x04\n    /* \"#utility.yul\":7337:7352   */\n  mstore\n    /* \"#utility.yul\":7371:7375   */\n  0x24\n    /* \"#utility.yul\":7368:7369   */\n  0x00\n    /* \"#utility.yul\":7361:7376   */\n  revert\n    /* \"#utility.yul\":7388:7568   */\ntag_52:\n    /* \"#utility.yul\":7436:7513   */\n  0x4e487b7100000000000000000000000000000000000000000000000000000000\n    /* \"#utility.yul\":7433:7434   */\n  0x00\n    /* \"#utility.yul\":7426:7514   */\n  mstore\n    /* \"#utility.yul\":7533:7537   */\n  0x11\n    /* \"#utility.yul\":7530:7531   */\n  0x04\n    /* \"#utility.yul\":7523:7538   */\n  mstore\n    /* \"#utility.yul\":7557:7561   */\n  0x24\n    /* \"#utility.yul\":7554:7555   */\n  0x00\n    /* \"#utility.yul\":7547:7562   */\n  revert\n    /* \"#utility.yul\":7574:7759   */\ntag_23:\n    /* \"#utility.yul\":7614:7615   */\n  0x00\n    /* \"#utility.yul\":7631:7651   */\n  tag_122\n    /* \"#utility.yul\":7649:7650   */\n  dup3\n    /* \"#utility.yul\":7631:7651   */\n  tag_50\n  jump\t// in\ntag_122:\n    /* \"#utility.yul\":7626:7651   */\n  swap2\n  pop\n    /* \"#utility.yul\":7665:7685   */\n  tag_123\n    /* \"#utility.yul\":7683:7684   */\n  dup4\n    /* \"#utility.yul\":7665:7685   */\n  tag_50\n  jump\t// in\ntag_123:\n    /* \"#utility.yul\":7660:7685   */\n  swap3\n  pop\n    /* \"#utility.yul\":7704:7705   */\n  dup3\n    /* \"#utility.yul\":7694:7729   */\n  tag_124\n  jumpi\n    /* \"#utility.yul\":7709:7727   */\n  tag_125\n  tag_51\n  jump\t// in\ntag_125:\n    /* \"#utility.yul\":7694:7729   */\ntag_124:\n    /* \"#utility.yul\":7751:7752   */\n  dup3\n    /* \"#utility.yul\":7748:7749   */\n  dup3\n    /* \"#utility.yul\":7744:7753   */\n  div\n    /* \"#utility.yul\":7739:7753   */\n  swap1\n  pop\n    /* \"#utility.yul\":7574:7759   */\n  swap3\n  swap2\n  pop\n  pop\n  jump\t// out\n    /* \"#utility.yul\":7765:7956   */\ntag_25:\n    /* \"#utility.yul\":7805:7808   */\n  0x00\n    /* \"#utility.yul\":7824:7844   */\n  tag_127\n    /* \"#utility.yul\":7842:7843   */\n  dup3\n    /* \"#utility.yul\":7824:7844   */\n  tag_50\n  jump\t// in\ntag_127:\n    /* \"#utility.yul\":7819:7844   */\n  swap2\n  pop\n    /* \"#utility.yul\":7858:7878   */\n  tag_128\n    /* \"#utility.yul\":7876:7877   */\n  dup4\n    /* \"#utility.yul\":7858:7878   */\n  tag_50\n  jump\t// in\ntag_128:\n    /* \"#utility.yul\":7853:7878   */\n  swap3\n  pop\n    /* \"#utility.yul\":7901:7902   */\n  dup3\n    /* \"#utility.yul\":7898:7899   */\n  dup3\n    /* \"#utility.yul\":7894:7903   */\n  add\n    /* \"#utility.yul\":7887:7903   */\n  swap1\n  pop\n    /* \"#utility.yul\":7922:7925   */\n  dup1\n    /* \"#utility.yul\":7919:7920   */\n  dup3\n    /* \"#utility.yul\":7916:7926   */\n  gt\n    /* \"#utility.yul\":7913:7949   */\n  iszero\n  tag_129\n  jumpi\n    /* \"#utility.yul\":7929:7947   */\n  tag_130\n  tag_52\n  jump\t// in\ntag_130:\n    /* \"#utility.yul\":7913:7949   */\ntag_129:\n    /* \"#utility.yul\":7765:7956   */\n  swap3\n  swap2\n  pop\n  pop\n  jump\t// out\n    /* \"contracts/MultisigWallet.sol\":57:5831  contract MultisigWallet {... */\ntag_26:\n  dataSize(sub_0)\n  dup1\n  dataOffset(sub_0)\n  0x00\n  codecopy\n  0x00\n  return\nstop\n\nsub_0: assembly {\n        /* \"contracts/MultisigWallet.sol\":57:5831  contract MultisigWallet {... */\n      mstore(0x40, 0x80)\n      jumpi(tag_1, lt(calldatasize, 0x04))\n      shr(0xe0, calldataload(0x00))\n      dup1\n      0x3411c81c\n      gt\n      tag_17\n      jumpi\n      dup1\n      0x9a1645f7\n      gt\n      tag_18\n      jumpi\n      dup1\n      0x9a1645f7\n      eq\n      tag_13\n      jumpi\n      dup1\n      0x9ace38c2\n      eq\n      tag_14\n      jumpi\n      dup1\n      0xa9496e75\n      eq\n      tag_15\n      jumpi\n      dup1\n      0xc01a8c84\n      eq\n      tag_16\n      jumpi\n      jump(tag_2)\n    tag_18:\n      dup1\n      0x3411c81c\n      eq\n      tag_10\n      jumpi\n      dup1\n      0x6e4e91b7\n      eq\n      tag_11\n      jumpi\n      dup1\n      0x8d068043\n      eq\n      tag_12\n      jumpi\n      jump(tag_2)\n    tag_17:\n      dup1\n      0x2d3fabd0\n      gt\n      tag_19\n      jumpi\n      dup1\n      0x2d3fabd0\n      eq\n      tag_6\n      jumpi\n      dup1\n      0x2f54bf6e\n      eq\n      tag_7\n      jumpi\n      dup1\n      0x33259df1\n      eq\n      tag_8\n      jumpi\n      dup1\n      0x33ea3dc8\n      eq\n      tag_9\n      jumpi\n      jump(tag_2)\n    tag_19:\n      dup1\n      0x025e7c27\n      eq\n      tag_3\n      jumpi\n      dup1\n      0x12065fe0\n      eq\n      tag_4\n      jumpi\n      dup1\n      0x27506f53\n      eq\n      tag_5\n      jumpi\n      jump(tag_2)\n    tag_1:\n      jumpi(tag_2, calldatasize)\n        /* \"contracts/MultisigWallet.sol\":2274:2284  msg.sender */\n      caller\n        /* \"contracts/MultisigWallet.sol\":2266:2296  Deposit(msg.sender, msg.value) */\n      0xffffffffffffffffffffffffffffffffffffffff\n      and\n      0xe1fffcc4923d04b559f4d29a8bfc6cda04eb5b0d3c460751c2402c5c5cc9109c\n        /* \"contracts/MultisigWallet.sol\":2286:2295  msg.value */\n      callvalue\n        /* \"contracts/MultisigWallet.sol\":2266:2296  Deposit(msg.sender, msg.value) */\n      mload(0x40)\n      tag_22\n      swap2\n      swap1\n      tag_23\n      jump\t// in\n    tag_22:\n      mload(0x40)\n      dup1\n      swap2\n      sub\n      swap1\n      log2\n        /* \"contracts/MultisigWallet.sol\":57:5831  contract MultisigWallet {... */\n      stop\n    tag_2:\n      0x00\n      dup1\n      revert\n        /* \"contracts/MultisigWallet.sol\":88:111  address[] public owners */\n    tag_3:\n      callvalue\n      dup1\n      iszero\n      tag_24\n      jumpi\n      0x00\n      dup1\n      revert\n    tag_24:\n      pop\n      tag_25\n      0x04\n      dup1\n      calldatasize\n      sub\n      dup2\n      add\n      swap1\n      tag_26\n      swap2\n      swap1\n      tag_27\n      jump\t// in\n    tag_26:\n      tag_28\n      jump\t// in\n    tag_25:\n      mload(0x40)\n      tag_29\n      swap2\n      swap1\n      tag_30\n      jump\t// in\n    tag_29:\n      mload(0x40)\n      dup1\n      swap2\n      sub\n      swap1\n      return\n        /* \"contracts/MultisigWallet.sol\":2309:2399  function getBalance() public view returns (uint) {... */\n    tag_4:\n      callvalue\n      dup1\n      iszero\n      tag_31\n      jumpi\n      0x00\n      dup1\n      revert\n    tag_31:\n      pop\n      tag_32\n      tag_33\n      jump\t// in\n    tag_32:\n      mload(0x40)\n      tag_34\n      swap2\n      swap1\n      tag_23\n      jump\t// in\n    tag_34:\n      mload(0x40)\n      dup1\n      swap2\n      sub\n      swap1\n      return\n        /* \"contracts/MultisigWallet.sol\":5723:5828  function getAllTransactions() public view returns (Transaction[] memory) {... */\n    tag_5:\n      callvalue\n      dup1\n      iszero\n      tag_35\n      jumpi\n      0x00\n      dup1\n      revert\n    tag_35:\n      pop\n      tag_36\n      tag_37\n      jump\t// in\n    tag_36:\n      mload(0x40)\n      tag_38\n      swap2\n      swap1\n      tag_39\n      jump\t// in\n    tag_38:\n      mload(0x40)\n      dup1\n      swap2\n      sub\n      swap1\n      return\n        /* \"contracts/MultisigWallet.sol\":4304:5717  function confirmOwnerChangeRequest(uint _requestIndex) public onlyOwner {... */\n    tag_6:\n      callvalue\n      dup1\n      iszero\n      tag_40\n      jumpi\n      0x00\n      dup1\n      revert\n    tag_40:\n      pop\n      tag_41\n      0x04\n      dup1\n      calldatasize\n      sub\n      dup2\n      add\n      swap1\n      tag_42\n      swap2\n      swap1\n      tag_27\n      jump\t// in\n    tag_42:\n      tag_43\n      jump\t// in\n    tag_41:\n      stop\n        /* \"contracts/MultisigWallet.sol\":117:156  mapping(address => bool) public isOwner */\n    tag_7:\n      callvalue\n      dup1\n      iszero\n      tag_44\n      jumpi\n      0x00\n      dup1\n      revert\n    tag_44:\n      pop\n      tag_45\n      0x04\n      dup1\n      calldatasize\n      sub\n      dup2\n      add\n      swap1\n      tag_46\n      swap2\n      swap1\n      tag_47\n      jump\t// in\n    tag_46:\n      tag_48\n      jump\t// in\n    tag_45:\n      mload(0x40)\n      tag_49\n      swap2\n      swap1\n      tag_50\n      jump\t// in\n    tag_49:\n      mload(0x40)\n      dup1\n      swap2\n      sub\n      swap1\n      return\n        /* \"contracts/MultisigWallet.sol\":550:597  OwnerChangeRequest[] public ownerChangeRequests */\n    tag_8:\n      callvalue\n      dup1\n      iszero\n      tag_51\n      jumpi\n      0x00\n      dup1\n      revert\n    tag_51:\n      pop\n      tag_52\n      0x04\n      dup1\n      calldatasize\n      sub\n      dup2\n      add\n      swap1\n      tag_53\n      swap2\n      swap1\n      tag_27\n      jump\t// in\n    tag_53:\n      tag_54\n      jump\t// in\n    tag_52:\n      mload(0x40)\n      tag_55\n      swap5\n      swap4\n      swap3\n      swap2\n      swap1\n      tag_56\n      jump\t// in\n    tag_55:\n      mload(0x40)\n      dup1\n      swap2\n      sub\n      swap1\n      return\n        /* \"contracts/MultisigWallet.sol\":3385:3792  function getTransaction(uint _txIndex) public view returns (address to, uint value, bytes memory data, bool executed, uint confirmationsCount) {... */\n    tag_9:\n      callvalue\n      dup1\n      iszero\n      tag_57\n      jumpi\n      0x00\n      dup1\n      revert\n    tag_57:\n      pop\n      tag_58\n      0x04\n      dup1\n      calldatasize\n      sub\n      dup2\n      add\n      swap1\n      tag_59\n      swap2\n      swap1\n      tag_27\n      jump\t// in\n    tag_59:\n      tag_60\n      jump\t// in\n    tag_58:\n      mload(0x40)\n      tag_61\n      swap6\n      swap5\n      swap4\n      swap3\n      swap2\n      swap1\n      tag_62\n      jump\t// in\n    tag_61:\n      mload(0x40)\n      dup1\n      swap2\n      sub\n      swap1\n      return\n        /* \"contracts/MultisigWallet.sol\":361:423  mapping(uint => mapping(address => bool)) public confirmations */\n    tag_10:\n      callvalue\n      dup1\n      iszero\n      tag_63\n      jumpi\n      0x00\n      dup1\n      revert\n    tag_63:\n      pop\n      tag_64\n      0x04\n      dup1\n      calldatasize\n      sub\n      dup2\n      add\n      swap1\n      tag_65\n      swap2\n      swap1\n      tag_66\n      jump\t// in\n    tag_65:\n      tag_67\n      jump\t// in\n    tag_64:\n      mload(0x40)\n      tag_68\n      swap2\n      swap1\n      tag_50\n      jump\t// in\n    tag_68:\n      mload(0x40)\n      dup1\n      swap2\n      sub\n      swap1\n      return\n        /* \"contracts/MultisigWallet.sol\":3798:4298  function createOwnerChangeRequest(address _owner, bool _isAdding) public onlyOwner {... */\n    tag_11:\n      callvalue\n      dup1\n      iszero\n      tag_69\n      jumpi\n      0x00\n      dup1\n      revert\n    tag_69:\n      pop\n      tag_70\n      0x04\n      dup1\n      calldatasize\n      sub\n      dup2\n      add\n      swap1\n      tag_71\n      swap2\n      swap1\n      tag_72\n      jump\t// in\n    tag_71:\n      tag_73\n      jump\t// in\n    tag_70:\n      stop\n        /* \"contracts/MultisigWallet.sol\":162:192  uint public requiredSignatures */\n    tag_12:\n      callvalue\n      dup1\n      iszero\n      tag_74\n      jumpi\n      0x00\n      dup1\n      revert\n    tag_74:\n      pop\n      tag_75\n      tag_76\n      jump\t// in\n    tag_75:\n      mload(0x40)\n      tag_77\n      swap2\n      swap1\n      tag_23\n      jump\t// in\n    tag_77:\n      mload(0x40)\n      dup1\n      swap2\n      sub\n      swap1\n      return\n        /* \"contracts/MultisigWallet.sol\":603:676  mapping(uint => mapping(address => bool)) public ownerChangeConfirmations */\n    tag_13:\n      callvalue\n      dup1\n      iszero\n      tag_78\n      jumpi\n      0x00\n      dup1\n      revert\n    tag_78:\n      pop\n      tag_79\n      0x04\n      dup1\n      calldatasize\n      sub\n      dup2\n      add\n      swap1\n      tag_80\n      swap2\n      swap1\n      tag_66\n      jump\t// in\n    tag_80:\n      tag_81\n      jump\t// in\n    tag_79:\n      mload(0x40)\n      tag_82\n      swap2\n      swap1\n      tag_50\n      jump\t// in\n    tag_82:\n      mload(0x40)\n      dup1\n      swap2\n      sub\n      swap1\n      return\n        /* \"contracts/MultisigWallet.sol\":322:355  Transaction[] public transactions */\n    tag_14:\n      callvalue\n      dup1\n      iszero\n      tag_83\n      jumpi\n      0x00\n      dup1\n      revert\n    tag_83:\n      pop\n      tag_84\n      0x04\n      dup1\n      calldatasize\n      sub\n      dup2\n      add\n      swap1\n      tag_85\n      swap2\n      swap1\n      tag_27\n      jump\t// in\n    tag_85:\n      tag_86\n      jump\t// in\n    tag_84:\n      mload(0x40)\n      tag_87\n      swap6\n      swap5\n      swap4\n      swap3\n      swap2\n      swap1\n      tag_62\n      jump\t// in\n    tag_87:\n      mload(0x40)\n      dup1\n      swap2\n      sub\n      swap1\n      return\n        /* \"contracts/MultisigWallet.sol\":2405:2765  function createTransaction(address _to, uint _value, bytes memory _data) public onlyOwner {... */\n    tag_15:\n      callvalue\n      dup1\n      iszero\n      tag_88\n      jumpi\n      0x00\n      dup1\n      revert\n    tag_88:\n      pop\n      tag_89\n      0x04\n      dup1\n      calldatasize\n      sub\n      dup2\n      add\n      swap1\n      tag_90\n      swap2\n      swap1\n      tag_91\n      jump\t// in\n    tag_90:\n      tag_92\n      jump\t// in\n    tag_89:\n      stop\n        /* \"contracts/MultisigWallet.sol\":2771:3379  function confirmTransaction(uint _txIndex) public onlyOwner txExists(_txIndex) notExecuted(_txIndex) notConfirmed(_txIndex) {... */\n    tag_16:\n      callvalue\n      dup1\n      iszero\n      tag_93\n      jumpi\n      0x00\n      dup1\n      revert\n    tag_93:\n      pop\n      tag_94\n      0x04\n      dup1\n      calldatasize\n      sub\n      dup2\n      add\n      swap1\n      tag_95\n      swap2\n      swap1\n      tag_27\n      jump\t// in\n    tag_95:\n      tag_96\n      jump\t// in\n    tag_94:\n      stop\n        /* \"contracts/MultisigWallet.sol\":88:111  address[] public owners */\n    tag_28:\n      0x00\n      dup2\n      dup2\n      sload\n      dup2\n      lt\n      tag_97\n      jumpi\n      0x00\n      dup1\n      revert\n    tag_97:\n      swap1\n      0x00\n      mstore\n      keccak256(0x00, 0x20)\n      add\n      0x00\n      swap2\n      pop\n      sload\n      swap1\n      0x0100\n      exp\n      swap1\n      div\n      0xffffffffffffffffffffffffffffffffffffffff\n      and\n      dup2\n      jump\t// out\n        /* \"contracts/MultisigWallet.sol\":2309:2399  function getBalance() public view returns (uint) {... */\n    tag_33:\n        /* \"contracts/MultisigWallet.sol\":2352:2356  uint */\n      0x00\n        /* \"contracts/MultisigWallet.sol\":2371:2392  address(this).balance */\n      selfbalance\n        /* \"contracts/MultisigWallet.sol\":2364:2392  return address(this).balance */\n      swap1\n      pop\n        /* \"contracts/MultisigWallet.sol\":2309:2399  function getBalance() public view returns (uint) {... */\n      swap1\n      jump\t// out\n        /* \"contracts/MultisigWallet.sol\":5723:5828  function getAllTransactions() public view returns (Transaction[] memory) {... */\n    tag_37:\n        /* \"contracts/MultisigWallet.sol\":5774:5794  Transaction[] memory */\n      0x60\n        /* \"contracts/MultisigWallet.sol\":5809:5821  transactions */\n      0x03\n        /* \"contracts/MultisigWallet.sol\":5802:5821  return transactions */\n      dup1\n      sload\n      dup1\n      0x20\n      mul\n      0x20\n      add\n      mload(0x40)\n      swap1\n      dup2\n      add\n      0x40\n      mstore\n      dup1\n      swap3\n      swap2\n      swap1\n      dup2\n      dup2\n      mstore\n      0x20\n      add\n      0x00\n      swap1\n    tag_101:\n      dup3\n      dup3\n      lt\n      iszero\n      tag_102\n      jumpi\n      dup4\n      dup3\n      swap1\n      0x00\n      mstore\n      keccak256(0x00, 0x20)\n      swap1\n      0x05\n      mul\n      add\n      mload(0x40)\n      dup1\n      0xa0\n      add\n      0x40\n      mstore\n      swap1\n      dup2\n      0x00\n      dup3\n      add\n      0x00\n      swap1\n      sload\n      swap1\n      0x0100\n      exp\n      swap1\n      div\n      0xffffffffffffffffffffffffffffffffffffffff\n      and\n      0xffffffffffffffffffffffffffffffffffffffff\n      and\n      0xffffffffffffffffffffffffffffffffffffffff\n      and\n      dup2\n      mstore\n      0x20\n      add\n      0x01\n      dup3\n      add\n      sload\n      dup2\n      mstore\n      0x20\n      add\n      0x02\n      dup3\n      add\n      dup1\n      sload\n      tag_104\n      swap1\n      tag_105\n      jump\t// in\n    tag_104:\n      dup1\n      0x1f\n      add\n      0x20\n      dup1\n      swap2\n      div\n      mul\n      0x20\n      add\n      mload(0x40)\n      swap1\n      dup2\n      add\n      0x40\n      mstore\n      dup1\n      swap3\n      swap2\n      swap1\n      dup2\n      dup2\n      mstore\n      0x20\n      add\n      dup3\n      dup1\n      sload\n      tag_106\n      swap1\n      tag_105\n      jump\t// in\n    tag_106:\n      dup1\n      iszero\n      tag_107\n      jumpi\n      dup1\n      0x1f\n      lt\n      tag_108\n      jumpi\n      0x0100\n      dup1\n      dup4\n      sload\n      div\n      mul\n      dup4\n      mstore\n      swap2\n      0x20\n      add\n      swap2\n      jump(tag_107)\n    tag_108:\n      dup3\n      add\n      swap2\n      swap1\n      0x00\n      mstore\n      keccak256(0x00, 0x20)\n      swap1\n    tag_109:\n      dup2\n      sload\n      dup2\n      mstore\n      swap1\n      0x01\n      add\n      swap1\n      0x20\n      add\n      dup1\n      dup4\n      gt\n      tag_109\n      jumpi\n      dup3\n      swap1\n      sub\n      0x1f\n      and\n      dup3\n      add\n      swap2\n    tag_107:\n      pop\n      pop\n      pop\n      pop\n      pop\n      dup2\n      mstore\n      0x20\n      add\n      0x03\n      dup3\n      add\n      0x00\n      swap1\n      sload\n      swap1\n      0x0100\n      exp\n      swap1\n      div\n      0xff\n      and\n      iszero\n      iszero\n      iszero\n      iszero\n      dup2\n      mstore\n      0x20\n      add\n      0x04\n      dup3\n      add\n      sload\n      dup2\n      mstore\n      pop\n      pop\n      dup2\n      mstore\n      0x20\n      add\n      swap1\n      0x01\n      add\n      swap1\n      jump(tag_101)\n    tag_102:\n      pop\n      pop\n      pop\n      pop\n      swap1\n      pop\n        /* \"contracts/MultisigWallet.sol\":5723:5828  function getAllTransactions() public view returns (Transaction[] memory) {... */\n      swap1\n      jump\t// out\n        /* \"contracts/MultisigWallet.sol\":4304:5717  function confirmOwnerChangeRequest(uint _requestIndex) public onlyOwner {... */\n    tag_43:\n        /* \"contracts/MultisigWallet.sol\":1308:1315  isOwner */\n      0x01\n        /* \"contracts/MultisigWallet.sol\":1308:1327  isOwner[msg.sender] */\n      0x00\n        /* \"contracts/MultisigWallet.sol\":1316:1326  msg.sender */\n      caller\n        /* \"contracts/MultisigWallet.sol\":1308:1327  isOwner[msg.sender] */\n      0xffffffffffffffffffffffffffffffffffffffff\n      and\n      0xffffffffffffffffffffffffffffffffffffffff\n      and\n      dup2\n      mstore\n      0x20\n      add\n      swap1\n      dup2\n      mstore\n      0x20\n      add\n      0x00\n      keccak256\n      0x00\n      swap1\n      sload\n      swap1\n      0x0100\n      exp\n      swap1\n      div\n      0xff\n      and\n        /* \"contracts/MultisigWallet.sol\":1300:1344  require(isOwner[msg.sender], \"Not an owner\") */\n      tag_111\n      jumpi\n      mload(0x40)\n      0x08c379a000000000000000000000000000000000000000000000000000000000\n      dup2\n      mstore\n      0x04\n      add\n      tag_112\n      swap1\n      tag_113\n      jump\t// in\n    tag_112:\n      mload(0x40)\n      dup1\n      swap2\n      sub\n      swap1\n      revert\n    tag_111:\n        /* \"contracts/MultisigWallet.sol\":4410:4429  ownerChangeRequests */\n      0x05\n        /* \"contracts/MultisigWallet.sol\":4410:4436  ownerChangeRequests.length */\n      dup1\n      sload\n      swap1\n      pop\n        /* \"contracts/MultisigWallet.sol\":4394:4407  _requestIndex */\n      dup2\n        /* \"contracts/MultisigWallet.sol\":4394:4436  _requestIndex < ownerChangeRequests.length */\n      lt\n        /* \"contracts/MultisigWallet.sol\":4386:4463  require(_requestIndex < ownerChangeRequests.length, \"Request does not exist\") */\n      tag_115\n      jumpi\n      mload(0x40)\n      0x08c379a000000000000000000000000000000000000000000000000000000000\n      dup2\n      mstore\n      0x04\n      add\n      tag_116\n      swap1\n      tag_117\n      jump\t// in\n    tag_116:\n      mload(0x40)\n      dup1\n      swap2\n      sub\n      swap1\n      revert\n    tag_115:\n        /* \"contracts/MultisigWallet.sol\":4473:4507  OwnerChangeRequest storage request */\n      0x00\n        /* \"contracts/MultisigWallet.sol\":4510:4529  ownerChangeRequests */\n      0x05\n        /* \"contracts/MultisigWallet.sol\":4530:4543  _requestIndex */\n      dup3\n        /* \"contracts/MultisigWallet.sol\":4510:4544  ownerChangeRequests[_requestIndex] */\n      dup2\n      sload\n      dup2\n      lt\n      tag_118\n      jumpi\n      tag_119\n      tag_120\n      jump\t// in\n    tag_119:\n    tag_118:\n      swap1\n      0x00\n      mstore\n      keccak256(0x00, 0x20)\n      swap1\n      0x03\n      mul\n      add\n        /* \"contracts/MultisigWallet.sol\":4473:4544  OwnerChangeRequest storage request = ownerChangeRequests[_requestIndex] */\n      swap1\n      pop\n        /* \"contracts/MultisigWallet.sol\":4563:4570  request */\n      dup1\n        /* \"contracts/MultisigWallet.sol\":4563:4579  request.executed */\n      0x02\n      add\n      0x00\n      swap1\n      sload\n      swap1\n      0x0100\n      exp\n      swap1\n      div\n      0xff\n      and\n        /* \"contracts/MultisigWallet.sol\":4562:4579  !request.executed */\n      iszero\n        /* \"contracts/MultisigWallet.sol\":4554:4608  require(!request.executed, \"Request already executed\") */\n      tag_122\n      jumpi\n      mload(0x40)\n      0x08c379a000000000000000000000000000000000000000000000000000000000\n      dup2\n      mstore\n      0x04\n      add\n      tag_123\n      swap1\n      tag_124\n      jump\t// in\n    tag_123:\n      mload(0x40)\n      dup1\n      swap2\n      sub\n      swap1\n      revert\n    tag_122:\n        /* \"contracts/MultisigWallet.sol\":4627:4651  ownerChangeConfirmations */\n      0x06\n        /* \"contracts/MultisigWallet.sol\":4627:4666  ownerChangeConfirmations[_requestIndex] */\n      0x00\n        /* \"contracts/MultisigWallet.sol\":4652:4665  _requestIndex */\n      dup4\n        /* \"contracts/MultisigWallet.sol\":4627:4666  ownerChangeConfirmations[_requestIndex] */\n      dup2\n      mstore\n      0x20\n      add\n      swap1\n      dup2\n      mstore\n      0x20\n      add\n      0x00\n      keccak256\n        /* \"contracts/MultisigWallet.sol\":4627:4678  ownerChangeConfirmations[_requestIndex][msg.sender] */\n      0x00\n        /* \"contracts/MultisigWallet.sol\":4667:4677  msg.sender */\n      caller\n        /* \"contracts/MultisigWallet.sol\":4627:4678  ownerChangeConfirmations[_requestIndex][msg.sender] */\n      0xffffffffffffffffffffffffffffffffffffffff\n      and\n      0xffffffffffffffffffffffffffffffffffffffff\n      and\n      dup2\n      mstore\n      0x20\n      add\n      swap1\n      dup2\n      mstore\n      0x20\n      add\n      0x00\n      keccak256\n      0x00\n      swap1\n      sload\n      swap1\n      0x0100\n      exp\n      swap1\n      div\n      0xff\n      and\n        /* \"contracts/MultisigWallet.sol\":4626:4678  !ownerChangeConfirmations[_requestIndex][msg.sender] */\n      iszero\n        /* \"contracts/MultisigWallet.sol\":4618:4708  require(!ownerChangeConfirmations[_requestIndex][msg.sender], \"Request already confirmed\") */\n      tag_125\n      jumpi\n      mload(0x40)\n      0x08c379a000000000000000000000000000000000000000000000000000000000\n      dup2\n      mstore\n      0x04\n      add\n      tag_126\n      swap1\n      tag_127\n      jump\t// in\n    tag_126:\n      mload(0x40)\n      dup1\n      swap2\n      sub\n      swap1\n      revert\n    tag_125:\n        /* \"contracts/MultisigWallet.sol\":4773:4777  true */\n      0x01\n        /* \"contracts/MultisigWallet.sol\":4719:4743  ownerChangeConfirmations */\n      0x06\n        /* \"contracts/MultisigWallet.sol\":4719:4758  ownerChangeConfirmations[_requestIndex] */\n      0x00\n        /* \"contracts/MultisigWallet.sol\":4744:4757  _requestIndex */\n      dup5\n        /* \"contracts/MultisigWallet.sol\":4719:4758  ownerChangeConfirmations[_requestIndex] */\n      dup2\n      mstore\n      0x20\n      add\n      swap1\n      dup2\n      mstore\n      0x20\n      add\n      0x00\n      keccak256\n        /* \"contracts/MultisigWallet.sol\":4719:4770  ownerChangeConfirmations[_requestIndex][msg.sender] */\n      0x00\n        /* \"contracts/MultisigWallet.sol\":4759:4769  msg.sender */\n      caller\n        /* \"contracts/MultisigWallet.sol\":4719:4770  ownerChangeConfirmations[_requestIndex][msg.sender] */\n      0xffffffffffffffffffffffffffffffffffffffff\n      and\n      0xffffffffffffffffffffffffffffffffffffffff\n      and\n      dup2\n      mstore\n      0x20\n      add\n      swap1\n      dup2\n      mstore\n      0x20\n      add\n      0x00\n      keccak256\n      0x00\n        /* \"contracts/MultisigWallet.sol\":4719:4777  ownerChangeConfirmations[_requestIndex][msg.sender] = true */\n      0x0100\n      exp\n      dup2\n      sload\n      dup2\n      0xff\n      mul\n      not\n      and\n      swap1\n      dup4\n      iszero\n      iszero\n      mul\n      or\n      swap1\n      sstore\n      pop\n        /* \"contracts/MultisigWallet.sol\":4812:4813  1 */\n      0x01\n        /* \"contracts/MultisigWallet.sol\":4787:4794  request */\n      dup2\n        /* \"contracts/MultisigWallet.sol\":4787:4808  request.confirmations */\n      0x01\n      add\n      0x00\n        /* \"contracts/MultisigWallet.sol\":4787:4813  request.confirmations += 1 */\n      dup3\n      dup3\n      sload\n      tag_128\n      swap2\n      swap1\n      tag_129\n      jump\t// in\n    tag_128:\n      swap3\n      pop\n      pop\n      dup2\n      swap1\n      sstore\n      pop\n        /* \"contracts/MultisigWallet.sol\":4873:4883  msg.sender */\n      caller\n        /* \"contracts/MultisigWallet.sol\":4830:4884  OwnerChangeRequestConfirmed(_requestIndex, msg.sender) */\n      0xffffffffffffffffffffffffffffffffffffffff\n      and\n        /* \"contracts/MultisigWallet.sol\":4858:4871  _requestIndex */\n      dup3\n        /* \"contracts/MultisigWallet.sol\":4830:4884  OwnerChangeRequestConfirmed(_requestIndex, msg.sender) */\n      0x4e6b2f9f89753bbf282a9339c429ec93e3eda4fb3df050ac65448100fa72f9f2\n      mload(0x40)\n      mload(0x40)\n      dup1\n      swap2\n      sub\n      swap1\n      log3\n        /* \"contracts/MultisigWallet.sol\":4924:4942  requiredSignatures */\n      sload(0x02)\n        /* \"contracts/MultisigWallet.sol\":4899:4906  request */\n      dup2\n        /* \"contracts/MultisigWallet.sol\":4899:4920  request.confirmations */\n      0x01\n      add\n      sload\n        /* \"contracts/MultisigWallet.sol\":4899:4942  request.confirmations >= requiredSignatures */\n      lt\n        /* \"contracts/MultisigWallet.sol\":4895:5711  if (request.confirmations >= requiredSignatures) {... */\n      tag_130\n      jumpi\n        /* \"contracts/MultisigWallet.sol\":4977:4981  true */\n      0x01\n        /* \"contracts/MultisigWallet.sol\":4958:4965  request */\n      dup2\n        /* \"contracts/MultisigWallet.sol\":4958:4974  request.executed */\n      0x02\n      add\n      0x00\n        /* \"contracts/MultisigWallet.sol\":4958:4981  request.executed = true */\n      0x0100\n      exp\n      dup2\n      sload\n      dup2\n      0xff\n      mul\n      not\n      and\n      swap1\n      dup4\n      iszero\n      iszero\n      mul\n      or\n      swap1\n      sstore\n      pop\n        /* \"contracts/MultisigWallet.sol\":5000:5007  request */\n      dup1\n        /* \"contracts/MultisigWallet.sol\":5000:5016  request.isAdding */\n      0x00\n      add\n      0x14\n      swap1\n      sload\n      swap1\n      0x0100\n      exp\n      swap1\n      div\n      0xff\n      and\n        /* \"contracts/MultisigWallet.sol\":4996:5550  if (request.isAdding) {... */\n      iszero\n      tag_131\n      jumpi\n        /* \"contracts/MultisigWallet.sol\":5035:5041  owners */\n      0x00\n        /* \"contracts/MultisigWallet.sol\":5047:5054  request */\n      dup2\n        /* \"contracts/MultisigWallet.sol\":5047:5060  request.owner */\n      0x00\n      add\n      0x00\n      swap1\n      sload\n      swap1\n      0x0100\n      exp\n      swap1\n      div\n      0xffffffffffffffffffffffffffffffffffffffff\n      and\n        /* \"contracts/MultisigWallet.sol\":5035:5061  owners.push(request.owner) */\n      swap1\n      dup1\n      0x01\n      dup2\n      sload\n      add\n      dup1\n      dup3\n      sstore\n      dup1\n      swap2\n      pop\n      pop\n      0x01\n      swap1\n      sub\n      swap1\n      0x00\n      mstore\n      keccak256(0x00, 0x20)\n      add\n      0x00\n      swap1\n      swap2\n      swap1\n      swap2\n      swap1\n      swap2\n      0x0100\n      exp\n      dup2\n      sload\n      dup2\n      0xffffffffffffffffffffffffffffffffffffffff\n      mul\n      not\n      and\n      swap1\n      dup4\n      0xffffffffffffffffffffffffffffffffffffffff\n      and\n      mul\n      or\n      swap1\n      sstore\n      pop\n        /* \"contracts/MultisigWallet.sol\":5104:5108  true */\n      0x01\n        /* \"contracts/MultisigWallet.sol\":5079:5086  isOwner */\n      dup1\n        /* \"contracts/MultisigWallet.sol\":5079:5101  isOwner[request.owner] */\n      0x00\n        /* \"contracts/MultisigWallet.sol\":5087:5094  request */\n      dup4\n        /* \"contracts/MultisigWallet.sol\":5087:5100  request.owner */\n      0x00\n      add\n      0x00\n      swap1\n      sload\n      swap1\n      0x0100\n      exp\n      swap1\n      div\n      0xffffffffffffffffffffffffffffffffffffffff\n      and\n        /* \"contracts/MultisigWallet.sol\":5079:5101  isOwner[request.owner] */\n      0xffffffffffffffffffffffffffffffffffffffff\n      and\n      0xffffffffffffffffffffffffffffffffffffffff\n      and\n      dup2\n      mstore\n      0x20\n      add\n      swap1\n      dup2\n      mstore\n      0x20\n      add\n      0x00\n      keccak256\n      0x00\n        /* \"contracts/MultisigWallet.sol\":5079:5108  isOwner[request.owner] = true */\n      0x0100\n      exp\n      dup2\n      sload\n      dup2\n      0xff\n      mul\n      not\n      and\n      swap1\n      dup4\n      iszero\n      iszero\n      mul\n      or\n      swap1\n      sstore\n      pop\n        /* \"contracts/MultisigWallet.sol\":4996:5550  if (request.isAdding) {... */\n      jump(tag_133)\n    tag_131:\n        /* \"contracts/MultisigWallet.sol\":5155:5162  isOwner */\n      0x01\n        /* \"contracts/MultisigWallet.sol\":5155:5177  isOwner[request.owner] */\n      0x00\n        /* \"contracts/MultisigWallet.sol\":5163:5170  request */\n      dup3\n        /* \"contracts/MultisigWallet.sol\":5163:5176  request.owner */\n      0x00\n      add\n      0x00\n      swap1\n      sload\n      swap1\n      0x0100\n      exp\n      swap1\n      div\n      0xffffffffffffffffffffffffffffffffffffffff\n      and\n        /* \"contracts/MultisigWallet.sol\":5155:5177  isOwner[request.owner] */\n      0xffffffffffffffffffffffffffffffffffffffff\n      and\n      0xffffffffffffffffffffffffffffffffffffffff\n      and\n      dup2\n      mstore\n      0x20\n      add\n      swap1\n      dup2\n      mstore\n      0x20\n      add\n      0x00\n      keccak256\n      0x00\n      swap1\n      sload\n      swap1\n      0x0100\n      exp\n      swap1\n      div\n      0xff\n      and\n        /* \"contracts/MultisigWallet.sol\":5147:5202  require(isOwner[request.owner], \"Owner does not exist\") */\n      tag_134\n      jumpi\n      mload(0x40)\n      0x08c379a000000000000000000000000000000000000000000000000000000000\n      dup2\n      mstore\n      0x04\n      add\n      tag_135\n      swap1\n      tag_136\n      jump\t// in\n    tag_135:\n      mload(0x40)\n      dup1\n      swap2\n      sub\n      swap1\n      revert\n    tag_134:\n        /* \"contracts/MultisigWallet.sol\":5245:5250  false */\n      0x00\n        /* \"contracts/MultisigWallet.sol\":5220:5227  isOwner */\n      0x01\n        /* \"contracts/MultisigWallet.sol\":5220:5242  isOwner[request.owner] */\n      0x00\n        /* \"contracts/MultisigWallet.sol\":5228:5235  request */\n      dup4\n        /* \"contracts/MultisigWallet.sol\":5228:5241  request.owner */\n      0x00\n      add\n      0x00\n      swap1\n      sload\n      swap1\n      0x0100\n      exp\n      swap1\n      div\n      0xffffffffffffffffffffffffffffffffffffffff\n      and\n        /* \"contracts/MultisigWallet.sol\":5220:5242  isOwner[request.owner] */\n      0xffffffffffffffffffffffffffffffffffffffff\n      and\n      0xffffffffffffffffffffffffffffffffffffffff\n      and\n      dup2\n      mstore\n      0x20\n      add\n      swap1\n      dup2\n      mstore\n      0x20\n      add\n      0x00\n      keccak256\n      0x00\n        /* \"contracts/MultisigWallet.sol\":5220:5250  isOwner[request.owner] = false */\n      0x0100\n      exp\n      dup2\n      sload\n      dup2\n      0xff\n      mul\n      not\n      and\n      swap1\n      dup4\n      iszero\n      iszero\n      mul\n      or\n      swap1\n      sstore\n      pop\n        /* \"contracts/MultisigWallet.sol\":5274:5280  uint i */\n      0x00\n        /* \"contracts/MultisigWallet.sol\":5269:5537  for (uint i = 0; i < owners.length; i++) {... */\n    tag_137:\n        /* \"contracts/MultisigWallet.sol\":5290:5296  owners */\n      0x00\n        /* \"contracts/MultisigWallet.sol\":5290:5303  owners.length */\n      dup1\n      sload\n      swap1\n      pop\n        /* \"contracts/MultisigWallet.sol\":5286:5287  i */\n      dup2\n        /* \"contracts/MultisigWallet.sol\":5286:5303  i < owners.length */\n      lt\n        /* \"contracts/MultisigWallet.sol\":5269:5537  for (uint i = 0; i < owners.length; i++) {... */\n      iszero\n      tag_138\n      jumpi\n        /* \"contracts/MultisigWallet.sol\":5349:5356  request */\n      dup2\n        /* \"contracts/MultisigWallet.sol\":5349:5362  request.owner */\n      0x00\n      add\n      0x00\n      swap1\n      sload\n      swap1\n      0x0100\n      exp\n      swap1\n      div\n      0xffffffffffffffffffffffffffffffffffffffff\n      and\n        /* \"contracts/MultisigWallet.sol\":5336:5362  owners[i] == request.owner */\n      0xffffffffffffffffffffffffffffffffffffffff\n      and\n        /* \"contracts/MultisigWallet.sol\":5336:5342  owners */\n      0x00\n        /* \"contracts/MultisigWallet.sol\":5343:5344  i */\n      dup3\n        /* \"contracts/MultisigWallet.sol\":5336:5345  owners[i] */\n      dup2\n      sload\n      dup2\n      lt\n      tag_140\n      jumpi\n      tag_141\n      tag_120\n      jump\t// in\n    tag_141:\n    tag_140:\n      swap1\n      0x00\n      mstore\n      keccak256(0x00, 0x20)\n      add\n      0x00\n      swap1\n      sload\n      swap1\n      0x0100\n      exp\n      swap1\n      div\n      0xffffffffffffffffffffffffffffffffffffffff\n      and\n        /* \"contracts/MultisigWallet.sol\":5336:5362  owners[i] == request.owner */\n      0xffffffffffffffffffffffffffffffffffffffff\n      and\n      sub\n        /* \"contracts/MultisigWallet.sol\":5332:5519  if (owners[i] == request.owner) {... */\n      tag_143\n      jumpi\n        /* \"contracts/MultisigWallet.sol\":5402:5408  owners */\n      0x00\n        /* \"contracts/MultisigWallet.sol\":5425:5426  1 */\n      0x01\n        /* \"contracts/MultisigWallet.sol\":5409:5415  owners */\n      0x00\n        /* \"contracts/MultisigWallet.sol\":5409:5422  owners.length */\n      dup1\n      sload\n      swap1\n      pop\n        /* \"contracts/MultisigWallet.sol\":5409:5426  owners.length - 1 */\n      tag_144\n      swap2\n      swap1\n      tag_145\n      jump\t// in\n    tag_144:\n        /* \"contracts/MultisigWallet.sol\":5402:5427  owners[owners.length - 1] */\n      dup2\n      sload\n      dup2\n      lt\n      tag_146\n      jumpi\n      tag_147\n      tag_120\n      jump\t// in\n    tag_147:\n    tag_146:\n      swap1\n      0x00\n      mstore\n      keccak256(0x00, 0x20)\n      add\n      0x00\n      swap1\n      sload\n      swap1\n      0x0100\n      exp\n      swap1\n      div\n      0xffffffffffffffffffffffffffffffffffffffff\n      and\n        /* \"contracts/MultisigWallet.sol\":5390:5396  owners */\n      0x00\n        /* \"contracts/MultisigWallet.sol\":5397:5398  i */\n      dup3\n        /* \"contracts/MultisigWallet.sol\":5390:5399  owners[i] */\n      dup2\n      sload\n      dup2\n      lt\n      tag_149\n      jumpi\n      tag_150\n      tag_120\n      jump\t// in\n    tag_150:\n    tag_149:\n      swap1\n      0x00\n      mstore\n      keccak256(0x00, 0x20)\n      add\n      0x00\n        /* \"contracts/MultisigWallet.sol\":5390:5427  owners[i] = owners[owners.length - 1] */\n      0x0100\n      exp\n      dup2\n      sload\n      dup2\n      0xffffffffffffffffffffffffffffffffffffffff\n      mul\n      not\n      and\n      swap1\n      dup4\n      0xffffffffffffffffffffffffffffffffffffffff\n      and\n      mul\n      or\n      swap1\n      sstore\n      pop\n        /* \"contracts/MultisigWallet.sol\":5453:5459  owners */\n      0x00\n        /* \"contracts/MultisigWallet.sol\":5453:5465  owners.pop() */\n      dup1\n      sload\n      dup1\n      tag_152\n      jumpi\n      tag_153\n      tag_154\n      jump\t// in\n    tag_153:\n    tag_152:\n      0x01\n      swap1\n      sub\n      dup2\n      dup2\n      swap1\n      0x00\n      mstore\n      keccak256(0x00, 0x20)\n      add\n      exp(0x0100, 0x00)\n      dup2\n      sload\n      swap1\n      0xffffffffffffffffffffffffffffffffffffffff\n      mul\n      not\n      and\n      swap1\n      sstore\n      swap1\n      sstore\n        /* \"contracts/MultisigWallet.sol\":5491:5496  break */\n      jump(tag_138)\n        /* \"contracts/MultisigWallet.sol\":5332:5519  if (owners[i] == request.owner) {... */\n    tag_143:\n        /* \"contracts/MultisigWallet.sol\":5305:5308  i++ */\n      dup1\n      dup1\n      0x01\n      add\n      swap2\n      pop\n      pop\n        /* \"contracts/MultisigWallet.sol\":5269:5537  for (uint i = 0; i < owners.length; i++) {... */\n      jump(tag_137)\n    tag_138:\n      pop\n        /* \"contracts/MultisigWallet.sol\":4996:5550  if (request.isAdding) {... */\n    tag_133:\n        /* \"contracts/MultisigWallet.sol\":5605:5606  1 */\n      0x01\n        /* \"contracts/MultisigWallet.sol\":5601:5602  2 */\n      0x02\n        /* \"contracts/MultisigWallet.sol\":5585:5591  owners */\n      0x00\n        /* \"contracts/MultisigWallet.sol\":5585:5598  owners.length */\n      dup1\n      sload\n      swap1\n      pop\n        /* \"contracts/MultisigWallet.sol\":5585:5602  owners.length / 2 */\n      tag_156\n      swap2\n      swap1\n      tag_157\n      jump\t// in\n    tag_156:\n        /* \"contracts/MultisigWallet.sol\":5585:5606  owners.length / 2 + 1 */\n      tag_158\n      swap2\n      swap1\n      tag_129\n      jump\t// in\n    tag_158:\n        /* \"contracts/MultisigWallet.sol\":5564:5582  requiredSignatures */\n      0x02\n        /* \"contracts/MultisigWallet.sol\":5564:5606  requiredSignatures = owners.length / 2 + 1 */\n      dup2\n      swap1\n      sstore\n      pop\n        /* \"contracts/MultisigWallet.sol\":5668:5675  request */\n      dup1\n        /* \"contracts/MultisigWallet.sol\":5668:5681  request.owner */\n      0x00\n      add\n      0x00\n      swap1\n      sload\n      swap1\n      0x0100\n      exp\n      swap1\n      div\n      0xffffffffffffffffffffffffffffffffffffffff\n      and\n        /* \"contracts/MultisigWallet.sol\":5626:5700  OwnerChangeRequestExecuted(_requestIndex, request.owner, request.isAdding) */\n      0xffffffffffffffffffffffffffffffffffffffff\n      and\n        /* \"contracts/MultisigWallet.sol\":5653:5666  _requestIndex */\n      dup3\n        /* \"contracts/MultisigWallet.sol\":5626:5700  OwnerChangeRequestExecuted(_requestIndex, request.owner, request.isAdding) */\n      0x89dd07c152fcf1761facddb0608fc4c57a27b9e8e4677e682e80bf549bd5375f\n        /* \"contracts/MultisigWallet.sol\":5683:5690  request */\n      dup4\n        /* \"contracts/MultisigWallet.sol\":5683:5699  request.isAdding */\n      0x00\n      add\n      0x14\n      swap1\n      sload\n      swap1\n      0x0100\n      exp\n      swap1\n      div\n      0xff\n      and\n        /* \"contracts/MultisigWallet.sol\":5626:5700  OwnerChangeRequestExecuted(_requestIndex, request.owner, request.isAdding) */\n      mload(0x40)\n      tag_159\n      swap2\n      swap1\n      tag_50\n      jump\t// in\n    tag_159:\n      mload(0x40)\n      dup1\n      swap2\n      sub\n      swap1\n      log3\n        /* \"contracts/MultisigWallet.sol\":4895:5711  if (request.confirmations >= requiredSignatures) {... */\n    tag_130:\n        /* \"contracts/MultisigWallet.sol\":4376:5717  {... */\n      pop\n        /* \"contracts/MultisigWallet.sol\":4304:5717  function confirmOwnerChangeRequest(uint _requestIndex) public onlyOwner {... */\n      pop\n      jump\t// out\n        /* \"contracts/MultisigWallet.sol\":117:156  mapping(address => bool) public isOwner */\n    tag_48:\n      mstore(0x20, 0x01)\n      dup1\n      0x00\n      mstore\n      keccak256(0x00, 0x40)\n      0x00\n      swap2\n      pop\n      sload\n      swap1\n      0x0100\n      exp\n      swap1\n      div\n      0xff\n      and\n      dup2\n      jump\t// out\n        /* \"contracts/MultisigWallet.sol\":550:597  OwnerChangeRequest[] public ownerChangeRequests */\n    tag_54:\n      0x05\n      dup2\n      dup2\n      sload\n      dup2\n      lt\n      tag_160\n      jumpi\n      0x00\n      dup1\n      revert\n    tag_160:\n      swap1\n      0x00\n      mstore\n      keccak256(0x00, 0x20)\n      swap1\n      0x03\n      mul\n      add\n      0x00\n      swap2\n      pop\n      swap1\n      pop\n      dup1\n      0x00\n      add\n      0x00\n      swap1\n      sload\n      swap1\n      0x0100\n      exp\n      swap1\n      div\n      0xffffffffffffffffffffffffffffffffffffffff\n      and\n      swap1\n      dup1\n      0x00\n      add\n      0x14\n      swap1\n      sload\n      swap1\n      0x0100\n      exp\n      swap1\n      div\n      0xff\n      and\n      swap1\n      dup1\n      0x01\n      add\n      sload\n      swap1\n      dup1\n      0x02\n      add\n      0x00\n      swap1\n      sload\n      swap1\n      0x0100\n      exp\n      swap1\n      div\n      0xff\n      and\n      swap1\n      pop\n      dup5\n      jump\t// out\n        /* \"contracts/MultisigWallet.sol\":3385:3792  function getTransaction(uint _txIndex) public view returns (address to, uint value, bytes memory data, bool executed, uint confirmationsCount) {... */\n    tag_60:\n        /* \"contracts/MultisigWallet.sol\":3445:3455  address to */\n      0x00\n        /* \"contracts/MultisigWallet.sol\":3457:3467  uint value */\n      dup1\n        /* \"contracts/MultisigWallet.sol\":3469:3486  bytes memory data */\n      0x60\n        /* \"contracts/MultisigWallet.sol\":3488:3501  bool executed */\n      0x00\n        /* \"contracts/MultisigWallet.sol\":3503:3526  uint confirmationsCount */\n      dup1\n        /* \"contracts/MultisigWallet.sol\":3539:3570  Transaction storage transaction */\n      0x00\n        /* \"contracts/MultisigWallet.sol\":3573:3585  transactions */\n      0x03\n        /* \"contracts/MultisigWallet.sol\":3586:3594  _txIndex */\n      dup8\n        /* \"contracts/MultisigWallet.sol\":3573:3595  transactions[_txIndex] */\n      dup2\n      sload\n      dup2\n      lt\n      tag_163\n      jumpi\n      tag_164\n      tag_120\n      jump\t// in\n    tag_164:\n    tag_163:\n      swap1\n      0x00\n      mstore\n      keccak256(0x00, 0x20)\n      swap1\n      0x05\n      mul\n      add\n        /* \"contracts/MultisigWallet.sol\":3539:3595  Transaction storage transaction = transactions[_txIndex] */\n      swap1\n      pop\n        /* \"contracts/MultisigWallet.sol\":3627:3638  transaction */\n      dup1\n        /* \"contracts/MultisigWallet.sol\":3627:3641  transaction.to */\n      0x00\n      add\n      0x00\n      swap1\n      sload\n      swap1\n      0x0100\n      exp\n      swap1\n      div\n      0xffffffffffffffffffffffffffffffffffffffff\n      and\n        /* \"contracts/MultisigWallet.sol\":3655:3666  transaction */\n      dup2\n        /* \"contracts/MultisigWallet.sol\":3655:3672  transaction.value */\n      0x01\n      add\n      sload\n        /* \"contracts/MultisigWallet.sol\":3686:3697  transaction */\n      dup3\n        /* \"contracts/MultisigWallet.sol\":3686:3702  transaction.data */\n      0x02\n      add\n        /* \"contracts/MultisigWallet.sol\":3716:3727  transaction */\n      dup4\n        /* \"contracts/MultisigWallet.sol\":3716:3736  transaction.executed */\n      0x03\n      add\n      0x00\n      swap1\n      sload\n      swap1\n      0x0100\n      exp\n      swap1\n      div\n      0xff\n      and\n        /* \"contracts/MultisigWallet.sol\":3750:3761  transaction */\n      dup5\n        /* \"contracts/MultisigWallet.sol\":3750:3775  transaction.confirmations */\n      0x04\n      add\n      sload\n        /* \"contracts/MultisigWallet.sol\":3606:3785  return (... */\n      dup3\n      dup1\n      sload\n      tag_166\n      swap1\n      tag_105\n      jump\t// in\n    tag_166:\n      dup1\n      0x1f\n      add\n      0x20\n      dup1\n      swap2\n      div\n      mul\n      0x20\n      add\n      mload(0x40)\n      swap1\n      dup2\n      add\n      0x40\n      mstore\n      dup1\n      swap3\n      swap2\n      swap1\n      dup2\n      dup2\n      mstore\n      0x20\n      add\n      dup3\n      dup1\n      sload\n      tag_167\n      swap1\n      tag_105\n      jump\t// in\n    tag_167:\n      dup1\n      iszero\n      tag_168\n      jumpi\n      dup1\n      0x1f\n      lt\n      tag_169\n      jumpi\n      0x0100\n      dup1\n      dup4\n      sload\n      div\n      mul\n      dup4\n      mstore\n      swap2\n      0x20\n      add\n      swap2\n      jump(tag_168)\n    tag_169:\n      dup3\n      add\n      swap2\n      swap1\n      0x00\n      mstore\n      keccak256(0x00, 0x20)\n      swap1\n    tag_170:\n      dup2\n      sload\n      dup2\n      mstore\n      swap1\n      0x01\n      add\n      swap1\n      0x20\n      add\n      dup1\n      dup4\n      gt\n      tag_170\n      jumpi\n      dup3\n      swap1\n      sub\n      0x1f\n      and\n      dup3\n      add\n      swap2\n    tag_168:\n      pop\n      pop\n      pop\n      pop\n      pop\n      swap3\n      pop\n      swap6\n      pop\n      swap6\n      pop\n      swap6\n      pop\n      swap6\n      pop\n      swap6\n      pop\n      pop\n        /* \"contracts/MultisigWallet.sol\":3385:3792  function getTransaction(uint _txIndex) public view returns (address to, uint value, bytes memory data, bool executed, uint confirmationsCount) {... */\n      swap2\n      swap4\n      swap6\n      swap1\n      swap3\n      swap5\n      pop\n      jump\t// out\n        /* \"contracts/MultisigWallet.sol\":361:423  mapping(uint => mapping(address => bool)) public confirmations */\n    tag_67:\n      mstore(0x20, 0x04)\n      dup2\n      0x00\n      mstore\n      mstore(0x20, keccak256(0x00, 0x40))\n      dup1\n      0x00\n      mstore\n      keccak256(0x00, 0x40)\n      0x00\n      swap2\n      pop\n      swap2\n      pop\n      swap1\n      sload\n      swap1\n      0x0100\n      exp\n      swap1\n      div\n      0xff\n      and\n      dup2\n      jump\t// out\n        /* \"contracts/MultisigWallet.sol\":3798:4298  function createOwnerChangeRequest(address _owner, bool _isAdding) public onlyOwner {... */\n    tag_73:\n        /* \"contracts/MultisigWallet.sol\":1308:1315  isOwner */\n      0x01\n        /* \"contracts/MultisigWallet.sol\":1308:1327  isOwner[msg.sender] */\n      0x00\n        /* \"contracts/MultisigWallet.sol\":1316:1326  msg.sender */\n      caller\n        /* \"contracts/MultisigWallet.sol\":1308:1327  isOwner[msg.sender] */\n      0xffffffffffffffffffffffffffffffffffffffff\n      and\n      0xffffffffffffffffffffffffffffffffffffffff\n      and\n      dup2\n      mstore\n      0x20\n      add\n      swap1\n      dup2\n      mstore\n      0x20\n      add\n      0x00\n      keccak256\n      0x00\n      swap1\n      sload\n      swap1\n      0x0100\n      exp\n      swap1\n      div\n      0xff\n      and\n        /* \"contracts/MultisigWallet.sol\":1300:1344  require(isOwner[msg.sender], \"Not an owner\") */\n      tag_172\n      jumpi\n      mload(0x40)\n      0x08c379a000000000000000000000000000000000000000000000000000000000\n      dup2\n      mstore\n      0x04\n      add\n      tag_173\n      swap1\n      tag_113\n      jump\t// in\n    tag_173:\n      mload(0x40)\n      dup1\n      swap2\n      sub\n      swap1\n      revert\n    tag_172:\n        /* \"contracts/MultisigWallet.sol\":3917:3918  0 */\n      0x00\n        /* \"contracts/MultisigWallet.sol\":3899:3919  _owner != address(0) */\n      0xffffffffffffffffffffffffffffffffffffffff\n      and\n        /* \"contracts/MultisigWallet.sol\":3899:3905  _owner */\n      dup3\n        /* \"contracts/MultisigWallet.sol\":3899:3919  _owner != address(0) */\n      0xffffffffffffffffffffffffffffffffffffffff\n      and\n      sub\n        /* \"contracts/MultisigWallet.sol\":3891:3945  require(_owner != address(0), \"Invalid owner address\") */\n      tag_175\n      jumpi\n      mload(0x40)\n      0x08c379a000000000000000000000000000000000000000000000000000000000\n      dup2\n      mstore\n      0x04\n      add\n      tag_176\n      swap1\n      tag_177\n      jump\t// in\n    tag_176:\n      mload(0x40)\n      dup1\n      swap2\n      sub\n      swap1\n      revert\n    tag_175:\n        /* \"contracts/MultisigWallet.sol\":3982:3991  _isAdding */\n      dup1\n        /* \"contracts/MultisigWallet.sol\":3963:3991  isOwner[_owner] != _isAdding */\n      iszero\n      iszero\n        /* \"contracts/MultisigWallet.sol\":3963:3970  isOwner */\n      0x01\n        /* \"contracts/MultisigWallet.sol\":3963:3978  isOwner[_owner] */\n      0x00\n        /* \"contracts/MultisigWallet.sol\":3971:3977  _owner */\n      dup5\n        /* \"contracts/MultisigWallet.sol\":3963:3978  isOwner[_owner] */\n      0xffffffffffffffffffffffffffffffffffffffff\n      and\n      0xffffffffffffffffffffffffffffffffffffffff\n      and\n      dup2\n      mstore\n      0x20\n      add\n      swap1\n      dup2\n      mstore\n      0x20\n      add\n      0x00\n      keccak256\n      0x00\n      swap1\n      sload\n      swap1\n      0x0100\n      exp\n      swap1\n      div\n      0xff\n      and\n        /* \"contracts/MultisigWallet.sol\":3963:3991  isOwner[_owner] != _isAdding */\n      iszero\n      iszero\n      sub\n        /* \"contracts/MultisigWallet.sol\":3955:4013  require(isOwner[_owner] != _isAdding, \"Redundant request\") */\n      tag_178\n      jumpi\n      mload(0x40)\n      0x08c379a000000000000000000000000000000000000000000000000000000000\n      dup2\n      mstore\n      0x04\n      add\n      tag_179\n      swap1\n      tag_180\n      jump\t// in\n    tag_179:\n      mload(0x40)\n      dup1\n      swap2\n      sub\n      swap1\n      revert\n    tag_178:\n        /* \"contracts/MultisigWallet.sol\":4024:4043  ownerChangeRequests */\n      0x05\n        /* \"contracts/MultisigWallet.sol\":4049:4198  OwnerChangeRequest({... */\n      mload(0x40)\n      dup1\n      0x80\n      add\n      0x40\n      mstore\n      dup1\n        /* \"contracts/MultisigWallet.sol\":4089:4095  _owner */\n      dup5\n        /* \"contracts/MultisigWallet.sol\":4049:4198  OwnerChangeRequest({... */\n      0xffffffffffffffffffffffffffffffffffffffff\n      and\n      dup2\n      mstore\n      0x20\n      add\n        /* \"contracts/MultisigWallet.sol\":4119:4128  _isAdding */\n      dup4\n        /* \"contracts/MultisigWallet.sol\":4049:4198  OwnerChangeRequest({... */\n      iszero\n      iszero\n      dup2\n      mstore\n      0x20\n      add\n        /* \"contracts/MultisigWallet.sol\":4157:4158  0 */\n      0x00\n        /* \"contracts/MultisigWallet.sol\":4049:4198  OwnerChangeRequest({... */\n      dup2\n      mstore\n      0x20\n      add\n        /* \"contracts/MultisigWallet.sol\":4182:4187  false */\n      0x00\n        /* \"contracts/MultisigWallet.sol\":4049:4198  OwnerChangeRequest({... */\n      iszero\n      iszero\n      dup2\n      mstore\n      pop\n        /* \"contracts/MultisigWallet.sol\":4024:4199  ownerChangeRequests.push(OwnerChangeRequest({... */\n      swap1\n      dup1\n      0x01\n      dup2\n      sload\n      add\n      dup1\n      dup3\n      sstore\n      dup1\n      swap2\n      pop\n      pop\n      0x01\n      swap1\n      sub\n      swap1\n      0x00\n      mstore\n      keccak256(0x00, 0x20)\n      swap1\n      0x03\n      mul\n      add\n      0x00\n      swap1\n      swap2\n      swap1\n      swap2\n      swap1\n      swap2\n      pop\n      0x00\n      dup3\n      add\n      mload\n      dup2\n      0x00\n      add\n      exp(0x0100, 0x00)\n      dup2\n      sload\n      dup2\n      0xffffffffffffffffffffffffffffffffffffffff\n      mul\n      not\n      and\n      swap1\n      dup4\n      0xffffffffffffffffffffffffffffffffffffffff\n      and\n      mul\n      or\n      swap1\n      sstore\n      pop\n      0x20\n      dup3\n      add\n      mload\n      dup2\n      0x00\n      add\n      exp(0x0100, 0x14)\n      dup2\n      sload\n      dup2\n      0xff\n      mul\n      not\n      and\n      swap1\n      dup4\n      iszero\n      iszero\n      mul\n      or\n      swap1\n      sstore\n      pop\n      0x40\n      dup3\n      add\n      mload\n      dup2\n      0x01\n      add\n      sstore\n      0x60\n      dup3\n      add\n      mload\n      dup2\n      0x02\n      add\n      exp(0x0100, 0x00)\n      dup2\n      sload\n      dup2\n      0xff\n      mul\n      not\n      and\n      swap1\n      dup4\n      iszero\n      iszero\n      mul\n      or\n      swap1\n      sstore\n      pop\n      pop\n      pop\n        /* \"contracts/MultisigWallet.sol\":4273:4279  _owner */\n      dup2\n        /* \"contracts/MultisigWallet.sol\":4215:4291  OwnerChangeRequestCreated(ownerChangeRequests.length - 1, _owner, _isAdding) */\n      0xffffffffffffffffffffffffffffffffffffffff\n      and\n        /* \"contracts/MultisigWallet.sol\":4270:4271  1 */\n      0x01\n        /* \"contracts/MultisigWallet.sol\":4241:4260  ownerChangeRequests */\n      0x05\n        /* \"contracts/MultisigWallet.sol\":4241:4267  ownerChangeRequests.length */\n      dup1\n      sload\n      swap1\n      pop\n        /* \"contracts/MultisigWallet.sol\":4241:4271  ownerChangeRequests.length - 1 */\n      tag_182\n      swap2\n      swap1\n      tag_145\n      jump\t// in\n    tag_182:\n        /* \"contracts/MultisigWallet.sol\":4215:4291  OwnerChangeRequestCreated(ownerChangeRequests.length - 1, _owner, _isAdding) */\n      0x2b4ba558ce06f8a12392a1517213de0a24d8fdb07a6c8a66c23d16321a328bde\n        /* \"contracts/MultisigWallet.sol\":4281:4290  _isAdding */\n      dup4\n        /* \"contracts/MultisigWallet.sol\":4215:4291  OwnerChangeRequestCreated(ownerChangeRequests.length - 1, _owner, _isAdding) */\n      mload(0x40)\n      tag_183\n      swap2\n      swap1\n      tag_50\n      jump\t// in\n    tag_183:\n      mload(0x40)\n      dup1\n      swap2\n      sub\n      swap1\n      log3\n        /* \"contracts/MultisigWallet.sol\":3798:4298  function createOwnerChangeRequest(address _owner, bool _isAdding) public onlyOwner {... */\n      pop\n      pop\n      jump\t// out\n        /* \"contracts/MultisigWallet.sol\":162:192  uint public requiredSignatures */\n    tag_76:\n      sload(0x02)\n      dup2\n      jump\t// out\n        /* \"contracts/MultisigWallet.sol\":603:676  mapping(uint => mapping(address => bool)) public ownerChangeConfirmations */\n    tag_81:\n      mstore(0x20, 0x06)\n      dup2\n      0x00\n      mstore\n      mstore(0x20, keccak256(0x00, 0x40))\n      dup1\n      0x00\n      mstore\n      keccak256(0x00, 0x40)\n      0x00\n      swap2\n      pop\n      swap2\n      pop\n      swap1\n      sload\n      swap1\n      0x0100\n      exp\n      swap1\n      div\n      0xff\n      and\n      dup2\n      jump\t// out\n        /* \"contracts/MultisigWallet.sol\":322:355  Transaction[] public transactions */\n    tag_86:\n      0x03\n      dup2\n      dup2\n      sload\n      dup2\n      lt\n      tag_184\n      jumpi\n      0x00\n      dup1\n      revert\n    tag_184:\n      swap1\n      0x00\n      mstore\n      keccak256(0x00, 0x20)\n      swap1\n      0x05\n      mul\n      add\n      0x00\n      swap2\n      pop\n      swap1\n      pop\n      dup1\n      0x00\n      add\n      0x00\n      swap1\n      sload\n      swap1\n      0x0100\n      exp\n      swap1\n      div\n      0xffffffffffffffffffffffffffffffffffffffff\n      and\n      swap1\n      dup1\n      0x01\n      add\n      sload\n      swap1\n      dup1\n      0x02\n      add\n      dup1\n      sload\n      tag_186\n      swap1\n      tag_105\n      jump\t// in\n    tag_186:\n      dup1\n      0x1f\n      add\n      0x20\n      dup1\n      swap2\n      div\n      mul\n      0x20\n      add\n      mload(0x40)\n      swap1\n      dup2\n      add\n      0x40\n      mstore\n      dup1\n      swap3\n      swap2\n      swap1\n      dup2\n      dup2\n      mstore\n      0x20\n      add\n      dup3\n      dup1\n      sload\n      tag_187\n      swap1\n      tag_105\n      jump\t// in\n    tag_187:\n      dup1\n      iszero\n      tag_188\n      jumpi\n      dup1\n      0x1f\n      lt\n      tag_189\n      jumpi\n      0x0100\n      dup1\n      dup4\n      sload\n      div\n      mul\n      dup4\n      mstore\n      swap2\n      0x20\n      add\n      swap2\n      jump(tag_188)\n    tag_189:\n      dup3\n      add\n      swap2\n      swap1\n      0x00\n      mstore\n      keccak256(0x00, 0x20)\n      swap1\n    tag_190:\n      dup2\n      sload\n      dup2\n      mstore\n      swap1\n      0x01\n      add\n      swap1\n      0x20\n      add\n      dup1\n      dup4\n      gt\n      tag_190\n      jumpi\n      dup3\n      swap1\n      sub\n      0x1f\n      and\n      dup3\n      add\n      swap2\n    tag_188:\n      pop\n      pop\n      pop\n      pop\n      pop\n      swap1\n      dup1\n      0x03\n      add\n      0x00\n      swap1\n      sload\n      swap1\n      0x0100\n      exp\n      swap1\n      div\n      0xff\n      and\n      swap1\n      dup1\n      0x04\n      add\n      sload\n      swap1\n      pop\n      dup6\n      jump\t// out\n        /* \"contracts/MultisigWallet.sol\":2405:2765  function createTransaction(address _to, uint _value, bytes memory _data) public onlyOwner {... */\n    tag_92:\n        /* \"contracts/MultisigWallet.sol\":1308:1315  isOwner */\n      0x01\n        /* \"contracts/MultisigWallet.sol\":1308:1327  isOwner[msg.sender] */\n      0x00\n        /* \"contracts/MultisigWallet.sol\":1316:1326  msg.sender */\n      caller\n        /* \"contracts/MultisigWallet.sol\":1308:1327  isOwner[msg.sender] */\n      0xffffffffffffffffffffffffffffffffffffffff\n      and\n      0xffffffffffffffffffffffffffffffffffffffff\n      and\n      dup2\n      mstore\n      0x20\n      add\n      swap1\n      dup2\n      mstore\n      0x20\n      add\n      0x00\n      keccak256\n      0x00\n      swap1\n      sload\n      swap1\n      0x0100\n      exp\n      swap1\n      div\n      0xff\n      and\n        /* \"contracts/MultisigWallet.sol\":1300:1344  require(isOwner[msg.sender], \"Not an owner\") */\n      tag_192\n      jumpi\n      mload(0x40)\n      0x08c379a000000000000000000000000000000000000000000000000000000000\n      dup2\n      mstore\n      0x04\n      add\n      tag_193\n      swap1\n      tag_113\n      jump\t// in\n    tag_193:\n      mload(0x40)\n      dup1\n      swap2\n      sub\n      swap1\n      revert\n    tag_192:\n        /* \"contracts/MultisigWallet.sol\":2505:2517  transactions */\n      0x03\n        /* \"contracts/MultisigWallet.sol\":2523:2678  Transaction({... */\n      mload(0x40)\n      dup1\n      0xa0\n      add\n      0x40\n      mstore\n      dup1\n        /* \"contracts/MultisigWallet.sol\":2553:2556  _to */\n      dup6\n        /* \"contracts/MultisigWallet.sol\":2523:2678  Transaction({... */\n      0xffffffffffffffffffffffffffffffffffffffff\n      and\n      dup2\n      mstore\n      0x20\n      add\n        /* \"contracts/MultisigWallet.sol\":2577:2583  _value */\n      dup5\n        /* \"contracts/MultisigWallet.sol\":2523:2678  Transaction({... */\n      dup2\n      mstore\n      0x20\n      add\n        /* \"contracts/MultisigWallet.sol\":2603:2608  _data */\n      dup4\n        /* \"contracts/MultisigWallet.sol\":2523:2678  Transaction({... */\n      dup2\n      mstore\n      0x20\n      add\n        /* \"contracts/MultisigWallet.sol\":2632:2637  false */\n      0x00\n        /* \"contracts/MultisigWallet.sol\":2523:2678  Transaction({... */\n      iszero\n      iszero\n      dup2\n      mstore\n      0x20\n      add\n        /* \"contracts/MultisigWallet.sol\":2666:2667  0 */\n      0x00\n        /* \"contracts/MultisigWallet.sol\":2523:2678  Transaction({... */\n      dup2\n      mstore\n      pop\n        /* \"contracts/MultisigWallet.sol\":2505:2679  transactions.push(Transaction({... */\n      swap1\n      dup1\n      0x01\n      dup2\n      sload\n      add\n      dup1\n      dup3\n      sstore\n      dup1\n      swap2\n      pop\n      pop\n      0x01\n      swap1\n      sub\n      swap1\n      0x00\n      mstore\n      keccak256(0x00, 0x20)\n      swap1\n      0x05\n      mul\n      add\n      0x00\n      swap1\n      swap2\n      swap1\n      swap2\n      swap1\n      swap2\n      pop\n      0x00\n      dup3\n      add\n      mload\n      dup2\n      0x00\n      add\n      exp(0x0100, 0x00)\n      dup2\n      sload\n      dup2\n      0xffffffffffffffffffffffffffffffffffffffff\n      mul\n      not\n      and\n      swap1\n      dup4\n      0xffffffffffffffffffffffffffffffffffffffff\n      and\n      mul\n      or\n      swap1\n      sstore\n      pop\n      0x20\n      dup3\n      add\n      mload\n      dup2\n      0x01\n      add\n      sstore\n      0x40\n      dup3\n      add\n      mload\n      dup2\n      0x02\n      add\n      swap1\n      dup2\n      tag_196\n      swap2\n      swap1\n      tag_197\n      jump\t// in\n    tag_196:\n      pop\n      0x60\n      dup3\n      add\n      mload\n      dup2\n      0x03\n      add\n      exp(0x0100, 0x00)\n      dup2\n      sload\n      dup2\n      0xff\n      mul\n      not\n      and\n      swap1\n      dup4\n      iszero\n      iszero\n      mul\n      or\n      swap1\n      sstore\n      pop\n      0x80\n      dup3\n      add\n      mload\n      dup2\n      0x04\n      add\n      sstore\n      pop\n      pop\n        /* \"contracts/MultisigWallet.sol\":2739:2742  _to */\n      dup3\n        /* \"contracts/MultisigWallet.sol\":2695:2758  TransactionCreated(transactions.length - 1, _to, _value, _data) */\n      0xffffffffffffffffffffffffffffffffffffffff\n      and\n        /* \"contracts/MultisigWallet.sol\":2736:2737  1 */\n      0x01\n        /* \"contracts/MultisigWallet.sol\":2714:2726  transactions */\n      0x03\n        /* \"contracts/MultisigWallet.sol\":2714:2733  transactions.length */\n      dup1\n      sload\n      swap1\n      pop\n        /* \"contracts/MultisigWallet.sol\":2714:2737  transactions.length - 1 */\n      tag_198\n      swap2\n      swap1\n      tag_145\n      jump\t// in\n    tag_198:\n        /* \"contracts/MultisigWallet.sol\":2695:2758  TransactionCreated(transactions.length - 1, _to, _value, _data) */\n      0x453e07a951b5abb44cc647534a150065e3a308fec0dc01fda6ca43a4984f835b\n        /* \"contracts/MultisigWallet.sol\":2744:2750  _value */\n      dup5\n        /* \"contracts/MultisigWallet.sol\":2752:2757  _data */\n      dup5\n        /* \"contracts/MultisigWallet.sol\":2695:2758  TransactionCreated(transactions.length - 1, _to, _value, _data) */\n      mload(0x40)\n      tag_199\n      swap3\n      swap2\n      swap1\n      tag_200\n      jump\t// in\n    tag_199:\n      mload(0x40)\n      dup1\n      swap2\n      sub\n      swap1\n      log3\n        /* \"contracts/MultisigWallet.sol\":2405:2765  function createTransaction(address _to, uint _value, bytes memory _data) public onlyOwner {... */\n      pop\n      pop\n      pop\n      jump\t// out\n        /* \"contracts/MultisigWallet.sol\":2771:3379  function confirmTransaction(uint _txIndex) public onlyOwner txExists(_txIndex) notExecuted(_txIndex) notConfirmed(_txIndex) {... */\n    tag_96:\n        /* \"contracts/MultisigWallet.sol\":1308:1315  isOwner */\n      0x01\n        /* \"contracts/MultisigWallet.sol\":1308:1327  isOwner[msg.sender] */\n      0x00\n        /* \"contracts/MultisigWallet.sol\":1316:1326  msg.sender */\n      caller\n        /* \"contracts/MultisigWallet.sol\":1308:1327  isOwner[msg.sender] */\n      0xffffffffffffffffffffffffffffffffffffffff\n      and\n      0xffffffffffffffffffffffffffffffffffffffff\n      and\n      dup2\n      mstore\n      0x20\n      add\n      swap1\n      dup2\n      mstore\n      0x20\n      add\n      0x00\n      keccak256\n      0x00\n      swap1\n      sload\n      swap1\n      0x0100\n      exp\n      swap1\n      div\n      0xff\n      and\n        /* \"contracts/MultisigWallet.sol\":1300:1344  require(isOwner[msg.sender], \"Not an owner\") */\n      tag_202\n      jumpi\n      mload(0x40)\n      0x08c379a000000000000000000000000000000000000000000000000000000000\n      dup2\n      mstore\n      0x04\n      add\n      tag_203\n      swap1\n      tag_113\n      jump\t// in\n    tag_203:\n      mload(0x40)\n      dup1\n      swap2\n      sub\n      swap1\n      revert\n    tag_202:\n        /* \"contracts/MultisigWallet.sol\":2840:2848  _txIndex */\n      dup1\n        /* \"contracts/MultisigWallet.sol\":1426:1438  transactions */\n      0x03\n        /* \"contracts/MultisigWallet.sol\":1426:1445  transactions.length */\n      dup1\n      sload\n      swap1\n      pop\n        /* \"contracts/MultisigWallet.sol\":1415:1423  _txIndex */\n      dup2\n        /* \"contracts/MultisigWallet.sol\":1415:1445  _txIndex < transactions.length */\n      lt\n        /* \"contracts/MultisigWallet.sol\":1407:1476  require(_txIndex < transactions.length, \"Transaction does not exist\") */\n      tag_205\n      jumpi\n      mload(0x40)\n      0x08c379a000000000000000000000000000000000000000000000000000000000\n      dup2\n      mstore\n      0x04\n      add\n      tag_206\n      swap1\n      tag_207\n      jump\t// in\n    tag_206:\n      mload(0x40)\n      dup1\n      swap2\n      sub\n      swap1\n      revert\n    tag_205:\n        /* \"contracts/MultisigWallet.sol\":2862:2870  _txIndex */\n      dup2\n        /* \"contracts/MultisigWallet.sol\":1547:1559  transactions */\n      0x03\n        /* \"contracts/MultisigWallet.sol\":1560:1568  _txIndex */\n      dup2\n        /* \"contracts/MultisigWallet.sol\":1547:1569  transactions[_txIndex] */\n      dup2\n      sload\n      dup2\n      lt\n      tag_209\n      jumpi\n      tag_210\n      tag_120\n      jump\t// in\n    tag_210:\n    tag_209:\n      swap1\n      0x00\n      mstore\n      keccak256(0x00, 0x20)\n      swap1\n      0x05\n      mul\n      add\n        /* \"contracts/MultisigWallet.sol\":1547:1578  transactions[_txIndex].executed */\n      0x03\n      add\n      0x00\n      swap1\n      sload\n      swap1\n      0x0100\n      exp\n      swap1\n      div\n      0xff\n      and\n        /* \"contracts/MultisigWallet.sol\":1546:1578  !transactions[_txIndex].executed */\n      iszero\n        /* \"contracts/MultisigWallet.sol\":1538:1611  require(!transactions[_txIndex].executed, \"Transaction already executed\") */\n      tag_212\n      jumpi\n      mload(0x40)\n      0x08c379a000000000000000000000000000000000000000000000000000000000\n      dup2\n      mstore\n      0x04\n      add\n      tag_213\n      swap1\n      tag_214\n      jump\t// in\n    tag_213:\n      mload(0x40)\n      dup1\n      swap2\n      sub\n      swap1\n      revert\n    tag_212:\n        /* \"contracts/MultisigWallet.sol\":2885:2893  _txIndex */\n      dup3\n        /* \"contracts/MultisigWallet.sol\":1683:1696  confirmations */\n      0x04\n        /* \"contracts/MultisigWallet.sol\":1683:1706  confirmations[_txIndex] */\n      0x00\n        /* \"contracts/MultisigWallet.sol\":1697:1705  _txIndex */\n      dup3\n        /* \"contracts/MultisigWallet.sol\":1683:1706  confirmations[_txIndex] */\n      dup2\n      mstore\n      0x20\n      add\n      swap1\n      dup2\n      mstore\n      0x20\n      add\n      0x00\n      keccak256\n        /* \"contracts/MultisigWallet.sol\":1683:1718  confirmations[_txIndex][msg.sender] */\n      0x00\n        /* \"contracts/MultisigWallet.sol\":1707:1717  msg.sender */\n      caller\n        /* \"contracts/MultisigWallet.sol\":1683:1718  confirmations[_txIndex][msg.sender] */\n      0xffffffffffffffffffffffffffffffffffffffff\n      and\n      0xffffffffffffffffffffffffffffffffffffffff\n      and\n      dup2\n      mstore\n      0x20\n      add\n      swap1\n      dup2\n      mstore\n      0x20\n      add\n      0x00\n      keccak256\n      0x00\n      swap1\n      sload\n      swap1\n      0x0100\n      exp\n      swap1\n      div\n      0xff\n      and\n        /* \"contracts/MultisigWallet.sol\":1682:1718  !confirmations[_txIndex][msg.sender] */\n      iszero\n        /* \"contracts/MultisigWallet.sol\":1674:1752  require(!confirmations[_txIndex][msg.sender], \"Transaction already confirmed\") */\n      tag_216\n      jumpi\n      mload(0x40)\n      0x08c379a000000000000000000000000000000000000000000000000000000000\n      dup2\n      mstore\n      0x04\n      add\n      tag_217\n      swap1\n      tag_218\n      jump\t// in\n    tag_217:\n      mload(0x40)\n      dup1\n      swap2\n      sub\n      swap1\n      revert\n    tag_216:\n        /* \"contracts/MultisigWallet.sol\":2906:2937  Transaction storage transaction */\n      0x00\n        /* \"contracts/MultisigWallet.sol\":2940:2952  transactions */\n      0x03\n        /* \"contracts/MultisigWallet.sol\":2953:2961  _txIndex */\n      dup6\n        /* \"contracts/MultisigWallet.sol\":2940:2962  transactions[_txIndex] */\n      dup2\n      sload\n      dup2\n      lt\n      tag_220\n      jumpi\n      tag_221\n      tag_120\n      jump\t// in\n    tag_221:\n    tag_220:\n      swap1\n      0x00\n      mstore\n      keccak256(0x00, 0x20)\n      swap1\n      0x05\n      mul\n      add\n        /* \"contracts/MultisigWallet.sol\":2906:2962  Transaction storage transaction = transactions[_txIndex] */\n      swap1\n      pop\n        /* \"contracts/MultisigWallet.sol\":3015:3019  true */\n      0x01\n        /* \"contracts/MultisigWallet.sol\":2977:2990  confirmations */\n      0x04\n        /* \"contracts/MultisigWallet.sol\":2977:3000  confirmations[_txIndex] */\n      0x00\n        /* \"contracts/MultisigWallet.sol\":2991:2999  _txIndex */\n      dup8\n        /* \"contracts/MultisigWallet.sol\":2977:3000  confirmations[_txIndex] */\n      dup2\n      mstore\n      0x20\n      add\n      swap1\n      dup2\n      mstore\n      0x20\n      add\n      0x00\n      keccak256\n        /* \"contracts/MultisigWallet.sol\":2977:3012  confirmations[_txIndex][msg.sender] */\n      0x00\n        /* \"contracts/MultisigWallet.sol\":3001:3011  msg.sender */\n      caller\n        /* \"contracts/MultisigWallet.sol\":2977:3012  confirmations[_txIndex][msg.sender] */\n      0xffffffffffffffffffffffffffffffffffffffff\n      and\n      0xffffffffffffffffffffffffffffffffffffffff\n      and\n      dup2\n      mstore\n      0x20\n      add\n      swap1\n      dup2\n      mstore\n      0x20\n      add\n      0x00\n      keccak256\n      0x00\n        /* \"contracts/MultisigWallet.sol\":2977:3019  confirmations[_txIndex][msg.sender] = true */\n      0x0100\n      exp\n      dup2\n      sload\n      dup2\n      0xff\n      mul\n      not\n      and\n      swap1\n      dup4\n      iszero\n      iszero\n      mul\n      or\n      swap1\n      sstore\n      pop\n        /* \"contracts/MultisigWallet.sol\":3058:3059  1 */\n      0x01\n        /* \"contracts/MultisigWallet.sol\":3029:3040  transaction */\n      dup2\n        /* \"contracts/MultisigWallet.sol\":3029:3054  transaction.confirmations */\n      0x04\n      add\n      0x00\n        /* \"contracts/MultisigWallet.sol\":3029:3059  transaction.confirmations += 1 */\n      dup3\n      dup3\n      sload\n      tag_223\n      swap2\n      swap1\n      tag_129\n      jump\t// in\n    tag_223:\n      swap3\n      pop\n      pop\n      dup2\n      swap1\n      sstore\n      pop\n        /* \"contracts/MultisigWallet.sol\":3103:3121  requiredSignatures */\n      sload(0x02)\n        /* \"contracts/MultisigWallet.sol\":3074:3085  transaction */\n      dup2\n        /* \"contracts/MultisigWallet.sol\":3074:3099  transaction.confirmations */\n      0x04\n      add\n      sload\n        /* \"contracts/MultisigWallet.sol\":3074:3121  transaction.confirmations >= requiredSignatures */\n      lt\n        /* \"contracts/MultisigWallet.sol\":3070:3373  if (transaction.confirmations >= requiredSignatures) {... */\n      tag_224\n      jumpi\n        /* \"contracts/MultisigWallet.sol\":3160:3164  true */\n      0x01\n        /* \"contracts/MultisigWallet.sol\":3137:3148  transaction */\n      dup2\n        /* \"contracts/MultisigWallet.sol\":3137:3157  transaction.executed */\n      0x03\n      add\n      0x00\n        /* \"contracts/MultisigWallet.sol\":3137:3164  transaction.executed = true */\n      0x0100\n      exp\n      dup2\n      sload\n      dup2\n      0xff\n      mul\n      not\n      and\n      swap1\n      dup4\n      iszero\n      iszero\n      mul\n      or\n      swap1\n      sstore\n      pop\n        /* \"contracts/MultisigWallet.sol\":3180:3192  bool success */\n      0x00\n        /* \"contracts/MultisigWallet.sol\":3198:3209  transaction */\n      dup2\n        /* \"contracts/MultisigWallet.sol\":3198:3212  transaction.to */\n      0x00\n      add\n      0x00\n      swap1\n      sload\n      swap1\n      0x0100\n      exp\n      swap1\n      div\n      0xffffffffffffffffffffffffffffffffffffffff\n      and\n        /* \"contracts/MultisigWallet.sol\":3198:3217  transaction.to.call */\n      0xffffffffffffffffffffffffffffffffffffffff\n      and\n        /* \"contracts/MultisigWallet.sol\":3225:3236  transaction */\n      dup3\n        /* \"contracts/MultisigWallet.sol\":3225:3242  transaction.value */\n      0x01\n      add\n      sload\n        /* \"contracts/MultisigWallet.sol\":3244:3255  transaction */\n      dup4\n        /* \"contracts/MultisigWallet.sol\":3244:3260  transaction.data */\n      0x02\n      add\n        /* \"contracts/MultisigWallet.sol\":3198:3261  transaction.to.call{value: transaction.value}(transaction.data) */\n      mload(0x40)\n      tag_225\n      swap2\n      swap1\n      tag_226\n      jump\t// in\n    tag_225:\n      0x00\n      mload(0x40)\n      dup1\n      dup4\n      sub\n      dup2\n      dup6\n      dup8\n      gas\n      call\n      swap3\n      pop\n      pop\n      pop\n      returndatasize\n      dup1\n      0x00\n      dup2\n      eq\n      tag_229\n      jumpi\n      mload(0x40)\n      swap2\n      pop\n      and(add(returndatasize, 0x3f), not(0x1f))\n      dup3\n      add\n      0x40\n      mstore\n      returndatasize\n      dup3\n      mstore\n      returndatasize\n      0x00\n      0x20\n      dup5\n      add\n      returndatacopy\n      jump(tag_228)\n    tag_229:\n      0x60\n      swap2\n      pop\n    tag_228:\n      pop\n        /* \"contracts/MultisigWallet.sol\":3179:3261  (bool success, ) = transaction.to.call{value: transaction.value}(transaction.data) */\n      pop\n      swap1\n      pop\n        /* \"contracts/MultisigWallet.sol\":3283:3290  success */\n      dup1\n        /* \"contracts/MultisigWallet.sol\":3275:3313  require(success, \"Transaction failed\") */\n      tag_230\n      jumpi\n      mload(0x40)\n      0x08c379a000000000000000000000000000000000000000000000000000000000\n      dup2\n      mstore\n      0x04\n      add\n      tag_231\n      swap1\n      tag_232\n      jump\t// in\n    tag_231:\n      mload(0x40)\n      dup1\n      swap2\n      sub\n      swap1\n      revert\n    tag_230:\n        /* \"contracts/MultisigWallet.sol\":3353:3361  _txIndex */\n      dup6\n        /* \"contracts/MultisigWallet.sol\":3333:3362  TransactionExecuted(_txIndex) */\n      0x15ed165a284872ea7017f03df402a0cadfbfab588320ffaf83f160c2f82781c7\n      mload(0x40)\n      mload(0x40)\n      dup1\n      swap2\n      sub\n      swap1\n      log2\n        /* \"contracts/MultisigWallet.sol\":3123:3373  {... */\n      pop\n        /* \"contracts/MultisigWallet.sol\":3070:3373  if (transaction.confirmations >= requiredSignatures) {... */\n    tag_224:\n        /* \"contracts/MultisigWallet.sol\":2895:3379  {... */\n      pop\n        /* \"contracts/MultisigWallet.sol\":1617:1618  _ */\n      pop\n        /* \"contracts/MultisigWallet.sol\":1482:1483  _ */\n      pop\n        /* \"contracts/MultisigWallet.sol\":1354:1355  _ */\n      pop\n        /* \"contracts/MultisigWallet.sol\":2771:3379  function confirmTransaction(uint _txIndex) public onlyOwner txExists(_txIndex) notExecuted(_txIndex) notConfirmed(_txIndex) {... */\n      pop\n      jump\t// out\n        /* \"#utility.yul\":7:84   */\n    tag_233:\n        /* \"#utility.yul\":44:51   */\n      0x00\n        /* \"#utility.yul\":73:78   */\n      dup2\n        /* \"#utility.yul\":62:78   */\n      swap1\n      pop\n        /* \"#utility.yul\":7:84   */\n      swap2\n      swap1\n      pop\n      jump\t// out\n        /* \"#utility.yul\":90:208   */\n    tag_234:\n        /* \"#utility.yul\":177:201   */\n      tag_321\n        /* \"#utility.yul\":195:200   */\n      dup2\n        /* \"#utility.yul\":177:201   */\n      tag_233\n      jump\t// in\n    tag_321:\n        /* \"#utility.yul\":172:175   */\n      dup3\n        /* \"#utility.yul\":165:202   */\n      mstore\n        /* \"#utility.yul\":90:208   */\n      pop\n      pop\n      jump\t// out\n        /* \"#utility.yul\":214:436   */\n    tag_23:\n        /* \"#utility.yul\":307:311   */\n      0x00\n        /* \"#utility.yul\":345:347   */\n      0x20\n        /* \"#utility.yul\":334:343   */\n      dup3\n        /* \"#utility.yul\":330:348   */\n      add\n        /* \"#utility.yul\":322:348   */\n      swap1\n      pop\n        /* \"#utility.yul\":358:429   */\n      tag_323\n        /* \"#utility.yul\":426:427   */\n      0x00\n        /* \"#utility.yul\":415:424   */\n      dup4\n        /* \"#utility.yul\":411:428   */\n      add\n        /* \"#utility.yul\":402:408   */\n      dup5\n        /* \"#utility.yul\":358:429   */\n      tag_234\n      jump\t// in\n    tag_323:\n        /* \"#utility.yul\":214:436   */\n      swap3\n      swap2\n      pop\n      pop\n      jump\t// out\n        /* \"#utility.yul\":442:517   */\n    tag_235:\n        /* \"#utility.yul\":475:481   */\n      0x00\n        /* \"#utility.yul\":508:510   */\n      0x40\n        /* \"#utility.yul\":502:511   */\n      mload\n        /* \"#utility.yul\":492:511   */\n      swap1\n      pop\n        /* \"#utility.yul\":442:517   */\n      swap1\n      jump\t// out\n        /* \"#utility.yul\":523:640   */\n    tag_236:\n        /* \"#utility.yul\":632:633   */\n      0x00\n        /* \"#utility.yul\":629:630   */\n      dup1\n        /* \"#utility.yul\":622:634   */\n      revert\n        /* \"#utility.yul\":646:763   */\n    tag_237:\n        /* \"#utility.yul\":755:756   */\n      0x00\n        /* \"#utility.yul\":752:753   */\n      dup1\n        /* \"#utility.yul\":745:757   */\n      revert\n        /* \"#utility.yul\":769:891   */\n    tag_238:\n        /* \"#utility.yul\":842:866   */\n      tag_328\n        /* \"#utility.yul\":860:865   */\n      dup2\n        /* \"#utility.yul\":842:866   */\n      tag_233\n      jump\t// in\n    tag_328:\n        /* \"#utility.yul\":835:840   */\n      dup2\n        /* \"#utility.yul\":832:867   */\n      eq\n        /* \"#utility.yul\":822:885   */\n      tag_329\n      jumpi\n        /* \"#utility.yul\":881:882   */\n      0x00\n        /* \"#utility.yul\":878:879   */\n      dup1\n        /* \"#utility.yul\":871:883   */\n      revert\n        /* \"#utility.yul\":822:885   */\n    tag_329:\n        /* \"#utility.yul\":769:891   */\n      pop\n      jump\t// out\n        /* \"#utility.yul\":897:1036   */\n    tag_239:\n        /* \"#utility.yul\":943:948   */\n      0x00\n        /* \"#utility.yul\":981:987   */\n      dup2\n        /* \"#utility.yul\":968:988   */\n      calldataload\n        /* \"#utility.yul\":959:988   */\n      swap1\n      pop\n        /* \"#utility.yul\":997:1030   */\n      tag_331\n        /* \"#utility.yul\":1024:1029   */\n      dup2\n        /* \"#utility.yul\":997:1030   */\n      tag_238\n      jump\t// in\n    tag_331:\n        /* \"#utility.yul\":897:1036   */\n      swap3\n      swap2\n      pop\n      pop\n      jump\t// out\n        /* \"#utility.yul\":1042:1371   */\n    tag_27:\n        /* \"#utility.yul\":1101:1107   */\n      0x00\n        /* \"#utility.yul\":1150:1152   */\n      0x20\n        /* \"#utility.yul\":1138:1147   */\n      dup3\n        /* \"#utility.yul\":1129:1136   */\n      dup5\n        /* \"#utility.yul\":1125:1148   */\n      sub\n        /* \"#utility.yul\":1121:1153   */\n      slt\n        /* \"#utility.yul\":1118:1237   */\n      iszero\n      tag_333\n      jumpi\n        /* \"#utility.yul\":1156:1235   */\n      tag_334\n      tag_236\n      jump\t// in\n    tag_334:\n        /* \"#utility.yul\":1118:1237   */\n    tag_333:\n        /* \"#utility.yul\":1276:1277   */\n      0x00\n        /* \"#utility.yul\":1301:1354   */\n      tag_335\n        /* \"#utility.yul\":1346:1353   */\n      dup5\n        /* \"#utility.yul\":1337:1343   */\n      dup3\n        /* \"#utility.yul\":1326:1335   */\n      dup6\n        /* \"#utility.yul\":1322:1344   */\n      add\n        /* \"#utility.yul\":1301:1354   */\n      tag_239\n      jump\t// in\n    tag_335:\n        /* \"#utility.yul\":1291:1354   */\n      swap2\n      pop\n        /* \"#utility.yul\":1247:1364   */\n      pop\n        /* \"#utility.yul\":1042:1371   */\n      swap3\n      swap2\n      pop\n      pop\n      jump\t// out\n        /* \"#utility.yul\":1377:1503   */\n    tag_240:\n        /* \"#utility.yul\":1414:1421   */\n      0x00\n        /* \"#utility.yul\":1454:1496   */\n      0xffffffffffffffffffffffffffffffffffffffff\n        /* \"#utility.yul\":1447:1452   */\n      dup3\n        /* \"#utility.yul\":1443:1497   */\n      and\n        /* \"#utility.yul\":1432:1497   */\n      swap1\n      pop\n        /* \"#utility.yul\":1377:1503   */\n      swap2\n      swap1\n      pop\n      jump\t// out\n        /* \"#utility.yul\":1509:1605   */\n    tag_241:\n        /* \"#utility.yul\":1546:1553   */\n      0x00\n        /* \"#utility.yul\":1575:1599   */\n      tag_338\n        /* \"#utility.yul\":1593:1598   */\n      dup3\n        /* \"#utility.yul\":1575:1599   */\n      tag_240\n      jump\t// in\n    tag_338:\n        /* \"#utility.yul\":1564:1599   */\n      swap1\n      pop\n        /* \"#utility.yul\":1509:1605   */\n      swap2\n      swap1\n      pop\n      jump\t// out\n        /* \"#utility.yul\":1611:1729   */\n    tag_242:\n        /* \"#utility.yul\":1698:1722   */\n      tag_340\n        /* \"#utility.yul\":1716:1721   */\n      dup2\n        /* \"#utility.yul\":1698:1722   */\n      tag_241\n      jump\t// in\n    tag_340:\n        /* \"#utility.yul\":1693:1696   */\n      dup3\n        /* \"#utility.yul\":1686:1723   */\n      mstore\n        /* \"#utility.yul\":1611:1729   */\n      pop\n      pop\n      jump\t// out\n        /* \"#utility.yul\":1735:1957   */\n    tag_30:\n        /* \"#utility.yul\":1828:1832   */\n      0x00\n        /* \"#utility.yul\":1866:1868   */\n      0x20\n        /* \"#utility.yul\":1855:1864   */\n      dup3\n        /* \"#utility.yul\":1851:1869   */\n      add\n        /* \"#utility.yul\":1843:1869   */\n      swap1\n      pop\n        /* \"#utility.yul\":1879:1950   */\n      tag_342\n        /* \"#utility.yul\":1947:1948   */\n      0x00\n        /* \"#utility.yul\":1936:1945   */\n      dup4\n        /* \"#utility.yul\":1932:1949   */\n      add\n        /* \"#utility.yul\":1923:1929   */\n      dup5\n        /* \"#utility.yul\":1879:1950   */\n      tag_242\n      jump\t// in\n    tag_342:\n        /* \"#utility.yul\":1735:1957   */\n      swap3\n      swap2\n      pop\n      pop\n      jump\t// out\n        /* \"#utility.yul\":1963:2104   */\n    tag_243:\n        /* \"#utility.yul\":2057:2063   */\n      0x00\n        /* \"#utility.yul\":2091:2096   */\n      dup2\n        /* \"#utility.yul\":2085:2097   */\n      mload\n        /* \"#utility.yul\":2075:2097   */\n      swap1\n      pop\n        /* \"#utility.yul\":1963:2104   */\n      swap2\n      swap1\n      pop\n      jump\t// out\n        /* \"#utility.yul\":2110:2321   */\n    tag_244:\n        /* \"#utility.yul\":2236:2247   */\n      0x00\n        /* \"#utility.yul\":2270:2276   */\n      dup3\n        /* \"#utility.yul\":2265:2268   */\n      dup3\n        /* \"#utility.yul\":2258:2277   */\n      mstore\n        /* \"#utility.yul\":2310:2314   */\n      0x20\n        /* \"#utility.yul\":2305:2308   */\n      dup3\n        /* \"#utility.yul\":2301:2315   */\n      add\n        /* \"#utility.yul\":2286:2315   */\n      swap1\n      pop\n        /* \"#utility.yul\":2110:2321   */\n      swap3\n      swap2\n      pop\n      pop\n      jump\t// out\n        /* \"#utility.yul\":2327:2486   */\n    tag_245:\n        /* \"#utility.yul\":2421:2425   */\n      0x00\n        /* \"#utility.yul\":2444:2447   */\n      dup2\n        /* \"#utility.yul\":2436:2447   */\n      swap1\n      pop\n        /* \"#utility.yul\":2474:2478   */\n      0x20\n        /* \"#utility.yul\":2469:2472   */\n      dup3\n        /* \"#utility.yul\":2465:2479   */\n      add\n        /* \"#utility.yul\":2457:2479   */\n      swap1\n      pop\n        /* \"#utility.yul\":2327:2486   */\n      swap2\n      swap1\n      pop\n      jump\t// out\n        /* \"#utility.yul\":2492:2600   */\n    tag_246:\n        /* \"#utility.yul\":2569:2593   */\n      tag_347\n        /* \"#utility.yul\":2587:2592   */\n      dup2\n        /* \"#utility.yul\":2569:2593   */\n      tag_241\n      jump\t// in\n    tag_347:\n        /* \"#utility.yul\":2564:2567   */\n      dup3\n        /* \"#utility.yul\":2557:2594   */\n      mstore\n        /* \"#utility.yul\":2492:2600   */\n      pop\n      pop\n      jump\t// out\n        /* \"#utility.yul\":2606:2714   */\n    tag_247:\n        /* \"#utility.yul\":2683:2707   */\n      tag_349\n        /* \"#utility.yul\":2701:2706   */\n      dup2\n        /* \"#utility.yul\":2683:2707   */\n      tag_233\n      jump\t// in\n    tag_349:\n        /* \"#utility.yul\":2678:2681   */\n      dup3\n        /* \"#utility.yul\":2671:2708   */\n      mstore\n        /* \"#utility.yul\":2606:2714   */\n      pop\n      pop\n      jump\t// out\n        /* \"#utility.yul\":2720:2818   */\n    tag_248:\n        /* \"#utility.yul\":2771:2777   */\n      0x00\n        /* \"#utility.yul\":2805:2810   */\n      dup2\n        /* \"#utility.yul\":2799:2811   */\n      mload\n        /* \"#utility.yul\":2789:2811   */\n      swap1\n      pop\n        /* \"#utility.yul\":2720:2818   */\n      swap2\n      swap1\n      pop\n      jump\t// out\n        /* \"#utility.yul\":2824:2982   */\n    tag_249:\n        /* \"#utility.yul\":2897:2908   */\n      0x00\n        /* \"#utility.yul\":2931:2937   */\n      dup3\n        /* \"#utility.yul\":2926:2929   */\n      dup3\n        /* \"#utility.yul\":2919:2938   */\n      mstore\n        /* \"#utility.yul\":2971:2975   */\n      0x20\n        /* \"#utility.yul\":2966:2969   */\n      dup3\n        /* \"#utility.yul\":2962:2976   */\n      add\n        /* \"#utility.yul\":2947:2976   */\n      swap1\n      pop\n        /* \"#utility.yul\":2824:2982   */\n      swap3\n      swap2\n      pop\n      pop\n      jump\t// out\n        /* \"#utility.yul\":2988:3127   */\n    tag_250:\n        /* \"#utility.yul\":3077:3083   */\n      dup3\n        /* \"#utility.yul\":3072:3075   */\n      dup2\n        /* \"#utility.yul\":3067:3070   */\n      dup4\n        /* \"#utility.yul\":3061:3084   */\n      mcopy\n        /* \"#utility.yul\":3118:3119   */\n      0x00\n        /* \"#utility.yul\":3109:3115   */\n      dup4\n        /* \"#utility.yul\":3104:3107   */\n      dup4\n        /* \"#utility.yul\":3100:3116   */\n      add\n        /* \"#utility.yul\":3093:3120   */\n      mstore\n        /* \"#utility.yul\":2988:3127   */\n      pop\n      pop\n      pop\n      jump\t// out\n        /* \"#utility.yul\":3133:3235   */\n    tag_251:\n        /* \"#utility.yul\":3174:3180   */\n      0x00\n        /* \"#utility.yul\":3225:3227   */\n      0x1f\n        /* \"#utility.yul\":3221:3228   */\n      not\n        /* \"#utility.yul\":3216:3218   */\n      0x1f\n        /* \"#utility.yul\":3209:3214   */\n      dup4\n        /* \"#utility.yul\":3205:3219   */\n      add\n        /* \"#utility.yul\":3201:3229   */\n      and\n        /* \"#utility.yul\":3191:3229   */\n      swap1\n      pop\n        /* \"#utility.yul\":3133:3235   */\n      swap2\n      swap1\n      pop\n      jump\t// out\n        /* \"#utility.yul\":3241:3594   */\n    tag_252:\n        /* \"#utility.yul\":3317:3320   */\n      0x00\n        /* \"#utility.yul\":3345:3383   */\n      tag_355\n        /* \"#utility.yul\":3377:3382   */\n      dup3\n        /* \"#utility.yul\":3345:3383   */\n      tag_248\n      jump\t// in\n    tag_355:\n        /* \"#utility.yul\":3399:3459   */\n      tag_356\n        /* \"#utility.yul\":3452:3458   */\n      dup2\n        /* \"#utility.yul\":3447:3450   */\n      dup6\n        /* \"#utility.yul\":3399:3459   */\n      tag_249\n      jump\t// in\n    tag_356:\n        /* \"#utility.yul\":3392:3459   */\n      swap4\n      pop\n        /* \"#utility.yul\":3468:3533   */\n      tag_357\n        /* \"#utility.yul\":3526:3532   */\n      dup2\n        /* \"#utility.yul\":3521:3524   */\n      dup6\n        /* \"#utility.yul\":3514:3518   */\n      0x20\n        /* \"#utility.yul\":3507:3512   */\n      dup7\n        /* \"#utility.yul\":3503:3519   */\n      add\n        /* \"#utility.yul\":3468:3533   */\n      tag_250\n      jump\t// in\n    tag_357:\n        /* \"#utility.yul\":3558:3587   */\n      tag_358\n        /* \"#utility.yul\":3580:3586   */\n      dup2\n        /* \"#utility.yul\":3558:3587   */\n      tag_251\n      jump\t// in\n    tag_358:\n        /* \"#utility.yul\":3553:3556   */\n      dup5\n        /* \"#utility.yul\":3549:3588   */\n      add\n        /* \"#utility.yul\":3542:3588   */\n      swap2\n      pop\n        /* \"#utility.yul\":3321:3594   */\n      pop\n        /* \"#utility.yul\":3241:3594   */\n      swap3\n      swap2\n      pop\n      pop\n      jump\t// out\n        /* \"#utility.yul\":3600:3690   */\n    tag_253:\n        /* \"#utility.yul\":3634:3641   */\n      0x00\n        /* \"#utility.yul\":3677:3682   */\n      dup2\n        /* \"#utility.yul\":3670:3683   */\n      iszero\n        /* \"#utility.yul\":3663:3684   */\n      iszero\n        /* \"#utility.yul\":3652:3684   */\n      swap1\n      pop\n        /* \"#utility.yul\":3600:3690   */\n      swap2\n      swap1\n      pop\n      jump\t// out\n        /* \"#utility.yul\":3696:3795   */\n    tag_254:\n        /* \"#utility.yul\":3767:3788   */\n      tag_361\n        /* \"#utility.yul\":3782:3787   */\n      dup2\n        /* \"#utility.yul\":3767:3788   */\n      tag_253\n      jump\t// in\n    tag_361:\n        /* \"#utility.yul\":3762:3765   */\n      dup3\n        /* \"#utility.yul\":3755:3789   */\n      mstore\n        /* \"#utility.yul\":3696:3795   */\n      pop\n      pop\n      jump\t// out\n        /* \"#utility.yul\":3879:5005   */\n    tag_255:\n        /* \"#utility.yul\":3992:3995   */\n      0x00\n        /* \"#utility.yul\":4028:4032   */\n      0xa0\n        /* \"#utility.yul\":4023:4026   */\n      dup4\n        /* \"#utility.yul\":4019:4033   */\n      add\n        /* \"#utility.yul\":4113:4117   */\n      0x00\n        /* \"#utility.yul\":4106:4111   */\n      dup4\n        /* \"#utility.yul\":4102:4118   */\n      add\n        /* \"#utility.yul\":4096:4119   */\n      mload\n        /* \"#utility.yul\":4132:4195   */\n      tag_363\n        /* \"#utility.yul\":4189:4193   */\n      0x00\n        /* \"#utility.yul\":4184:4187   */\n      dup7\n        /* \"#utility.yul\":4180:4194   */\n      add\n        /* \"#utility.yul\":4166:4178   */\n      dup3\n        /* \"#utility.yul\":4132:4195   */\n      tag_246\n      jump\t// in\n    tag_363:\n        /* \"#utility.yul\":4043:4205   */\n      pop\n        /* \"#utility.yul\":4288:4292   */\n      0x20\n        /* \"#utility.yul\":4281:4286   */\n      dup4\n        /* \"#utility.yul\":4277:4293   */\n      add\n        /* \"#utility.yul\":4271:4294   */\n      mload\n        /* \"#utility.yul\":4307:4370   */\n      tag_364\n        /* \"#utility.yul\":4364:4368   */\n      0x20\n        /* \"#utility.yul\":4359:4362   */\n      dup7\n        /* \"#utility.yul\":4355:4369   */\n      add\n        /* \"#utility.yul\":4341:4353   */\n      dup3\n        /* \"#utility.yul\":4307:4370   */\n      tag_247\n      jump\t// in\n    tag_364:\n        /* \"#utility.yul\":4215:4380   */\n      pop\n        /* \"#utility.yul\":4462:4466   */\n      0x40\n        /* \"#utility.yul\":4455:4460   */\n      dup4\n        /* \"#utility.yul\":4451:4467   */\n      add\n        /* \"#utility.yul\":4445:4468   */\n      mload\n        /* \"#utility.yul\":4515:4518   */\n      dup5\n        /* \"#utility.yul\":4509:4513   */\n      dup3\n        /* \"#utility.yul\":4505:4519   */\n      sub\n        /* \"#utility.yul\":4498:4502   */\n      0x40\n        /* \"#utility.yul\":4493:4496   */\n      dup7\n        /* \"#utility.yul\":4489:4503   */\n      add\n        /* \"#utility.yul\":4482:4520   */\n      mstore\n        /* \"#utility.yul\":4541:4612   */\n      tag_365\n        /* \"#utility.yul\":4607:4611   */\n      dup3\n        /* \"#utility.yul\":4593:4605   */\n      dup3\n        /* \"#utility.yul\":4541:4612   */\n      tag_252\n      jump\t// in\n    tag_365:\n        /* \"#utility.yul\":4533:4612   */\n      swap2\n      pop\n        /* \"#utility.yul\":4390:4623   */\n      pop\n        /* \"#utility.yul\":4709:4713   */\n      0x60\n        /* \"#utility.yul\":4702:4707   */\n      dup4\n        /* \"#utility.yul\":4698:4714   */\n      add\n        /* \"#utility.yul\":4692:4715   */\n      mload\n        /* \"#utility.yul\":4728:4785   */\n      tag_366\n        /* \"#utility.yul\":4779:4783   */\n      0x60\n        /* \"#utility.yul\":4774:4777   */\n      dup7\n        /* \"#utility.yul\":4770:4784   */\n      add\n        /* \"#utility.yul\":4756:4768   */\n      dup3\n        /* \"#utility.yul\":4728:4785   */\n      tag_254\n      jump\t// in\n    tag_366:\n        /* \"#utility.yul\":4633:4795   */\n      pop\n        /* \"#utility.yul\":4886:4890   */\n      0x80\n        /* \"#utility.yul\":4879:4884   */\n      dup4\n        /* \"#utility.yul\":4875:4891   */\n      add\n        /* \"#utility.yul\":4869:4892   */\n      mload\n        /* \"#utility.yul\":4905:4968   */\n      tag_367\n        /* \"#utility.yul\":4962:4966   */\n      0x80\n        /* \"#utility.yul\":4957:4960   */\n      dup7\n        /* \"#utility.yul\":4953:4967   */\n      add\n        /* \"#utility.yul\":4939:4951   */\n      dup3\n        /* \"#utility.yul\":4905:4968   */\n      tag_247\n      jump\t// in\n    tag_367:\n        /* \"#utility.yul\":4805:4978   */\n      pop\n        /* \"#utility.yul\":4995:4999   */\n      dup1\n        /* \"#utility.yul\":4988:4999   */\n      swap2\n      pop\n        /* \"#utility.yul\":3997:5005   */\n      pop\n        /* \"#utility.yul\":3879:5005   */\n      swap3\n      swap2\n      pop\n      pop\n      jump\t// out\n        /* \"#utility.yul\":5011:5275   */\n    tag_256:\n        /* \"#utility.yul\":5134:5144   */\n      0x00\n        /* \"#utility.yul\":5169:5269   */\n      tag_369\n        /* \"#utility.yul\":5265:5268   */\n      dup4\n        /* \"#utility.yul\":5257:5263   */\n      dup4\n        /* \"#utility.yul\":5169:5269   */\n      tag_255\n      jump\t// in\n    tag_369:\n        /* \"#utility.yul\":5155:5269   */\n      swap1\n      pop\n        /* \"#utility.yul\":5011:5275   */\n      swap3\n      swap2\n      pop\n      pop\n      jump\t// out\n        /* \"#utility.yul\":5281:5421   */\n    tag_257:\n        /* \"#utility.yul\":5378:5382   */\n      0x00\n        /* \"#utility.yul\":5410:5414   */\n      0x20\n        /* \"#utility.yul\":5405:5408   */\n      dup3\n        /* \"#utility.yul\":5401:5415   */\n      add\n        /* \"#utility.yul\":5393:5415   */\n      swap1\n      pop\n        /* \"#utility.yul\":5281:5421   */\n      swap2\n      swap1\n      pop\n      jump\t// out\n        /* \"#utility.yul\":5509:6636   */\n    tag_258:\n        /* \"#utility.yul\":5682:5685   */\n      0x00\n        /* \"#utility.yul\":5711:5792   */\n      tag_372\n        /* \"#utility.yul\":5786:5791   */\n      dup3\n        /* \"#utility.yul\":5711:5792   */\n      tag_243\n      jump\t// in\n    tag_372:\n        /* \"#utility.yul\":5808:5921   */\n      tag_373\n        /* \"#utility.yul\":5914:5920   */\n      dup2\n        /* \"#utility.yul\":5909:5912   */\n      dup6\n        /* \"#utility.yul\":5808:5921   */\n      tag_244\n      jump\t// in\n    tag_373:\n        /* \"#utility.yul\":5801:5921   */\n      swap4\n      pop\n        /* \"#utility.yul\":5947:5950   */\n      dup4\n        /* \"#utility.yul\":5992:5996   */\n      0x20\n        /* \"#utility.yul\":5984:5990   */\n      dup3\n        /* \"#utility.yul\":5980:5997   */\n      mul\n        /* \"#utility.yul\":5975:5978   */\n      dup6\n        /* \"#utility.yul\":5971:5998   */\n      add\n        /* \"#utility.yul\":6022:6105   */\n      tag_374\n        /* \"#utility.yul\":6099:6104   */\n      dup6\n        /* \"#utility.yul\":6022:6105   */\n      tag_245\n      jump\t// in\n    tag_374:\n        /* \"#utility.yul\":6128:6135   */\n      dup1\n        /* \"#utility.yul\":6159:6160   */\n      0x00\n        /* \"#utility.yul\":6144:6591   */\n    tag_375:\n        /* \"#utility.yul\":6169:6175   */\n      dup6\n        /* \"#utility.yul\":6166:6167   */\n      dup2\n        /* \"#utility.yul\":6163:6176   */\n      lt\n        /* \"#utility.yul\":6144:6591   */\n      iszero\n      tag_377\n      jumpi\n        /* \"#utility.yul\":6240:6249   */\n      dup5\n        /* \"#utility.yul\":6234:6238   */\n      dup5\n        /* \"#utility.yul\":6230:6250   */\n      sub\n        /* \"#utility.yul\":6225:6228   */\n      dup10\n        /* \"#utility.yul\":6218:6251   */\n      mstore\n        /* \"#utility.yul\":6291:6297   */\n      dup2\n        /* \"#utility.yul\":6285:6298   */\n      mload\n        /* \"#utility.yul\":6319:6437   */\n      tag_378\n        /* \"#utility.yul\":6432:6436   */\n      dup6\n        /* \"#utility.yul\":6417:6430   */\n      dup3\n        /* \"#utility.yul\":6319:6437   */\n      tag_256\n      jump\t// in\n    tag_378:\n        /* \"#utility.yul\":6311:6437   */\n      swap5\n      pop\n        /* \"#utility.yul\":6460:6547   */\n      tag_379\n        /* \"#utility.yul\":6540:6546   */\n      dup4\n        /* \"#utility.yul\":6460:6547   */\n      tag_257\n      jump\t// in\n    tag_379:\n        /* \"#utility.yul\":6450:6547   */\n      swap3\n      pop\n        /* \"#utility.yul\":6576:6580   */\n      0x20\n        /* \"#utility.yul\":6571:6574   */\n      dup11\n        /* \"#utility.yul\":6567:6581   */\n      add\n        /* \"#utility.yul\":6560:6581   */\n      swap10\n      pop\n        /* \"#utility.yul\":6204:6591   */\n      pop\n        /* \"#utility.yul\":6191:6192   */\n      0x01\n        /* \"#utility.yul\":6188:6189   */\n      dup2\n        /* \"#utility.yul\":6184:6193   */\n      add\n        /* \"#utility.yul\":6179:6193   */\n      swap1\n      pop\n        /* \"#utility.yul\":6144:6591   */\n      jump(tag_375)\n    tag_377:\n        /* \"#utility.yul\":6148:6162   */\n      pop\n        /* \"#utility.yul\":6607:6611   */\n      dup3\n        /* \"#utility.yul\":6600:6611   */\n      swap8\n      pop\n        /* \"#utility.yul\":6627:6630   */\n      dup8\n        /* \"#utility.yul\":6620:6630   */\n      swap6\n      pop\n        /* \"#utility.yul\":5687:6636   */\n      pop\n      pop\n      pop\n      pop\n      pop\n        /* \"#utility.yul\":5509:6636   */\n      swap3\n      swap2\n      pop\n      pop\n      jump\t// out\n        /* \"#utility.yul\":6642:7123   */\n    tag_39:\n        /* \"#utility.yul\":6839:6843   */\n      0x00\n        /* \"#utility.yul\":6877:6879   */\n      0x20\n        /* \"#utility.yul\":6866:6875   */\n      dup3\n        /* \"#utility.yul\":6862:6880   */\n      add\n        /* \"#utility.yul\":6854:6880   */\n      swap1\n      pop\n        /* \"#utility.yul\":6926:6935   */\n      dup2\n        /* \"#utility.yul\":6920:6924   */\n      dup2\n        /* \"#utility.yul\":6916:6936   */\n      sub\n        /* \"#utility.yul\":6912:6913   */\n      0x00\n        /* \"#utility.yul\":6901:6910   */\n      dup4\n        /* \"#utility.yul\":6897:6914   */\n      add\n        /* \"#utility.yul\":6890:6937   */\n      mstore\n        /* \"#utility.yul\":6954:7116   */\n      tag_381\n        /* \"#utility.yul\":7111:7115   */\n      dup2\n        /* \"#utility.yul\":7102:7108   */\n      dup5\n        /* \"#utility.yul\":6954:7116   */\n      tag_258\n      jump\t// in\n    tag_381:\n        /* \"#utility.yul\":6946:7116   */\n      swap1\n      pop\n        /* \"#utility.yul\":6642:7123   */\n      swap3\n      swap2\n      pop\n      pop\n      jump\t// out\n        /* \"#utility.yul\":7129:7251   */\n    tag_259:\n        /* \"#utility.yul\":7202:7226   */\n      tag_383\n        /* \"#utility.yul\":7220:7225   */\n      dup2\n        /* \"#utility.yul\":7202:7226   */\n      tag_241\n      jump\t// in\n    tag_383:\n        /* \"#utility.yul\":7195:7200   */\n      dup2\n        /* \"#utility.yul\":7192:7227   */\n      eq\n        /* \"#utility.yul\":7182:7245   */\n      tag_384\n      jumpi\n        /* \"#utility.yul\":7241:7242   */\n      0x00\n        /* \"#utility.yul\":7238:7239   */\n      dup1\n        /* \"#utility.yul\":7231:7243   */\n      revert\n        /* \"#utility.yul\":7182:7245   */\n    tag_384:\n        /* \"#utility.yul\":7129:7251   */\n      pop\n      jump\t// out\n        /* \"#utility.yul\":7257:7396   */\n    tag_260:\n        /* \"#utility.yul\":7303:7308   */\n      0x00\n        /* \"#utility.yul\":7341:7347   */\n      dup2\n        /* \"#utility.yul\":7328:7348   */\n      calldataload\n        /* \"#utility.yul\":7319:7348   */\n      swap1\n      pop\n        /* \"#utility.yul\":7357:7390   */\n      tag_386\n        /* \"#utility.yul\":7384:7389   */\n      dup2\n        /* \"#utility.yul\":7357:7390   */\n      tag_259\n      jump\t// in\n    tag_386:\n        /* \"#utility.yul\":7257:7396   */\n      swap3\n      swap2\n      pop\n      pop\n      jump\t// out\n        /* \"#utility.yul\":7402:7731   */\n    tag_47:\n        /* \"#utility.yul\":7461:7467   */\n      0x00\n        /* \"#utility.yul\":7510:7512   */\n      0x20\n        /* \"#utility.yul\":7498:7507   */\n      dup3\n        /* \"#utility.yul\":7489:7496   */\n      dup5\n        /* \"#utility.yul\":7485:7508   */\n      sub\n        /* \"#utility.yul\":7481:7513   */\n      slt\n        /* \"#utility.yul\":7478:7597   */\n      iszero\n      tag_388\n      jumpi\n        /* \"#utility.yul\":7516:7595   */\n      tag_389\n      tag_236\n      jump\t// in\n    tag_389:\n        /* \"#utility.yul\":7478:7597   */\n    tag_388:\n        /* \"#utility.yul\":7636:7637   */\n      0x00\n        /* \"#utility.yul\":7661:7714   */\n      tag_390\n        /* \"#utility.yul\":7706:7713   */\n      dup5\n        /* \"#utility.yul\":7697:7703   */\n      dup3\n        /* \"#utility.yul\":7686:7695   */\n      dup6\n        /* \"#utility.yul\":7682:7704   */\n      add\n        /* \"#utility.yul\":7661:7714   */\n      tag_260\n      jump\t// in\n    tag_390:\n        /* \"#utility.yul\":7651:7714   */\n      swap2\n      pop\n        /* \"#utility.yul\":7607:7724   */\n      pop\n        /* \"#utility.yul\":7402:7731   */\n      swap3\n      swap2\n      pop\n      pop\n      jump\t// out\n        /* \"#utility.yul\":7737:7846   */\n    tag_261:\n        /* \"#utility.yul\":7818:7839   */\n      tag_392\n        /* \"#utility.yul\":7833:7838   */\n      dup2\n        /* \"#utility.yul\":7818:7839   */\n      tag_253\n      jump\t// in\n    tag_392:\n        /* \"#utility.yul\":7813:7816   */\n      dup3\n        /* \"#utility.yul\":7806:7840   */\n      mstore\n        /* \"#utility.yul\":7737:7846   */\n      pop\n      pop\n      jump\t// out\n        /* \"#utility.yul\":7852:8062   */\n    tag_50:\n        /* \"#utility.yul\":7939:7943   */\n      0x00\n        /* \"#utility.yul\":7977:7979   */\n      0x20\n        /* \"#utility.yul\":7966:7975   */\n      dup3\n        /* \"#utility.yul\":7962:7980   */\n      add\n        /* \"#utility.yul\":7954:7980   */\n      swap1\n      pop\n        /* \"#utility.yul\":7990:8055   */\n      tag_394\n        /* \"#utility.yul\":8052:8053   */\n      0x00\n        /* \"#utility.yul\":8041:8050   */\n      dup4\n        /* \"#utility.yul\":8037:8054   */\n      add\n        /* \"#utility.yul\":8028:8034   */\n      dup5\n        /* \"#utility.yul\":7990:8055   */\n      tag_261\n      jump\t// in\n    tag_394:\n        /* \"#utility.yul\":7852:8062   */\n      swap3\n      swap2\n      pop\n      pop\n      jump\t// out\n        /* \"#utility.yul\":8068:8597   */\n    tag_56:\n        /* \"#utility.yul\":8233:8237   */\n      0x00\n        /* \"#utility.yul\":8271:8274   */\n      0x80\n        /* \"#utility.yul\":8260:8269   */\n      dup3\n        /* \"#utility.yul\":8256:8275   */\n      add\n        /* \"#utility.yul\":8248:8275   */\n      swap1\n      pop\n        /* \"#utility.yul\":8285:8356   */\n      tag_396\n        /* \"#utility.yul\":8353:8354   */\n      0x00\n        /* \"#utility.yul\":8342:8351   */\n      dup4\n        /* \"#utility.yul\":8338:8355   */\n      add\n        /* \"#utility.yul\":8329:8335   */\n      dup8\n        /* \"#utility.yul\":8285:8356   */\n      tag_242\n      jump\t// in\n    tag_396:\n        /* \"#utility.yul\":8366:8432   */\n      tag_397\n        /* \"#utility.yul\":8428:8430   */\n      0x20\n        /* \"#utility.yul\":8417:8426   */\n      dup4\n        /* \"#utility.yul\":8413:8431   */\n      add\n        /* \"#utility.yul\":8404:8410   */\n      dup7\n        /* \"#utility.yul\":8366:8432   */\n      tag_261\n      jump\t// in\n    tag_397:\n        /* \"#utility.yul\":8442:8514   */\n      tag_398\n        /* \"#utility.yul\":8510:8512   */\n      0x40\n        /* \"#utility.yul\":8499:8508   */\n      dup4\n        /* \"#utility.yul\":8495:8513   */\n      add\n        /* \"#utility.yul\":8486:8492   */\n      dup6\n        /* \"#utility.yul\":8442:8514   */\n      tag_234\n      jump\t// in\n    tag_398:\n        /* \"#utility.yul\":8524:8590   */\n      tag_399\n        /* \"#utility.yul\":8586:8588   */\n      0x60\n        /* \"#utility.yul\":8575:8584   */\n      dup4\n        /* \"#utility.yul\":8571:8589   */\n      add\n        /* \"#utility.yul\":8562:8568   */\n      dup5\n        /* \"#utility.yul\":8524:8590   */\n      tag_261\n      jump\t// in\n    tag_399:\n        /* \"#utility.yul\":8068:8597   */\n      swap6\n      swap5\n      pop\n      pop\n      pop\n      pop\n      pop\n      jump\t// out\n        /* \"#utility.yul\":8603:8771   */\n    tag_262:\n        /* \"#utility.yul\":8686:8697   */\n      0x00\n        /* \"#utility.yul\":8720:8726   */\n      dup3\n        /* \"#utility.yul\":8715:8718   */\n      dup3\n        /* \"#utility.yul\":8708:8727   */\n      mstore\n        /* \"#utility.yul\":8760:8764   */\n      0x20\n        /* \"#utility.yul\":8755:8758   */\n      dup3\n        /* \"#utility.yul\":8751:8765   */\n      add\n        /* \"#utility.yul\":8736:8765   */\n      swap1\n      pop\n        /* \"#utility.yul\":8603:8771   */\n      swap3\n      swap2\n      pop\n      pop\n      jump\t// out\n        /* \"#utility.yul\":8777:9150   */\n    tag_263:\n        /* \"#utility.yul\":8863:8866   */\n      0x00\n        /* \"#utility.yul\":8891:8929   */\n      tag_402\n        /* \"#utility.yul\":8923:8928   */\n      dup3\n        /* \"#utility.yul\":8891:8929   */\n      tag_248\n      jump\t// in\n    tag_402:\n        /* \"#utility.yul\":8945:9015   */\n      tag_403\n        /* \"#utility.yul\":9008:9014   */\n      dup2\n        /* \"#utility.yul\":9003:9006   */\n      dup6\n        /* \"#utility.yul\":8945:9015   */\n      tag_262\n      jump\t// in\n    tag_403:\n        /* \"#utility.yul\":8938:9015   */\n      swap4\n      pop\n        /* \"#utility.yul\":9024:9089   */\n      tag_404\n        /* \"#utility.yul\":9082:9088   */\n      dup2\n        /* \"#utility.yul\":9077:9080   */\n      dup6\n        /* \"#utility.yul\":9070:9074   */\n      0x20\n        /* \"#utility.yul\":9063:9068   */\n      dup7\n        /* \"#utility.yul\":9059:9075   */\n      add\n        /* \"#utility.yul\":9024:9089   */\n      tag_250\n      jump\t// in\n    tag_404:\n        /* \"#utility.yul\":9114:9143   */\n      tag_405\n        /* \"#utility.yul\":9136:9142   */\n      dup2\n        /* \"#utility.yul\":9114:9143   */\n      tag_251\n      jump\t// in\n    tag_405:\n        /* \"#utility.yul\":9109:9112   */\n      dup5\n        /* \"#utility.yul\":9105:9144   */\n      add\n        /* \"#utility.yul\":9098:9144   */\n      swap2\n      pop\n        /* \"#utility.yul\":8867:9150   */\n      pop\n        /* \"#utility.yul\":8777:9150   */\n      swap3\n      swap2\n      pop\n      pop\n      jump\t// out\n        /* \"#utility.yul\":9156:9895   */\n    tag_62:\n        /* \"#utility.yul\":9373:9377   */\n      0x00\n        /* \"#utility.yul\":9411:9414   */\n      0xa0\n        /* \"#utility.yul\":9400:9409   */\n      dup3\n        /* \"#utility.yul\":9396:9415   */\n      add\n        /* \"#utility.yul\":9388:9415   */\n      swap1\n      pop\n        /* \"#utility.yul\":9425:9496   */\n      tag_407\n        /* \"#utility.yul\":9493:9494   */\n      0x00\n        /* \"#utility.yul\":9482:9491   */\n      dup4\n        /* \"#utility.yul\":9478:9495   */\n      add\n        /* \"#utility.yul\":9469:9475   */\n      dup9\n        /* \"#utility.yul\":9425:9496   */\n      tag_242\n      jump\t// in\n    tag_407:\n        /* \"#utility.yul\":9506:9578   */\n      tag_408\n        /* \"#utility.yul\":9574:9576   */\n      0x20\n        /* \"#utility.yul\":9563:9572   */\n      dup4\n        /* \"#utility.yul\":9559:9577   */\n      add\n        /* \"#utility.yul\":9550:9556   */\n      dup8\n        /* \"#utility.yul\":9506:9578   */\n      tag_234\n      jump\t// in\n    tag_408:\n        /* \"#utility.yul\":9625:9634   */\n      dup2\n        /* \"#utility.yul\":9619:9623   */\n      dup2\n        /* \"#utility.yul\":9615:9635   */\n      sub\n        /* \"#utility.yul\":9610:9612   */\n      0x40\n        /* \"#utility.yul\":9599:9608   */\n      dup4\n        /* \"#utility.yul\":9595:9613   */\n      add\n        /* \"#utility.yul\":9588:9636   */\n      mstore\n        /* \"#utility.yul\":9653:9729   */\n      tag_409\n        /* \"#utility.yul\":9724:9728   */\n      dup2\n        /* \"#utility.yul\":9715:9721   */\n      dup7\n        /* \"#utility.yul\":9653:9729   */\n      tag_263\n      jump\t// in\n    tag_409:\n        /* \"#utility.yul\":9645:9729   */\n      swap1\n      pop\n        /* \"#utility.yul\":9739:9805   */\n      tag_410\n        /* \"#utility.yul\":9801:9803   */\n      0x60\n        /* \"#utility.yul\":9790:9799   */\n      dup4\n        /* \"#utility.yul\":9786:9804   */\n      add\n        /* \"#utility.yul\":9777:9783   */\n      dup6\n        /* \"#utility.yul\":9739:9805   */\n      tag_261\n      jump\t// in\n    tag_410:\n        /* \"#utility.yul\":9815:9888   */\n      tag_411\n        /* \"#utility.yul\":9883:9886   */\n      0x80\n        /* \"#utility.yul\":9872:9881   */\n      dup4\n        /* \"#utility.yul\":9868:9887   */\n      add\n        /* \"#utility.yul\":9859:9865   */\n      dup5\n        /* \"#utility.yul\":9815:9888   */\n      tag_234\n      jump\t// in\n    tag_411:\n        /* \"#utility.yul\":9156:9895   */\n      swap7\n      swap6\n      pop\n      pop\n      pop\n      pop\n      pop\n      pop\n      jump\t// out\n        /* \"#utility.yul\":9901:10375   */\n    tag_66:\n        /* \"#utility.yul\":9969:9975   */\n      0x00\n        /* \"#utility.yul\":9977:9983   */\n      dup1\n        /* \"#utility.yul\":10026:10028   */\n      0x40\n        /* \"#utility.yul\":10014:10023   */\n      dup4\n        /* \"#utility.yul\":10005:10012   */\n      dup6\n        /* \"#utility.yul\":10001:10024   */\n      sub\n        /* \"#utility.yul\":9997:10029   */\n      slt\n        /* \"#utility.yul\":9994:10113   */\n      iszero\n      tag_413\n      jumpi\n        /* \"#utility.yul\":10032:10111   */\n      tag_414\n      tag_236\n      jump\t// in\n    tag_414:\n        /* \"#utility.yul\":9994:10113   */\n    tag_413:\n        /* \"#utility.yul\":10152:10153   */\n      0x00\n        /* \"#utility.yul\":10177:10230   */\n      tag_415\n        /* \"#utility.yul\":10222:10229   */\n      dup6\n        /* \"#utility.yul\":10213:10219   */\n      dup3\n        /* \"#utility.yul\":10202:10211   */\n      dup7\n        /* \"#utility.yul\":10198:10220   */\n      add\n        /* \"#utility.yul\":10177:10230   */\n      tag_239\n      jump\t// in\n    tag_415:\n        /* \"#utility.yul\":10167:10230   */\n      swap3\n      pop\n        /* \"#utility.yul\":10123:10240   */\n      pop\n        /* \"#utility.yul\":10279:10281   */\n      0x20\n        /* \"#utility.yul\":10305:10358   */\n      tag_416\n        /* \"#utility.yul\":10350:10357   */\n      dup6\n        /* \"#utility.yul\":10341:10347   */\n      dup3\n        /* \"#utility.yul\":10330:10339   */\n      dup7\n        /* \"#utility.yul\":10326:10348   */\n      add\n        /* \"#utility.yul\":10305:10358   */\n      tag_260\n      jump\t// in\n    tag_416:\n        /* \"#utility.yul\":10295:10358   */\n      swap2\n      pop\n        /* \"#utility.yul\":10250:10368   */\n      pop\n        /* \"#utility.yul\":9901:10375   */\n      swap3\n      pop\n      swap3\n      swap1\n      pop\n      jump\t// out\n        /* \"#utility.yul\":10381:10497   */\n    tag_264:\n        /* \"#utility.yul\":10451:10472   */\n      tag_418\n        /* \"#utility.yul\":10466:10471   */\n      dup2\n        /* \"#utility.yul\":10451:10472   */\n      tag_253\n      jump\t// in\n    tag_418:\n        /* \"#utility.yul\":10444:10449   */\n      dup2\n        /* \"#utility.yul\":10441:10473   */\n      eq\n        /* \"#utility.yul\":10431:10491   */\n      tag_419\n      jumpi\n        /* \"#utility.yul\":10487:10488   */\n      0x00\n        /* \"#utility.yul\":10484:10485   */\n      dup1\n        /* \"#utility.yul\":10477:10489   */\n      revert\n        /* \"#utility.yul\":10431:10491   */\n    tag_419:\n        /* \"#utility.yul\":10381:10497   */\n      pop\n      jump\t// out\n        /* \"#utility.yul\":10503:10636   */\n    tag_265:\n        /* \"#utility.yul\":10546:10551   */\n      0x00\n        /* \"#utility.yul\":10584:10590   */\n      dup2\n        /* \"#utility.yul\":10571:10591   */\n      calldataload\n        /* \"#utility.yul\":10562:10591   */\n      swap1\n      pop\n        /* \"#utility.yul\":10600:10630   */\n      tag_421\n        /* \"#utility.yul\":10624:10629   */\n      dup2\n        /* \"#utility.yul\":10600:10630   */\n      tag_264\n      jump\t// in\n    tag_421:\n        /* \"#utility.yul\":10503:10636   */\n      swap3\n      swap2\n      pop\n      pop\n      jump\t// out\n        /* \"#utility.yul\":10642:11110   */\n    tag_72:\n        /* \"#utility.yul\":10707:10713   */\n      0x00\n        /* \"#utility.yul\":10715:10721   */\n      dup1\n        /* \"#utility.yul\":10764:10766   */\n      0x40\n        /* \"#utility.yul\":10752:10761   */\n      dup4\n        /* \"#utility.yul\":10743:10750   */\n      dup6\n        /* \"#utility.yul\":10739:10762   */\n      sub\n        /* \"#utility.yul\":10735:10767   */\n      slt\n        /* \"#utility.yul\":10732:10851   */\n      iszero\n      tag_423\n      jumpi\n        /* \"#utility.yul\":10770:10849   */\n      tag_424\n      tag_236\n      jump\t// in\n    tag_424:\n        /* \"#utility.yul\":10732:10851   */\n    tag_423:\n        /* \"#utility.yul\":10890:10891   */\n      0x00\n        /* \"#utility.yul\":10915:10968   */\n      tag_425\n        /* \"#utility.yul\":10960:10967   */\n      dup6\n        /* \"#utility.yul\":10951:10957   */\n      dup3\n        /* \"#utility.yul\":10940:10949   */\n      dup7\n        /* \"#utility.yul\":10936:10958   */\n      add\n        /* \"#utility.yul\":10915:10968   */\n      tag_260\n      jump\t// in\n    tag_425:\n        /* \"#utility.yul\":10905:10968   */\n      swap3\n      pop\n        /* \"#utility.yul\":10861:10978   */\n      pop\n        /* \"#utility.yul\":11017:11019   */\n      0x20\n        /* \"#utility.yul\":11043:11093   */\n      tag_426\n        /* \"#utility.yul\":11085:11092   */\n      dup6\n        /* \"#utility.yul\":11076:11082   */\n      dup3\n        /* \"#utility.yul\":11065:11074   */\n      dup7\n        /* \"#utility.yul\":11061:11083   */\n      add\n        /* \"#utility.yul\":11043:11093   */\n      tag_265\n      jump\t// in\n    tag_426:\n        /* \"#utility.yul\":11033:11093   */\n      swap2\n      pop\n        /* \"#utility.yul\":10988:11103   */\n      pop\n        /* \"#utility.yul\":10642:11110   */\n      swap3\n      pop\n      swap3\n      swap1\n      pop\n      jump\t// out\n        /* \"#utility.yul\":11116:11233   */\n    tag_266:\n        /* \"#utility.yul\":11225:11226   */\n      0x00\n        /* \"#utility.yul\":11222:11223   */\n      dup1\n        /* \"#utility.yul\":11215:11227   */\n      revert\n        /* \"#utility.yul\":11239:11356   */\n    tag_267:\n        /* \"#utility.yul\":11348:11349   */\n      0x00\n        /* \"#utility.yul\":11345:11346   */\n      dup1\n        /* \"#utility.yul\":11338:11350   */\n      revert\n        /* \"#utility.yul\":11362:11542   */\n    tag_268:\n        /* \"#utility.yul\":11410:11487   */\n      0x4e487b7100000000000000000000000000000000000000000000000000000000\n        /* \"#utility.yul\":11407:11408   */\n      0x00\n        /* \"#utility.yul\":11400:11488   */\n      mstore\n        /* \"#utility.yul\":11507:11511   */\n      0x41\n        /* \"#utility.yul\":11504:11505   */\n      0x04\n        /* \"#utility.yul\":11497:11512   */\n      mstore\n        /* \"#utility.yul\":11531:11535   */\n      0x24\n        /* \"#utility.yul\":11528:11529   */\n      0x00\n        /* \"#utility.yul\":11521:11536   */\n      revert\n        /* \"#utility.yul\":11548:11829   */\n    tag_269:\n        /* \"#utility.yul\":11631:11658   */\n      tag_431\n        /* \"#utility.yul\":11653:11657   */\n      dup3\n        /* \"#utility.yul\":11631:11658   */\n      tag_251\n      jump\t// in\n    tag_431:\n        /* \"#utility.yul\":11623:11629   */\n      dup2\n        /* \"#utility.yul\":11619:11659   */\n      add\n        /* \"#utility.yul\":11761:11767   */\n      dup2\n        /* \"#utility.yul\":11749:11759   */\n      dup2\n        /* \"#utility.yul\":11746:11768   */\n      lt\n        /* \"#utility.yul\":11725:11743   */\n      0xffffffffffffffff\n        /* \"#utility.yul\":11713:11723   */\n      dup3\n        /* \"#utility.yul\":11710:11744   */\n      gt\n        /* \"#utility.yul\":11707:11769   */\n      or\n        /* \"#utility.yul\":11704:11792   */\n      iszero\n      tag_432\n      jumpi\n        /* \"#utility.yul\":11772:11790   */\n      tag_433\n      tag_268\n      jump\t// in\n    tag_433:\n        /* \"#utility.yul\":11704:11792   */\n    tag_432:\n        /* \"#utility.yul\":11812:11822   */\n      dup1\n        /* \"#utility.yul\":11808:11810   */\n      0x40\n        /* \"#utility.yul\":11801:11823   */\n      mstore\n        /* \"#utility.yul\":11591:11829   */\n      pop\n        /* \"#utility.yul\":11548:11829   */\n      pop\n      pop\n      jump\t// out\n        /* \"#utility.yul\":11835:11964   */\n    tag_270:\n        /* \"#utility.yul\":11869:11875   */\n      0x00\n        /* \"#utility.yul\":11896:11916   */\n      tag_435\n      tag_235\n      jump\t// in\n    tag_435:\n        /* \"#utility.yul\":11886:11916   */\n      swap1\n      pop\n        /* \"#utility.yul\":11925:11958   */\n      tag_436\n        /* \"#utility.yul\":11953:11957   */\n      dup3\n        /* \"#utility.yul\":11945:11951   */\n      dup3\n        /* \"#utility.yul\":11925:11958   */\n      tag_269\n      jump\t// in\n    tag_436:\n        /* \"#utility.yul\":11835:11964   */\n      swap2\n      swap1\n      pop\n      jump\t// out\n        /* \"#utility.yul\":11970:12277   */\n    tag_271:\n        /* \"#utility.yul\":12031:12035   */\n      0x00\n        /* \"#utility.yul\":12121:12139   */\n      0xffffffffffffffff\n        /* \"#utility.yul\":12113:12119   */\n      dup3\n        /* \"#utility.yul\":12110:12140   */\n      gt\n        /* \"#utility.yul\":12107:12163   */\n      iszero\n      tag_438\n      jumpi\n        /* \"#utility.yul\":12143:12161   */\n      tag_439\n      tag_268\n      jump\t// in\n    tag_439:\n        /* \"#utility.yul\":12107:12163   */\n    tag_438:\n        /* \"#utility.yul\":12181:12210   */\n      tag_440\n        /* \"#utility.yul\":12203:12209   */\n      dup3\n        /* \"#utility.yul\":12181:12210   */\n      tag_251\n      jump\t// in\n    tag_440:\n        /* \"#utility.yul\":12173:12210   */\n      swap1\n      pop\n        /* \"#utility.yul\":12265:12269   */\n      0x20\n        /* \"#utility.yul\":12259:12263   */\n      dup2\n        /* \"#utility.yul\":12255:12270   */\n      add\n        /* \"#utility.yul\":12247:12270   */\n      swap1\n      pop\n        /* \"#utility.yul\":11970:12277   */\n      swap2\n      swap1\n      pop\n      jump\t// out\n        /* \"#utility.yul\":12283:12431   */\n    tag_272:\n        /* \"#utility.yul\":12381:12387   */\n      dup3\n        /* \"#utility.yul\":12376:12379   */\n      dup2\n        /* \"#utility.yul\":12371:12374   */\n      dup4\n        /* \"#utility.yul\":12358:12388   */\n      calldatacopy\n        /* \"#utility.yul\":12422:12423   */\n      0x00\n        /* \"#utility.yul\":12413:12419   */\n      dup4\n        /* \"#utility.yul\":12408:12411   */\n      dup4\n        /* \"#utility.yul\":12404:12420   */\n      add\n        /* \"#utility.yul\":12397:12424   */\n      mstore\n        /* \"#utility.yul\":12283:12431   */\n      pop\n      pop\n      pop\n      jump\t// out\n        /* \"#utility.yul\":12437:12860   */\n    tag_273:\n        /* \"#utility.yul\":12514:12519   */\n      0x00\n        /* \"#utility.yul\":12539:12604   */\n      tag_443\n        /* \"#utility.yul\":12555:12603   */\n      tag_444\n        /* \"#utility.yul\":12596:12602   */\n      dup5\n        /* \"#utility.yul\":12555:12603   */\n      tag_271\n      jump\t// in\n    tag_444:\n        /* \"#utility.yul\":12539:12604   */\n      tag_270\n      jump\t// in\n    tag_443:\n        /* \"#utility.yul\":12530:12604   */\n      swap1\n      pop\n        /* \"#utility.yul\":12627:12633   */\n      dup3\n        /* \"#utility.yul\":12620:12625   */\n      dup2\n        /* \"#utility.yul\":12613:12634   */\n      mstore\n        /* \"#utility.yul\":12665:12669   */\n      0x20\n        /* \"#utility.yul\":12658:12663   */\n      dup2\n        /* \"#utility.yul\":12654:12670   */\n      add\n        /* \"#utility.yul\":12703:12706   */\n      dup5\n        /* \"#utility.yul\":12694:12700   */\n      dup5\n        /* \"#utility.yul\":12689:12692   */\n      dup5\n        /* \"#utility.yul\":12685:12701   */\n      add\n        /* \"#utility.yul\":12682:12707   */\n      gt\n        /* \"#utility.yul\":12679:12791   */\n      iszero\n      tag_445\n      jumpi\n        /* \"#utility.yul\":12710:12789   */\n      tag_446\n      tag_267\n      jump\t// in\n    tag_446:\n        /* \"#utility.yul\":12679:12791   */\n    tag_445:\n        /* \"#utility.yul\":12800:12854   */\n      tag_447\n        /* \"#utility.yul\":12847:12853   */\n      dup5\n        /* \"#utility.yul\":12842:12845   */\n      dup3\n        /* \"#utility.yul\":12837:12840   */\n      dup6\n        /* \"#utility.yul\":12800:12854   */\n      tag_272\n      jump\t// in\n    tag_447:\n        /* \"#utility.yul\":12520:12860   */\n      pop\n        /* \"#utility.yul\":12437:12860   */\n      swap4\n      swap3\n      pop\n      pop\n      pop\n      jump\t// out\n        /* \"#utility.yul\":12879:13217   */\n    tag_274:\n        /* \"#utility.yul\":12934:12939   */\n      0x00\n        /* \"#utility.yul\":12983:12986   */\n      dup3\n        /* \"#utility.yul\":12976:12980   */\n      0x1f\n        /* \"#utility.yul\":12968:12974   */\n      dup4\n        /* \"#utility.yul\":12964:12981   */\n      add\n        /* \"#utility.yul\":12960:12987   */\n      slt\n        /* \"#utility.yul\":12950:13072   */\n      tag_449\n      jumpi\n        /* \"#utility.yul\":12991:13070   */\n      tag_450\n      tag_266\n      jump\t// in\n    tag_450:\n        /* \"#utility.yul\":12950:13072   */\n    tag_449:\n        /* \"#utility.yul\":13108:13114   */\n      dup2\n        /* \"#utility.yul\":13095:13115   */\n      calldataload\n        /* \"#utility.yul\":13133:13211   */\n      tag_451\n        /* \"#utility.yul\":13207:13210   */\n      dup5\n        /* \"#utility.yul\":13199:13205   */\n      dup3\n        /* \"#utility.yul\":13192:13196   */\n      0x20\n        /* \"#utility.yul\":13184:13190   */\n      dup7\n        /* \"#utility.yul\":13180:13197   */\n      add\n        /* \"#utility.yul\":13133:13211   */\n      tag_273\n      jump\t// in\n    tag_451:\n        /* \"#utility.yul\":13124:13211   */\n      swap2\n      pop\n        /* \"#utility.yul\":12940:13217   */\n      pop\n        /* \"#utility.yul\":12879:13217   */\n      swap3\n      swap2\n      pop\n      pop\n      jump\t// out\n        /* \"#utility.yul\":13223:14020   */\n    tag_91:\n        /* \"#utility.yul\":13309:13315   */\n      0x00\n        /* \"#utility.yul\":13317:13323   */\n      dup1\n        /* \"#utility.yul\":13325:13331   */\n      0x00\n        /* \"#utility.yul\":13374:13376   */\n      0x60\n        /* \"#utility.yul\":13362:13371   */\n      dup5\n        /* \"#utility.yul\":13353:13360   */\n      dup7\n        /* \"#utility.yul\":13349:13372   */\n      sub\n        /* \"#utility.yul\":13345:13377   */\n      slt\n        /* \"#utility.yul\":13342:13461   */\n      iszero\n      tag_453\n      jumpi\n        /* \"#utility.yul\":13380:13459   */\n      tag_454\n      tag_236\n      jump\t// in\n    tag_454:\n        /* \"#utility.yul\":13342:13461   */\n    tag_453:\n        /* \"#utility.yul\":13500:13501   */\n      0x00\n        /* \"#utility.yul\":13525:13578   */\n      tag_455\n        /* \"#utility.yul\":13570:13577   */\n      dup7\n        /* \"#utility.yul\":13561:13567   */\n      dup3\n        /* \"#utility.yul\":13550:13559   */\n      dup8\n        /* \"#utility.yul\":13546:13568   */\n      add\n        /* \"#utility.yul\":13525:13578   */\n      tag_260\n      jump\t// in\n    tag_455:\n        /* \"#utility.yul\":13515:13578   */\n      swap4\n      pop\n        /* \"#utility.yul\":13471:13588   */\n      pop\n        /* \"#utility.yul\":13627:13629   */\n      0x20\n        /* \"#utility.yul\":13653:13706   */\n      tag_456\n        /* \"#utility.yul\":13698:13705   */\n      dup7\n        /* \"#utility.yul\":13689:13695   */\n      dup3\n        /* \"#utility.yul\":13678:13687   */\n      dup8\n        /* \"#utility.yul\":13674:13696   */\n      add\n        /* \"#utility.yul\":13653:13706   */\n      tag_239\n      jump\t// in\n    tag_456:\n        /* \"#utility.yul\":13643:13706   */\n      swap3\n      pop\n        /* \"#utility.yul\":13598:13716   */\n      pop\n        /* \"#utility.yul\":13783:13785   */\n      0x40\n        /* \"#utility.yul\":13772:13781   */\n      dup5\n        /* \"#utility.yul\":13768:13786   */\n      add\n        /* \"#utility.yul\":13755:13787   */\n      calldataload\n        /* \"#utility.yul\":13814:13832   */\n      0xffffffffffffffff\n        /* \"#utility.yul\":13806:13812   */\n      dup2\n        /* \"#utility.yul\":13803:13833   */\n      gt\n        /* \"#utility.yul\":13800:13917   */\n      iszero\n      tag_457\n      jumpi\n        /* \"#utility.yul\":13836:13915   */\n      tag_458\n      tag_237\n      jump\t// in\n    tag_458:\n        /* \"#utility.yul\":13800:13917   */\n    tag_457:\n        /* \"#utility.yul\":13941:14003   */\n      tag_459\n        /* \"#utility.yul\":13995:14002   */\n      dup7\n        /* \"#utility.yul\":13986:13992   */\n      dup3\n        /* \"#utility.yul\":13975:13984   */\n      dup8\n        /* \"#utility.yul\":13971:13993   */\n      add\n        /* \"#utility.yul\":13941:14003   */\n      tag_274\n      jump\t// in\n    tag_459:\n        /* \"#utility.yul\":13931:14003   */\n      swap2\n      pop\n        /* \"#utility.yul\":13726:14013   */\n      pop\n        /* \"#utility.yul\":13223:14020   */\n      swap3\n      pop\n      swap3\n      pop\n      swap3\n      jump\t// out\n        /* \"#utility.yul\":14026:14206   */\n    tag_275:\n        /* \"#utility.yul\":14074:14151   */\n      0x4e487b7100000000000000000000000000000000000000000000000000000000\n        /* \"#utility.yul\":14071:14072   */\n      0x00\n        /* \"#utility.yul\":14064:14152   */\n      mstore\n        /* \"#utility.yul\":14171:14175   */\n      0x22\n        /* \"#utility.yul\":14168:14169   */\n      0x04\n        /* \"#utility.yul\":14161:14176   */\n      mstore\n        /* \"#utility.yul\":14195:14199   */\n      0x24\n        /* \"#utility.yul\":14192:14193   */\n      0x00\n        /* \"#utility.yul\":14185:14200   */\n      revert\n        /* \"#utility.yul\":14212:14532   */\n    tag_105:\n        /* \"#utility.yul\":14256:14262   */\n      0x00\n        /* \"#utility.yul\":14293:14294   */\n      0x02\n        /* \"#utility.yul\":14287:14291   */\n      dup3\n        /* \"#utility.yul\":14283:14295   */\n      div\n        /* \"#utility.yul\":14273:14295   */\n      swap1\n      pop\n        /* \"#utility.yul\":14340:14341   */\n      0x01\n        /* \"#utility.yul\":14334:14338   */\n      dup3\n        /* \"#utility.yul\":14330:14342   */\n      and\n        /* \"#utility.yul\":14361:14379   */\n      dup1\n        /* \"#utility.yul\":14351:14432   */\n      tag_462\n      jumpi\n        /* \"#utility.yul\":14417:14421   */\n      0x7f\n        /* \"#utility.yul\":14409:14415   */\n      dup3\n        /* \"#utility.yul\":14405:14422   */\n      and\n        /* \"#utility.yul\":14395:14422   */\n      swap2\n      pop\n        /* \"#utility.yul\":14351:14432   */\n    tag_462:\n        /* \"#utility.yul\":14479:14481   */\n      0x20\n        /* \"#utility.yul\":14471:14477   */\n      dup3\n        /* \"#utility.yul\":14468:14482   */\n      lt\n        /* \"#utility.yul\":14448:14466   */\n      dup2\n        /* \"#utility.yul\":14445:14483   */\n      sub\n        /* \"#utility.yul\":14442:14526   */\n      tag_463\n      jumpi\n        /* \"#utility.yul\":14498:14516   */\n      tag_464\n      tag_275\n      jump\t// in\n    tag_464:\n        /* \"#utility.yul\":14442:14526   */\n    tag_463:\n        /* \"#utility.yul\":14263:14532   */\n      pop\n        /* \"#utility.yul\":14212:14532   */\n      swap2\n      swap1\n      pop\n      jump\t// out\n        /* \"#utility.yul\":14538:14707   */\n    tag_276:\n        /* \"#utility.yul\":14622:14633   */\n      0x00\n        /* \"#utility.yul\":14656:14662   */\n      dup3\n        /* \"#utility.yul\":14651:14654   */\n      dup3\n        /* \"#utility.yul\":14644:14663   */\n      mstore\n        /* \"#utility.yul\":14696:14700   */\n      0x20\n        /* \"#utility.yul\":14691:14694   */\n      dup3\n        /* \"#utility.yul\":14687:14701   */\n      add\n        /* \"#utility.yul\":14672:14701   */\n      swap1\n      pop\n        /* \"#utility.yul\":14538:14707   */\n      swap3\n      swap2\n      pop\n      pop\n      jump\t// out\n        /* \"#utility.yul\":14713:14875   */\n    tag_277:\n        /* \"#utility.yul\":14853:14867   */\n      0x4e6f7420616e206f776e65720000000000000000000000000000000000000000\n        /* \"#utility.yul\":14849:14850   */\n      0x00\n        /* \"#utility.yul\":14841:14847   */\n      dup3\n        /* \"#utility.yul\":14837:14851   */\n      add\n        /* \"#utility.yul\":14830:14868   */\n      mstore\n        /* \"#utility.yul\":14713:14875   */\n      pop\n      jump\t// out\n        /* \"#utility.yul\":14881:15247   */\n    tag_278:\n        /* \"#utility.yul\":15023:15026   */\n      0x00\n        /* \"#utility.yul\":15044:15111   */\n      tag_468\n        /* \"#utility.yul\":15108:15110   */\n      0x0c\n        /* \"#utility.yul\":15103:15106   */\n      dup4\n        /* \"#utility.yul\":15044:15111   */\n      tag_276\n      jump\t// in\n    tag_468:\n        /* \"#utility.yul\":15037:15111   */\n      swap2\n      pop\n        /* \"#utility.yul\":15120:15213   */\n      tag_469\n        /* \"#utility.yul\":15209:15212   */\n      dup3\n        /* \"#utility.yul\":15120:15213   */\n      tag_277\n      jump\t// in\n    tag_469:\n        /* \"#utility.yul\":15238:15240   */\n      0x20\n        /* \"#utility.yul\":15233:15236   */\n      dup3\n        /* \"#utility.yul\":15229:15241   */\n      add\n        /* \"#utility.yul\":15222:15241   */\n      swap1\n      pop\n        /* \"#utility.yul\":14881:15247   */\n      swap2\n      swap1\n      pop\n      jump\t// out\n        /* \"#utility.yul\":15253:15672   */\n    tag_113:\n        /* \"#utility.yul\":15419:15423   */\n      0x00\n        /* \"#utility.yul\":15457:15459   */\n      0x20\n        /* \"#utility.yul\":15446:15455   */\n      dup3\n        /* \"#utility.yul\":15442:15460   */\n      add\n        /* \"#utility.yul\":15434:15460   */\n      swap1\n      pop\n        /* \"#utility.yul\":15506:15515   */\n      dup2\n        /* \"#utility.yul\":15500:15504   */\n      dup2\n        /* \"#utility.yul\":15496:15516   */\n      sub\n        /* \"#utility.yul\":15492:15493   */\n      0x00\n        /* \"#utility.yul\":15481:15490   */\n      dup4\n        /* \"#utility.yul\":15477:15494   */\n      add\n        /* \"#utility.yul\":15470:15517   */\n      mstore\n        /* \"#utility.yul\":15534:15665   */\n      tag_471\n        /* \"#utility.yul\":15660:15664   */\n      dup2\n        /* \"#utility.yul\":15534:15665   */\n      tag_278\n      jump\t// in\n    tag_471:\n        /* \"#utility.yul\":15526:15665   */\n      swap1\n      pop\n        /* \"#utility.yul\":15253:15672   */\n      swap2\n      swap1\n      pop\n      jump\t// out\n        /* \"#utility.yul\":15678:15850   */\n    tag_279:\n        /* \"#utility.yul\":15818:15842   */\n      0x5265717565737420646f6573206e6f7420657869737400000000000000000000\n        /* \"#utility.yul\":15814:15815   */\n      0x00\n        /* \"#utility.yul\":15806:15812   */\n      dup3\n        /* \"#utility.yul\":15802:15816   */\n      add\n        /* \"#utility.yul\":15795:15843   */\n      mstore\n        /* \"#utility.yul\":15678:15850   */\n      pop\n      jump\t// out\n        /* \"#utility.yul\":15856:16222   */\n    tag_280:\n        /* \"#utility.yul\":15998:16001   */\n      0x00\n        /* \"#utility.yul\":16019:16086   */\n      tag_474\n        /* \"#utility.yul\":16083:16085   */\n      0x16\n        /* \"#utility.yul\":16078:16081   */\n      dup4\n        /* \"#utility.yul\":16019:16086   */\n      tag_276\n      jump\t// in\n    tag_474:\n        /* \"#utility.yul\":16012:16086   */\n      swap2\n      pop\n        /* \"#utility.yul\":16095:16188   */\n      tag_475\n        /* \"#utility.yul\":16184:16187   */\n      dup3\n        /* \"#utility.yul\":16095:16188   */\n      tag_279\n      jump\t// in\n    tag_475:\n        /* \"#utility.yul\":16213:16215   */\n      0x20\n        /* \"#utility.yul\":16208:16211   */\n      dup3\n        /* \"#utility.yul\":16204:16216   */\n      add\n        /* \"#utility.yul\":16197:16216   */\n      swap1\n      pop\n        /* \"#utility.yul\":15856:16222   */\n      swap2\n      swap1\n      pop\n      jump\t// out\n        /* \"#utility.yul\":16228:16647   */\n    tag_117:\n        /* \"#utility.yul\":16394:16398   */\n      0x00\n        /* \"#utility.yul\":16432:16434   */\n      0x20\n        /* \"#utility.yul\":16421:16430   */\n      dup3\n        /* \"#utility.yul\":16417:16435   */\n      add\n        /* \"#utility.yul\":16409:16435   */\n      swap1\n      pop\n        /* \"#utility.yul\":16481:16490   */\n      dup2\n        /* \"#utility.yul\":16475:16479   */\n      dup2\n        /* \"#utility.yul\":16471:16491   */\n      sub\n        /* \"#utility.yul\":16467:16468   */\n      0x00\n        /* \"#utility.yul\":16456:16465   */\n      dup4\n        /* \"#utility.yul\":16452:16469   */\n      add\n        /* \"#utility.yul\":16445:16492   */\n      mstore\n        /* \"#utility.yul\":16509:16640   */\n      tag_477\n        /* \"#utility.yul\":16635:16639   */\n      dup2\n        /* \"#utility.yul\":16509:16640   */\n      tag_280\n      jump\t// in\n    tag_477:\n        /* \"#utility.yul\":16501:16640   */\n      swap1\n      pop\n        /* \"#utility.yul\":16228:16647   */\n      swap2\n      swap1\n      pop\n      jump\t// out\n        /* \"#utility.yul\":16653:16833   */\n    tag_120:\n        /* \"#utility.yul\":16701:16778   */\n      0x4e487b7100000000000000000000000000000000000000000000000000000000\n        /* \"#utility.yul\":16698:16699   */\n      0x00\n        /* \"#utility.yul\":16691:16779   */\n      mstore\n        /* \"#utility.yul\":16798:16802   */\n      0x32\n        /* \"#utility.yul\":16795:16796   */\n      0x04\n        /* \"#utility.yul\":16788:16803   */\n      mstore\n        /* \"#utility.yul\":16822:16826   */\n      0x24\n        /* \"#utility.yul\":16819:16820   */\n      0x00\n        /* \"#utility.yul\":16812:16827   */\n      revert\n        /* \"#utility.yul\":16839:17013   */\n    tag_281:\n        /* \"#utility.yul\":16979:17005   */\n      0x5265717565737420616c72656164792065786563757465640000000000000000\n        /* \"#utility.yul\":16975:16976   */\n      0x00\n        /* \"#utility.yul\":16967:16973   */\n      dup3\n        /* \"#utility.yul\":16963:16977   */\n      add\n        /* \"#utility.yul\":16956:17006   */\n      mstore\n        /* \"#utility.yul\":16839:17013   */\n      pop\n      jump\t// out\n        /* \"#utility.yul\":17019:17385   */\n    tag_282:\n        /* \"#utility.yul\":17161:17164   */\n      0x00\n        /* \"#utility.yul\":17182:17249   */\n      tag_481\n        /* \"#utility.yul\":17246:17248   */\n      0x18\n        /* \"#utility.yul\":17241:17244   */\n      dup4\n        /* \"#utility.yul\":17182:17249   */\n      tag_276\n      jump\t// in\n    tag_481:\n        /* \"#utility.yul\":17175:17249   */\n      swap2\n      pop\n        /* \"#utility.yul\":17258:17351   */\n      tag_482\n        /* \"#utility.yul\":17347:17350   */\n      dup3\n        /* \"#utility.yul\":17258:17351   */\n      tag_281\n      jump\t// in\n    tag_482:\n        /* \"#utility.yul\":17376:17378   */\n      0x20\n        /* \"#utility.yul\":17371:17374   */\n      dup3\n        /* \"#utility.yul\":17367:17379   */\n      add\n        /* \"#utility.yul\":17360:17379   */\n      swap1\n      pop\n        /* \"#utility.yul\":17019:17385   */\n      swap2\n      swap1\n      pop\n      jump\t// out\n        /* \"#utility.yul\":17391:17810   */\n    tag_124:\n        /* \"#utility.yul\":17557:17561   */\n      0x00\n        /* \"#utility.yul\":17595:17597   */\n      0x20\n        /* \"#utility.yul\":17584:17593   */\n      dup3\n        /* \"#utility.yul\":17580:17598   */\n      add\n        /* \"#utility.yul\":17572:17598   */\n      swap1\n      pop\n        /* \"#utility.yul\":17644:17653   */\n      dup2\n        /* \"#utility.yul\":17638:17642   */\n      dup2\n        /* \"#utility.yul\":17634:17654   */\n      sub\n        /* \"#utility.yul\":17630:17631   */\n      0x00\n        /* \"#utility.yul\":17619:17628   */\n      dup4\n        /* \"#utility.yul\":17615:17632   */\n      add\n        /* \"#utility.yul\":17608:17655   */\n      mstore\n        /* \"#utility.yul\":17672:17803   */\n      tag_484\n        /* \"#utility.yul\":17798:17802   */\n      dup2\n        /* \"#utility.yul\":17672:17803   */\n      tag_282\n      jump\t// in\n    tag_484:\n        /* \"#utility.yul\":17664:17803   */\n      swap1\n      pop\n        /* \"#utility.yul\":17391:17810   */\n      swap2\n      swap1\n      pop\n      jump\t// out\n        /* \"#utility.yul\":17816:17991   */\n    tag_283:\n        /* \"#utility.yul\":17956:17983   */\n      0x5265717565737420616c726561647920636f6e6669726d656400000000000000\n        /* \"#utility.yul\":17952:17953   */\n      0x00\n        /* \"#utility.yul\":17944:17950   */\n      dup3\n        /* \"#utility.yul\":17940:17954   */\n      add\n        /* \"#utility.yul\":17933:17984   */\n      mstore\n        /* \"#utility.yul\":17816:17991   */\n      pop\n      jump\t// out\n        /* \"#utility.yul\":17997:18363   */\n    tag_284:\n        /* \"#utility.yul\":18139:18142   */\n      0x00\n        /* \"#utility.yul\":18160:18227   */\n      tag_487\n        /* \"#utility.yul\":18224:18226   */\n      0x19\n        /* \"#utility.yul\":18219:18222   */\n      dup4\n        /* \"#utility.yul\":18160:18227   */\n      tag_276\n      jump\t// in\n    tag_487:\n        /* \"#utility.yul\":18153:18227   */\n      swap2\n      pop\n        /* \"#utility.yul\":18236:18329   */\n      tag_488\n        /* \"#utility.yul\":18325:18328   */\n      dup3\n        /* \"#utility.yul\":18236:18329   */\n      tag_283\n      jump\t// in\n    tag_488:\n        /* \"#utility.yul\":18354:18356   */\n      0x20\n        /* \"#utility.yul\":18349:18352   */\n      dup3\n        /* \"#utility.yul\":18345:18357   */\n      add\n        /* \"#utility.yul\":18338:18357   */\n      swap1\n      pop\n        /* \"#utility.yul\":17997:18363   */\n      swap2\n      swap1\n      pop\n      jump\t// out\n        /* \"#utility.yul\":18369:18788   */\n    tag_127:\n        /* \"#utility.yul\":18535:18539   */\n      0x00\n        /* \"#utility.yul\":18573:18575   */\n      0x20\n        /* \"#utility.yul\":18562:18571   */\n      dup3\n        /* \"#utility.yul\":18558:18576   */\n      add\n        /* \"#utility.yul\":18550:18576   */\n      swap1\n      pop\n        /* \"#utility.yul\":18622:18631   */\n      dup2\n        /* \"#utility.yul\":18616:18620   */\n      dup2\n        /* \"#utility.yul\":18612:18632   */\n      sub\n        /* \"#utility.yul\":18608:18609   */\n      0x00\n        /* \"#utility.yul\":18597:18606   */\n      dup4\n        /* \"#utility.yul\":18593:18610   */\n      add\n        /* \"#utility.yul\":18586:18633   */\n      mstore\n        /* \"#utility.yul\":18650:18781   */\n      tag_490\n        /* \"#utility.yul\":18776:18780   */\n      dup2\n        /* \"#utility.yul\":18650:18781   */\n      tag_284\n      jump\t// in\n    tag_490:\n        /* \"#utility.yul\":18642:18781   */\n      swap1\n      pop\n        /* \"#utility.yul\":18369:18788   */\n      swap2\n      swap1\n      pop\n      jump\t// out\n        /* \"#utility.yul\":18794:18974   */\n    tag_285:\n        /* \"#utility.yul\":18842:18919   */\n      0x4e487b7100000000000000000000000000000000000000000000000000000000\n        /* \"#utility.yul\":18839:18840   */\n      0x00\n        /* \"#utility.yul\":18832:18920   */\n      mstore\n        /* \"#utility.yul\":18939:18943   */\n      0x11\n        /* \"#utility.yul\":18936:18937   */\n      0x04\n        /* \"#utility.yul\":18929:18944   */\n      mstore\n        /* \"#utility.yul\":18963:18967   */\n      0x24\n        /* \"#utility.yul\":18960:18961   */\n      0x00\n        /* \"#utility.yul\":18953:18968   */\n      revert\n        /* \"#utility.yul\":18980:19171   */\n    tag_129:\n        /* \"#utility.yul\":19020:19023   */\n      0x00\n        /* \"#utility.yul\":19039:19059   */\n      tag_493\n        /* \"#utility.yul\":19057:19058   */\n      dup3\n        /* \"#utility.yul\":19039:19059   */\n      tag_233\n      jump\t// in\n    tag_493:\n        /* \"#utility.yul\":19034:19059   */\n      swap2\n      pop\n        /* \"#utility.yul\":19073:19093   */\n      tag_494\n        /* \"#utility.yul\":19091:19092   */\n      dup4\n        /* \"#utility.yul\":19073:19093   */\n      tag_233\n      jump\t// in\n    tag_494:\n        /* \"#utility.yul\":19068:19093   */\n      swap3\n      pop\n        /* \"#utility.yul\":19116:19117   */\n      dup3\n        /* \"#utility.yul\":19113:19114   */\n      dup3\n        /* \"#utility.yul\":19109:19118   */\n      add\n        /* \"#utility.yul\":19102:19118   */\n      swap1\n      pop\n        /* \"#utility.yul\":19137:19140   */\n      dup1\n        /* \"#utility.yul\":19134:19135   */\n      dup3\n        /* \"#utility.yul\":19131:19141   */\n      gt\n        /* \"#utility.yul\":19128:19164   */\n      iszero\n      tag_495\n      jumpi\n        /* \"#utility.yul\":19144:19162   */\n      tag_496\n      tag_285\n      jump\t// in\n    tag_496:\n        /* \"#utility.yul\":19128:19164   */\n    tag_495:\n        /* \"#utility.yul\":18980:19171   */\n      swap3\n      swap2\n      pop\n      pop\n      jump\t// out\n        /* \"#utility.yul\":19177:19347   */\n    tag_286:\n        /* \"#utility.yul\":19317:19339   */\n      0x4f776e657220646f6573206e6f74206578697374000000000000000000000000\n        /* \"#utility.yul\":19313:19314   */\n      0x00\n        /* \"#utility.yul\":19305:19311   */\n      dup3\n        /* \"#utility.yul\":19301:19315   */\n      add\n        /* \"#utility.yul\":19294:19340   */\n      mstore\n        /* \"#utility.yul\":19177:19347   */\n      pop\n      jump\t// out\n        /* \"#utility.yul\":19353:19719   */\n    tag_287:\n        /* \"#utility.yul\":19495:19498   */\n      0x00\n        /* \"#utility.yul\":19516:19583   */\n      tag_499\n        /* \"#utility.yul\":19580:19582   */\n      0x14\n        /* \"#utility.yul\":19575:19578   */\n      dup4\n        /* \"#utility.yul\":19516:19583   */\n      tag_276\n      jump\t// in\n    tag_499:\n        /* \"#utility.yul\":19509:19583   */\n      swap2\n      pop\n        /* \"#utility.yul\":19592:19685   */\n      tag_500\n        /* \"#utility.yul\":19681:19684   */\n      dup3\n        /* \"#utility.yul\":19592:19685   */\n      tag_286\n      jump\t// in\n    tag_500:\n        /* \"#utility.yul\":19710:19712   */\n      0x20\n        /* \"#utility.yul\":19705:19708   */\n      dup3\n        /* \"#utility.yul\":19701:19713   */\n      add\n        /* \"#utility.yul\":19694:19713   */\n      swap1\n      pop\n        /* \"#utility.yul\":19353:19719   */\n      swap2\n      swap1\n      pop\n      jump\t// out\n        /* \"#utility.yul\":19725:20144   */\n    tag_136:\n        /* \"#utility.yul\":19891:19895   */\n      0x00\n        /* \"#utility.yul\":19929:19931   */\n      0x20\n        /* \"#utility.yul\":19918:19927   */\n      dup3\n        /* \"#utility.yul\":19914:19932   */\n      add\n        /* \"#utility.yul\":19906:19932   */\n      swap1\n      pop\n        /* \"#utility.yul\":19978:19987   */\n      dup2\n        /* \"#utility.yul\":19972:19976   */\n      dup2\n        /* \"#utility.yul\":19968:19988   */\n      sub\n        /* \"#utility.yul\":19964:19965   */\n      0x00\n        /* \"#utility.yul\":19953:19962   */\n      dup4\n        /* \"#utility.yul\":19949:19966   */\n      add\n        /* \"#utility.yul\":19942:19989   */\n      mstore\n        /* \"#utility.yul\":20006:20137   */\n      tag_502\n        /* \"#utility.yul\":20132:20136   */\n      dup2\n        /* \"#utility.yul\":20006:20137   */\n      tag_287\n      jump\t// in\n    tag_502:\n        /* \"#utility.yul\":19998:20137   */\n      swap1\n      pop\n        /* \"#utility.yul\":19725:20144   */\n      swap2\n      swap1\n      pop\n      jump\t// out\n        /* \"#utility.yul\":20150:20344   */\n    tag_145:\n        /* \"#utility.yul\":20190:20194   */\n      0x00\n        /* \"#utility.yul\":20210:20230   */\n      tag_504\n        /* \"#utility.yul\":20228:20229   */\n      dup3\n        /* \"#utility.yul\":20210:20230   */\n      tag_233\n      jump\t// in\n    tag_504:\n        /* \"#utility.yul\":20205:20230   */\n      swap2\n      pop\n        /* \"#utility.yul\":20244:20264   */\n      tag_505\n        /* \"#utility.yul\":20262:20263   */\n      dup4\n        /* \"#utility.yul\":20244:20264   */\n      tag_233\n      jump\t// in\n    tag_505:\n        /* \"#utility.yul\":20239:20264   */\n      swap3\n      pop\n        /* \"#utility.yul\":20288:20289   */\n      dup3\n        /* \"#utility.yul\":20285:20286   */\n      dup3\n        /* \"#utility.yul\":20281:20290   */\n      sub\n        /* \"#utility.yul\":20273:20290   */\n      swap1\n      pop\n        /* \"#utility.yul\":20312:20313   */\n      dup2\n        /* \"#utility.yul\":20306:20310   */\n      dup2\n        /* \"#utility.yul\":20303:20314   */\n      gt\n        /* \"#utility.yul\":20300:20337   */\n      iszero\n      tag_506\n      jumpi\n        /* \"#utility.yul\":20317:20335   */\n      tag_507\n      tag_285\n      jump\t// in\n    tag_507:\n        /* \"#utility.yul\":20300:20337   */\n    tag_506:\n        /* \"#utility.yul\":20150:20344   */\n      swap3\n      swap2\n      pop\n      pop\n      jump\t// out\n        /* \"#utility.yul\":20350:20530   */\n    tag_154:\n        /* \"#utility.yul\":20398:20475   */\n      0x4e487b7100000000000000000000000000000000000000000000000000000000\n        /* \"#utility.yul\":20395:20396   */\n      0x00\n        /* \"#utility.yul\":20388:20476   */\n      mstore\n        /* \"#utility.yul\":20495:20499   */\n      0x31\n        /* \"#utility.yul\":20492:20493   */\n      0x04\n        /* \"#utility.yul\":20485:20500   */\n      mstore\n        /* \"#utility.yul\":20519:20523   */\n      0x24\n        /* \"#utility.yul\":20516:20517   */\n      0x00\n        /* \"#utility.yul\":20509:20524   */\n      revert\n        /* \"#utility.yul\":20536:20716   */\n    tag_288:\n        /* \"#utility.yul\":20584:20661   */\n      0x4e487b7100000000000000000000000000000000000000000000000000000000\n        /* \"#utility.yul\":20581:20582   */\n      0x00\n        /* \"#utility.yul\":20574:20662   */\n      mstore\n        /* \"#utility.yul\":20681:20685   */\n      0x12\n        /* \"#utility.yul\":20678:20679   */\n      0x04\n        /* \"#utility.yul\":20671:20686   */\n      mstore\n        /* \"#utility.yul\":20705:20709   */\n      0x24\n        /* \"#utility.yul\":20702:20703   */\n      0x00\n        /* \"#utility.yul\":20695:20710   */\n      revert\n        /* \"#utility.yul\":20722:20907   */\n    tag_157:\n        /* \"#utility.yul\":20762:20763   */\n      0x00\n        /* \"#utility.yul\":20779:20799   */\n      tag_511\n        /* \"#utility.yul\":20797:20798   */\n      dup3\n        /* \"#utility.yul\":20779:20799   */\n      tag_233\n      jump\t// in\n    tag_511:\n        /* \"#utility.yul\":20774:20799   */\n      swap2\n      pop\n        /* \"#utility.yul\":20813:20833   */\n      tag_512\n        /* \"#utility.yul\":20831:20832   */\n      dup4\n        /* \"#utility.yul\":20813:20833   */\n      tag_233\n      jump\t// in\n    tag_512:\n        /* \"#utility.yul\":20808:20833   */\n      swap3\n      pop\n        /* \"#utility.yul\":20852:20853   */\n      dup3\n        /* \"#utility.yul\":20842:20877   */\n      tag_513\n      jumpi\n        /* \"#utility.yul\":20857:20875   */\n      tag_514\n      tag_288\n      jump\t// in\n    tag_514:\n        /* \"#utility.yul\":20842:20877   */\n    tag_513:\n        /* \"#utility.yul\":20899:20900   */\n      dup3\n        /* \"#utility.yul\":20896:20897   */\n      dup3\n        /* \"#utility.yul\":20892:20901   */\n      div\n        /* \"#utility.yul\":20887:20901   */\n      swap1\n      pop\n        /* \"#utility.yul\":20722:20907   */\n      swap3\n      swap2\n      pop\n      pop\n      jump\t// out\n        /* \"#utility.yul\":20913:21084   */\n    tag_289:\n        /* \"#utility.yul\":21053:21076   */\n      0x496e76616c6964206f776e657220616464726573730000000000000000000000\n        /* \"#utility.yul\":21049:21050   */\n      0x00\n        /* \"#utility.yul\":21041:21047   */\n      dup3\n        /* \"#utility.yul\":21037:21051   */\n      add\n        /* \"#utility.yul\":21030:21077   */\n      mstore\n        /* \"#utility.yul\":20913:21084   */\n      pop\n      jump\t// out\n        /* \"#utility.yul\":21090:21456   */\n    tag_290:\n        /* \"#utility.yul\":21232:21235   */\n      0x00\n        /* \"#utility.yul\":21253:21320   */\n      tag_517\n        /* \"#utility.yul\":21317:21319   */\n      0x15\n        /* \"#utility.yul\":21312:21315   */\n      dup4\n        /* \"#utility.yul\":21253:21320   */\n      tag_276\n      jump\t// in\n    tag_517:\n        /* \"#utility.yul\":21246:21320   */\n      swap2\n      pop\n        /* \"#utility.yul\":21329:21422   */\n      tag_518\n        /* \"#utility.yul\":21418:21421   */\n      dup3\n        /* \"#utility.yul\":21329:21422   */\n      tag_289\n      jump\t// in\n    tag_518:\n        /* \"#utility.yul\":21447:21449   */\n      0x20\n        /* \"#utility.yul\":21442:21445   */\n      dup3\n        /* \"#utility.yul\":21438:21450   */\n      add\n        /* \"#utility.yul\":21431:21450   */\n      swap1\n      pop\n        /* \"#utility.yul\":21090:21456   */\n      swap2\n      swap1\n      pop\n      jump\t// out\n        /* \"#utility.yul\":21462:21881   */\n    tag_177:\n        /* \"#utility.yul\":21628:21632   */\n      0x00\n        /* \"#utility.yul\":21666:21668   */\n      0x20\n        /* \"#utility.yul\":21655:21664   */\n      dup3\n        /* \"#utility.yul\":21651:21669   */\n      add\n        /* \"#utility.yul\":21643:21669   */\n      swap1\n      pop\n        /* \"#utility.yul\":21715:21724   */\n      dup2\n        /* \"#utility.yul\":21709:21713   */\n      dup2\n        /* \"#utility.yul\":21705:21725   */\n      sub\n        /* \"#utility.yul\":21701:21702   */\n      0x00\n        /* \"#utility.yul\":21690:21699   */\n      dup4\n        /* \"#utility.yul\":21686:21703   */\n      add\n        /* \"#utility.yul\":21679:21726   */\n      mstore\n        /* \"#utility.yul\":21743:21874   */\n      tag_520\n        /* \"#utility.yul\":21869:21873   */\n      dup2\n        /* \"#utility.yul\":21743:21874   */\n      tag_290\n      jump\t// in\n    tag_520:\n        /* \"#utility.yul\":21735:21874   */\n      swap1\n      pop\n        /* \"#utility.yul\":21462:21881   */\n      swap2\n      swap1\n      pop\n      jump\t// out\n        /* \"#utility.yul\":21887:22054   */\n    tag_291:\n        /* \"#utility.yul\":22027:22046   */\n      0x526564756e64616e742072657175657374000000000000000000000000000000\n        /* \"#utility.yul\":22023:22024   */\n      0x00\n        /* \"#utility.yul\":22015:22021   */\n      dup3\n        /* \"#utility.yul\":22011:22025   */\n      add\n        /* \"#utility.yul\":22004:22047   */\n      mstore\n        /* \"#utility.yul\":21887:22054   */\n      pop\n      jump\t// out\n        /* \"#utility.yul\":22060:22426   */\n    tag_292:\n        /* \"#utility.yul\":22202:22205   */\n      0x00\n        /* \"#utility.yul\":22223:22290   */\n      tag_523\n        /* \"#utility.yul\":22287:22289   */\n      0x11\n        /* \"#utility.yul\":22282:22285   */\n      dup4\n        /* \"#utility.yul\":22223:22290   */\n      tag_276\n      jump\t// in\n    tag_523:\n        /* \"#utility.yul\":22216:22290   */\n      swap2\n      pop\n        /* \"#utility.yul\":22299:22392   */\n      tag_524\n        /* \"#utility.yul\":22388:22391   */\n      dup3\n        /* \"#utility.yul\":22299:22392   */\n      tag_291\n      jump\t// in\n    tag_524:\n        /* \"#utility.yul\":22417:22419   */\n      0x20\n        /* \"#utility.yul\":22412:22415   */\n      dup3\n        /* \"#utility.yul\":22408:22420   */\n      add\n        /* \"#utility.yul\":22401:22420   */\n      swap1\n      pop\n        /* \"#utility.yul\":22060:22426   */\n      swap2\n      swap1\n      pop\n      jump\t// out\n        /* \"#utility.yul\":22432:22851   */\n    tag_180:\n        /* \"#utility.yul\":22598:22602   */\n      0x00\n        /* \"#utility.yul\":22636:22638   */\n      0x20\n        /* \"#utility.yul\":22625:22634   */\n      dup3\n        /* \"#utility.yul\":22621:22639   */\n      add\n        /* \"#utility.yul\":22613:22639   */\n      swap1\n      pop\n        /* \"#utility.yul\":22685:22694   */\n      dup2\n        /* \"#utility.yul\":22679:22683   */\n      dup2\n        /* \"#utility.yul\":22675:22695   */\n      sub\n        /* \"#utility.yul\":22671:22672   */\n      0x00\n        /* \"#utility.yul\":22660:22669   */\n      dup4\n        /* \"#utility.yul\":22656:22673   */\n      add\n        /* \"#utility.yul\":22649:22696   */\n      mstore\n        /* \"#utility.yul\":22713:22844   */\n      tag_526\n        /* \"#utility.yul\":22839:22843   */\n      dup2\n        /* \"#utility.yul\":22713:22844   */\n      tag_292\n      jump\t// in\n    tag_526:\n        /* \"#utility.yul\":22705:22844   */\n      swap1\n      pop\n        /* \"#utility.yul\":22432:22851   */\n      swap2\n      swap1\n      pop\n      jump\t// out\n        /* \"#utility.yul\":22857:22997   */\n    tag_293:\n        /* \"#utility.yul\":22905:22909   */\n      0x00\n        /* \"#utility.yul\":22928:22931   */\n      dup2\n        /* \"#utility.yul\":22920:22931   */\n      swap1\n      pop\n        /* \"#utility.yul\":22951:22954   */\n      dup2\n        /* \"#utility.yul\":22948:22949   */\n      0x00\n        /* \"#utility.yul\":22941:22955   */\n      mstore\n        /* \"#utility.yul\":22985:22989   */\n      0x20\n        /* \"#utility.yul\":22982:22983   */\n      0x00\n        /* \"#utility.yul\":22972:22990   */\n      keccak256\n        /* \"#utility.yul\":22964:22990   */\n      swap1\n      pop\n        /* \"#utility.yul\":22857:22997   */\n      swap2\n      swap1\n      pop\n      jump\t// out\n        /* \"#utility.yul\":23003:23096   */\n    tag_294:\n        /* \"#utility.yul\":23040:23046   */\n      0x00\n        /* \"#utility.yul\":23087:23089   */\n      0x20\n        /* \"#utility.yul\":23082:23084   */\n      0x1f\n        /* \"#utility.yul\":23075:23080   */\n      dup4\n        /* \"#utility.yul\":23071:23085   */\n      add\n        /* \"#utility.yul\":23067:23090   */\n      div\n        /* \"#utility.yul\":23057:23090   */\n      swap1\n      pop\n        /* \"#utility.yul\":23003:23096   */\n      swap2\n      swap1\n      pop\n      jump\t// out\n        /* \"#utility.yul\":23102:23209   */\n    tag_295:\n        /* \"#utility.yul\":23146:23154   */\n      0x00\n        /* \"#utility.yul\":23196:23201   */\n      dup3\n        /* \"#utility.yul\":23190:23194   */\n      dup3\n        /* \"#utility.yul\":23186:23202   */\n      shl\n        /* \"#utility.yul\":23165:23202   */\n      swap1\n      pop\n        /* \"#utility.yul\":23102:23209   */\n      swap3\n      swap2\n      pop\n      pop\n      jump\t// out\n        /* \"#utility.yul\":23215:23608   */\n    tag_296:\n        /* \"#utility.yul\":23284:23290   */\n      0x00\n        /* \"#utility.yul\":23334:23335   */\n      0x08\n        /* \"#utility.yul\":23322:23332   */\n      dup4\n        /* \"#utility.yul\":23318:23336   */\n      mul\n        /* \"#utility.yul\":23357:23454   */\n      tag_531\n        /* \"#utility.yul\":23387:23453   */\n      0xffffffffffffffffffffffffffffffffffffffffffffffffffffffffffffffff\n        /* \"#utility.yul\":23376:23385   */\n      dup3\n        /* \"#utility.yul\":23357:23454   */\n      tag_295\n      jump\t// in\n    tag_531:\n        /* \"#utility.yul\":23475:23514   */\n      tag_532\n        /* \"#utility.yul\":23505:23513   */\n      dup7\n        /* \"#utility.yul\":23494:23503   */\n      dup4\n        /* \"#utility.yul\":23475:23514   */\n      tag_295\n      jump\t// in\n    tag_532:\n        /* \"#utility.yul\":23463:23514   */\n      swap6\n      pop\n        /* \"#utility.yul\":23547:23551   */\n      dup1\n        /* \"#utility.yul\":23543:23552   */\n      not\n        /* \"#utility.yul\":23536:23541   */\n      dup5\n        /* \"#utility.yul\":23532:23553   */\n      and\n        /* \"#utility.yul\":23523:23553   */\n      swap4\n      pop\n        /* \"#utility.yul\":23596:23600   */\n      dup1\n        /* \"#utility.yul\":23586:23594   */\n      dup7\n        /* \"#utility.yul\":23582:23601   */\n      and\n        /* \"#utility.yul\":23575:23580   */\n      dup5\n        /* \"#utility.yul\":23572:23602   */\n      or\n        /* \"#utility.yul\":23562:23602   */\n      swap3\n      pop\n        /* \"#utility.yul\":23291:23608   */\n      pop\n      pop\n        /* \"#utility.yul\":23215:23608   */\n      swap4\n      swap3\n      pop\n      pop\n      pop\n      jump\t// out\n        /* \"#utility.yul\":23614:23674   */\n    tag_297:\n        /* \"#utility.yul\":23642:23645   */\n      0x00\n        /* \"#utility.yul\":23663:23668   */\n      dup2\n        /* \"#utility.yul\":23656:23668   */\n      swap1\n      pop\n        /* \"#utility.yul\":23614:23674   */\n      swap2\n      swap1\n      pop\n      jump\t// out\n        /* \"#utility.yul\":23680:23822   */\n    tag_298:\n        /* \"#utility.yul\":23730:23739   */\n      0x00\n        /* \"#utility.yul\":23763:23816   */\n      tag_535\n        /* \"#utility.yul\":23781:23815   */\n      tag_536\n        /* \"#utility.yul\":23790:23814   */\n      tag_537\n        /* \"#utility.yul\":23808:23813   */\n      dup5\n        /* \"#utility.yul\":23790:23814   */\n      tag_233\n      jump\t// in\n    tag_537:\n        /* \"#utility.yul\":23781:23815   */\n      tag_297\n      jump\t// in\n    tag_536:\n        /* \"#utility.yul\":23763:23816   */\n      tag_233\n      jump\t// in\n    tag_535:\n        /* \"#utility.yul\":23750:23816   */\n      swap1\n      pop\n        /* \"#utility.yul\":23680:23822   */\n      swap2\n      swap1\n      pop\n      jump\t// out\n        /* \"#utility.yul\":23828:23903   */\n    tag_299:\n        /* \"#utility.yul\":23871:23874   */\n      0x00\n        /* \"#utility.yul\":23892:23897   */\n      dup2\n        /* \"#utility.yul\":23885:23897   */\n      swap1\n      pop\n        /* \"#utility.yul\":23828:23903   */\n      swap2\n      swap1\n      pop\n      jump\t// out\n        /* \"#utility.yul\":23909:24178   */\n    tag_300:\n        /* \"#utility.yul\":24019:24058   */\n      tag_540\n        /* \"#utility.yul\":24050:24057   */\n      dup4\n        /* \"#utility.yul\":24019:24058   */\n      tag_298\n      jump\t// in\n    tag_540:\n        /* \"#utility.yul\":24080:24171   */\n      tag_541\n        /* \"#utility.yul\":24129:24170   */\n      tag_542\n        /* \"#utility.yul\":24153:24169   */\n      dup3\n        /* \"#utility.yul\":24129:24170   */\n      tag_299\n      jump\t// in\n    tag_542:\n        /* \"#utility.yul\":24121:24127   */\n      dup5\n        /* \"#utility.yul\":24114:24118   */\n      dup5\n        /* \"#utility.yul\":24108:24119   */\n      sload\n        /* \"#utility.yul\":24080:24171   */\n      tag_296\n      jump\t// in\n    tag_541:\n        /* \"#utility.yul\":24074:24078   */\n      dup3\n        /* \"#utility.yul\":24067:24172   */\n      sstore\n        /* \"#utility.yul\":23985:24178   */\n      pop\n        /* \"#utility.yul\":23909:24178   */\n      pop\n      pop\n      pop\n      jump\t// out\n        /* \"#utility.yul\":24184:24257   */\n    tag_301:\n        /* \"#utility.yul\":24229:24232   */\n      0x00\n        /* \"#utility.yul\":24184:24257   */\n      swap1\n      jump\t// out\n        /* \"#utility.yul\":24263:24452   */\n    tag_302:\n        /* \"#utility.yul\":24340:24372   */\n      tag_545\n      tag_301\n      jump\t// in\n    tag_545:\n        /* \"#utility.yul\":24381:24446   */\n      tag_546\n        /* \"#utility.yul\":24439:24445   */\n      dup2\n        /* \"#utility.yul\":24431:24437   */\n      dup5\n        /* \"#utility.yul\":24425:24429   */\n      dup5\n        /* \"#utility.yul\":24381:24446   */\n      tag_300\n      jump\t// in\n    tag_546:\n        /* \"#utility.yul\":24316:24452   */\n      pop\n        /* \"#utility.yul\":24263:24452   */\n      pop\n      pop\n      jump\t// out\n        /* \"#utility.yul\":24458:24644   */\n    tag_303:\n        /* \"#utility.yul\":24518:24638   */\n    tag_548:\n        /* \"#utility.yul\":24535:24538   */\n      dup2\n        /* \"#utility.yul\":24528:24533   */\n      dup2\n        /* \"#utility.yul\":24525:24539   */\n      lt\n        /* \"#utility.yul\":24518:24638   */\n      iszero\n      tag_550\n      jumpi\n        /* \"#utility.yul\":24589:24628   */\n      tag_551\n        /* \"#utility.yul\":24626:24627   */\n      0x00\n        /* \"#utility.yul\":24619:24624   */\n      dup3\n        /* \"#utility.yul\":24589:24628   */\n      tag_302\n      jump\t// in\n    tag_551:\n        /* \"#utility.yul\":24562:24563   */\n      0x01\n        /* \"#utility.yul\":24555:24560   */\n      dup2\n        /* \"#utility.yul\":24551:24564   */\n      add\n        /* \"#utility.yul\":24542:24564   */\n      swap1\n      pop\n        /* \"#utility.yul\":24518:24638   */\n      jump(tag_548)\n    tag_550:\n        /* \"#utility.yul\":24458:24644   */\n      pop\n      pop\n      jump\t// out\n        /* \"#utility.yul\":24650:25191   */\n    tag_304:\n        /* \"#utility.yul\":24750:24752   */\n      0x1f\n        /* \"#utility.yul\":24745:24748   */\n      dup3\n        /* \"#utility.yul\":24742:24753   */\n      gt\n        /* \"#utility.yul\":24739:25184   */\n      iszero\n      tag_553\n      jumpi\n        /* \"#utility.yul\":24784:24821   */\n      tag_554\n        /* \"#utility.yul\":24815:24820   */\n      dup2\n        /* \"#utility.yul\":24784:24821   */\n      tag_293\n      jump\t// in\n    tag_554:\n        /* \"#utility.yul\":24867:24896   */\n      tag_555\n        /* \"#utility.yul\":24885:24895   */\n      dup5\n        /* \"#utility.yul\":24867:24896   */\n      tag_294\n      jump\t// in\n    tag_555:\n        /* \"#utility.yul\":24857:24865   */\n      dup2\n        /* \"#utility.yul\":24853:24897   */\n      add\n        /* \"#utility.yul\":25050:25052   */\n      0x20\n        /* \"#utility.yul\":25038:25048   */\n      dup6\n        /* \"#utility.yul\":25035:25053   */\n      lt\n        /* \"#utility.yul\":25032:25081   */\n      iszero\n      tag_556\n      jumpi\n        /* \"#utility.yul\":25071:25079   */\n      dup2\n        /* \"#utility.yul\":25056:25079   */\n      swap1\n      pop\n        /* \"#utility.yul\":25032:25081   */\n    tag_556:\n        /* \"#utility.yul\":25094:25174   */\n      tag_557\n        /* \"#utility.yul\":25150:25172   */\n      tag_558\n        /* \"#utility.yul\":25168:25171   */\n      dup6\n        /* \"#utility.yul\":25150:25172   */\n      tag_294\n      jump\t// in\n    tag_558:\n        /* \"#utility.yul\":25140:25148   */\n      dup4\n        /* \"#utility.yul\":25136:25173   */\n      add\n        /* \"#utility.yul\":25123:25134   */\n      dup3\n        /* \"#utility.yul\":25094:25174   */\n      tag_303\n      jump\t// in\n    tag_557:\n        /* \"#utility.yul\":24754:25184   */\n      pop\n      pop\n        /* \"#utility.yul\":24739:25184   */\n    tag_553:\n        /* \"#utility.yul\":24650:25191   */\n      pop\n      pop\n      pop\n      jump\t// out\n        /* \"#utility.yul\":25197:25314   */\n    tag_305:\n        /* \"#utility.yul\":25251:25259   */\n      0x00\n        /* \"#utility.yul\":25301:25306   */\n      dup3\n        /* \"#utility.yul\":25295:25299   */\n      dup3\n        /* \"#utility.yul\":25291:25307   */\n      shr\n        /* \"#utility.yul\":25270:25307   */\n      swap1\n      pop\n        /* \"#utility.yul\":25197:25314   */\n      swap3\n      swap2\n      pop\n      pop\n      jump\t// out\n        /* \"#utility.yul\":25320:25489   */\n    tag_306:\n        /* \"#utility.yul\":25364:25370   */\n      0x00\n        /* \"#utility.yul\":25397:25448   */\n      tag_561\n        /* \"#utility.yul\":25445:25446   */\n      0x00\n        /* \"#utility.yul\":25441:25447   */\n      not\n        /* \"#utility.yul\":25433:25438   */\n      dup5\n        /* \"#utility.yul\":25430:25431   */\n      0x08\n        /* \"#utility.yul\":25426:25439   */\n      mul\n        /* \"#utility.yul\":25397:25448   */\n      tag_305\n      jump\t// in\n    tag_561:\n        /* \"#utility.yul\":25393:25449   */\n      not\n        /* \"#utility.yul\":25478:25482   */\n      dup1\n        /* \"#utility.yul\":25472:25476   */\n      dup4\n        /* \"#utility.yul\":25468:25483   */\n      and\n        /* \"#utility.yul\":25458:25483   */\n      swap2\n      pop\n        /* \"#utility.yul\":25371:25489   */\n      pop\n        /* \"#utility.yul\":25320:25489   */\n      swap3\n      swap2\n      pop\n      pop\n      jump\t// out\n        /* \"#utility.yul\":25494:25789   */\n    tag_307:\n        /* \"#utility.yul\":25570:25574   */\n      0x00\n        /* \"#utility.yul\":25716:25745   */\n      tag_563\n        /* \"#utility.yul\":25741:25744   */\n      dup4\n        /* \"#utility.yul\":25735:25739   */\n      dup4\n        /* \"#utility.yul\":25716:25745   */\n      tag_306\n      jump\t// in\n    tag_563:\n        /* \"#utility.yul\":25708:25745   */\n      swap2\n      pop\n        /* \"#utility.yul\":25778:25781   */\n      dup3\n        /* \"#utility.yul\":25775:25776   */\n      0x02\n        /* \"#utility.yul\":25771:25782   */\n      mul\n        /* \"#utility.yul\":25765:25769   */\n      dup3\n        /* \"#utility.yul\":25762:25783   */\n      or\n        /* \"#utility.yul\":25754:25783   */\n      swap1\n      pop\n        /* \"#utility.yul\":25494:25789   */\n      swap3\n      swap2\n      pop\n      pop\n      jump\t// out\n        /* \"#utility.yul\":25794:27184   */\n    tag_197:\n        /* \"#utility.yul\":25909:25945   */\n      tag_565\n        /* \"#utility.yul\":25941:25944   */\n      dup3\n        /* \"#utility.yul\":25909:25945   */\n      tag_248\n      jump\t// in\n    tag_565:\n        /* \"#utility.yul\":26010:26028   */\n      0xffffffffffffffff\n        /* \"#utility.yul\":26002:26008   */\n      dup2\n        /* \"#utility.yul\":25999:26029   */\n      gt\n        /* \"#utility.yul\":25996:26052   */\n      iszero\n      tag_566\n      jumpi\n        /* \"#utility.yul\":26032:26050   */\n      tag_567\n      tag_268\n      jump\t// in\n    tag_567:\n        /* \"#utility.yul\":25996:26052   */\n    tag_566:\n        /* \"#utility.yul\":26076:26114   */\n      tag_568\n        /* \"#utility.yul\":26108:26112   */\n      dup3\n        /* \"#utility.yul\":26102:26113   */\n      sload\n        /* \"#utility.yul\":26076:26114   */\n      tag_105\n      jump\t// in\n    tag_568:\n        /* \"#utility.yul\":26161:26227   */\n      tag_569\n        /* \"#utility.yul\":26220:26226   */\n      dup3\n        /* \"#utility.yul\":26212:26218   */\n      dup3\n        /* \"#utility.yul\":26206:26210   */\n      dup6\n        /* \"#utility.yul\":26161:26227   */\n      tag_304\n      jump\t// in\n    tag_569:\n        /* \"#utility.yul\":26254:26255   */\n      0x00\n        /* \"#utility.yul\":26278:26282   */\n      0x20\n        /* \"#utility.yul\":26265:26282   */\n      swap1\n      pop\n        /* \"#utility.yul\":26310:26312   */\n      0x1f\n        /* \"#utility.yul\":26302:26308   */\n      dup4\n        /* \"#utility.yul\":26299:26313   */\n      gt\n        /* \"#utility.yul\":26327:26328   */\n      0x01\n        /* \"#utility.yul\":26322:26939   */\n      dup2\n      eq\n      tag_571\n      jumpi\n        /* \"#utility.yul\":26983:26984   */\n      0x00\n        /* \"#utility.yul\":27000:27006   */\n      dup5\n        /* \"#utility.yul\":26997:27074   */\n      iszero\n      tag_572\n      jumpi\n        /* \"#utility.yul\":27049:27058   */\n      dup3\n        /* \"#utility.yul\":27044:27047   */\n      dup8\n        /* \"#utility.yul\":27040:27059   */\n      add\n        /* \"#utility.yul\":27034:27060   */\n      mload\n        /* \"#utility.yul\":27025:27060   */\n      swap1\n      pop\n        /* \"#utility.yul\":26997:27074   */\n    tag_572:\n        /* \"#utility.yul\":27100:27167   */\n      tag_573\n        /* \"#utility.yul\":27160:27166   */\n      dup6\n        /* \"#utility.yul\":27153:27158   */\n      dup3\n        /* \"#utility.yul\":27100:27167   */\n      tag_307\n      jump\t// in\n    tag_573:\n        /* \"#utility.yul\":27094:27098   */\n      dup7\n        /* \"#utility.yul\":27087:27168   */\n      sstore\n        /* \"#utility.yul\":26956:27178   */\n      pop\n        /* \"#utility.yul\":26292:27178   */\n      jump(tag_570)\n        /* \"#utility.yul\":26322:26939   */\n    tag_571:\n        /* \"#utility.yul\":26374:26378   */\n      0x1f\n        /* \"#utility.yul\":26370:26379   */\n      not\n        /* \"#utility.yul\":26362:26368   */\n      dup5\n        /* \"#utility.yul\":26358:26380   */\n      and\n        /* \"#utility.yul\":26408:26444   */\n      tag_574\n        /* \"#utility.yul\":26439:26443   */\n      dup7\n        /* \"#utility.yul\":26408:26444   */\n      tag_293\n      jump\t// in\n    tag_574:\n        /* \"#utility.yul\":26466:26467   */\n      0x00\n        /* \"#utility.yul\":26480:26688   */\n    tag_575:\n        /* \"#utility.yul\":26494:26501   */\n      dup3\n        /* \"#utility.yul\":26491:26492   */\n      dup2\n        /* \"#utility.yul\":26488:26502   */\n      lt\n        /* \"#utility.yul\":26480:26688   */\n      iszero\n      tag_577\n      jumpi\n        /* \"#utility.yul\":26573:26582   */\n      dup5\n        /* \"#utility.yul\":26568:26571   */\n      dup10\n        /* \"#utility.yul\":26564:26583   */\n      add\n        /* \"#utility.yul\":26558:26584   */\n      mload\n        /* \"#utility.yul\":26550:26556   */\n      dup3\n        /* \"#utility.yul\":26543:26585   */\n      sstore\n        /* \"#utility.yul\":26624:26625   */\n      0x01\n        /* \"#utility.yul\":26616:26622   */\n      dup3\n        /* \"#utility.yul\":26612:26626   */\n      add\n        /* \"#utility.yul\":26602:26626   */\n      swap2\n      pop\n        /* \"#utility.yul\":26671:26673   */\n      0x20\n        /* \"#utility.yul\":26660:26669   */\n      dup6\n        /* \"#utility.yul\":26656:26674   */\n      add\n        /* \"#utility.yul\":26643:26674   */\n      swap5\n      pop\n        /* \"#utility.yul\":26517:26521   */\n      0x20\n        /* \"#utility.yul\":26514:26515   */\n      dup2\n        /* \"#utility.yul\":26510:26522   */\n      add\n        /* \"#utility.yul\":26505:26522   */\n      swap1\n      pop\n        /* \"#utility.yul\":26480:26688   */\n      jump(tag_575)\n    tag_577:\n        /* \"#utility.yul\":26716:26722   */\n      dup7\n        /* \"#utility.yul\":26707:26714   */\n      dup4\n        /* \"#utility.yul\":26704:26723   */\n      lt\n        /* \"#utility.yul\":26701:26880   */\n      iszero\n      tag_578\n      jumpi\n        /* \"#utility.yul\":26774:26783   */\n      dup5\n        /* \"#utility.yul\":26769:26772   */\n      dup10\n        /* \"#utility.yul\":26765:26784   */\n      add\n        /* \"#utility.yul\":26759:26785   */\n      mload\n        /* \"#utility.yul\":26817:26865   */\n      tag_579\n        /* \"#utility.yul\":26859:26863   */\n      0x1f\n        /* \"#utility.yul\":26851:26857   */\n      dup10\n        /* \"#utility.yul\":26847:26864   */\n      and\n        /* \"#utility.yul\":26836:26845   */\n      dup3\n        /* \"#utility.yul\":26817:26865   */\n      tag_306\n      jump\t// in\n    tag_579:\n        /* \"#utility.yul\":26809:26815   */\n      dup4\n        /* \"#utility.yul\":26802:26866   */\n      sstore\n        /* \"#utility.yul\":26724:26880   */\n      pop\n        /* \"#utility.yul\":26701:26880   */\n    tag_578:\n        /* \"#utility.yul\":26926:26927   */\n      0x01\n        /* \"#utility.yul\":26922:26923   */\n      0x02\n        /* \"#utility.yul\":26914:26920   */\n      dup9\n        /* \"#utility.yul\":26910:26924   */\n      mul\n        /* \"#utility.yul\":26906:26928   */\n      add\n        /* \"#utility.yul\":26900:26904   */\n      dup9\n        /* \"#utility.yul\":26893:26929   */\n      sstore\n        /* \"#utility.yul\":26329:26939   */\n      pop\n      pop\n      pop\n        /* \"#utility.yul\":26292:27178   */\n    tag_570:\n      pop\n        /* \"#utility.yul\":25884:27184   */\n      pop\n      pop\n      pop\n        /* \"#utility.yul\":25794:27184   */\n      pop\n      pop\n      jump\t// out\n        /* \"#utility.yul\":27190:27609   */\n    tag_200:\n        /* \"#utility.yul\":27329:27333   */\n      0x00\n        /* \"#utility.yul\":27367:27369   */\n      0x40\n        /* \"#utility.yul\":27356:27365   */\n      dup3\n        /* \"#utility.yul\":27352:27370   */\n      add\n        /* \"#utility.yul\":27344:27370   */\n      swap1\n      pop\n        /* \"#utility.yul\":27380:27451   */\n      tag_581\n        /* \"#utility.yul\":27448:27449   */\n      0x00\n        /* \"#utility.yul\":27437:27446   */\n      dup4\n        /* \"#utility.yul\":27433:27450   */\n      add\n        /* \"#utility.yul\":27424:27430   */\n      dup6\n        /* \"#utility.yul\":27380:27451   */\n      tag_234\n      jump\t// in\n    tag_581:\n        /* \"#utility.yul\":27498:27507   */\n      dup2\n        /* \"#utility.yul\":27492:27496   */\n      dup2\n        /* \"#utility.yul\":27488:27508   */\n      sub\n        /* \"#utility.yul\":27483:27485   */\n      0x20\n        /* \"#utility.yul\":27472:27481   */\n      dup4\n        /* \"#utility.yul\":27468:27486   */\n      add\n        /* \"#utility.yul\":27461:27509   */\n      mstore\n        /* \"#utility.yul\":27526:27602   */\n      tag_582\n        /* \"#utility.yul\":27597:27601   */\n      dup2\n        /* \"#utility.yul\":27588:27594   */\n      dup5\n        /* \"#utility.yul\":27526:27602   */\n      tag_263\n      jump\t// in\n    tag_582:\n        /* \"#utility.yul\":27518:27602   */\n      swap1\n      pop\n        /* \"#utility.yul\":27190:27609   */\n      swap4\n      swap3\n      pop\n      pop\n      pop\n      jump\t// out\n        /* \"#utility.yul\":27615:27791   */\n    tag_308:\n        /* \"#utility.yul\":27755:27783   */\n      0x5472616e73616374696f6e20646f6573206e6f74206578697374000000000000\n        /* \"#utility.yul\":27751:27752   */\n      0x00\n        /* \"#utility.yul\":27743:27749   */\n      dup3\n        /* \"#utility.yul\":27739:27753   */\n      add\n        /* \"#utility.yul\":27732:27784   */\n      mstore\n        /* \"#utility.yul\":27615:27791   */\n      pop\n      jump\t// out\n        /* \"#utility.yul\":27797:28163   */\n    tag_309:\n        /* \"#utility.yul\":27939:27942   */\n      0x00\n        /* \"#utility.yul\":27960:28027   */\n      tag_585\n        /* \"#utility.yul\":28024:28026   */\n      0x1a\n        /* \"#utility.yul\":28019:28022   */\n      dup4\n        /* \"#utility.yul\":27960:28027   */\n      tag_276\n      jump\t// in\n    tag_585:\n        /* \"#utility.yul\":27953:28027   */\n      swap2\n      pop\n        /* \"#utility.yul\":28036:28129   */\n      tag_586\n        /* \"#utility.yul\":28125:28128   */\n      dup3\n        /* \"#utility.yul\":28036:28129   */\n      tag_308\n      jump\t// in\n    tag_586:\n        /* \"#utility.yul\":28154:28156   */\n      0x20\n        /* \"#utility.yul\":28149:28152   */\n      dup3\n        /* \"#utility.yul\":28145:28157   */\n      add\n        /* \"#utility.yul\":28138:28157   */\n      swap1\n      pop\n        /* \"#utility.yul\":27797:28163   */\n      swap2\n      swap1\n      pop\n      jump\t// out\n        /* \"#utility.yul\":28169:28588   */\n    tag_207:\n        /* \"#utility.yul\":28335:28339   */\n      0x00\n        /* \"#utility.yul\":28373:28375   */\n      0x20\n        /* \"#utility.yul\":28362:28371   */\n      dup3\n        /* \"#utility.yul\":28358:28376   */\n      add\n        /* \"#utility.yul\":28350:28376   */\n      swap1\n      pop\n        /* \"#utility.yul\":28422:28431   */\n      dup2\n        /* \"#utility.yul\":28416:28420   */\n      dup2\n        /* \"#utility.yul\":28412:28432   */\n      sub\n        /* \"#utility.yul\":28408:28409   */\n      0x00\n        /* \"#utility.yul\":28397:28406   */\n      dup4\n        /* \"#utility.yul\":28393:28410   */\n      add\n        /* \"#utility.yul\":28386:28433   */\n      mstore\n        /* \"#utility.yul\":28450:28581   */\n      tag_588\n        /* \"#utility.yul\":28576:28580   */\n      dup2\n        /* \"#utility.yul\":28450:28581   */\n      tag_309\n      jump\t// in\n    tag_588:\n        /* \"#utility.yul\":28442:28581   */\n      swap1\n      pop\n        /* \"#utility.yul\":28169:28588   */\n      swap2\n      swap1\n      pop\n      jump\t// out\n        /* \"#utility.yul\":28594:28772   */\n    tag_310:\n        /* \"#utility.yul\":28734:28764   */\n      0x5472616e73616374696f6e20616c726561647920657865637574656400000000\n        /* \"#utility.yul\":28730:28731   */\n      0x00\n        /* \"#utility.yul\":28722:28728   */\n      dup3\n        /* \"#utility.yul\":28718:28732   */\n      add\n        /* \"#utility.yul\":28711:28765   */\n      mstore\n        /* \"#utility.yul\":28594:28772   */\n      pop\n      jump\t// out\n        /* \"#utility.yul\":28778:29144   */\n    tag_311:\n        /* \"#utility.yul\":28920:28923   */\n      0x00\n        /* \"#utility.yul\":28941:29008   */\n      tag_591\n        /* \"#utility.yul\":29005:29007   */\n      0x1c\n        /* \"#utility.yul\":29000:29003   */\n      dup4\n        /* \"#utility.yul\":28941:29008   */\n      tag_276\n      jump\t// in\n    tag_591:\n        /* \"#utility.yul\":28934:29008   */\n      swap2\n      pop\n        /* \"#utility.yul\":29017:29110   */\n      tag_592\n        /* \"#utility.yul\":29106:29109   */\n      dup3\n        /* \"#utility.yul\":29017:29110   */\n      tag_310\n      jump\t// in\n    tag_592:\n        /* \"#utility.yul\":29135:29137   */\n      0x20\n        /* \"#utility.yul\":29130:29133   */\n      dup3\n        /* \"#utility.yul\":29126:29138   */\n      add\n        /* \"#utility.yul\":29119:29138   */\n      swap1\n      pop\n        /* \"#utility.yul\":28778:29144   */\n      swap2\n      swap1\n      pop\n      jump\t// out\n        /* \"#utility.yul\":29150:29569   */\n    tag_214:\n        /* \"#utility.yul\":29316:29320   */\n      0x00\n        /* \"#utility.yul\":29354:29356   */\n      0x20\n        /* \"#utility.yul\":29343:29352   */\n      dup3\n        /* \"#utility.yul\":29339:29357   */\n      add\n        /* \"#utility.yul\":29331:29357   */\n      swap1\n      pop\n        /* \"#utility.yul\":29403:29412   */\n      dup2\n        /* \"#utility.yul\":29397:29401   */\n      dup2\n        /* \"#utility.yul\":29393:29413   */\n      sub\n        /* \"#utility.yul\":29389:29390   */\n      0x00\n        /* \"#utility.yul\":29378:29387   */\n      dup4\n        /* \"#utility.yul\":29374:29391   */\n      add\n        /* \"#utility.yul\":29367:29414   */\n      mstore\n        /* \"#utility.yul\":29431:29562   */\n      tag_594\n        /* \"#utility.yul\":29557:29561   */\n      dup2\n        /* \"#utility.yul\":29431:29562   */\n      tag_311\n      jump\t// in\n    tag_594:\n        /* \"#utility.yul\":29423:29562   */\n      swap1\n      pop\n        /* \"#utility.yul\":29150:29569   */\n      swap2\n      swap1\n      pop\n      jump\t// out\n        /* \"#utility.yul\":29575:29754   */\n    tag_312:\n        /* \"#utility.yul\":29715:29746   */\n      0x5472616e73616374696f6e20616c726561647920636f6e6669726d6564000000\n        /* \"#utility.yul\":29711:29712   */\n      0x00\n        /* \"#utility.yul\":29703:29709   */\n      dup3\n        /* \"#utility.yul\":29699:29713   */\n      add\n        /* \"#utility.yul\":29692:29747   */\n      mstore\n        /* \"#utility.yul\":29575:29754   */\n      pop\n      jump\t// out\n        /* \"#utility.yul\":29760:30126   */\n    tag_313:\n        /* \"#utility.yul\":29902:29905   */\n      0x00\n        /* \"#utility.yul\":29923:29990   */\n      tag_597\n        /* \"#utility.yul\":29987:29989   */\n      0x1d\n        /* \"#utility.yul\":29982:29985   */\n      dup4\n        /* \"#utility.yul\":29923:29990   */\n      tag_276\n      jump\t// in\n    tag_597:\n        /* \"#utility.yul\":29916:29990   */\n      swap2\n      pop\n        /* \"#utility.yul\":29999:30092   */\n      tag_598\n        /* \"#utility.yul\":30088:30091   */\n      dup3\n        /* \"#utility.yul\":29999:30092   */\n      tag_312\n      jump\t// in\n    tag_598:\n        /* \"#utility.yul\":30117:30119   */\n      0x20\n        /* \"#utility.yul\":30112:30115   */\n      dup3\n        /* \"#utility.yul\":30108:30120   */\n      add\n        /* \"#utility.yul\":30101:30120   */\n      swap1\n      pop\n        /* \"#utility.yul\":29760:30126   */\n      swap2\n      swap1\n      pop\n      jump\t// out\n        /* \"#utility.yul\":30132:30551   */\n    tag_218:\n        /* \"#utility.yul\":30298:30302   */\n      0x00\n        /* \"#utility.yul\":30336:30338   */\n      0x20\n        /* \"#utility.yul\":30325:30334   */\n      dup3\n        /* \"#utility.yul\":30321:30339   */\n      add\n        /* \"#utility.yul\":30313:30339   */\n      swap1\n      pop\n        /* \"#utility.yul\":30385:30394   */\n      dup2\n        /* \"#utility.yul\":30379:30383   */\n      dup2\n        /* \"#utility.yul\":30375:30395   */\n      sub\n        /* \"#utility.yul\":30371:30372   */\n      0x00\n        /* \"#utility.yul\":30360:30369   */\n      dup4\n        /* \"#utility.yul\":30356:30373   */\n      add\n        /* \"#utility.yul\":30349:30396   */\n      mstore\n        /* \"#utility.yul\":30413:30544   */\n      tag_600\n        /* \"#utility.yul\":30539:30543   */\n      dup2\n        /* \"#utility.yul\":30413:30544   */\n      tag_313\n      jump\t// in\n    tag_600:\n        /* \"#utility.yul\":30405:30544   */\n      swap1\n      pop\n        /* \"#utility.yul\":30132:30551   */\n      swap2\n      swap1\n      pop\n      jump\t// out\n        /* \"#utility.yul\":30557:30704   */\n    tag_314:\n        /* \"#utility.yul\":30658:30669   */\n      0x00\n        /* \"#utility.yul\":30695:30698   */\n      dup2\n        /* \"#utility.yul\":30680:30698   */\n      swap1\n      pop\n        /* \"#utility.yul\":30557:30704   */\n      swap3\n      swap2\n      pop\n      pop\n      jump\t// out\n        /* \"#utility.yul\":30732:31602   */\n    tag_315:\n        /* \"#utility.yul\":30833:30836   */\n      0x00\n        /* \"#utility.yul\":30870:30875   */\n      dup2\n        /* \"#utility.yul\":30864:30876   */\n      sload\n        /* \"#utility.yul\":30899:30935   */\n      tag_603\n        /* \"#utility.yul\":30925:30934   */\n      dup2\n        /* \"#utility.yul\":30899:30935   */\n      tag_105\n      jump\t// in\n    tag_603:\n        /* \"#utility.yul\":30951:31039   */\n      tag_604\n        /* \"#utility.yul\":31032:31038   */\n      dup2\n        /* \"#utility.yul\":31027:31030   */\n      dup7\n        /* \"#utility.yul\":30951:31039   */\n      tag_314\n      jump\t// in\n    tag_604:\n        /* \"#utility.yul\":30944:31039   */\n      swap5\n      pop\n        /* \"#utility.yul\":31070:31071   */\n      0x01\n        /* \"#utility.yul\":31059:31068   */\n      dup3\n        /* \"#utility.yul\":31055:31072   */\n      and\n        /* \"#utility.yul\":31086:31087   */\n      0x00\n        /* \"#utility.yul\":31081:31247   */\n      dup2\n      eq\n      tag_606\n      jumpi\n        /* \"#utility.yul\":31261:31262   */\n      0x01\n        /* \"#utility.yul\":31256:31596   */\n      dup2\n      eq\n      tag_607\n      jumpi\n        /* \"#utility.yul\":31048:31596   */\n      jump(tag_605)\n        /* \"#utility.yul\":31081:31247   */\n    tag_606:\n        /* \"#utility.yul\":31165:31169   */\n      0xff\n        /* \"#utility.yul\":31161:31170   */\n      not\n        /* \"#utility.yul\":31150:31159   */\n      dup4\n        /* \"#utility.yul\":31146:31171   */\n      and\n        /* \"#utility.yul\":31141:31144   */\n      dup7\n        /* \"#utility.yul\":31134:31172   */\n      mstore\n        /* \"#utility.yul\":31227:31233   */\n      dup2\n        /* \"#utility.yul\":31220:31234   */\n      iszero\n        /* \"#utility.yul\":31213:31235   */\n      iszero\n        /* \"#utility.yul\":31205:31211   */\n      dup3\n        /* \"#utility.yul\":31201:31236   */\n      mul\n        /* \"#utility.yul\":31196:31199   */\n      dup7\n        /* \"#utility.yul\":31192:31237   */\n      add\n        /* \"#utility.yul\":31185:31237   */\n      swap4\n      pop\n        /* \"#utility.yul\":31081:31247   */\n      jump(tag_605)\n        /* \"#utility.yul\":31256:31596   */\n    tag_607:\n        /* \"#utility.yul\":31323:31360   */\n      tag_608\n        /* \"#utility.yul\":31354:31359   */\n      dup6\n        /* \"#utility.yul\":31323:31360   */\n      tag_293\n      jump\t// in\n    tag_608:\n        /* \"#utility.yul\":31382:31383   */\n      0x00\n        /* \"#utility.yul\":31396:31550   */\n    tag_609:\n        /* \"#utility.yul\":31410:31416   */\n      dup4\n        /* \"#utility.yul\":31407:31408   */\n      dup2\n        /* \"#utility.yul\":31404:31417   */\n      lt\n        /* \"#utility.yul\":31396:31550   */\n      iszero\n      tag_611\n      jumpi\n        /* \"#utility.yul\":31484:31491   */\n      dup2\n        /* \"#utility.yul\":31478:31492   */\n      sload\n        /* \"#utility.yul\":31474:31475   */\n      dup2\n        /* \"#utility.yul\":31469:31472   */\n      dup10\n        /* \"#utility.yul\":31465:31476   */\n      add\n        /* \"#utility.yul\":31458:31493   */\n      mstore\n        /* \"#utility.yul\":31534:31535   */\n      0x01\n        /* \"#utility.yul\":31525:31532   */\n      dup3\n        /* \"#utility.yul\":31521:31536   */\n      add\n        /* \"#utility.yul\":31510:31536   */\n      swap2\n      pop\n        /* \"#utility.yul\":31432:31436   */\n      0x20\n        /* \"#utility.yul\":31429:31430   */\n      dup2\n        /* \"#utility.yul\":31425:31437   */\n      add\n        /* \"#utility.yul\":31420:31437   */\n      swap1\n      pop\n        /* \"#utility.yul\":31396:31550   */\n      jump(tag_609)\n    tag_611:\n        /* \"#utility.yul\":31579:31585   */\n      dup4\n        /* \"#utility.yul\":31574:31577   */\n      dup9\n        /* \"#utility.yul\":31570:31586   */\n      add\n        /* \"#utility.yul\":31563:31586   */\n      swap6\n      pop\n        /* \"#utility.yul\":31263:31596   */\n      pop\n      pop\n        /* \"#utility.yul\":31048:31596   */\n    tag_605:\n      pop\n        /* \"#utility.yul\":30837:31602   */\n      pop\n      pop\n        /* \"#utility.yul\":30732:31602   */\n      swap3\n      swap2\n      pop\n      pop\n      jump\t// out\n        /* \"#utility.yul\":31608:31873   */\n    tag_226:\n        /* \"#utility.yul\":31735:31738   */\n      0x00\n        /* \"#utility.yul\":31757:31847   */\n      tag_613\n        /* \"#utility.yul\":31843:31846   */\n      dup3\n        /* \"#utility.yul\":31834:31840   */\n      dup5\n        /* \"#utility.yul\":31757:31847   */\n      tag_315\n      jump\t// in\n    tag_613:\n        /* \"#utility.yul\":31750:31847   */\n      swap2\n      pop\n        /* \"#utility.yul\":31864:31867   */\n      dup2\n        /* \"#utility.yul\":31857:31867   */\n      swap1\n      pop\n        /* \"#utility.yul\":31608:31873   */\n      swap3\n      swap2\n      pop\n      pop\n      jump\t// out\n        /* \"#utility.yul\":31879:32047   */\n    tag_316:\n        /* \"#utility.yul\":32019:32039   */\n      0x5472616e73616374696f6e206661696c65640000000000000000000000000000\n        /* \"#utility.yul\":32015:32016   */\n      0x00\n        /* \"#utility.yul\":32007:32013   */\n      dup3\n        /* \"#utility.yul\":32003:32017   */\n      add\n        /* \"#utility.yul\":31996:32040   */\n      mstore\n        /* \"#utility.yul\":31879:32047   */\n      pop\n      jump\t// out\n        /* \"#utility.yul\":32053:32419   */\n    tag_317:\n        /* \"#utility.yul\":32195:32198   */\n      0x00\n        /* \"#utility.yul\":32216:32283   */\n      tag_616\n        /* \"#utility.yul\":32280:32282   */\n      0x12\n        /* \"#utility.yul\":32275:32278   */\n      dup4\n        /* \"#utility.yul\":32216:32283   */\n      tag_276\n      jump\t// in\n    tag_616:\n        /* \"#utility.yul\":32209:32283   */\n      swap2\n      pop\n        /* \"#utility.yul\":32292:32385   */\n      tag_617\n        /* \"#utility.yul\":32381:32384   */\n      dup3\n        /* \"#utility.yul\":32292:32385   */\n      tag_316\n      jump\t// in\n    tag_617:\n        /* \"#utility.yul\":32410:32412   */\n      0x20\n        /* \"#utility.yul\":32405:32408   */\n      dup3\n        /* \"#utility.yul\":32401:32413   */\n      add\n        /* \"#utility.yul\":32394:32413   */\n      swap1\n      pop\n        /* \"#utility.yul\":32053:32419   */\n      swap2\n      swap1\n      pop\n      jump\t// out\n        /* \"#utility.yul\":32425:32844   */\n    tag_232:\n        /* \"#utility.yul\":32591:32595   */\n      0x00\n        /* \"#utility.yul\":32629:32631   */\n      0x20\n        /* \"#utility.yul\":32618:32627   */\n      dup3\n        /* \"#utility.yul\":32614:32632   */\n      add\n        /* \"#utility.yul\":32606:32632   */\n      swap1\n      pop\n        /* \"#utility.yul\":32678:32687   */\n      dup2\n        /* \"#utility.yul\":32672:32676   */\n      dup2\n        /* \"#utility.yul\":32668:32688   */\n      sub\n        /* \"#utility.yul\":32664:32665   */\n      0x00\n        /* \"#utility.yul\":32653:32662   */\n      dup4\n        /* \"#utility.yul\":32649:32666   */\n      add\n        /* \"#utility.yul\":32642:32689   */\n      mstore\n        /* \"#utility.yul\":32706:32837   */\n      tag_619\n        /* \"#utility.yul\":32832:32836   */\n      dup2\n        /* \"#utility.yul\":32706:32837   */\n      tag_317\n      jump\t// in\n    tag_619:\n        /* \"#utility.yul\":32698:32837   */\n      swap1\n      pop\n        /* \"#utility.yul\":32425:32844   */\n      swap2\n      swap1\n      pop\n      jump\t// out\n\n    auxdata: 0xa264697066735822122029e805ff8db15dfb016b31829f571a5fd0e62b85c2a97efb4f3298fa20fac96864736f6c634300081a0033\n}\n",
				"bytecode": {
					"linkReferences": {},
					"object": "608060405234801561000f575f80fd5b50604051612f32380380612f328339818101604052810190610031919061043b565b5f815111610074576040517f08c379a000000000000000000000000000000000000000000000000000000000815260040161006b906104dc565b60405180910390fd5b5f5b8151811015610256575f828281518110610093576100926104fa565b5b602002602001015190505f73ffffffffffffffffffffffffffffffffffffffff168173ffffffffffffffffffffffffffffffffffffffff160361010b576040517f08c379a000000000000000000000000000000000000000000000000000000000815260040161010290610571565b60405180910390fd5b60015f8273ffffffffffffffffffffffffffffffffffffffff1673ffffffffffffffffffffffffffffffffffffffff1681526020019081526020015f205f9054906101000a900460ff1615610195576040517f08c379a000000000000000000000000000000000000000000000000000000000815260040161018c906105d9565b60405180910390fd5b6001805f8373ffffffffffffffffffffffffffffffffffffffff1673ffffffffffffffffffffffffffffffffffffffff1681526020019081526020015f205f6101000a81548160ff0219169083151502179055505f81908060018154018082558091505060019003905f5260205f20015f9091909190916101000a81548173ffffffffffffffffffffffffffffffffffffffff021916908373ffffffffffffffffffffffffffffffffffffffff160217905550508080600101915050610076565b50600160025f8054905061026a919061065a565b610274919061068a565b600281905550506106bd565b5f604051905090565b5f80fd5b5f80fd5b5f80fd5b5f601f19601f8301169050919050565b7f4e487b71000000000000000000000000000000000000000000000000000000005f52604160045260245ffd5b6102db82610295565b810181811067ffffffffffffffff821117156102fa576102f96102a5565b5b80604052505050565b5f61030c610280565b905061031882826102d2565b919050565b5f67ffffffffffffffff821115610337576103366102a5565b5b602082029050602081019050919050565b5f80fd5b5f73ffffffffffffffffffffffffffffffffffffffff82169050919050565b5f6103758261034c565b9050919050565b6103858161036b565b811461038f575f80fd5b50565b5f815190506103a08161037c565b92915050565b5f6103b86103b38461031d565b610303565b905080838252602082019050602084028301858111156103db576103da610348565b5b835b8181101561040457806103f08882610392565b8452602084019350506020810190506103dd565b5050509392505050565b5f82601f83011261042257610421610291565b5b81516104328482602086016103a6565b91505092915050565b5f602082840312156104505761044f610289565b5b5f82015167ffffffffffffffff81111561046d5761046c61028d565b5b6104798482850161040e565b91505092915050565b5f82825260208201905092915050565b7f4f776e65727320726571756972656400000000000000000000000000000000005f82015250565b5f6104c6600f83610482565b91506104d182610492565b602082019050919050565b5f6020820190508181035f8301526104f3816104ba565b9050919050565b7f4e487b71000000000000000000000000000000000000000000000000000000005f52603260045260245ffd5b7f496e76616c6964206f776e6572206164647265737300000000000000000000005f82015250565b5f61055b601583610482565b915061056682610527565b602082019050919050565b5f6020820190508181035f8301526105888161054f565b9050919050565b7f4f776e6572206e6f7420756e69717565000000000000000000000000000000005f82015250565b5f6105c3601083610482565b91506105ce8261058f565b602082019050919050565b5f6020820190508181035f8301526105f0816105b7565b9050919050565b5f819050919050565b7f4e487b71000000000000000000000000000000000000000000000000000000005f52601260045260245ffd5b7f4e487b71000000000000000000000000000000000000000000000000000000005f52601160045260245ffd5b5f610664826105f7565b915061066f836105f7565b92508261067f5761067e610600565b5b828204905092915050565b5f610694826105f7565b915061069f836105f7565b92508282019050808211156106b7576106b661062d565b5b92915050565b612868806106ca5f395ff3fe6080604052600436106100e0575f3560e01c80633411c81c1161007e5780639a1645f7116100585780639a1645f71461033a5780639ace38c214610376578063a9496e75146103b6578063c01a8c84146103de57610135565b80633411c81c146102ac5780636e4e91b7146102e85780638d0680431461031057610135565b80632d3fabd0116100ba5780632d3fabd0146101c95780632f54bf6e146101f157806333259df11461022d57806333ea3dc81461026c57610135565b8063025e7c271461013957806312065fe01461017557806327506f531461019f57610135565b36610135573373ffffffffffffffffffffffffffffffffffffffff167fe1fffcc4923d04b559f4d29a8bfc6cda04eb5b0d3c460751c2402c5c5cc9109c3460405161012b919061185e565b60405180910390a2005b5f80fd5b348015610144575f80fd5b5061015f600480360381019061015a91906118b2565b610406565b60405161016c919061191c565b60405180910390f35b348015610180575f80fd5b50610189610440565b604051610196919061185e565b60405180910390f35b3480156101aa575f80fd5b506101b3610447565b6040516101c09190611b0b565b60405180910390f35b3480156101d4575f80fd5b506101ef60048036038101906101ea91906118b2565b6105b5565b005b3480156101fc575f80fd5b5061021760048036038101906102129190611b55565b610cf1565b6040516102249190611b8f565b60405180910390f35b348015610238575f80fd5b50610253600480360381019061024e91906118b2565b610d0e565b6040516102639493929190611ba8565b60405180910390f35b348015610277575f80fd5b50610292600480360381019061028d91906118b2565b610d80565b6040516102a3959493929190611c33565b60405180910390f35b3480156102b7575f80fd5b506102d260048036038101906102cd9190611c8b565b610e89565b6040516102df9190611b8f565b60405180910390f35b3480156102f3575f80fd5b5061030e60048036038101906103099190611cf3565b610eb3565b005b34801561031b575f80fd5b5061032461118e565b604051610331919061185e565b60405180910390f35b348015610345575f80fd5b50610360600480360381019061035b9190611c8b565b611194565b60405161036d9190611b8f565b60405180910390f35b348015610381575f80fd5b5061039c600480360381019061039791906118b2565b6111be565b6040516103ad959493929190611c33565b60405180910390f35b3480156103c1575f80fd5b506103dc60048036038101906103d79190611e5d565b6112b0565b005b3480156103e9575f80fd5b5061040460048036038101906103ff91906118b2565b611496565b005b5f8181548110610414575f80fd5b905f5260205f20015f915054906101000a900473ffffffffffffffffffffffffffffffffffffffff1681565b5f47905090565b60606003805480602002602001604051908101604052809291908181526020015f905b828210156105ac578382905f5260205f2090600502016040518060a00160405290815f82015f9054906101000a900473ffffffffffffffffffffffffffffffffffffffff1673ffffffffffffffffffffffffffffffffffffffff1673ffffffffffffffffffffffffffffffffffffffff168152602001600182015481526020016002820180546104f990611ef6565b80601f016020809104026020016040519081016040528092919081815260200182805461052590611ef6565b80156105705780601f1061054757610100808354040283529160200191610570565b820191905f5260205f20905b81548152906001019060200180831161055357829003601f168201915b50505050508152602001600382015f9054906101000a900460ff161515151581526020016004820154815250508152602001906001019061046a565b50505050905090565b60015f3373ffffffffffffffffffffffffffffffffffffffff1673ffffffffffffffffffffffffffffffffffffffff1681526020019081526020015f205f9054906101000a900460ff1661063e576040517f08c379a000000000000000000000000000000000000000000000000000000000815260040161063590611f80565b60405180910390fd5b6005805490508110610685576040517f08c379a000000000000000000000000000000000000000000000000000000000815260040161067c90611fe8565b60405180910390fd5b5f6005828154811061069a57610699612006565b5b905f5260205f2090600302019050806002015f9054906101000a900460ff16156106f9576040517f08c379a00000000000000000000000000000000000000000000000000000000081526004016106f09061207d565b60405180910390fd5b60065f8381526020019081526020015f205f3373ffffffffffffffffffffffffffffffffffffffff1673ffffffffffffffffffffffffffffffffffffffff1681526020019081526020015f205f9054906101000a900460ff1615610792576040517f08c379a0000000000000000000000000000000000000000000000000000000008152600401610789906120e5565b60405180910390fd5b600160065f8481526020019081526020015f205f3373ffffffffffffffffffffffffffffffffffffffff1673ffffffffffffffffffffffffffffffffffffffff1681526020019081526020015f205f6101000a81548160ff0219169083151502179055506001816001015f82825461080a9190612130565b925050819055503373ffffffffffffffffffffffffffffffffffffffff16827f4e6b2f9f89753bbf282a9339c429ec93e3eda4fb3df050ac65448100fa72f9f260405160405180910390a3600254816001015410610ced576001816002015f6101000a81548160ff021916908315150217905550805f0160149054906101000a900460ff1615610990575f815f015f9054906101000a900473ffffffffffffffffffffffffffffffffffffffff16908060018154018082558091505060019003905f5260205f20015f9091909190916101000a81548173ffffffffffffffffffffffffffffffffffffffff021916908373ffffffffffffffffffffffffffffffffffffffff1602179055506001805f835f015f9054906101000a900473ffffffffffffffffffffffffffffffffffffffff1673ffffffffffffffffffffffffffffffffffffffff1673ffffffffffffffffffffffffffffffffffffffff1681526020019081526020015f205f6101000a81548160ff021916908315150217905550610c48565b60015f825f015f9054906101000a900473ffffffffffffffffffffffffffffffffffffffff1673ffffffffffffffffffffffffffffffffffffffff1673ffffffffffffffffffffffffffffffffffffffff1681526020019081526020015f205f9054906101000a900460ff16610a3b576040517f08c379a0000000000000000000000000000000000000000000000000000000008152600401610a32906121ad565b60405180910390fd5b5f60015f835f015f9054906101000a900473ffffffffffffffffffffffffffffffffffffffff1673ffffffffffffffffffffffffffffffffffffffff1673ffffffffffffffffffffffffffffffffffffffff1681526020019081526020015f205f6101000a81548160ff0219169083151502179055505f5b5f80549050811015610c4657815f015f9054906101000a900473ffffffffffffffffffffffffffffffffffffffff1673ffffffffffffffffffffffffffffffffffffffff165f8281548110610b0b57610b0a612006565b5b905f5260205f20015f9054906101000a900473ffffffffffffffffffffffffffffffffffffffff1673ffffffffffffffffffffffffffffffffffffffff1603610c39575f60015f80549050610b6091906121cb565b81548110610b7157610b70612006565b5b905f5260205f20015f9054906101000a900473ffffffffffffffffffffffffffffffffffffffff165f8281548110610bac57610bab612006565b5b905f5260205f20015f6101000a81548173ffffffffffffffffffffffffffffffffffffffff021916908373ffffffffffffffffffffffffffffffffffffffff1602179055505f805480610c0257610c016121fe565b5b600190038181905f5260205f20015f6101000a81549073ffffffffffffffffffffffffffffffffffffffff02191690559055610c46565b8080600101915050610ab3565b505b600160025f80549050610c5b9190612258565b610c659190612130565b600281905550805f015f9054906101000a900473ffffffffffffffffffffffffffffffffffffffff1673ffffffffffffffffffffffffffffffffffffffff16827f89dd07c152fcf1761facddb0608fc4c57a27b9e8e4677e682e80bf549bd5375f835f0160149054906101000a900460ff16604051610ce49190611b8f565b60405180910390a35b5050565b6001602052805f5260405f205f915054906101000a900460ff1681565b60058181548110610d1d575f80fd5b905f5260205f2090600302015f91509050805f015f9054906101000a900473ffffffffffffffffffffffffffffffffffffffff1690805f0160149054906101000a900460ff1690806001015490806002015f9054906101000a900460ff16905084565b5f8060605f805f60038781548110610d9b57610d9a612006565b5b905f5260205f2090600502019050805f015f9054906101000a900473ffffffffffffffffffffffffffffffffffffffff16816001015482600201836003015f9054906101000a900460ff168460040154828054610df790611ef6565b80601f0160208091040260200160405190810160405280929190818152602001828054610e2390611ef6565b8015610e6e5780601f10610e4557610100808354040283529160200191610e6e565b820191905f5260205f20905b815481529060010190602001808311610e5157829003601f168201915b50505050509250955095509550955095505091939590929450565b6004602052815f5260405f20602052805f5260405f205f915091509054906101000a900460ff1681565b60015f3373ffffffffffffffffffffffffffffffffffffffff1673ffffffffffffffffffffffffffffffffffffffff1681526020019081526020015f205f9054906101000a900460ff16610f3c576040517f08c379a0000000000000000000000000000000000000000000000000000000008152600401610f3390611f80565b60405180910390fd5b5f73ffffffffffffffffffffffffffffffffffffffff168273ffffffffffffffffffffffffffffffffffffffff1603610faa576040517f08c379a0000000000000000000000000000000000000000000000000000000008152600401610fa1906122d2565b60405180910390fd5b80151560015f8473ffffffffffffffffffffffffffffffffffffffff1673ffffffffffffffffffffffffffffffffffffffff1681526020019081526020015f205f9054906101000a900460ff16151503611039576040517f08c379a00000000000000000000000000000000000000000000000000000000081526004016110309061233a565b60405180910390fd5b600560405180608001604052808473ffffffffffffffffffffffffffffffffffffffff16815260200183151581526020015f81526020015f1515815250908060018154018082558091505060019003905f5260205f2090600302015f909190919091505f820151815f015f6101000a81548173ffffffffffffffffffffffffffffffffffffffff021916908373ffffffffffffffffffffffffffffffffffffffff1602179055506020820151815f0160146101000a81548160ff021916908315150217905550604082015181600101556060820151816002015f6101000a81548160ff02191690831515021790555050508173ffffffffffffffffffffffffffffffffffffffff16600160058054905061115391906121cb565b7f2b4ba558ce06f8a12392a1517213de0a24d8fdb07a6c8a66c23d16321a328bde836040516111829190611b8f565b60405180910390a35050565b60025481565b6006602052815f5260405f20602052805f5260405f205f915091509054906101000a900460ff1681565b600381815481106111cd575f80fd5b905f5260205f2090600502015f91509050805f015f9054906101000a900473ffffffffffffffffffffffffffffffffffffffff169080600101549080600201805461121790611ef6565b80601f016020809104026020016040519081016040528092919081815260200182805461124390611ef6565b801561128e5780601f106112655761010080835404028352916020019161128e565b820191905f5260205f20905b81548152906001019060200180831161127157829003601f168201915b505050505090806003015f9054906101000a900460ff16908060040154905085565b60015f3373ffffffffffffffffffffffffffffffffffffffff1673ffffffffffffffffffffffffffffffffffffffff1681526020019081526020015f205f9054906101000a900460ff16611339576040517f08c379a000000000000000000000000000000000000000000000000000000000815260040161133090611f80565b60405180910390fd5b60036040518060a001604052808573ffffffffffffffffffffffffffffffffffffffff1681526020018481526020018381526020015f151581526020015f815250908060018154018082558091505060019003905f5260205f2090600502015f909190919091505f820151815f015f6101000a81548173ffffffffffffffffffffffffffffffffffffffff021916908373ffffffffffffffffffffffffffffffffffffffff16021790555060208201518160010155604082015181600201908161140391906124f5565b506060820151816003015f6101000a81548160ff0219169083151502179055506080820151816004015550508273ffffffffffffffffffffffffffffffffffffffff16600160038054905061145891906121cb565b7f453e07a951b5abb44cc647534a150065e3a308fec0dc01fda6ca43a4984f835b84846040516114899291906125c4565b60405180910390a3505050565b60015f3373ffffffffffffffffffffffffffffffffffffffff1673ffffffffffffffffffffffffffffffffffffffff1681526020019081526020015f205f9054906101000a900460ff1661151f576040517f08c379a000000000000000000000000000000000000000000000000000000000815260040161151690611f80565b60405180910390fd5b806003805490508110611567576040517f08c379a000000000000000000000000000000000000000000000000000000000815260040161155e9061263c565b60405180910390fd5b816003818154811061157c5761157b612006565b5b905f5260205f2090600502016003015f9054906101000a900460ff16156115d8576040517f08c379a00000000000000000000000000000000000000000000000000000000081526004016115cf906126a4565b60405180910390fd5b8260045f8281526020019081526020015f205f3373ffffffffffffffffffffffffffffffffffffffff1673ffffffffffffffffffffffffffffffffffffffff1681526020019081526020015f205f9054906101000a900460ff1615611672576040517f08c379a00000000000000000000000000000000000000000000000000000000081526004016116699061270c565b60405180910390fd5b5f6003858154811061168757611686612006565b5b905f5260205f2090600502019050600160045f8781526020019081526020015f205f3373ffffffffffffffffffffffffffffffffffffffff1673ffffffffffffffffffffffffffffffffffffffff1681526020019081526020015f205f6101000a81548160ff0219169083151502179055506001816004015f82825461170d9190612130565b9250508190555060025481600401541061183f576001816003015f6101000a81548160ff0219169083151502179055505f815f015f9054906101000a900473ffffffffffffffffffffffffffffffffffffffff1673ffffffffffffffffffffffffffffffffffffffff1682600101548360020160405161178d91906127b4565b5f6040518083038185875af1925050503d805f81146117c7576040519150601f19603f3d011682016040523d82523d5f602084013e6117cc565b606091505b5050905080611810576040517f08c379a000000000000000000000000000000000000000000000000000000000815260040161180790612814565b60405180910390fd5b857f15ed165a284872ea7017f03df402a0cadfbfab588320ffaf83f160c2f82781c760405160405180910390a2505b5050505050565b5f819050919050565b61185881611846565b82525050565b5f6020820190506118715f83018461184f565b92915050565b5f604051905090565b5f80fd5b5f80fd5b61189181611846565b811461189b575f80fd5b50565b5f813590506118ac81611888565b92915050565b5f602082840312156118c7576118c6611880565b5b5f6118d48482850161189e565b91505092915050565b5f73ffffffffffffffffffffffffffffffffffffffff82169050919050565b5f611906826118dd565b9050919050565b611916816118fc565b82525050565b5f60208201905061192f5f83018461190d565b92915050565b5f81519050919050565b5f82825260208201905092915050565b5f819050602082019050919050565b611967816118fc565b82525050565b61197681611846565b82525050565b5f81519050919050565b5f82825260208201905092915050565b8281835e5f83830152505050565b5f601f19601f8301169050919050565b5f6119be8261197c565b6119c88185611986565b93506119d8818560208601611996565b6119e1816119a4565b840191505092915050565b5f8115159050919050565b611a00816119ec565b82525050565b5f60a083015f830151611a1b5f86018261195e565b506020830151611a2e602086018261196d565b5060408301518482036040860152611a4682826119b4565b9150506060830151611a5b60608601826119f7565b506080830151611a6e608086018261196d565b508091505092915050565b5f611a848383611a06565b905092915050565b5f602082019050919050565b5f611aa282611935565b611aac818561193f565b935083602082028501611abe8561194f565b805f5b85811015611af95784840389528151611ada8582611a79565b9450611ae583611a8c565b925060208a01995050600181019050611ac1565b50829750879550505050505092915050565b5f6020820190508181035f830152611b238184611a98565b905092915050565b611b34816118fc565b8114611b3e575f80fd5b50565b5f81359050611b4f81611b2b565b92915050565b5f60208284031215611b6a57611b69611880565b5b5f611b7784828501611b41565b91505092915050565b611b89816119ec565b82525050565b5f602082019050611ba25f830184611b80565b92915050565b5f608082019050611bbb5f83018761190d565b611bc86020830186611b80565b611bd5604083018561184f565b611be26060830184611b80565b95945050505050565b5f82825260208201905092915050565b5f611c058261197c565b611c0f8185611beb565b9350611c1f818560208601611996565b611c28816119a4565b840191505092915050565b5f60a082019050611c465f83018861190d565b611c53602083018761184f565b8181036040830152611c658186611bfb565b9050611c746060830185611b80565b611c81608083018461184f565b9695505050505050565b5f8060408385031215611ca157611ca0611880565b5b5f611cae8582860161189e565b9250506020611cbf85828601611b41565b9150509250929050565b611cd2816119ec565b8114611cdc575f80fd5b50565b5f81359050611ced81611cc9565b92915050565b5f8060408385031215611d0957611d08611880565b5b5f611d1685828601611b41565b9250506020611d2785828601611cdf565b9150509250929050565b5f80fd5b5f80fd5b7f4e487b71000000000000000000000000000000000000000000000000000000005f52604160045260245ffd5b611d6f826119a4565b810181811067ffffffffffffffff82111715611d8e57611d8d611d39565b5b80604052505050565b5f611da0611877565b9050611dac8282611d66565b919050565b5f67ffffffffffffffff821115611dcb57611dca611d39565b5b611dd4826119a4565b9050602081019050919050565b828183375f83830152505050565b5f611e01611dfc84611db1565b611d97565b905082815260208101848484011115611e1d57611e1c611d35565b5b611e28848285611de1565b509392505050565b5f82601f830112611e4457611e43611d31565b5b8135611e54848260208601611def565b91505092915050565b5f805f60608486031215611e7457611e73611880565b5b5f611e8186828701611b41565b9350506020611e928682870161189e565b925050604084013567ffffffffffffffff811115611eb357611eb2611884565b5b611ebf86828701611e30565b9150509250925092565b7f4e487b71000000000000000000000000000000000000000000000000000000005f52602260045260245ffd5b5f6002820490506001821680611f0d57607f821691505b602082108103611f2057611f1f611ec9565b5b50919050565b5f82825260208201905092915050565b7f4e6f7420616e206f776e657200000000000000000000000000000000000000005f82015250565b5f611f6a600c83611f26565b9150611f7582611f36565b602082019050919050565b5f6020820190508181035f830152611f9781611f5e565b9050919050565b7f5265717565737420646f6573206e6f74206578697374000000000000000000005f82015250565b5f611fd2601683611f26565b9150611fdd82611f9e565b602082019050919050565b5f6020820190508181035f830152611fff81611fc6565b9050919050565b7f4e487b71000000000000000000000000000000000000000000000000000000005f52603260045260245ffd5b7f5265717565737420616c726561647920657865637574656400000000000000005f82015250565b5f612067601883611f26565b915061207282612033565b602082019050919050565b5f6020820190508181035f8301526120948161205b565b9050919050565b7f5265717565737420616c726561647920636f6e6669726d6564000000000000005f82015250565b5f6120cf601983611f26565b91506120da8261209b565b602082019050919050565b5f6020820190508181035f8301526120fc816120c3565b9050919050565b7f4e487b71000000000000000000000000000000000000000000000000000000005f52601160045260245ffd5b5f61213a82611846565b915061214583611846565b925082820190508082111561215d5761215c612103565b5b92915050565b7f4f776e657220646f6573206e6f742065786973740000000000000000000000005f82015250565b5f612197601483611f26565b91506121a282612163565b602082019050919050565b5f6020820190508181035f8301526121c48161218b565b9050919050565b5f6121d582611846565b91506121e083611846565b92508282039050818111156121f8576121f7612103565b5b92915050565b7f4e487b71000000000000000000000000000000000000000000000000000000005f52603160045260245ffd5b7f4e487b71000000000000000000000000000000000000000000000000000000005f52601260045260245ffd5b5f61226282611846565b915061226d83611846565b92508261227d5761227c61222b565b5b828204905092915050565b7f496e76616c6964206f776e6572206164647265737300000000000000000000005f82015250565b5f6122bc601583611f26565b91506122c782612288565b602082019050919050565b5f6020820190508181035f8301526122e9816122b0565b9050919050565b7f526564756e64616e7420726571756573740000000000000000000000000000005f82015250565b5f612324601183611f26565b915061232f826122f0565b602082019050919050565b5f6020820190508181035f83015261235181612318565b9050919050565b5f819050815f5260205f209050919050565b5f6020601f8301049050919050565b5f82821b905092915050565b5f600883026123b47fffffffffffffffffffffffffffffffffffffffffffffffffffffffffffffffff82612379565b6123be8683612379565b95508019841693508086168417925050509392505050565b5f819050919050565b5f6123f96123f46123ef84611846565b6123d6565b611846565b9050919050565b5f819050919050565b612412836123df565b61242661241e82612400565b848454612385565b825550505050565b5f90565b61243a61242e565b612445818484612409565b505050565b5b818110156124685761245d5f82612432565b60018101905061244b565b5050565b601f8211156124ad5761247e81612358565b6124878461236a565b81016020851015612496578190505b6124aa6124a28561236a565b83018261244a565b50505b505050565b5f82821c905092915050565b5f6124cd5f19846008026124b2565b1980831691505092915050565b5f6124e583836124be565b9150826002028217905092915050565b6124fe8261197c565b67ffffffffffffffff81111561251757612516611d39565b5b6125218254611ef6565b61252c82828561246c565b5f60209050601f83116001811461255d575f841561254b578287015190505b61255585826124da565b8655506125bc565b601f19841661256b86612358565b5f5b828110156125925784890151825560018201915060208501945060208101905061256d565b868310156125af57848901516125ab601f8916826124be565b8355505b6001600288020188555050505b505050505050565b5f6040820190506125d75f83018561184f565b81810360208301526125e98184611bfb565b90509392505050565b7f5472616e73616374696f6e20646f6573206e6f742065786973740000000000005f82015250565b5f612626601a83611f26565b9150612631826125f2565b602082019050919050565b5f6020820190508181035f8301526126538161261a565b9050919050565b7f5472616e73616374696f6e20616c7265616479206578656375746564000000005f82015250565b5f61268e601c83611f26565b91506126998261265a565b602082019050919050565b5f6020820190508181035f8301526126bb81612682565b9050919050565b7f5472616e73616374696f6e20616c726561647920636f6e6669726d65640000005f82015250565b5f6126f6601d83611f26565b9150612701826126c2565b602082019050919050565b5f6020820190508181035f830152612723816126ea565b9050919050565b5f81905092915050565b5f815461274081611ef6565b61274a818661272a565b9450600182165f81146127645760018114612779576127ab565b60ff19831686528115158202860193506127ab565b61278285612358565b5f5b838110156127a357815481890152600182019150602081019050612784565b838801955050505b50505092915050565b5f6127bf8284612734565b915081905092915050565b7f5472616e73616374696f6e206661696c656400000000000000000000000000005f82015250565b5f6127fe601283611f26565b9150612809826127ca565b602082019050919050565b5f6020820190508181035f83015261282b816127f2565b905091905056fea264697066735822122029e805ff8db15dfb016b31829f571a5fd0e62b85c2a97efb4f3298fa20fac96864736f6c634300081a0033",
					"opcodes": "PUSH1 0x80 PUSH1 0x40 MSTORE CALLVALUE DUP1 ISZERO PUSH2 0xF JUMPI PUSH0 DUP1 REVERT JUMPDEST POP PUSH1 0x40 MLOAD PUSH2 0x2F32 CODESIZE SUB DUP1 PUSH2 0x2F32 DUP4 CODECOPY DUP2 DUP2 ADD PUSH1 0x40 MSTORE DUP2 ADD SWAP1 PUSH2 0x31 SWAP2 SWAP1 PUSH2 0x43B JUMP JUMPDEST PUSH0 DUP2 MLOAD GT PUSH2 0x74 JUMPI PUSH1 0x40 MLOAD PUSH32 0x8C379A000000000000000000000000000000000000000000000000000000000 DUP2 MSTORE PUSH1 0x4 ADD PUSH2 0x6B SWAP1 PUSH2 0x4DC JUMP JUMPDEST PUSH1 0x40 MLOAD DUP1 SWAP2 SUB SWAP1 REVERT JUMPDEST PUSH0 JUMPDEST DUP2 MLOAD DUP2 LT ISZERO PUSH2 0x256 JUMPI PUSH0 DUP3 DUP3 DUP2 MLOAD DUP2 LT PUSH2 0x93 JUMPI PUSH2 0x92 PUSH2 0x4FA JUMP JUMPDEST JUMPDEST PUSH1 0x20 MUL PUSH1 0x20 ADD ADD MLOAD SWAP1 POP PUSH0 PUSH20 0xFFFFFFFFFFFFFFFFFFFFFFFFFFFFFFFFFFFFFFFF AND DUP2 PUSH20 0xFFFFFFFFFFFFFFFFFFFFFFFFFFFFFFFFFFFFFFFF AND SUB PUSH2 0x10B JUMPI PUSH1 0x40 MLOAD PUSH32 0x8C379A000000000000000000000000000000000000000000000000000000000 DUP2 MSTORE PUSH1 0x4 ADD PUSH2 0x102 SWAP1 PUSH2 0x571 JUMP JUMPDEST PUSH1 0x40 MLOAD DUP1 SWAP2 SUB SWAP1 REVERT JUMPDEST PUSH1 0x1 PUSH0 DUP3 PUSH20 0xFFFFFFFFFFFFFFFFFFFFFFFFFFFFFFFFFFFFFFFF AND PUSH20 0xFFFFFFFFFFFFFFFFFFFFFFFFFFFFFFFFFFFFFFFF AND DUP2 MSTORE PUSH1 0x20 ADD SWAP1 DUP2 MSTORE PUSH1 0x20 ADD PUSH0 KECCAK256 PUSH0 SWAP1 SLOAD SWAP1 PUSH2 0x100 EXP SWAP1 DIV PUSH1 0xFF AND ISZERO PUSH2 0x195 JUMPI PUSH1 0x40 MLOAD PUSH32 0x8C379A000000000000000000000000000000000000000000000000000000000 DUP2 MSTORE PUSH1 0x4 ADD PUSH2 0x18C SWAP1 PUSH2 0x5D9 JUMP JUMPDEST PUSH1 0x40 MLOAD DUP1 SWAP2 SUB SWAP1 REVERT JUMPDEST PUSH1 0x1 DUP1 PUSH0 DUP4 PUSH20 0xFFFFFFFFFFFFFFFFFFFFFFFFFFFFFFFFFFFFFFFF AND PUSH20 0xFFFFFFFFFFFFFFFFFFFFFFFFFFFFFFFFFFFFFFFF AND DUP2 MSTORE PUSH1 0x20 ADD SWAP1 DUP2 MSTORE PUSH1 0x20 ADD PUSH0 KECCAK256 PUSH0 PUSH2 0x100 EXP DUP2 SLOAD DUP2 PUSH1 0xFF MUL NOT AND SWAP1 DUP4 ISZERO ISZERO MUL OR SWAP1 SSTORE POP PUSH0 DUP2 SWAP1 DUP1 PUSH1 0x1 DUP2 SLOAD ADD DUP1 DUP3 SSTORE DUP1 SWAP2 POP POP PUSH1 0x1 SWAP1 SUB SWAP1 PUSH0 MSTORE PUSH1 0x20 PUSH0 KECCAK256 ADD PUSH0 SWAP1 SWAP2 SWAP1 SWAP2 SWAP1 SWAP2 PUSH2 0x100 EXP DUP2 SLOAD DUP2 PUSH20 0xFFFFFFFFFFFFFFFFFFFFFFFFFFFFFFFFFFFFFFFF MUL NOT AND SWAP1 DUP4 PUSH20 0xFFFFFFFFFFFFFFFFFFFFFFFFFFFFFFFFFFFFFFFF AND MUL OR SWAP1 SSTORE POP POP DUP1 DUP1 PUSH1 0x1 ADD SWAP2 POP POP PUSH2 0x76 JUMP JUMPDEST POP PUSH1 0x1 PUSH1 0x2 PUSH0 DUP1 SLOAD SWAP1 POP PUSH2 0x26A SWAP2 SWAP1 PUSH2 0x65A JUMP JUMPDEST PUSH2 0x274 SWAP2 SWAP1 PUSH2 0x68A JUMP JUMPDEST PUSH1 0x2 DUP2 SWAP1 SSTORE POP POP PUSH2 0x6BD JUMP JUMPDEST PUSH0 PUSH1 0x40 MLOAD SWAP1 POP SWAP1 JUMP JUMPDEST PUSH0 DUP1 REVERT JUMPDEST PUSH0 DUP1 REVERT JUMPDEST PUSH0 DUP1 REVERT JUMPDEST PUSH0 PUSH1 0x1F NOT PUSH1 0x1F DUP4 ADD AND SWAP1 POP SWAP2 SWAP1 POP JUMP JUMPDEST PUSH32 0x4E487B7100000000000000000000000000000000000000000000000000000000 PUSH0 MSTORE PUSH1 0x41 PUSH1 0x4 MSTORE PUSH1 0x24 PUSH0 REVERT JUMPDEST PUSH2 0x2DB DUP3 PUSH2 0x295 JUMP JUMPDEST DUP2 ADD DUP2 DUP2 LT PUSH8 0xFFFFFFFFFFFFFFFF DUP3 GT OR ISZERO PUSH2 0x2FA JUMPI PUSH2 0x2F9 PUSH2 0x2A5 JUMP JUMPDEST JUMPDEST DUP1 PUSH1 0x40 MSTORE POP POP POP JUMP JUMPDEST PUSH0 PUSH2 0x30C PUSH2 0x280 JUMP JUMPDEST SWAP1 POP PUSH2 0x318 DUP3 DUP3 PUSH2 0x2D2 JUMP JUMPDEST SWAP2 SWAP1 POP JUMP JUMPDEST PUSH0 PUSH8 0xFFFFFFFFFFFFFFFF DUP3 GT ISZERO PUSH2 0x337 JUMPI PUSH2 0x336 PUSH2 0x2A5 JUMP JUMPDEST JUMPDEST PUSH1 0x20 DUP3 MUL SWAP1 POP PUSH1 0x20 DUP2 ADD SWAP1 POP SWAP2 SWAP1 POP JUMP JUMPDEST PUSH0 DUP1 REVERT JUMPDEST PUSH0 PUSH20 0xFFFFFFFFFFFFFFFFFFFFFFFFFFFFFFFFFFFFFFFF DUP3 AND SWAP1 POP SWAP2 SWAP1 POP JUMP JUMPDEST PUSH0 PUSH2 0x375 DUP3 PUSH2 0x34C JUMP JUMPDEST SWAP1 POP SWAP2 SWAP1 POP JUMP JUMPDEST PUSH2 0x385 DUP2 PUSH2 0x36B JUMP JUMPDEST DUP2 EQ PUSH2 0x38F JUMPI PUSH0 DUP1 REVERT JUMPDEST POP JUMP JUMPDEST PUSH0 DUP2 MLOAD SWAP1 POP PUSH2 0x3A0 DUP2 PUSH2 0x37C JUMP JUMPDEST SWAP3 SWAP2 POP POP JUMP JUMPDEST PUSH0 PUSH2 0x3B8 PUSH2 0x3B3 DUP5 PUSH2 0x31D JUMP JUMPDEST PUSH2 0x303 JUMP JUMPDEST SWAP1 POP DUP1 DUP4 DUP3 MSTORE PUSH1 0x20 DUP3 ADD SWAP1 POP PUSH1 0x20 DUP5 MUL DUP4 ADD DUP6 DUP2 GT ISZERO PUSH2 0x3DB JUMPI PUSH2 0x3DA PUSH2 0x348 JUMP JUMPDEST JUMPDEST DUP4 JUMPDEST DUP2 DUP2 LT ISZERO PUSH2 0x404 JUMPI DUP1 PUSH2 0x3F0 DUP9 DUP3 PUSH2 0x392 JUMP JUMPDEST DUP5 MSTORE PUSH1 0x20 DUP5 ADD SWAP4 POP POP PUSH1 0x20 DUP2 ADD SWAP1 POP PUSH2 0x3DD JUMP JUMPDEST POP POP POP SWAP4 SWAP3 POP POP POP JUMP JUMPDEST PUSH0 DUP3 PUSH1 0x1F DUP4 ADD SLT PUSH2 0x422 JUMPI PUSH2 0x421 PUSH2 0x291 JUMP JUMPDEST JUMPDEST DUP2 MLOAD PUSH2 0x432 DUP5 DUP3 PUSH1 0x20 DUP7 ADD PUSH2 0x3A6 JUMP JUMPDEST SWAP2 POP POP SWAP3 SWAP2 POP POP JUMP JUMPDEST PUSH0 PUSH1 0x20 DUP3 DUP5 SUB SLT ISZERO PUSH2 0x450 JUMPI PUSH2 0x44F PUSH2 0x289 JUMP JUMPDEST JUMPDEST PUSH0 DUP3 ADD MLOAD PUSH8 0xFFFFFFFFFFFFFFFF DUP2 GT ISZERO PUSH2 0x46D JUMPI PUSH2 0x46C PUSH2 0x28D JUMP JUMPDEST JUMPDEST PUSH2 0x479 DUP5 DUP3 DUP6 ADD PUSH2 0x40E JUMP JUMPDEST SWAP2 POP POP SWAP3 SWAP2 POP POP JUMP JUMPDEST PUSH0 DUP3 DUP3 MSTORE PUSH1 0x20 DUP3 ADD SWAP1 POP SWAP3 SWAP2 POP POP JUMP JUMPDEST PUSH32 0x4F776E6572732072657175697265640000000000000000000000000000000000 PUSH0 DUP3 ADD MSTORE POP JUMP JUMPDEST PUSH0 PUSH2 0x4C6 PUSH1 0xF DUP4 PUSH2 0x482 JUMP JUMPDEST SWAP2 POP PUSH2 0x4D1 DUP3 PUSH2 0x492 JUMP JUMPDEST PUSH1 0x20 DUP3 ADD SWAP1 POP SWAP2 SWAP1 POP JUMP JUMPDEST PUSH0 PUSH1 0x20 DUP3 ADD SWAP1 POP DUP2 DUP2 SUB PUSH0 DUP4 ADD MSTORE PUSH2 0x4F3 DUP2 PUSH2 0x4BA JUMP JUMPDEST SWAP1 POP SWAP2 SWAP1 POP JUMP JUMPDEST PUSH32 0x4E487B7100000000000000000000000000000000000000000000000000000000 PUSH0 MSTORE PUSH1 0x32 PUSH1 0x4 MSTORE PUSH1 0x24 PUSH0 REVERT JUMPDEST PUSH32 0x496E76616C6964206F776E657220616464726573730000000000000000000000 PUSH0 DUP3 ADD MSTORE POP JUMP JUMPDEST PUSH0 PUSH2 0x55B PUSH1 0x15 DUP4 PUSH2 0x482 JUMP JUMPDEST SWAP2 POP PUSH2 0x566 DUP3 PUSH2 0x527 JUMP JUMPDEST PUSH1 0x20 DUP3 ADD SWAP1 POP SWAP2 SWAP1 POP JUMP JUMPDEST PUSH0 PUSH1 0x20 DUP3 ADD SWAP1 POP DUP2 DUP2 SUB PUSH0 DUP4 ADD MSTORE PUSH2 0x588 DUP2 PUSH2 0x54F JUMP JUMPDEST SWAP1 POP SWAP2 SWAP1 POP JUMP JUMPDEST PUSH32 0x4F776E6572206E6F7420756E6971756500000000000000000000000000000000 PUSH0 DUP3 ADD MSTORE POP JUMP JUMPDEST PUSH0 PUSH2 0x5C3 PUSH1 0x10 DUP4 PUSH2 0x482 JUMP JUMPDEST SWAP2 POP PUSH2 0x5CE DUP3 PUSH2 0x58F JUMP JUMPDEST PUSH1 0x20 DUP3 ADD SWAP1 POP SWAP2 SWAP1 POP JUMP JUMPDEST PUSH0 PUSH1 0x20 DUP3 ADD SWAP1 POP DUP2 DUP2 SUB PUSH0 DUP4 ADD MSTORE PUSH2 0x5F0 DUP2 PUSH2 0x5B7 JUMP JUMPDEST SWAP1 POP SWAP2 SWAP1 POP JUMP JUMPDEST PUSH0 DUP2 SWAP1 POP SWAP2 SWAP1 POP JUMP JUMPDEST PUSH32 0x4E487B7100000000000000000000000000000000000000000000000000000000 PUSH0 MSTORE PUSH1 0x12 PUSH1 0x4 MSTORE PUSH1 0x24 PUSH0 REVERT JUMPDEST PUSH32 0x4E487B7100000000000000000000000000000000000000000000000000000000 PUSH0 MSTORE PUSH1 0x11 PUSH1 0x4 MSTORE PUSH1 0x24 PUSH0 REVERT JUMPDEST PUSH0 PUSH2 0x664 DUP3 PUSH2 0x5F7 JUMP JUMPDEST SWAP2 POP PUSH2 0x66F DUP4 PUSH2 0x5F7 JUMP JUMPDEST SWAP3 POP DUP3 PUSH2 0x67F JUMPI PUSH2 0x67E PUSH2 0x600 JUMP JUMPDEST JUMPDEST DUP3 DUP3 DIV SWAP1 POP SWAP3 SWAP2 POP POP JUMP JUMPDEST PUSH0 PUSH2 0x694 DUP3 PUSH2 0x5F7 JUMP JUMPDEST SWAP2 POP PUSH2 0x69F DUP4 PUSH2 0x5F7 JUMP JUMPDEST SWAP3 POP DUP3 DUP3 ADD SWAP1 POP DUP1 DUP3 GT ISZERO PUSH2 0x6B7 JUMPI PUSH2 0x6B6 PUSH2 0x62D JUMP JUMPDEST JUMPDEST SWAP3 SWAP2 POP POP JUMP JUMPDEST PUSH2 0x2868 DUP1 PUSH2 0x6CA PUSH0 CODECOPY PUSH0 RETURN INVALID PUSH1 0x80 PUSH1 0x40 MSTORE PUSH1 0x4 CALLDATASIZE LT PUSH2 0xE0 JUMPI PUSH0 CALLDATALOAD PUSH1 0xE0 SHR DUP1 PUSH4 0x3411C81C GT PUSH2 0x7E JUMPI DUP1 PUSH4 0x9A1645F7 GT PUSH2 0x58 JUMPI DUP1 PUSH4 0x9A1645F7 EQ PUSH2 0x33A JUMPI DUP1 PUSH4 0x9ACE38C2 EQ PUSH2 0x376 JUMPI DUP1 PUSH4 0xA9496E75 EQ PUSH2 0x3B6 JUMPI DUP1 PUSH4 0xC01A8C84 EQ PUSH2 0x3DE JUMPI PUSH2 0x135 JUMP JUMPDEST DUP1 PUSH4 0x3411C81C EQ PUSH2 0x2AC JUMPI DUP1 PUSH4 0x6E4E91B7 EQ PUSH2 0x2E8 JUMPI DUP1 PUSH4 0x8D068043 EQ PUSH2 0x310 JUMPI PUSH2 0x135 JUMP JUMPDEST DUP1 PUSH4 0x2D3FABD0 GT PUSH2 0xBA JUMPI DUP1 PUSH4 0x2D3FABD0 EQ PUSH2 0x1C9 JUMPI DUP1 PUSH4 0x2F54BF6E EQ PUSH2 0x1F1 JUMPI DUP1 PUSH4 0x33259DF1 EQ PUSH2 0x22D JUMPI DUP1 PUSH4 0x33EA3DC8 EQ PUSH2 0x26C JUMPI PUSH2 0x135 JUMP JUMPDEST DUP1 PUSH4 0x25E7C27 EQ PUSH2 0x139 JUMPI DUP1 PUSH4 0x12065FE0 EQ PUSH2 0x175 JUMPI DUP1 PUSH4 0x27506F53 EQ PUSH2 0x19F JUMPI PUSH2 0x135 JUMP JUMPDEST CALLDATASIZE PUSH2 0x135 JUMPI CALLER PUSH20 0xFFFFFFFFFFFFFFFFFFFFFFFFFFFFFFFFFFFFFFFF AND PUSH32 0xE1FFFCC4923D04B559F4D29A8BFC6CDA04EB5B0D3C460751C2402C5C5CC9109C CALLVALUE PUSH1 0x40 MLOAD PUSH2 0x12B SWAP2 SWAP1 PUSH2 0x185E JUMP JUMPDEST PUSH1 0x40 MLOAD DUP1 SWAP2 SUB SWAP1 LOG2 STOP JUMPDEST PUSH0 DUP1 REVERT JUMPDEST CALLVALUE DUP1 ISZERO PUSH2 0x144 JUMPI PUSH0 DUP1 REVERT JUMPDEST POP PUSH2 0x15F PUSH1 0x4 DUP1 CALLDATASIZE SUB DUP2 ADD SWAP1 PUSH2 0x15A SWAP2 SWAP1 PUSH2 0x18B2 JUMP JUMPDEST PUSH2 0x406 JUMP JUMPDEST PUSH1 0x40 MLOAD PUSH2 0x16C SWAP2 SWAP1 PUSH2 0x191C JUMP JUMPDEST PUSH1 0x40 MLOAD DUP1 SWAP2 SUB SWAP1 RETURN JUMPDEST CALLVALUE DUP1 ISZERO PUSH2 0x180 JUMPI PUSH0 DUP1 REVERT JUMPDEST POP PUSH2 0x189 PUSH2 0x440 JUMP JUMPDEST PUSH1 0x40 MLOAD PUSH2 0x196 SWAP2 SWAP1 PUSH2 0x185E JUMP JUMPDEST PUSH1 0x40 MLOAD DUP1 SWAP2 SUB SWAP1 RETURN JUMPDEST CALLVALUE DUP1 ISZERO PUSH2 0x1AA JUMPI PUSH0 DUP1 REVERT JUMPDEST POP PUSH2 0x1B3 PUSH2 0x447 JUMP JUMPDEST PUSH1 0x40 MLOAD PUSH2 0x1C0 SWAP2 SWAP1 PUSH2 0x1B0B JUMP JUMPDEST PUSH1 0x40 MLOAD DUP1 SWAP2 SUB SWAP1 RETURN JUMPDEST CALLVALUE DUP1 ISZERO PUSH2 0x1D4 JUMPI PUSH0 DUP1 REVERT JUMPDEST POP PUSH2 0x1EF PUSH1 0x4 DUP1 CALLDATASIZE SUB DUP2 ADD SWAP1 PUSH2 0x1EA SWAP2 SWAP1 PUSH2 0x18B2 JUMP JUMPDEST PUSH2 0x5B5 JUMP JUMPDEST STOP JUMPDEST CALLVALUE DUP1 ISZERO PUSH2 0x1FC JUMPI PUSH0 DUP1 REVERT JUMPDEST POP PUSH2 0x217 PUSH1 0x4 DUP1 CALLDATASIZE SUB DUP2 ADD SWAP1 PUSH2 0x212 SWAP2 SWAP1 PUSH2 0x1B55 JUMP JUMPDEST PUSH2 0xCF1 JUMP JUMPDEST PUSH1 0x40 MLOAD PUSH2 0x224 SWAP2 SWAP1 PUSH2 0x1B8F JUMP JUMPDEST PUSH1 0x40 MLOAD DUP1 SWAP2 SUB SWAP1 RETURN JUMPDEST CALLVALUE DUP1 ISZERO PUSH2 0x238 JUMPI PUSH0 DUP1 REVERT JUMPDEST POP PUSH2 0x253 PUSH1 0x4 DUP1 CALLDATASIZE SUB DUP2 ADD SWAP1 PUSH2 0x24E SWAP2 SWAP1 PUSH2 0x18B2 JUMP JUMPDEST PUSH2 0xD0E JUMP JUMPDEST PUSH1 0x40 MLOAD PUSH2 0x263 SWAP5 SWAP4 SWAP3 SWAP2 SWAP1 PUSH2 0x1BA8 JUMP JUMPDEST PUSH1 0x40 MLOAD DUP1 SWAP2 SUB SWAP1 RETURN JUMPDEST CALLVALUE DUP1 ISZERO PUSH2 0x277 JUMPI PUSH0 DUP1 REVERT JUMPDEST POP PUSH2 0x292 PUSH1 0x4 DUP1 CALLDATASIZE SUB DUP2 ADD SWAP1 PUSH2 0x28D SWAP2 SWAP1 PUSH2 0x18B2 JUMP JUMPDEST PUSH2 0xD80 JUMP JUMPDEST PUSH1 0x40 MLOAD PUSH2 0x2A3 SWAP6 SWAP5 SWAP4 SWAP3 SWAP2 SWAP1 PUSH2 0x1C33 JUMP JUMPDEST PUSH1 0x40 MLOAD DUP1 SWAP2 SUB SWAP1 RETURN JUMPDEST CALLVALUE DUP1 ISZERO PUSH2 0x2B7 JUMPI PUSH0 DUP1 REVERT JUMPDEST POP PUSH2 0x2D2 PUSH1 0x4 DUP1 CALLDATASIZE SUB DUP2 ADD SWAP1 PUSH2 0x2CD SWAP2 SWAP1 PUSH2 0x1C8B JUMP JUMPDEST PUSH2 0xE89 JUMP JUMPDEST PUSH1 0x40 MLOAD PUSH2 0x2DF SWAP2 SWAP1 PUSH2 0x1B8F JUMP JUMPDEST PUSH1 0x40 MLOAD DUP1 SWAP2 SUB SWAP1 RETURN JUMPDEST CALLVALUE DUP1 ISZERO PUSH2 0x2F3 JUMPI PUSH0 DUP1 REVERT JUMPDEST POP PUSH2 0x30E PUSH1 0x4 DUP1 CALLDATASIZE SUB DUP2 ADD SWAP1 PUSH2 0x309 SWAP2 SWAP1 PUSH2 0x1CF3 JUMP JUMPDEST PUSH2 0xEB3 JUMP JUMPDEST STOP JUMPDEST CALLVALUE DUP1 ISZERO PUSH2 0x31B JUMPI PUSH0 DUP1 REVERT JUMPDEST POP PUSH2 0x324 PUSH2 0x118E JUMP JUMPDEST PUSH1 0x40 MLOAD PUSH2 0x331 SWAP2 SWAP1 PUSH2 0x185E JUMP JUMPDEST PUSH1 0x40 MLOAD DUP1 SWAP2 SUB SWAP1 RETURN JUMPDEST CALLVALUE DUP1 ISZERO PUSH2 0x345 JUMPI PUSH0 DUP1 REVERT JUMPDEST POP PUSH2 0x360 PUSH1 0x4 DUP1 CALLDATASIZE SUB DUP2 ADD SWAP1 PUSH2 0x35B SWAP2 SWAP1 PUSH2 0x1C8B JUMP JUMPDEST PUSH2 0x1194 JUMP JUMPDEST PUSH1 0x40 MLOAD PUSH2 0x36D SWAP2 SWAP1 PUSH2 0x1B8F JUMP JUMPDEST PUSH1 0x40 MLOAD DUP1 SWAP2 SUB SWAP1 RETURN JUMPDEST CALLVALUE DUP1 ISZERO PUSH2 0x381 JUMPI PUSH0 DUP1 REVERT JUMPDEST POP PUSH2 0x39C PUSH1 0x4 DUP1 CALLDATASIZE SUB DUP2 ADD SWAP1 PUSH2 0x397 SWAP2 SWAP1 PUSH2 0x18B2 JUMP JUMPDEST PUSH2 0x11BE JUMP JUMPDEST PUSH1 0x40 MLOAD PUSH2 0x3AD SWAP6 SWAP5 SWAP4 SWAP3 SWAP2 SWAP1 PUSH2 0x1C33 JUMP JUMPDEST PUSH1 0x40 MLOAD DUP1 SWAP2 SUB SWAP1 RETURN JUMPDEST CALLVALUE DUP1 ISZERO PUSH2 0x3C1 JUMPI PUSH0 DUP1 REVERT JUMPDEST POP PUSH2 0x3DC PUSH1 0x4 DUP1 CALLDATASIZE SUB DUP2 ADD SWAP1 PUSH2 0x3D7 SWAP2 SWAP1 PUSH2 0x1E5D JUMP JUMPDEST PUSH2 0x12B0 JUMP JUMPDEST STOP JUMPDEST CALLVALUE DUP1 ISZERO PUSH2 0x3E9 JUMPI PUSH0 DUP1 REVERT JUMPDEST POP PUSH2 0x404 PUSH1 0x4 DUP1 CALLDATASIZE SUB DUP2 ADD SWAP1 PUSH2 0x3FF SWAP2 SWAP1 PUSH2 0x18B2 JUMP JUMPDEST PUSH2 0x1496 JUMP JUMPDEST STOP JUMPDEST PUSH0 DUP2 DUP2 SLOAD DUP2 LT PUSH2 0x414 JUMPI PUSH0 DUP1 REVERT JUMPDEST SWAP1 PUSH0 MSTORE PUSH1 0x20 PUSH0 KECCAK256 ADD PUSH0 SWAP2 POP SLOAD SWAP1 PUSH2 0x100 EXP SWAP1 DIV PUSH20 0xFFFFFFFFFFFFFFFFFFFFFFFFFFFFFFFFFFFFFFFF AND DUP2 JUMP JUMPDEST PUSH0 SELFBALANCE SWAP1 POP SWAP1 JUMP JUMPDEST PUSH1 0x60 PUSH1 0x3 DUP1 SLOAD DUP1 PUSH1 0x20 MUL PUSH1 0x20 ADD PUSH1 0x40 MLOAD SWAP1 DUP2 ADD PUSH1 0x40 MSTORE DUP1 SWAP3 SWAP2 SWAP1 DUP2 DUP2 MSTORE PUSH1 0x20 ADD PUSH0 SWAP1 JUMPDEST DUP3 DUP3 LT ISZERO PUSH2 0x5AC JUMPI DUP4 DUP3 SWAP1 PUSH0 MSTORE PUSH1 0x20 PUSH0 KECCAK256 SWAP1 PUSH1 0x5 MUL ADD PUSH1 0x40 MLOAD DUP1 PUSH1 0xA0 ADD PUSH1 0x40 MSTORE SWAP1 DUP2 PUSH0 DUP3 ADD PUSH0 SWAP1 SLOAD SWAP1 PUSH2 0x100 EXP SWAP1 DIV PUSH20 0xFFFFFFFFFFFFFFFFFFFFFFFFFFFFFFFFFFFFFFFF AND PUSH20 0xFFFFFFFFFFFFFFFFFFFFFFFFFFFFFFFFFFFFFFFF AND PUSH20 0xFFFFFFFFFFFFFFFFFFFFFFFFFFFFFFFFFFFFFFFF AND DUP2 MSTORE PUSH1 0x20 ADD PUSH1 0x1 DUP3 ADD SLOAD DUP2 MSTORE PUSH1 0x20 ADD PUSH1 0x2 DUP3 ADD DUP1 SLOAD PUSH2 0x4F9 SWAP1 PUSH2 0x1EF6 JUMP JUMPDEST DUP1 PUSH1 0x1F ADD PUSH1 0x20 DUP1 SWAP2 DIV MUL PUSH1 0x20 ADD PUSH1 0x40 MLOAD SWAP1 DUP2 ADD PUSH1 0x40 MSTORE DUP1 SWAP3 SWAP2 SWAP1 DUP2 DUP2 MSTORE PUSH1 0x20 ADD DUP3 DUP1 SLOAD PUSH2 0x525 SWAP1 PUSH2 0x1EF6 JUMP JUMPDEST DUP1 ISZERO PUSH2 0x570 JUMPI DUP1 PUSH1 0x1F LT PUSH2 0x547 JUMPI PUSH2 0x100 DUP1 DUP4 SLOAD DIV MUL DUP4 MSTORE SWAP2 PUSH1 0x20 ADD SWAP2 PUSH2 0x570 JUMP JUMPDEST DUP3 ADD SWAP2 SWAP1 PUSH0 MSTORE PUSH1 0x20 PUSH0 KECCAK256 SWAP1 JUMPDEST DUP2 SLOAD DUP2 MSTORE SWAP1 PUSH1 0x1 ADD SWAP1 PUSH1 0x20 ADD DUP1 DUP4 GT PUSH2 0x553 JUMPI DUP3 SWAP1 SUB PUSH1 0x1F AND DUP3 ADD SWAP2 JUMPDEST POP POP POP POP POP DUP2 MSTORE PUSH1 0x20 ADD PUSH1 0x3 DUP3 ADD PUSH0 SWAP1 SLOAD SWAP1 PUSH2 0x100 EXP SWAP1 DIV PUSH1 0xFF AND ISZERO ISZERO ISZERO ISZERO DUP2 MSTORE PUSH1 0x20 ADD PUSH1 0x4 DUP3 ADD SLOAD DUP2 MSTORE POP POP DUP2 MSTORE PUSH1 0x20 ADD SWAP1 PUSH1 0x1 ADD SWAP1 PUSH2 0x46A JUMP JUMPDEST POP POP POP POP SWAP1 POP SWAP1 JUMP JUMPDEST PUSH1 0x1 PUSH0 CALLER PUSH20 0xFFFFFFFFFFFFFFFFFFFFFFFFFFFFFFFFFFFFFFFF AND PUSH20 0xFFFFFFFFFFFFFFFFFFFFFFFFFFFFFFFFFFFFFFFF AND DUP2 MSTORE PUSH1 0x20 ADD SWAP1 DUP2 MSTORE PUSH1 0x20 ADD PUSH0 KECCAK256 PUSH0 SWAP1 SLOAD SWAP1 PUSH2 0x100 EXP SWAP1 DIV PUSH1 0xFF AND PUSH2 0x63E JUMPI PUSH1 0x40 MLOAD PUSH32 0x8C379A000000000000000000000000000000000000000000000000000000000 DUP2 MSTORE PUSH1 0x4 ADD PUSH2 0x635 SWAP1 PUSH2 0x1F80 JUMP JUMPDEST PUSH1 0x40 MLOAD DUP1 SWAP2 SUB SWAP1 REVERT JUMPDEST PUSH1 0x5 DUP1 SLOAD SWAP1 POP DUP2 LT PUSH2 0x685 JUMPI PUSH1 0x40 MLOAD PUSH32 0x8C379A000000000000000000000000000000000000000000000000000000000 DUP2 MSTORE PUSH1 0x4 ADD PUSH2 0x67C SWAP1 PUSH2 0x1FE8 JUMP JUMPDEST PUSH1 0x40 MLOAD DUP1 SWAP2 SUB SWAP1 REVERT JUMPDEST PUSH0 PUSH1 0x5 DUP3 DUP2 SLOAD DUP2 LT PUSH2 0x69A JUMPI PUSH2 0x699 PUSH2 0x2006 JUMP JUMPDEST JUMPDEST SWAP1 PUSH0 MSTORE PUSH1 0x20 PUSH0 KECCAK256 SWAP1 PUSH1 0x3 MUL ADD SWAP1 POP DUP1 PUSH1 0x2 ADD PUSH0 SWAP1 SLOAD SWAP1 PUSH2 0x100 EXP SWAP1 DIV PUSH1 0xFF AND ISZERO PUSH2 0x6F9 JUMPI PUSH1 0x40 MLOAD PUSH32 0x8C379A000000000000000000000000000000000000000000000000000000000 DUP2 MSTORE PUSH1 0x4 ADD PUSH2 0x6F0 SWAP1 PUSH2 0x207D JUMP JUMPDEST PUSH1 0x40 MLOAD DUP1 SWAP2 SUB SWAP1 REVERT JUMPDEST PUSH1 0x6 PUSH0 DUP4 DUP2 MSTORE PUSH1 0x20 ADD SWAP1 DUP2 MSTORE PUSH1 0x20 ADD PUSH0 KECCAK256 PUSH0 CALLER PUSH20 0xFFFFFFFFFFFFFFFFFFFFFFFFFFFFFFFFFFFFFFFF AND PUSH20 0xFFFFFFFFFFFFFFFFFFFFFFFFFFFFFFFFFFFFFFFF AND DUP2 MSTORE PUSH1 0x20 ADD SWAP1 DUP2 MSTORE PUSH1 0x20 ADD PUSH0 KECCAK256 PUSH0 SWAP1 SLOAD SWAP1 PUSH2 0x100 EXP SWAP1 DIV PUSH1 0xFF AND ISZERO PUSH2 0x792 JUMPI PUSH1 0x40 MLOAD PUSH32 0x8C379A000000000000000000000000000000000000000000000000000000000 DUP2 MSTORE PUSH1 0x4 ADD PUSH2 0x789 SWAP1 PUSH2 0x20E5 JUMP JUMPDEST PUSH1 0x40 MLOAD DUP1 SWAP2 SUB SWAP1 REVERT JUMPDEST PUSH1 0x1 PUSH1 0x6 PUSH0 DUP5 DUP2 MSTORE PUSH1 0x20 ADD SWAP1 DUP2 MSTORE PUSH1 0x20 ADD PUSH0 KECCAK256 PUSH0 CALLER PUSH20 0xFFFFFFFFFFFFFFFFFFFFFFFFFFFFFFFFFFFFFFFF AND PUSH20 0xFFFFFFFFFFFFFFFFFFFFFFFFFFFFFFFFFFFFFFFF AND DUP2 MSTORE PUSH1 0x20 ADD SWAP1 DUP2 MSTORE PUSH1 0x20 ADD PUSH0 KECCAK256 PUSH0 PUSH2 0x100 EXP DUP2 SLOAD DUP2 PUSH1 0xFF MUL NOT AND SWAP1 DUP4 ISZERO ISZERO MUL OR SWAP1 SSTORE POP PUSH1 0x1 DUP2 PUSH1 0x1 ADD PUSH0 DUP3 DUP3 SLOAD PUSH2 0x80A SWAP2 SWAP1 PUSH2 0x2130 JUMP JUMPDEST SWAP3 POP POP DUP2 SWAP1 SSTORE POP CALLER PUSH20 0xFFFFFFFFFFFFFFFFFFFFFFFFFFFFFFFFFFFFFFFF AND DUP3 PUSH32 0x4E6B2F9F89753BBF282A9339C429EC93E3EDA4FB3DF050AC65448100FA72F9F2 PUSH1 0x40 MLOAD PUSH1 0x40 MLOAD DUP1 SWAP2 SUB SWAP1 LOG3 PUSH1 0x2 SLOAD DUP2 PUSH1 0x1 ADD SLOAD LT PUSH2 0xCED JUMPI PUSH1 0x1 DUP2 PUSH1 0x2 ADD PUSH0 PUSH2 0x100 EXP DUP2 SLOAD DUP2 PUSH1 0xFF MUL NOT AND SWAP1 DUP4 ISZERO ISZERO MUL OR SWAP1 SSTORE POP DUP1 PUSH0 ADD PUSH1 0x14 SWAP1 SLOAD SWAP1 PUSH2 0x100 EXP SWAP1 DIV PUSH1 0xFF AND ISZERO PUSH2 0x990 JUMPI PUSH0 DUP2 PUSH0 ADD PUSH0 SWAP1 SLOAD SWAP1 PUSH2 0x100 EXP SWAP1 DIV PUSH20 0xFFFFFFFFFFFFFFFFFFFFFFFFFFFFFFFFFFFFFFFF AND SWAP1 DUP1 PUSH1 0x1 DUP2 SLOAD ADD DUP1 DUP3 SSTORE DUP1 SWAP2 POP POP PUSH1 0x1 SWAP1 SUB SWAP1 PUSH0 MSTORE PUSH1 0x20 PUSH0 KECCAK256 ADD PUSH0 SWAP1 SWAP2 SWAP1 SWAP2 SWAP1 SWAP2 PUSH2 0x100 EXP DUP2 SLOAD DUP2 PUSH20 0xFFFFFFFFFFFFFFFFFFFFFFFFFFFFFFFFFFFFFFFF MUL NOT AND SWAP1 DUP4 PUSH20 0xFFFFFFFFFFFFFFFFFFFFFFFFFFFFFFFFFFFFFFFF AND MUL OR SWAP1 SSTORE POP PUSH1 0x1 DUP1 PUSH0 DUP4 PUSH0 ADD PUSH0 SWAP1 SLOAD SWAP1 PUSH2 0x100 EXP SWAP1 DIV PUSH20 0xFFFFFFFFFFFFFFFFFFFFFFFFFFFFFFFFFFFFFFFF AND PUSH20 0xFFFFFFFFFFFFFFFFFFFFFFFFFFFFFFFFFFFFFFFF AND PUSH20 0xFFFFFFFFFFFFFFFFFFFFFFFFFFFFFFFFFFFFFFFF AND DUP2 MSTORE PUSH1 0x20 ADD SWAP1 DUP2 MSTORE PUSH1 0x20 ADD PUSH0 KECCAK256 PUSH0 PUSH2 0x100 EXP DUP2 SLOAD DUP2 PUSH1 0xFF MUL NOT AND SWAP1 DUP4 ISZERO ISZERO MUL OR SWAP1 SSTORE POP PUSH2 0xC48 JUMP JUMPDEST PUSH1 0x1 PUSH0 DUP3 PUSH0 ADD PUSH0 SWAP1 SLOAD SWAP1 PUSH2 0x100 EXP SWAP1 DIV PUSH20 0xFFFFFFFFFFFFFFFFFFFFFFFFFFFFFFFFFFFFFFFF AND PUSH20 0xFFFFFFFFFFFFFFFFFFFFFFFFFFFFFFFFFFFFFFFF AND PUSH20 0xFFFFFFFFFFFFFFFFFFFFFFFFFFFFFFFFFFFFFFFF AND DUP2 MSTORE PUSH1 0x20 ADD SWAP1 DUP2 MSTORE PUSH1 0x20 ADD PUSH0 KECCAK256 PUSH0 SWAP1 SLOAD SWAP1 PUSH2 0x100 EXP SWAP1 DIV PUSH1 0xFF AND PUSH2 0xA3B JUMPI PUSH1 0x40 MLOAD PUSH32 0x8C379A000000000000000000000000000000000000000000000000000000000 DUP2 MSTORE PUSH1 0x4 ADD PUSH2 0xA32 SWAP1 PUSH2 0x21AD JUMP JUMPDEST PUSH1 0x40 MLOAD DUP1 SWAP2 SUB SWAP1 REVERT JUMPDEST PUSH0 PUSH1 0x1 PUSH0 DUP4 PUSH0 ADD PUSH0 SWAP1 SLOAD SWAP1 PUSH2 0x100 EXP SWAP1 DIV PUSH20 0xFFFFFFFFFFFFFFFFFFFFFFFFFFFFFFFFFFFFFFFF AND PUSH20 0xFFFFFFFFFFFFFFFFFFFFFFFFFFFFFFFFFFFFFFFF AND PUSH20 0xFFFFFFFFFFFFFFFFFFFFFFFFFFFFFFFFFFFFFFFF AND DUP2 MSTORE PUSH1 0x20 ADD SWAP1 DUP2 MSTORE PUSH1 0x20 ADD PUSH0 KECCAK256 PUSH0 PUSH2 0x100 EXP DUP2 SLOAD DUP2 PUSH1 0xFF MUL NOT AND SWAP1 DUP4 ISZERO ISZERO MUL OR SWAP1 SSTORE POP PUSH0 JUMPDEST PUSH0 DUP1 SLOAD SWAP1 POP DUP2 LT ISZERO PUSH2 0xC46 JUMPI DUP2 PUSH0 ADD PUSH0 SWAP1 SLOAD SWAP1 PUSH2 0x100 EXP SWAP1 DIV PUSH20 0xFFFFFFFFFFFFFFFFFFFFFFFFFFFFFFFFFFFFFFFF AND PUSH20 0xFFFFFFFFFFFFFFFFFFFFFFFFFFFFFFFFFFFFFFFF AND PUSH0 DUP3 DUP2 SLOAD DUP2 LT PUSH2 0xB0B JUMPI PUSH2 0xB0A PUSH2 0x2006 JUMP JUMPDEST JUMPDEST SWAP1 PUSH0 MSTORE PUSH1 0x20 PUSH0 KECCAK256 ADD PUSH0 SWAP1 SLOAD SWAP1 PUSH2 0x100 EXP SWAP1 DIV PUSH20 0xFFFFFFFFFFFFFFFFFFFFFFFFFFFFFFFFFFFFFFFF AND PUSH20 0xFFFFFFFFFFFFFFFFFFFFFFFFFFFFFFFFFFFFFFFF AND SUB PUSH2 0xC39 JUMPI PUSH0 PUSH1 0x1 PUSH0 DUP1 SLOAD SWAP1 POP PUSH2 0xB60 SWAP2 SWAP1 PUSH2 0x21CB JUMP JUMPDEST DUP2 SLOAD DUP2 LT PUSH2 0xB71 JUMPI PUSH2 0xB70 PUSH2 0x2006 JUMP JUMPDEST JUMPDEST SWAP1 PUSH0 MSTORE PUSH1 0x20 PUSH0 KECCAK256 ADD PUSH0 SWAP1 SLOAD SWAP1 PUSH2 0x100 EXP SWAP1 DIV PUSH20 0xFFFFFFFFFFFFFFFFFFFFFFFFFFFFFFFFFFFFFFFF AND PUSH0 DUP3 DUP2 SLOAD DUP2 LT PUSH2 0xBAC JUMPI PUSH2 0xBAB PUSH2 0x2006 JUMP JUMPDEST JUMPDEST SWAP1 PUSH0 MSTORE PUSH1 0x20 PUSH0 KECCAK256 ADD PUSH0 PUSH2 0x100 EXP DUP2 SLOAD DUP2 PUSH20 0xFFFFFFFFFFFFFFFFFFFFFFFFFFFFFFFFFFFFFFFF MUL NOT AND SWAP1 DUP4 PUSH20 0xFFFFFFFFFFFFFFFFFFFFFFFFFFFFFFFFFFFFFFFF AND MUL OR SWAP1 SSTORE POP PUSH0 DUP1 SLOAD DUP1 PUSH2 0xC02 JUMPI PUSH2 0xC01 PUSH2 0x21FE JUMP JUMPDEST JUMPDEST PUSH1 0x1 SWAP1 SUB DUP2 DUP2 SWAP1 PUSH0 MSTORE PUSH1 0x20 PUSH0 KECCAK256 ADD PUSH0 PUSH2 0x100 EXP DUP2 SLOAD SWAP1 PUSH20 0xFFFFFFFFFFFFFFFFFFFFFFFFFFFFFFFFFFFFFFFF MUL NOT AND SWAP1 SSTORE SWAP1 SSTORE PUSH2 0xC46 JUMP JUMPDEST DUP1 DUP1 PUSH1 0x1 ADD SWAP2 POP POP PUSH2 0xAB3 JUMP JUMPDEST POP JUMPDEST PUSH1 0x1 PUSH1 0x2 PUSH0 DUP1 SLOAD SWAP1 POP PUSH2 0xC5B SWAP2 SWAP1 PUSH2 0x2258 JUMP JUMPDEST PUSH2 0xC65 SWAP2 SWAP1 PUSH2 0x2130 JUMP JUMPDEST PUSH1 0x2 DUP2 SWAP1 SSTORE POP DUP1 PUSH0 ADD PUSH0 SWAP1 SLOAD SWAP1 PUSH2 0x100 EXP SWAP1 DIV PUSH20 0xFFFFFFFFFFFFFFFFFFFFFFFFFFFFFFFFFFFFFFFF AND PUSH20 0xFFFFFFFFFFFFFFFFFFFFFFFFFFFFFFFFFFFFFFFF AND DUP3 PUSH32 0x89DD07C152FCF1761FACDDB0608FC4C57A27B9E8E4677E682E80BF549BD5375F DUP4 PUSH0 ADD PUSH1 0x14 SWAP1 SLOAD SWAP1 PUSH2 0x100 EXP SWAP1 DIV PUSH1 0xFF AND PUSH1 0x40 MLOAD PUSH2 0xCE4 SWAP2 SWAP1 PUSH2 0x1B8F JUMP JUMPDEST PUSH1 0x40 MLOAD DUP1 SWAP2 SUB SWAP1 LOG3 JUMPDEST POP POP JUMP JUMPDEST PUSH1 0x1 PUSH1 0x20 MSTORE DUP1 PUSH0 MSTORE PUSH1 0x40 PUSH0 KECCAK256 PUSH0 SWAP2 POP SLOAD SWAP1 PUSH2 0x100 EXP SWAP1 DIV PUSH1 0xFF AND DUP2 JUMP JUMPDEST PUSH1 0x5 DUP2 DUP2 SLOAD DUP2 LT PUSH2 0xD1D JUMPI PUSH0 DUP1 REVERT JUMPDEST SWAP1 PUSH0 MSTORE PUSH1 0x20 PUSH0 KECCAK256 SWAP1 PUSH1 0x3 MUL ADD PUSH0 SWAP2 POP SWAP1 POP DUP1 PUSH0 ADD PUSH0 SWAP1 SLOAD SWAP1 PUSH2 0x100 EXP SWAP1 DIV PUSH20 0xFFFFFFFFFFFFFFFFFFFFFFFFFFFFFFFFFFFFFFFF AND SWAP1 DUP1 PUSH0 ADD PUSH1 0x14 SWAP1 SLOAD SWAP1 PUSH2 0x100 EXP SWAP1 DIV PUSH1 0xFF AND SWAP1 DUP1 PUSH1 0x1 ADD SLOAD SWAP1 DUP1 PUSH1 0x2 ADD PUSH0 SWAP1 SLOAD SWAP1 PUSH2 0x100 EXP SWAP1 DIV PUSH1 0xFF AND SWAP1 POP DUP5 JUMP JUMPDEST PUSH0 DUP1 PUSH1 0x60 PUSH0 DUP1 PUSH0 PUSH1 0x3 DUP8 DUP2 SLOAD DUP2 LT PUSH2 0xD9B JUMPI PUSH2 0xD9A PUSH2 0x2006 JUMP JUMPDEST JUMPDEST SWAP1 PUSH0 MSTORE PUSH1 0x20 PUSH0 KECCAK256 SWAP1 PUSH1 0x5 MUL ADD SWAP1 POP DUP1 PUSH0 ADD PUSH0 SWAP1 SLOAD SWAP1 PUSH2 0x100 EXP SWAP1 DIV PUSH20 0xFFFFFFFFFFFFFFFFFFFFFFFFFFFFFFFFFFFFFFFF AND DUP2 PUSH1 0x1 ADD SLOAD DUP3 PUSH1 0x2 ADD DUP4 PUSH1 0x3 ADD PUSH0 SWAP1 SLOAD SWAP1 PUSH2 0x100 EXP SWAP1 DIV PUSH1 0xFF AND DUP5 PUSH1 0x4 ADD SLOAD DUP3 DUP1 SLOAD PUSH2 0xDF7 SWAP1 PUSH2 0x1EF6 JUMP JUMPDEST DUP1 PUSH1 0x1F ADD PUSH1 0x20 DUP1 SWAP2 DIV MUL PUSH1 0x20 ADD PUSH1 0x40 MLOAD SWAP1 DUP2 ADD PUSH1 0x40 MSTORE DUP1 SWAP3 SWAP2 SWAP1 DUP2 DUP2 MSTORE PUSH1 0x20 ADD DUP3 DUP1 SLOAD PUSH2 0xE23 SWAP1 PUSH2 0x1EF6 JUMP JUMPDEST DUP1 ISZERO PUSH2 0xE6E JUMPI DUP1 PUSH1 0x1F LT PUSH2 0xE45 JUMPI PUSH2 0x100 DUP1 DUP4 SLOAD DIV MUL DUP4 MSTORE SWAP2 PUSH1 0x20 ADD SWAP2 PUSH2 0xE6E JUMP JUMPDEST DUP3 ADD SWAP2 SWAP1 PUSH0 MSTORE PUSH1 0x20 PUSH0 KECCAK256 SWAP1 JUMPDEST DUP2 SLOAD DUP2 MSTORE SWAP1 PUSH1 0x1 ADD SWAP1 PUSH1 0x20 ADD DUP1 DUP4 GT PUSH2 0xE51 JUMPI DUP3 SWAP1 SUB PUSH1 0x1F AND DUP3 ADD SWAP2 JUMPDEST POP POP POP POP POP SWAP3 POP SWAP6 POP SWAP6 POP SWAP6 POP SWAP6 POP SWAP6 POP POP SWAP2 SWAP4 SWAP6 SWAP1 SWAP3 SWAP5 POP JUMP JUMPDEST PUSH1 0x4 PUSH1 0x20 MSTORE DUP2 PUSH0 MSTORE PUSH1 0x40 PUSH0 KECCAK256 PUSH1 0x20 MSTORE DUP1 PUSH0 MSTORE PUSH1 0x40 PUSH0 KECCAK256 PUSH0 SWAP2 POP SWAP2 POP SWAP1 SLOAD SWAP1 PUSH2 0x100 EXP SWAP1 DIV PUSH1 0xFF AND DUP2 JUMP JUMPDEST PUSH1 0x1 PUSH0 CALLER PUSH20 0xFFFFFFFFFFFFFFFFFFFFFFFFFFFFFFFFFFFFFFFF AND PUSH20 0xFFFFFFFFFFFFFFFFFFFFFFFFFFFFFFFFFFFFFFFF AND DUP2 MSTORE PUSH1 0x20 ADD SWAP1 DUP2 MSTORE PUSH1 0x20 ADD PUSH0 KECCAK256 PUSH0 SWAP1 SLOAD SWAP1 PUSH2 0x100 EXP SWAP1 DIV PUSH1 0xFF AND PUSH2 0xF3C JUMPI PUSH1 0x40 MLOAD PUSH32 0x8C379A000000000000000000000000000000000000000000000000000000000 DUP2 MSTORE PUSH1 0x4 ADD PUSH2 0xF33 SWAP1 PUSH2 0x1F80 JUMP JUMPDEST PUSH1 0x40 MLOAD DUP1 SWAP2 SUB SWAP1 REVERT JUMPDEST PUSH0 PUSH20 0xFFFFFFFFFFFFFFFFFFFFFFFFFFFFFFFFFFFFFFFF AND DUP3 PUSH20 0xFFFFFFFFFFFFFFFFFFFFFFFFFFFFFFFFFFFFFFFF AND SUB PUSH2 0xFAA JUMPI PUSH1 0x40 MLOAD PUSH32 0x8C379A000000000000000000000000000000000000000000000000000000000 DUP2 MSTORE PUSH1 0x4 ADD PUSH2 0xFA1 SWAP1 PUSH2 0x22D2 JUMP JUMPDEST PUSH1 0x40 MLOAD DUP1 SWAP2 SUB SWAP1 REVERT JUMPDEST DUP1 ISZERO ISZERO PUSH1 0x1 PUSH0 DUP5 PUSH20 0xFFFFFFFFFFFFFFFFFFFFFFFFFFFFFFFFFFFFFFFF AND PUSH20 0xFFFFFFFFFFFFFFFFFFFFFFFFFFFFFFFFFFFFFFFF AND DUP2 MSTORE PUSH1 0x20 ADD SWAP1 DUP2 MSTORE PUSH1 0x20 ADD PUSH0 KECCAK256 PUSH0 SWAP1 SLOAD SWAP1 PUSH2 0x100 EXP SWAP1 DIV PUSH1 0xFF AND ISZERO ISZERO SUB PUSH2 0x1039 JUMPI PUSH1 0x40 MLOAD PUSH32 0x8C379A000000000000000000000000000000000000000000000000000000000 DUP2 MSTORE PUSH1 0x4 ADD PUSH2 0x1030 SWAP1 PUSH2 0x233A JUMP JUMPDEST PUSH1 0x40 MLOAD DUP1 SWAP2 SUB SWAP1 REVERT JUMPDEST PUSH1 0x5 PUSH1 0x40 MLOAD DUP1 PUSH1 0x80 ADD PUSH1 0x40 MSTORE DUP1 DUP5 PUSH20 0xFFFFFFFFFFFFFFFFFFFFFFFFFFFFFFFFFFFFFFFF AND DUP2 MSTORE PUSH1 0x20 ADD DUP4 ISZERO ISZERO DUP2 MSTORE PUSH1 0x20 ADD PUSH0 DUP2 MSTORE PUSH1 0x20 ADD PUSH0 ISZERO ISZERO DUP2 MSTORE POP SWAP1 DUP1 PUSH1 0x1 DUP2 SLOAD ADD DUP1 DUP3 SSTORE DUP1 SWAP2 POP POP PUSH1 0x1 SWAP1 SUB SWAP1 PUSH0 MSTORE PUSH1 0x20 PUSH0 KECCAK256 SWAP1 PUSH1 0x3 MUL ADD PUSH0 SWAP1 SWAP2 SWAP1 SWAP2 SWAP1 SWAP2 POP PUSH0 DUP3 ADD MLOAD DUP2 PUSH0 ADD PUSH0 PUSH2 0x100 EXP DUP2 SLOAD DUP2 PUSH20 0xFFFFFFFFFFFFFFFFFFFFFFFFFFFFFFFFFFFFFFFF MUL NOT AND SWAP1 DUP4 PUSH20 0xFFFFFFFFFFFFFFFFFFFFFFFFFFFFFFFFFFFFFFFF AND MUL OR SWAP1 SSTORE POP PUSH1 0x20 DUP3 ADD MLOAD DUP2 PUSH0 ADD PUSH1 0x14 PUSH2 0x100 EXP DUP2 SLOAD DUP2 PUSH1 0xFF MUL NOT AND SWAP1 DUP4 ISZERO ISZERO MUL OR SWAP1 SSTORE POP PUSH1 0x40 DUP3 ADD MLOAD DUP2 PUSH1 0x1 ADD SSTORE PUSH1 0x60 DUP3 ADD MLOAD DUP2 PUSH1 0x2 ADD PUSH0 PUSH2 0x100 EXP DUP2 SLOAD DUP2 PUSH1 0xFF MUL NOT AND SWAP1 DUP4 ISZERO ISZERO MUL OR SWAP1 SSTORE POP POP POP DUP2 PUSH20 0xFFFFFFFFFFFFFFFFFFFFFFFFFFFFFFFFFFFFFFFF AND PUSH1 0x1 PUSH1 0x5 DUP1 SLOAD SWAP1 POP PUSH2 0x1153 SWAP2 SWAP1 PUSH2 0x21CB JUMP JUMPDEST PUSH32 0x2B4BA558CE06F8A12392A1517213DE0A24D8FDB07A6C8A66C23D16321A328BDE DUP4 PUSH1 0x40 MLOAD PUSH2 0x1182 SWAP2 SWAP1 PUSH2 0x1B8F JUMP JUMPDEST PUSH1 0x40 MLOAD DUP1 SWAP2 SUB SWAP1 LOG3 POP POP JUMP JUMPDEST PUSH1 0x2 SLOAD DUP2 JUMP JUMPDEST PUSH1 0x6 PUSH1 0x20 MSTORE DUP2 PUSH0 MSTORE PUSH1 0x40 PUSH0 KECCAK256 PUSH1 0x20 MSTORE DUP1 PUSH0 MSTORE PUSH1 0x40 PUSH0 KECCAK256 PUSH0 SWAP2 POP SWAP2 POP SWAP1 SLOAD SWAP1 PUSH2 0x100 EXP SWAP1 DIV PUSH1 0xFF AND DUP2 JUMP JUMPDEST PUSH1 0x3 DUP2 DUP2 SLOAD DUP2 LT PUSH2 0x11CD JUMPI PUSH0 DUP1 REVERT JUMPDEST SWAP1 PUSH0 MSTORE PUSH1 0x20 PUSH0 KECCAK256 SWAP1 PUSH1 0x5 MUL ADD PUSH0 SWAP2 POP SWAP1 POP DUP1 PUSH0 ADD PUSH0 SWAP1 SLOAD SWAP1 PUSH2 0x100 EXP SWAP1 DIV PUSH20 0xFFFFFFFFFFFFFFFFFFFFFFFFFFFFFFFFFFFFFFFF AND SWAP1 DUP1 PUSH1 0x1 ADD SLOAD SWAP1 DUP1 PUSH1 0x2 ADD DUP1 SLOAD PUSH2 0x1217 SWAP1 PUSH2 0x1EF6 JUMP JUMPDEST DUP1 PUSH1 0x1F ADD PUSH1 0x20 DUP1 SWAP2 DIV MUL PUSH1 0x20 ADD PUSH1 0x40 MLOAD SWAP1 DUP2 ADD PUSH1 0x40 MSTORE DUP1 SWAP3 SWAP2 SWAP1 DUP2 DUP2 MSTORE PUSH1 0x20 ADD DUP3 DUP1 SLOAD PUSH2 0x1243 SWAP1 PUSH2 0x1EF6 JUMP JUMPDEST DUP1 ISZERO PUSH2 0x128E JUMPI DUP1 PUSH1 0x1F LT PUSH2 0x1265 JUMPI PUSH2 0x100 DUP1 DUP4 SLOAD DIV MUL DUP4 MSTORE SWAP2 PUSH1 0x20 ADD SWAP2 PUSH2 0x128E JUMP JUMPDEST DUP3 ADD SWAP2 SWAP1 PUSH0 MSTORE PUSH1 0x20 PUSH0 KECCAK256 SWAP1 JUMPDEST DUP2 SLOAD DUP2 MSTORE SWAP1 PUSH1 0x1 ADD SWAP1 PUSH1 0x20 ADD DUP1 DUP4 GT PUSH2 0x1271 JUMPI DUP3 SWAP1 SUB PUSH1 0x1F AND DUP3 ADD SWAP2 JUMPDEST POP POP POP POP POP SWAP1 DUP1 PUSH1 0x3 ADD PUSH0 SWAP1 SLOAD SWAP1 PUSH2 0x100 EXP SWAP1 DIV PUSH1 0xFF AND SWAP1 DUP1 PUSH1 0x4 ADD SLOAD SWAP1 POP DUP6 JUMP JUMPDEST PUSH1 0x1 PUSH0 CALLER PUSH20 0xFFFFFFFFFFFFFFFFFFFFFFFFFFFFFFFFFFFFFFFF AND PUSH20 0xFFFFFFFFFFFFFFFFFFFFFFFFFFFFFFFFFFFFFFFF AND DUP2 MSTORE PUSH1 0x20 ADD SWAP1 DUP2 MSTORE PUSH1 0x20 ADD PUSH0 KECCAK256 PUSH0 SWAP1 SLOAD SWAP1 PUSH2 0x100 EXP SWAP1 DIV PUSH1 0xFF AND PUSH2 0x1339 JUMPI PUSH1 0x40 MLOAD PUSH32 0x8C379A000000000000000000000000000000000000000000000000000000000 DUP2 MSTORE PUSH1 0x4 ADD PUSH2 0x1330 SWAP1 PUSH2 0x1F80 JUMP JUMPDEST PUSH1 0x40 MLOAD DUP1 SWAP2 SUB SWAP1 REVERT JUMPDEST PUSH1 0x3 PUSH1 0x40 MLOAD DUP1 PUSH1 0xA0 ADD PUSH1 0x40 MSTORE DUP1 DUP6 PUSH20 0xFFFFFFFFFFFFFFFFFFFFFFFFFFFFFFFFFFFFFFFF AND DUP2 MSTORE PUSH1 0x20 ADD DUP5 DUP2 MSTORE PUSH1 0x20 ADD DUP4 DUP2 MSTORE PUSH1 0x20 ADD PUSH0 ISZERO ISZERO DUP2 MSTORE PUSH1 0x20 ADD PUSH0 DUP2 MSTORE POP SWAP1 DUP1 PUSH1 0x1 DUP2 SLOAD ADD DUP1 DUP3 SSTORE DUP1 SWAP2 POP POP PUSH1 0x1 SWAP1 SUB SWAP1 PUSH0 MSTORE PUSH1 0x20 PUSH0 KECCAK256 SWAP1 PUSH1 0x5 MUL ADD PUSH0 SWAP1 SWAP2 SWAP1 SWAP2 SWAP1 SWAP2 POP PUSH0 DUP3 ADD MLOAD DUP2 PUSH0 ADD PUSH0 PUSH2 0x100 EXP DUP2 SLOAD DUP2 PUSH20 0xFFFFFFFFFFFFFFFFFFFFFFFFFFFFFFFFFFFFFFFF MUL NOT AND SWAP1 DUP4 PUSH20 0xFFFFFFFFFFFFFFFFFFFFFFFFFFFFFFFFFFFFFFFF AND MUL OR SWAP1 SSTORE POP PUSH1 0x20 DUP3 ADD MLOAD DUP2 PUSH1 0x1 ADD SSTORE PUSH1 0x40 DUP3 ADD MLOAD DUP2 PUSH1 0x2 ADD SWAP1 DUP2 PUSH2 0x1403 SWAP2 SWAP1 PUSH2 0x24F5 JUMP JUMPDEST POP PUSH1 0x60 DUP3 ADD MLOAD DUP2 PUSH1 0x3 ADD PUSH0 PUSH2 0x100 EXP DUP2 SLOAD DUP2 PUSH1 0xFF MUL NOT AND SWAP1 DUP4 ISZERO ISZERO MUL OR SWAP1 SSTORE POP PUSH1 0x80 DUP3 ADD MLOAD DUP2 PUSH1 0x4 ADD SSTORE POP POP DUP3 PUSH20 0xFFFFFFFFFFFFFFFFFFFFFFFFFFFFFFFFFFFFFFFF AND PUSH1 0x1 PUSH1 0x3 DUP1 SLOAD SWAP1 POP PUSH2 0x1458 SWAP2 SWAP1 PUSH2 0x21CB JUMP JUMPDEST PUSH32 0x453E07A951B5ABB44CC647534A150065E3A308FEC0DC01FDA6CA43A4984F835B DUP5 DUP5 PUSH1 0x40 MLOAD PUSH2 0x1489 SWAP3 SWAP2 SWAP1 PUSH2 0x25C4 JUMP JUMPDEST PUSH1 0x40 MLOAD DUP1 SWAP2 SUB SWAP1 LOG3 POP POP POP JUMP JUMPDEST PUSH1 0x1 PUSH0 CALLER PUSH20 0xFFFFFFFFFFFFFFFFFFFFFFFFFFFFFFFFFFFFFFFF AND PUSH20 0xFFFFFFFFFFFFFFFFFFFFFFFFFFFFFFFFFFFFFFFF AND DUP2 MSTORE PUSH1 0x20 ADD SWAP1 DUP2 MSTORE PUSH1 0x20 ADD PUSH0 KECCAK256 PUSH0 SWAP1 SLOAD SWAP1 PUSH2 0x100 EXP SWAP1 DIV PUSH1 0xFF AND PUSH2 0x151F JUMPI PUSH1 0x40 MLOAD PUSH32 0x8C379A000000000000000000000000000000000000000000000000000000000 DUP2 MSTORE PUSH1 0x4 ADD PUSH2 0x1516 SWAP1 PUSH2 0x1F80 JUMP JUMPDEST PUSH1 0x40 MLOAD DUP1 SWAP2 SUB SWAP1 REVERT JUMPDEST DUP1 PUSH1 0x3 DUP1 SLOAD SWAP1 POP DUP2 LT PUSH2 0x1567 JUMPI PUSH1 0x40 MLOAD PUSH32 0x8C379A000000000000000000000000000000000000000000000000000000000 DUP2 MSTORE PUSH1 0x4 ADD PUSH2 0x155E SWAP1 PUSH2 0x263C JUMP JUMPDEST PUSH1 0x40 MLOAD DUP1 SWAP2 SUB SWAP1 REVERT JUMPDEST DUP2 PUSH1 0x3 DUP2 DUP2 SLOAD DUP2 LT PUSH2 0x157C JUMPI PUSH2 0x157B PUSH2 0x2006 JUMP JUMPDEST JUMPDEST SWAP1 PUSH0 MSTORE PUSH1 0x20 PUSH0 KECCAK256 SWAP1 PUSH1 0x5 MUL ADD PUSH1 0x3 ADD PUSH0 SWAP1 SLOAD SWAP1 PUSH2 0x100 EXP SWAP1 DIV PUSH1 0xFF AND ISZERO PUSH2 0x15D8 JUMPI PUSH1 0x40 MLOAD PUSH32 0x8C379A000000000000000000000000000000000000000000000000000000000 DUP2 MSTORE PUSH1 0x4 ADD PUSH2 0x15CF SWAP1 PUSH2 0x26A4 JUMP JUMPDEST PUSH1 0x40 MLOAD DUP1 SWAP2 SUB SWAP1 REVERT JUMPDEST DUP3 PUSH1 0x4 PUSH0 DUP3 DUP2 MSTORE PUSH1 0x20 ADD SWAP1 DUP2 MSTORE PUSH1 0x20 ADD PUSH0 KECCAK256 PUSH0 CALLER PUSH20 0xFFFFFFFFFFFFFFFFFFFFFFFFFFFFFFFFFFFFFFFF AND PUSH20 0xFFFFFFFFFFFFFFFFFFFFFFFFFFFFFFFFFFFFFFFF AND DUP2 MSTORE PUSH1 0x20 ADD SWAP1 DUP2 MSTORE PUSH1 0x20 ADD PUSH0 KECCAK256 PUSH0 SWAP1 SLOAD SWAP1 PUSH2 0x100 EXP SWAP1 DIV PUSH1 0xFF AND ISZERO PUSH2 0x1672 JUMPI PUSH1 0x40 MLOAD PUSH32 0x8C379A000000000000000000000000000000000000000000000000000000000 DUP2 MSTORE PUSH1 0x4 ADD PUSH2 0x1669 SWAP1 PUSH2 0x270C JUMP JUMPDEST PUSH1 0x40 MLOAD DUP1 SWAP2 SUB SWAP1 REVERT JUMPDEST PUSH0 PUSH1 0x3 DUP6 DUP2 SLOAD DUP2 LT PUSH2 0x1687 JUMPI PUSH2 0x1686 PUSH2 0x2006 JUMP JUMPDEST JUMPDEST SWAP1 PUSH0 MSTORE PUSH1 0x20 PUSH0 KECCAK256 SWAP1 PUSH1 0x5 MUL ADD SWAP1 POP PUSH1 0x1 PUSH1 0x4 PUSH0 DUP8 DUP2 MSTORE PUSH1 0x20 ADD SWAP1 DUP2 MSTORE PUSH1 0x20 ADD PUSH0 KECCAK256 PUSH0 CALLER PUSH20 0xFFFFFFFFFFFFFFFFFFFFFFFFFFFFFFFFFFFFFFFF AND PUSH20 0xFFFFFFFFFFFFFFFFFFFFFFFFFFFFFFFFFFFFFFFF AND DUP2 MSTORE PUSH1 0x20 ADD SWAP1 DUP2 MSTORE PUSH1 0x20 ADD PUSH0 KECCAK256 PUSH0 PUSH2 0x100 EXP DUP2 SLOAD DUP2 PUSH1 0xFF MUL NOT AND SWAP1 DUP4 ISZERO ISZERO MUL OR SWAP1 SSTORE POP PUSH1 0x1 DUP2 PUSH1 0x4 ADD PUSH0 DUP3 DUP3 SLOAD PUSH2 0x170D SWAP2 SWAP1 PUSH2 0x2130 JUMP JUMPDEST SWAP3 POP POP DUP2 SWAP1 SSTORE POP PUSH1 0x2 SLOAD DUP2 PUSH1 0x4 ADD SLOAD LT PUSH2 0x183F JUMPI PUSH1 0x1 DUP2 PUSH1 0x3 ADD PUSH0 PUSH2 0x100 EXP DUP2 SLOAD DUP2 PUSH1 0xFF MUL NOT AND SWAP1 DUP4 ISZERO ISZERO MUL OR SWAP1 SSTORE POP PUSH0 DUP2 PUSH0 ADD PUSH0 SWAP1 SLOAD SWAP1 PUSH2 0x100 EXP SWAP1 DIV PUSH20 0xFFFFFFFFFFFFFFFFFFFFFFFFFFFFFFFFFFFFFFFF AND PUSH20 0xFFFFFFFFFFFFFFFFFFFFFFFFFFFFFFFFFFFFFFFF AND DUP3 PUSH1 0x1 ADD SLOAD DUP4 PUSH1 0x2 ADD PUSH1 0x40 MLOAD PUSH2 0x178D SWAP2 SWAP1 PUSH2 0x27B4 JUMP JUMPDEST PUSH0 PUSH1 0x40 MLOAD DUP1 DUP4 SUB DUP2 DUP6 DUP8 GAS CALL SWAP3 POP POP POP RETURNDATASIZE DUP1 PUSH0 DUP2 EQ PUSH2 0x17C7 JUMPI PUSH1 0x40 MLOAD SWAP2 POP PUSH1 0x1F NOT PUSH1 0x3F RETURNDATASIZE ADD AND DUP3 ADD PUSH1 0x40 MSTORE RETURNDATASIZE DUP3 MSTORE RETURNDATASIZE PUSH0 PUSH1 0x20 DUP5 ADD RETURNDATACOPY PUSH2 0x17CC JUMP JUMPDEST PUSH1 0x60 SWAP2 POP JUMPDEST POP POP SWAP1 POP DUP1 PUSH2 0x1810 JUMPI PUSH1 0x40 MLOAD PUSH32 0x8C379A000000000000000000000000000000000000000000000000000000000 DUP2 MSTORE PUSH1 0x4 ADD PUSH2 0x1807 SWAP1 PUSH2 0x2814 JUMP JUMPDEST PUSH1 0x40 MLOAD DUP1 SWAP2 SUB SWAP1 REVERT JUMPDEST DUP6 PUSH32 0x15ED165A284872EA7017F03DF402A0CADFBFAB588320FFAF83F160C2F82781C7 PUSH1 0x40 MLOAD PUSH1 0x40 MLOAD DUP1 SWAP2 SUB SWAP1 LOG2 POP JUMPDEST POP POP POP POP POP JUMP JUMPDEST PUSH0 DUP2 SWAP1 POP SWAP2 SWAP1 POP JUMP JUMPDEST PUSH2 0x1858 DUP2 PUSH2 0x1846 JUMP JUMPDEST DUP3 MSTORE POP POP JUMP JUMPDEST PUSH0 PUSH1 0x20 DUP3 ADD SWAP1 POP PUSH2 0x1871 PUSH0 DUP4 ADD DUP5 PUSH2 0x184F JUMP JUMPDEST SWAP3 SWAP2 POP POP JUMP JUMPDEST PUSH0 PUSH1 0x40 MLOAD SWAP1 POP SWAP1 JUMP JUMPDEST PUSH0 DUP1 REVERT JUMPDEST PUSH0 DUP1 REVERT JUMPDEST PUSH2 0x1891 DUP2 PUSH2 0x1846 JUMP JUMPDEST DUP2 EQ PUSH2 0x189B JUMPI PUSH0 DUP1 REVERT JUMPDEST POP JUMP JUMPDEST PUSH0 DUP2 CALLDATALOAD SWAP1 POP PUSH2 0x18AC DUP2 PUSH2 0x1888 JUMP JUMPDEST SWAP3 SWAP2 POP POP JUMP JUMPDEST PUSH0 PUSH1 0x20 DUP3 DUP5 SUB SLT ISZERO PUSH2 0x18C7 JUMPI PUSH2 0x18C6 PUSH2 0x1880 JUMP JUMPDEST JUMPDEST PUSH0 PUSH2 0x18D4 DUP5 DUP3 DUP6 ADD PUSH2 0x189E JUMP JUMPDEST SWAP2 POP POP SWAP3 SWAP2 POP POP JUMP JUMPDEST PUSH0 PUSH20 0xFFFFFFFFFFFFFFFFFFFFFFFFFFFFFFFFFFFFFFFF DUP3 AND SWAP1 POP SWAP2 SWAP1 POP JUMP JUMPDEST PUSH0 PUSH2 0x1906 DUP3 PUSH2 0x18DD JUMP JUMPDEST SWAP1 POP SWAP2 SWAP1 POP JUMP JUMPDEST PUSH2 0x1916 DUP2 PUSH2 0x18FC JUMP JUMPDEST DUP3 MSTORE POP POP JUMP JUMPDEST PUSH0 PUSH1 0x20 DUP3 ADD SWAP1 POP PUSH2 0x192F PUSH0 DUP4 ADD DUP5 PUSH2 0x190D JUMP JUMPDEST SWAP3 SWAP2 POP POP JUMP JUMPDEST PUSH0 DUP2 MLOAD SWAP1 POP SWAP2 SWAP1 POP JUMP JUMPDEST PUSH0 DUP3 DUP3 MSTORE PUSH1 0x20 DUP3 ADD SWAP1 POP SWAP3 SWAP2 POP POP JUMP JUMPDEST PUSH0 DUP2 SWAP1 POP PUSH1 0x20 DUP3 ADD SWAP1 POP SWAP2 SWAP1 POP JUMP JUMPDEST PUSH2 0x1967 DUP2 PUSH2 0x18FC JUMP JUMPDEST DUP3 MSTORE POP POP JUMP JUMPDEST PUSH2 0x1976 DUP2 PUSH2 0x1846 JUMP JUMPDEST DUP3 MSTORE POP POP JUMP JUMPDEST PUSH0 DUP2 MLOAD SWAP1 POP SWAP2 SWAP1 POP JUMP JUMPDEST PUSH0 DUP3 DUP3 MSTORE PUSH1 0x20 DUP3 ADD SWAP1 POP SWAP3 SWAP2 POP POP JUMP JUMPDEST DUP3 DUP2 DUP4 MCOPY PUSH0 DUP4 DUP4 ADD MSTORE POP POP POP JUMP JUMPDEST PUSH0 PUSH1 0x1F NOT PUSH1 0x1F DUP4 ADD AND SWAP1 POP SWAP2 SWAP1 POP JUMP JUMPDEST PUSH0 PUSH2 0x19BE DUP3 PUSH2 0x197C JUMP JUMPDEST PUSH2 0x19C8 DUP2 DUP6 PUSH2 0x1986 JUMP JUMPDEST SWAP4 POP PUSH2 0x19D8 DUP2 DUP6 PUSH1 0x20 DUP7 ADD PUSH2 0x1996 JUMP JUMPDEST PUSH2 0x19E1 DUP2 PUSH2 0x19A4 JUMP JUMPDEST DUP5 ADD SWAP2 POP POP SWAP3 SWAP2 POP POP JUMP JUMPDEST PUSH0 DUP2 ISZERO ISZERO SWAP1 POP SWAP2 SWAP1 POP JUMP JUMPDEST PUSH2 0x1A00 DUP2 PUSH2 0x19EC JUMP JUMPDEST DUP3 MSTORE POP POP JUMP JUMPDEST PUSH0 PUSH1 0xA0 DUP4 ADD PUSH0 DUP4 ADD MLOAD PUSH2 0x1A1B PUSH0 DUP7 ADD DUP3 PUSH2 0x195E JUMP JUMPDEST POP PUSH1 0x20 DUP4 ADD MLOAD PUSH2 0x1A2E PUSH1 0x20 DUP7 ADD DUP3 PUSH2 0x196D JUMP JUMPDEST POP PUSH1 0x40 DUP4 ADD MLOAD DUP5 DUP3 SUB PUSH1 0x40 DUP7 ADD MSTORE PUSH2 0x1A46 DUP3 DUP3 PUSH2 0x19B4 JUMP JUMPDEST SWAP2 POP POP PUSH1 0x60 DUP4 ADD MLOAD PUSH2 0x1A5B PUSH1 0x60 DUP7 ADD DUP3 PUSH2 0x19F7 JUMP JUMPDEST POP PUSH1 0x80 DUP4 ADD MLOAD PUSH2 0x1A6E PUSH1 0x80 DUP7 ADD DUP3 PUSH2 0x196D JUMP JUMPDEST POP DUP1 SWAP2 POP POP SWAP3 SWAP2 POP POP JUMP JUMPDEST PUSH0 PUSH2 0x1A84 DUP4 DUP4 PUSH2 0x1A06 JUMP JUMPDEST SWAP1 POP SWAP3 SWAP2 POP POP JUMP JUMPDEST PUSH0 PUSH1 0x20 DUP3 ADD SWAP1 POP SWAP2 SWAP1 POP JUMP JUMPDEST PUSH0 PUSH2 0x1AA2 DUP3 PUSH2 0x1935 JUMP JUMPDEST PUSH2 0x1AAC DUP2 DUP6 PUSH2 0x193F JUMP JUMPDEST SWAP4 POP DUP4 PUSH1 0x20 DUP3 MUL DUP6 ADD PUSH2 0x1ABE DUP6 PUSH2 0x194F JUMP JUMPDEST DUP1 PUSH0 JUMPDEST DUP6 DUP2 LT ISZERO PUSH2 0x1AF9 JUMPI DUP5 DUP5 SUB DUP10 MSTORE DUP2 MLOAD PUSH2 0x1ADA DUP6 DUP3 PUSH2 0x1A79 JUMP JUMPDEST SWAP5 POP PUSH2 0x1AE5 DUP4 PUSH2 0x1A8C JUMP JUMPDEST SWAP3 POP PUSH1 0x20 DUP11 ADD SWAP10 POP POP PUSH1 0x1 DUP2 ADD SWAP1 POP PUSH2 0x1AC1 JUMP JUMPDEST POP DUP3 SWAP8 POP DUP8 SWAP6 POP POP POP POP POP POP SWAP3 SWAP2 POP POP JUMP JUMPDEST PUSH0 PUSH1 0x20 DUP3 ADD SWAP1 POP DUP2 DUP2 SUB PUSH0 DUP4 ADD MSTORE PUSH2 0x1B23 DUP2 DUP5 PUSH2 0x1A98 JUMP JUMPDEST SWAP1 POP SWAP3 SWAP2 POP POP JUMP JUMPDEST PUSH2 0x1B34 DUP2 PUSH2 0x18FC JUMP JUMPDEST DUP2 EQ PUSH2 0x1B3E JUMPI PUSH0 DUP1 REVERT JUMPDEST POP JUMP JUMPDEST PUSH0 DUP2 CALLDATALOAD SWAP1 POP PUSH2 0x1B4F DUP2 PUSH2 0x1B2B JUMP JUMPDEST SWAP3 SWAP2 POP POP JUMP JUMPDEST PUSH0 PUSH1 0x20 DUP3 DUP5 SUB SLT ISZERO PUSH2 0x1B6A JUMPI PUSH2 0x1B69 PUSH2 0x1880 JUMP JUMPDEST JUMPDEST PUSH0 PUSH2 0x1B77 DUP5 DUP3 DUP6 ADD PUSH2 0x1B41 JUMP JUMPDEST SWAP2 POP POP SWAP3 SWAP2 POP POP JUMP JUMPDEST PUSH2 0x1B89 DUP2 PUSH2 0x19EC JUMP JUMPDEST DUP3 MSTORE POP POP JUMP JUMPDEST PUSH0 PUSH1 0x20 DUP3 ADD SWAP1 POP PUSH2 0x1BA2 PUSH0 DUP4 ADD DUP5 PUSH2 0x1B80 JUMP JUMPDEST SWAP3 SWAP2 POP POP JUMP JUMPDEST PUSH0 PUSH1 0x80 DUP3 ADD SWAP1 POP PUSH2 0x1BBB PUSH0 DUP4 ADD DUP8 PUSH2 0x190D JUMP JUMPDEST PUSH2 0x1BC8 PUSH1 0x20 DUP4 ADD DUP7 PUSH2 0x1B80 JUMP JUMPDEST PUSH2 0x1BD5 PUSH1 0x40 DUP4 ADD DUP6 PUSH2 0x184F JUMP JUMPDEST PUSH2 0x1BE2 PUSH1 0x60 DUP4 ADD DUP5 PUSH2 0x1B80 JUMP JUMPDEST SWAP6 SWAP5 POP POP POP POP POP JUMP JUMPDEST PUSH0 DUP3 DUP3 MSTORE PUSH1 0x20 DUP3 ADD SWAP1 POP SWAP3 SWAP2 POP POP JUMP JUMPDEST PUSH0 PUSH2 0x1C05 DUP3 PUSH2 0x197C JUMP JUMPDEST PUSH2 0x1C0F DUP2 DUP6 PUSH2 0x1BEB JUMP JUMPDEST SWAP4 POP PUSH2 0x1C1F DUP2 DUP6 PUSH1 0x20 DUP7 ADD PUSH2 0x1996 JUMP JUMPDEST PUSH2 0x1C28 DUP2 PUSH2 0x19A4 JUMP JUMPDEST DUP5 ADD SWAP2 POP POP SWAP3 SWAP2 POP POP JUMP JUMPDEST PUSH0 PUSH1 0xA0 DUP3 ADD SWAP1 POP PUSH2 0x1C46 PUSH0 DUP4 ADD DUP9 PUSH2 0x190D JUMP JUMPDEST PUSH2 0x1C53 PUSH1 0x20 DUP4 ADD DUP8 PUSH2 0x184F JUMP JUMPDEST DUP2 DUP2 SUB PUSH1 0x40 DUP4 ADD MSTORE PUSH2 0x1C65 DUP2 DUP7 PUSH2 0x1BFB JUMP JUMPDEST SWAP1 POP PUSH2 0x1C74 PUSH1 0x60 DUP4 ADD DUP6 PUSH2 0x1B80 JUMP JUMPDEST PUSH2 0x1C81 PUSH1 0x80 DUP4 ADD DUP5 PUSH2 0x184F JUMP JUMPDEST SWAP7 SWAP6 POP POP POP POP POP POP JUMP JUMPDEST PUSH0 DUP1 PUSH1 0x40 DUP4 DUP6 SUB SLT ISZERO PUSH2 0x1CA1 JUMPI PUSH2 0x1CA0 PUSH2 0x1880 JUMP JUMPDEST JUMPDEST PUSH0 PUSH2 0x1CAE DUP6 DUP3 DUP7 ADD PUSH2 0x189E JUMP JUMPDEST SWAP3 POP POP PUSH1 0x20 PUSH2 0x1CBF DUP6 DUP3 DUP7 ADD PUSH2 0x1B41 JUMP JUMPDEST SWAP2 POP POP SWAP3 POP SWAP3 SWAP1 POP JUMP JUMPDEST PUSH2 0x1CD2 DUP2 PUSH2 0x19EC JUMP JUMPDEST DUP2 EQ PUSH2 0x1CDC JUMPI PUSH0 DUP1 REVERT JUMPDEST POP JUMP JUMPDEST PUSH0 DUP2 CALLDATALOAD SWAP1 POP PUSH2 0x1CED DUP2 PUSH2 0x1CC9 JUMP JUMPDEST SWAP3 SWAP2 POP POP JUMP JUMPDEST PUSH0 DUP1 PUSH1 0x40 DUP4 DUP6 SUB SLT ISZERO PUSH2 0x1D09 JUMPI PUSH2 0x1D08 PUSH2 0x1880 JUMP JUMPDEST JUMPDEST PUSH0 PUSH2 0x1D16 DUP6 DUP3 DUP7 ADD PUSH2 0x1B41 JUMP JUMPDEST SWAP3 POP POP PUSH1 0x20 PUSH2 0x1D27 DUP6 DUP3 DUP7 ADD PUSH2 0x1CDF JUMP JUMPDEST SWAP2 POP POP SWAP3 POP SWAP3 SWAP1 POP JUMP JUMPDEST PUSH0 DUP1 REVERT JUMPDEST PUSH0 DUP1 REVERT JUMPDEST PUSH32 0x4E487B7100000000000000000000000000000000000000000000000000000000 PUSH0 MSTORE PUSH1 0x41 PUSH1 0x4 MSTORE PUSH1 0x24 PUSH0 REVERT JUMPDEST PUSH2 0x1D6F DUP3 PUSH2 0x19A4 JUMP JUMPDEST DUP2 ADD DUP2 DUP2 LT PUSH8 0xFFFFFFFFFFFFFFFF DUP3 GT OR ISZERO PUSH2 0x1D8E JUMPI PUSH2 0x1D8D PUSH2 0x1D39 JUMP JUMPDEST JUMPDEST DUP1 PUSH1 0x40 MSTORE POP POP POP JUMP JUMPDEST PUSH0 PUSH2 0x1DA0 PUSH2 0x1877 JUMP JUMPDEST SWAP1 POP PUSH2 0x1DAC DUP3 DUP3 PUSH2 0x1D66 JUMP JUMPDEST SWAP2 SWAP1 POP JUMP JUMPDEST PUSH0 PUSH8 0xFFFFFFFFFFFFFFFF DUP3 GT ISZERO PUSH2 0x1DCB JUMPI PUSH2 0x1DCA PUSH2 0x1D39 JUMP JUMPDEST JUMPDEST PUSH2 0x1DD4 DUP3 PUSH2 0x19A4 JUMP JUMPDEST SWAP1 POP PUSH1 0x20 DUP2 ADD SWAP1 POP SWAP2 SWAP1 POP JUMP JUMPDEST DUP3 DUP2 DUP4 CALLDATACOPY PUSH0 DUP4 DUP4 ADD MSTORE POP POP POP JUMP JUMPDEST PUSH0 PUSH2 0x1E01 PUSH2 0x1DFC DUP5 PUSH2 0x1DB1 JUMP JUMPDEST PUSH2 0x1D97 JUMP JUMPDEST SWAP1 POP DUP3 DUP2 MSTORE PUSH1 0x20 DUP2 ADD DUP5 DUP5 DUP5 ADD GT ISZERO PUSH2 0x1E1D JUMPI PUSH2 0x1E1C PUSH2 0x1D35 JUMP JUMPDEST JUMPDEST PUSH2 0x1E28 DUP5 DUP3 DUP6 PUSH2 0x1DE1 JUMP JUMPDEST POP SWAP4 SWAP3 POP POP POP JUMP JUMPDEST PUSH0 DUP3 PUSH1 0x1F DUP4 ADD SLT PUSH2 0x1E44 JUMPI PUSH2 0x1E43 PUSH2 0x1D31 JUMP JUMPDEST JUMPDEST DUP2 CALLDATALOAD PUSH2 0x1E54 DUP5 DUP3 PUSH1 0x20 DUP7 ADD PUSH2 0x1DEF JUMP JUMPDEST SWAP2 POP POP SWAP3 SWAP2 POP POP JUMP JUMPDEST PUSH0 DUP1 PUSH0 PUSH1 0x60 DUP5 DUP7 SUB SLT ISZERO PUSH2 0x1E74 JUMPI PUSH2 0x1E73 PUSH2 0x1880 JUMP JUMPDEST JUMPDEST PUSH0 PUSH2 0x1E81 DUP7 DUP3 DUP8 ADD PUSH2 0x1B41 JUMP JUMPDEST SWAP4 POP POP PUSH1 0x20 PUSH2 0x1E92 DUP7 DUP3 DUP8 ADD PUSH2 0x189E JUMP JUMPDEST SWAP3 POP POP PUSH1 0x40 DUP5 ADD CALLDATALOAD PUSH8 0xFFFFFFFFFFFFFFFF DUP2 GT ISZERO PUSH2 0x1EB3 JUMPI PUSH2 0x1EB2 PUSH2 0x1884 JUMP JUMPDEST JUMPDEST PUSH2 0x1EBF DUP7 DUP3 DUP8 ADD PUSH2 0x1E30 JUMP JUMPDEST SWAP2 POP POP SWAP3 POP SWAP3 POP SWAP3 JUMP JUMPDEST PUSH32 0x4E487B7100000000000000000000000000000000000000000000000000000000 PUSH0 MSTORE PUSH1 0x22 PUSH1 0x4 MSTORE PUSH1 0x24 PUSH0 REVERT JUMPDEST PUSH0 PUSH1 0x2 DUP3 DIV SWAP1 POP PUSH1 0x1 DUP3 AND DUP1 PUSH2 0x1F0D JUMPI PUSH1 0x7F DUP3 AND SWAP2 POP JUMPDEST PUSH1 0x20 DUP3 LT DUP2 SUB PUSH2 0x1F20 JUMPI PUSH2 0x1F1F PUSH2 0x1EC9 JUMP JUMPDEST JUMPDEST POP SWAP2 SWAP1 POP JUMP JUMPDEST PUSH0 DUP3 DUP3 MSTORE PUSH1 0x20 DUP3 ADD SWAP1 POP SWAP3 SWAP2 POP POP JUMP JUMPDEST PUSH32 0x4E6F7420616E206F776E65720000000000000000000000000000000000000000 PUSH0 DUP3 ADD MSTORE POP JUMP JUMPDEST PUSH0 PUSH2 0x1F6A PUSH1 0xC DUP4 PUSH2 0x1F26 JUMP JUMPDEST SWAP2 POP PUSH2 0x1F75 DUP3 PUSH2 0x1F36 JUMP JUMPDEST PUSH1 0x20 DUP3 ADD SWAP1 POP SWAP2 SWAP1 POP JUMP JUMPDEST PUSH0 PUSH1 0x20 DUP3 ADD SWAP1 POP DUP2 DUP2 SUB PUSH0 DUP4 ADD MSTORE PUSH2 0x1F97 DUP2 PUSH2 0x1F5E JUMP JUMPDEST SWAP1 POP SWAP2 SWAP1 POP JUMP JUMPDEST PUSH32 0x5265717565737420646F6573206E6F7420657869737400000000000000000000 PUSH0 DUP3 ADD MSTORE POP JUMP JUMPDEST PUSH0 PUSH2 0x1FD2 PUSH1 0x16 DUP4 PUSH2 0x1F26 JUMP JUMPDEST SWAP2 POP PUSH2 0x1FDD DUP3 PUSH2 0x1F9E JUMP JUMPDEST PUSH1 0x20 DUP3 ADD SWAP1 POP SWAP2 SWAP1 POP JUMP JUMPDEST PUSH0 PUSH1 0x20 DUP3 ADD SWAP1 POP DUP2 DUP2 SUB PUSH0 DUP4 ADD MSTORE PUSH2 0x1FFF DUP2 PUSH2 0x1FC6 JUMP JUMPDEST SWAP1 POP SWAP2 SWAP1 POP JUMP JUMPDEST PUSH32 0x4E487B7100000000000000000000000000000000000000000000000000000000 PUSH0 MSTORE PUSH1 0x32 PUSH1 0x4 MSTORE PUSH1 0x24 PUSH0 REVERT JUMPDEST PUSH32 0x5265717565737420616C72656164792065786563757465640000000000000000 PUSH0 DUP3 ADD MSTORE POP JUMP JUMPDEST PUSH0 PUSH2 0x2067 PUSH1 0x18 DUP4 PUSH2 0x1F26 JUMP JUMPDEST SWAP2 POP PUSH2 0x2072 DUP3 PUSH2 0x2033 JUMP JUMPDEST PUSH1 0x20 DUP3 ADD SWAP1 POP SWAP2 SWAP1 POP JUMP JUMPDEST PUSH0 PUSH1 0x20 DUP3 ADD SWAP1 POP DUP2 DUP2 SUB PUSH0 DUP4 ADD MSTORE PUSH2 0x2094 DUP2 PUSH2 0x205B JUMP JUMPDEST SWAP1 POP SWAP2 SWAP1 POP JUMP JUMPDEST PUSH32 0x5265717565737420616C726561647920636F6E6669726D656400000000000000 PUSH0 DUP3 ADD MSTORE POP JUMP JUMPDEST PUSH0 PUSH2 0x20CF PUSH1 0x19 DUP4 PUSH2 0x1F26 JUMP JUMPDEST SWAP2 POP PUSH2 0x20DA DUP3 PUSH2 0x209B JUMP JUMPDEST PUSH1 0x20 DUP3 ADD SWAP1 POP SWAP2 SWAP1 POP JUMP JUMPDEST PUSH0 PUSH1 0x20 DUP3 ADD SWAP1 POP DUP2 DUP2 SUB PUSH0 DUP4 ADD MSTORE PUSH2 0x20FC DUP2 PUSH2 0x20C3 JUMP JUMPDEST SWAP1 POP SWAP2 SWAP1 POP JUMP JUMPDEST PUSH32 0x4E487B7100000000000000000000000000000000000000000000000000000000 PUSH0 MSTORE PUSH1 0x11 PUSH1 0x4 MSTORE PUSH1 0x24 PUSH0 REVERT JUMPDEST PUSH0 PUSH2 0x213A DUP3 PUSH2 0x1846 JUMP JUMPDEST SWAP2 POP PUSH2 0x2145 DUP4 PUSH2 0x1846 JUMP JUMPDEST SWAP3 POP DUP3 DUP3 ADD SWAP1 POP DUP1 DUP3 GT ISZERO PUSH2 0x215D JUMPI PUSH2 0x215C PUSH2 0x2103 JUMP JUMPDEST JUMPDEST SWAP3 SWAP2 POP POP JUMP JUMPDEST PUSH32 0x4F776E657220646F6573206E6F74206578697374000000000000000000000000 PUSH0 DUP3 ADD MSTORE POP JUMP JUMPDEST PUSH0 PUSH2 0x2197 PUSH1 0x14 DUP4 PUSH2 0x1F26 JUMP JUMPDEST SWAP2 POP PUSH2 0x21A2 DUP3 PUSH2 0x2163 JUMP JUMPDEST PUSH1 0x20 DUP3 ADD SWAP1 POP SWAP2 SWAP1 POP JUMP JUMPDEST PUSH0 PUSH1 0x20 DUP3 ADD SWAP1 POP DUP2 DUP2 SUB PUSH0 DUP4 ADD MSTORE PUSH2 0x21C4 DUP2 PUSH2 0x218B JUMP JUMPDEST SWAP1 POP SWAP2 SWAP1 POP JUMP JUMPDEST PUSH0 PUSH2 0x21D5 DUP3 PUSH2 0x1846 JUMP JUMPDEST SWAP2 POP PUSH2 0x21E0 DUP4 PUSH2 0x1846 JUMP JUMPDEST SWAP3 POP DUP3 DUP3 SUB SWAP1 POP DUP2 DUP2 GT ISZERO PUSH2 0x21F8 JUMPI PUSH2 0x21F7 PUSH2 0x2103 JUMP JUMPDEST JUMPDEST SWAP3 SWAP2 POP POP JUMP JUMPDEST PUSH32 0x4E487B7100000000000000000000000000000000000000000000000000000000 PUSH0 MSTORE PUSH1 0x31 PUSH1 0x4 MSTORE PUSH1 0x24 PUSH0 REVERT JUMPDEST PUSH32 0x4E487B7100000000000000000000000000000000000000000000000000000000 PUSH0 MSTORE PUSH1 0x12 PUSH1 0x4 MSTORE PUSH1 0x24 PUSH0 REVERT JUMPDEST PUSH0 PUSH2 0x2262 DUP3 PUSH2 0x1846 JUMP JUMPDEST SWAP2 POP PUSH2 0x226D DUP4 PUSH2 0x1846 JUMP JUMPDEST SWAP3 POP DUP3 PUSH2 0x227D JUMPI PUSH2 0x227C PUSH2 0x222B JUMP JUMPDEST JUMPDEST DUP3 DUP3 DIV SWAP1 POP SWAP3 SWAP2 POP POP JUMP JUMPDEST PUSH32 0x496E76616C6964206F776E657220616464726573730000000000000000000000 PUSH0 DUP3 ADD MSTORE POP JUMP JUMPDEST PUSH0 PUSH2 0x22BC PUSH1 0x15 DUP4 PUSH2 0x1F26 JUMP JUMPDEST SWAP2 POP PUSH2 0x22C7 DUP3 PUSH2 0x2288 JUMP JUMPDEST PUSH1 0x20 DUP3 ADD SWAP1 POP SWAP2 SWAP1 POP JUMP JUMPDEST PUSH0 PUSH1 0x20 DUP3 ADD SWAP1 POP DUP2 DUP2 SUB PUSH0 DUP4 ADD MSTORE PUSH2 0x22E9 DUP2 PUSH2 0x22B0 JUMP JUMPDEST SWAP1 POP SWAP2 SWAP1 POP JUMP JUMPDEST PUSH32 0x526564756E64616E742072657175657374000000000000000000000000000000 PUSH0 DUP3 ADD MSTORE POP JUMP JUMPDEST PUSH0 PUSH2 0x2324 PUSH1 0x11 DUP4 PUSH2 0x1F26 JUMP JUMPDEST SWAP2 POP PUSH2 0x232F DUP3 PUSH2 0x22F0 JUMP JUMPDEST PUSH1 0x20 DUP3 ADD SWAP1 POP SWAP2 SWAP1 POP JUMP JUMPDEST PUSH0 PUSH1 0x20 DUP3 ADD SWAP1 POP DUP2 DUP2 SUB PUSH0 DUP4 ADD MSTORE PUSH2 0x2351 DUP2 PUSH2 0x2318 JUMP JUMPDEST SWAP1 POP SWAP2 SWAP1 POP JUMP JUMPDEST PUSH0 DUP2 SWAP1 POP DUP2 PUSH0 MSTORE PUSH1 0x20 PUSH0 KECCAK256 SWAP1 POP SWAP2 SWAP1 POP JUMP JUMPDEST PUSH0 PUSH1 0x20 PUSH1 0x1F DUP4 ADD DIV SWAP1 POP SWAP2 SWAP1 POP JUMP JUMPDEST PUSH0 DUP3 DUP3 SHL SWAP1 POP SWAP3 SWAP2 POP POP JUMP JUMPDEST PUSH0 PUSH1 0x8 DUP4 MUL PUSH2 0x23B4 PUSH32 0xFFFFFFFFFFFFFFFFFFFFFFFFFFFFFFFFFFFFFFFFFFFFFFFFFFFFFFFFFFFFFFFF DUP3 PUSH2 0x2379 JUMP JUMPDEST PUSH2 0x23BE DUP7 DUP4 PUSH2 0x2379 JUMP JUMPDEST SWAP6 POP DUP1 NOT DUP5 AND SWAP4 POP DUP1 DUP7 AND DUP5 OR SWAP3 POP POP POP SWAP4 SWAP3 POP POP POP JUMP JUMPDEST PUSH0 DUP2 SWAP1 POP SWAP2 SWAP1 POP JUMP JUMPDEST PUSH0 PUSH2 0x23F9 PUSH2 0x23F4 PUSH2 0x23EF DUP5 PUSH2 0x1846 JUMP JUMPDEST PUSH2 0x23D6 JUMP JUMPDEST PUSH2 0x1846 JUMP JUMPDEST SWAP1 POP SWAP2 SWAP1 POP JUMP JUMPDEST PUSH0 DUP2 SWAP1 POP SWAP2 SWAP1 POP JUMP JUMPDEST PUSH2 0x2412 DUP4 PUSH2 0x23DF JUMP JUMPDEST PUSH2 0x2426 PUSH2 0x241E DUP3 PUSH2 0x2400 JUMP JUMPDEST DUP5 DUP5 SLOAD PUSH2 0x2385 JUMP JUMPDEST DUP3 SSTORE POP POP POP POP JUMP JUMPDEST PUSH0 SWAP1 JUMP JUMPDEST PUSH2 0x243A PUSH2 0x242E JUMP JUMPDEST PUSH2 0x2445 DUP2 DUP5 DUP5 PUSH2 0x2409 JUMP JUMPDEST POP POP POP JUMP JUMPDEST JUMPDEST DUP2 DUP2 LT ISZERO PUSH2 0x2468 JUMPI PUSH2 0x245D PUSH0 DUP3 PUSH2 0x2432 JUMP JUMPDEST PUSH1 0x1 DUP2 ADD SWAP1 POP PUSH2 0x244B JUMP JUMPDEST POP POP JUMP JUMPDEST PUSH1 0x1F DUP3 GT ISZERO PUSH2 0x24AD JUMPI PUSH2 0x247E DUP2 PUSH2 0x2358 JUMP JUMPDEST PUSH2 0x2487 DUP5 PUSH2 0x236A JUMP JUMPDEST DUP2 ADD PUSH1 0x20 DUP6 LT ISZERO PUSH2 0x2496 JUMPI DUP2 SWAP1 POP JUMPDEST PUSH2 0x24AA PUSH2 0x24A2 DUP6 PUSH2 0x236A JUMP JUMPDEST DUP4 ADD DUP3 PUSH2 0x244A JUMP JUMPDEST POP POP JUMPDEST POP POP POP JUMP JUMPDEST PUSH0 DUP3 DUP3 SHR SWAP1 POP SWAP3 SWAP2 POP POP JUMP JUMPDEST PUSH0 PUSH2 0x24CD PUSH0 NOT DUP5 PUSH1 0x8 MUL PUSH2 0x24B2 JUMP JUMPDEST NOT DUP1 DUP4 AND SWAP2 POP POP SWAP3 SWAP2 POP POP JUMP JUMPDEST PUSH0 PUSH2 0x24E5 DUP4 DUP4 PUSH2 0x24BE JUMP JUMPDEST SWAP2 POP DUP3 PUSH1 0x2 MUL DUP3 OR SWAP1 POP SWAP3 SWAP2 POP POP JUMP JUMPDEST PUSH2 0x24FE DUP3 PUSH2 0x197C JUMP JUMPDEST PUSH8 0xFFFFFFFFFFFFFFFF DUP2 GT ISZERO PUSH2 0x2517 JUMPI PUSH2 0x2516 PUSH2 0x1D39 JUMP JUMPDEST JUMPDEST PUSH2 0x2521 DUP3 SLOAD PUSH2 0x1EF6 JUMP JUMPDEST PUSH2 0x252C DUP3 DUP3 DUP6 PUSH2 0x246C JUMP JUMPDEST PUSH0 PUSH1 0x20 SWAP1 POP PUSH1 0x1F DUP4 GT PUSH1 0x1 DUP2 EQ PUSH2 0x255D JUMPI PUSH0 DUP5 ISZERO PUSH2 0x254B JUMPI DUP3 DUP8 ADD MLOAD SWAP1 POP JUMPDEST PUSH2 0x2555 DUP6 DUP3 PUSH2 0x24DA JUMP JUMPDEST DUP7 SSTORE POP PUSH2 0x25BC JUMP JUMPDEST PUSH1 0x1F NOT DUP5 AND PUSH2 0x256B DUP7 PUSH2 0x2358 JUMP JUMPDEST PUSH0 JUMPDEST DUP3 DUP2 LT ISZERO PUSH2 0x2592 JUMPI DUP5 DUP10 ADD MLOAD DUP3 SSTORE PUSH1 0x1 DUP3 ADD SWAP2 POP PUSH1 0x20 DUP6 ADD SWAP5 POP PUSH1 0x20 DUP2 ADD SWAP1 POP PUSH2 0x256D JUMP JUMPDEST DUP7 DUP4 LT ISZERO PUSH2 0x25AF JUMPI DUP5 DUP10 ADD MLOAD PUSH2 0x25AB PUSH1 0x1F DUP10 AND DUP3 PUSH2 0x24BE JUMP JUMPDEST DUP4 SSTORE POP JUMPDEST PUSH1 0x1 PUSH1 0x2 DUP9 MUL ADD DUP9 SSTORE POP POP POP JUMPDEST POP POP POP POP POP POP JUMP JUMPDEST PUSH0 PUSH1 0x40 DUP3 ADD SWAP1 POP PUSH2 0x25D7 PUSH0 DUP4 ADD DUP6 PUSH2 0x184F JUMP JUMPDEST DUP2 DUP2 SUB PUSH1 0x20 DUP4 ADD MSTORE PUSH2 0x25E9 DUP2 DUP5 PUSH2 0x1BFB JUMP JUMPDEST SWAP1 POP SWAP4 SWAP3 POP POP POP JUMP JUMPDEST PUSH32 0x5472616E73616374696F6E20646F6573206E6F74206578697374000000000000 PUSH0 DUP3 ADD MSTORE POP JUMP JUMPDEST PUSH0 PUSH2 0x2626 PUSH1 0x1A DUP4 PUSH2 0x1F26 JUMP JUMPDEST SWAP2 POP PUSH2 0x2631 DUP3 PUSH2 0x25F2 JUMP JUMPDEST PUSH1 0x20 DUP3 ADD SWAP1 POP SWAP2 SWAP1 POP JUMP JUMPDEST PUSH0 PUSH1 0x20 DUP3 ADD SWAP1 POP DUP2 DUP2 SUB PUSH0 DUP4 ADD MSTORE PUSH2 0x2653 DUP2 PUSH2 0x261A JUMP JUMPDEST SWAP1 POP SWAP2 SWAP1 POP JUMP JUMPDEST PUSH32 0x5472616E73616374696F6E20616C726561647920657865637574656400000000 PUSH0 DUP3 ADD MSTORE POP JUMP JUMPDEST PUSH0 PUSH2 0x268E PUSH1 0x1C DUP4 PUSH2 0x1F26 JUMP JUMPDEST SWAP2 POP PUSH2 0x2699 DUP3 PUSH2 0x265A JUMP JUMPDEST PUSH1 0x20 DUP3 ADD SWAP1 POP SWAP2 SWAP1 POP JUMP JUMPDEST PUSH0 PUSH1 0x20 DUP3 ADD SWAP1 POP DUP2 DUP2 SUB PUSH0 DUP4 ADD MSTORE PUSH2 0x26BB DUP2 PUSH2 0x2682 JUMP JUMPDEST SWAP1 POP SWAP2 SWAP1 POP JUMP JUMPDEST PUSH32 0x5472616E73616374696F6E20616C726561647920636F6E6669726D6564000000 PUSH0 DUP3 ADD MSTORE POP JUMP JUMPDEST PUSH0 PUSH2 0x26F6 PUSH1 0x1D DUP4 PUSH2 0x1F26 JUMP JUMPDEST SWAP2 POP PUSH2 0x2701 DUP3 PUSH2 0x26C2 JUMP JUMPDEST PUSH1 0x20 DUP3 ADD SWAP1 POP SWAP2 SWAP1 POP JUMP JUMPDEST PUSH0 PUSH1 0x20 DUP3 ADD SWAP1 POP DUP2 DUP2 SUB PUSH0 DUP4 ADD MSTORE PUSH2 0x2723 DUP2 PUSH2 0x26EA JUMP JUMPDEST SWAP1 POP SWAP2 SWAP1 POP JUMP JUMPDEST PUSH0 DUP2 SWAP1 POP SWAP3 SWAP2 POP POP JUMP JUMPDEST PUSH0 DUP2 SLOAD PUSH2 0x2740 DUP2 PUSH2 0x1EF6 JUMP JUMPDEST PUSH2 0x274A DUP2 DUP7 PUSH2 0x272A JUMP JUMPDEST SWAP5 POP PUSH1 0x1 DUP3 AND PUSH0 DUP2 EQ PUSH2 0x2764 JUMPI PUSH1 0x1 DUP2 EQ PUSH2 0x2779 JUMPI PUSH2 0x27AB JUMP JUMPDEST PUSH1 0xFF NOT DUP4 AND DUP7 MSTORE DUP2 ISZERO ISZERO DUP3 MUL DUP7 ADD SWAP4 POP PUSH2 0x27AB JUMP JUMPDEST PUSH2 0x2782 DUP6 PUSH2 0x2358 JUMP JUMPDEST PUSH0 JUMPDEST DUP4 DUP2 LT ISZERO PUSH2 0x27A3 JUMPI DUP2 SLOAD DUP2 DUP10 ADD MSTORE PUSH1 0x1 DUP3 ADD SWAP2 POP PUSH1 0x20 DUP2 ADD SWAP1 POP PUSH2 0x2784 JUMP JUMPDEST DUP4 DUP9 ADD SWAP6 POP POP POP JUMPDEST POP POP POP SWAP3 SWAP2 POP POP JUMP JUMPDEST PUSH0 PUSH2 0x27BF DUP3 DUP5 PUSH2 0x2734 JUMP JUMPDEST SWAP2 POP DUP2 SWAP1 POP SWAP3 SWAP2 POP POP JUMP JUMPDEST PUSH32 0x5472616E73616374696F6E206661696C65640000000000000000000000000000 PUSH0 DUP3 ADD MSTORE POP JUMP JUMPDEST PUSH0 PUSH2 0x27FE PUSH1 0x12 DUP4 PUSH2 0x1F26 JUMP JUMPDEST SWAP2 POP PUSH2 0x2809 DUP3 PUSH2 0x27CA JUMP JUMPDEST PUSH1 0x20 DUP3 ADD SWAP1 POP SWAP2 SWAP1 POP JUMP JUMPDEST PUSH0 PUSH1 0x20 DUP3 ADD SWAP1 POP DUP2 DUP2 SUB PUSH0 DUP4 ADD MSTORE PUSH2 0x282B DUP2 PUSH2 0x27F2 JUMP JUMPDEST SWAP1 POP SWAP2 SWAP1 POP JUMP INVALID LOG2 PUSH5 0x6970667358 0x22 SLT KECCAK256 0x29 0xE8 SDIV SELFDESTRUCT DUP14 0xB1 TSTORE 0xFB ADD PUSH12 0x31829F571A5FD0E62B85C2A9 PUSH31 0xFB4F3298FA20FAC96864736F6C634300081A00330000000000000000000000 "
				},
				"gasEstimates": {
					"creation": {
						"codeDepositCost": "2068800",
						"executionCost": "infinite",
						"totalCost": "infinite"
					},
					"external": {
						"confirmOwnerChangeRequest(uint256)": "infinite",
						"confirmTransaction(uint256)": "infinite",
						"confirmations(uint256,address)": "3094",
						"createOwnerChangeRequest(address,bool)": "infinite",
						"createTransaction(address,uint256,bytes)": "infinite",
						"getAllTransactions()": "infinite",
						"getBalance()": "380",
						"getTransaction(uint256)": "infinite",
						"isOwner(address)": "2878",
						"ownerChangeConfirmations(uint256,address)": "3093",
						"ownerChangeRequests(uint256)": "infinite",
						"owners(uint256)": "4967",
						"requiredSignatures()": "2492",
						"transactions(uint256)": "infinite"
					}
				},
				"methodIdentifiers": {
					"confirmOwnerChangeRequest(uint256)": "2d3fabd0",
					"confirmTransaction(uint256)": "c01a8c84",
					"confirmations(uint256,address)": "3411c81c",
					"createOwnerChangeRequest(address,bool)": "6e4e91b7",
					"createTransaction(address,uint256,bytes)": "a9496e75",
					"getAllTransactions()": "27506f53",
					"getBalance()": "12065fe0",
					"getTransaction(uint256)": "33ea3dc8",
					"isOwner(address)": "2f54bf6e",
					"ownerChangeConfirmations(uint256,address)": "9a1645f7",
					"ownerChangeRequests(uint256)": "33259df1",
					"owners(uint256)": "025e7c27",
					"requiredSignatures()": "8d068043",
					"transactions(uint256)": "9ace38c2"
				}
			},
			"storageLayout": {
				"storage": [
					{
						"astId": 4,
						"contract": "contracts/MultisigWallet.sol:MultisigWallet",
						"label": "owners",
						"offset": 0,
						"slot": "0",
						"type": "t_array(t_address)dyn_storage"
					},
					{
						"astId": 8,
						"contract": "contracts/MultisigWallet.sol:MultisigWallet",
						"label": "isOwner",
						"offset": 0,
						"slot": "1",
						"type": "t_mapping(t_address,t_bool)"
					},
					{
						"astId": 10,
						"contract": "contracts/MultisigWallet.sol:MultisigWallet",
						"label": "requiredSignatures",
						"offset": 0,
						"slot": "2",
						"type": "t_uint256"
					},
					{
						"astId": 25,
						"contract": "contracts/MultisigWallet.sol:MultisigWallet",
						"label": "transactions",
						"offset": 0,
						"slot": "3",
						"type": "t_array(t_struct(Transaction)21_storage)dyn_storage"
					},
					{
						"astId": 31,
						"contract": "contracts/MultisigWallet.sol:MultisigWallet",
						"label": "confirmations",
						"offset": 0,
						"slot": "4",
						"type": "t_mapping(t_uint256,t_mapping(t_address,t_bool))"
					},
					{
						"astId": 44,
						"contract": "contracts/MultisigWallet.sol:MultisigWallet",
						"label": "ownerChangeRequests",
						"offset": 0,
						"slot": "5",
						"type": "t_array(t_struct(OwnerChangeRequest)40_storage)dyn_storage"
					},
					{
						"astId": 50,
						"contract": "contracts/MultisigWallet.sol:MultisigWallet",
						"label": "ownerChangeConfirmations",
						"offset": 0,
						"slot": "6",
						"type": "t_mapping(t_uint256,t_mapping(t_address,t_bool))"
					}
				],
				"types": {
					"t_address": {
						"encoding": "inplace",
						"label": "address",
						"numberOfBytes": "20"
					},
					"t_array(t_address)dyn_storage": {
						"base": "t_address",
						"encoding": "dynamic_array",
						"label": "address[]",
						"numberOfBytes": "32"
					},
					"t_array(t_struct(OwnerChangeRequest)40_storage)dyn_storage": {
						"base": "t_struct(OwnerChangeRequest)40_storage",
						"encoding": "dynamic_array",
						"label": "struct MultisigWallet.OwnerChangeRequest[]",
						"numberOfBytes": "32"
					},
					"t_array(t_struct(Transaction)21_storage)dyn_storage": {
						"base": "t_struct(Transaction)21_storage",
						"encoding": "dynamic_array",
						"label": "struct MultisigWallet.Transaction[]",
						"numberOfBytes": "32"
					},
					"t_bool": {
						"encoding": "inplace",
						"label": "bool",
						"numberOfBytes": "1"
					},
					"t_bytes_storage": {
						"encoding": "bytes",
						"label": "bytes",
						"numberOfBytes": "32"
					},
					"t_mapping(t_address,t_bool)": {
						"encoding": "mapping",
						"key": "t_address",
						"label": "mapping(address => bool)",
						"numberOfBytes": "32",
						"value": "t_bool"
					},
					"t_mapping(t_uint256,t_mapping(t_address,t_bool))": {
						"encoding": "mapping",
						"key": "t_uint256",
						"label": "mapping(uint256 => mapping(address => bool))",
						"numberOfBytes": "32",
						"value": "t_mapping(t_address,t_bool)"
					},
					"t_struct(OwnerChangeRequest)40_storage": {
						"encoding": "inplace",
						"label": "struct MultisigWallet.OwnerChangeRequest",
						"members": [
							{
								"astId": 33,
								"contract": "contracts/MultisigWallet.sol:MultisigWallet",
								"label": "owner",
								"offset": 0,
								"slot": "0",
								"type": "t_address"
							},
							{
								"astId": 35,
								"contract": "contracts/MultisigWallet.sol:MultisigWallet",
								"label": "isAdding",
								"offset": 20,
								"slot": "0",
								"type": "t_bool"
							},
							{
								"astId": 37,
								"contract": "contracts/MultisigWallet.sol:MultisigWallet",
								"label": "confirmations",
								"offset": 0,
								"slot": "1",
								"type": "t_uint256"
							},
							{
								"astId": 39,
								"contract": "contracts/MultisigWallet.sol:MultisigWallet",
								"label": "executed",
								"offset": 0,
								"slot": "2",
								"type": "t_bool"
							}
						],
						"numberOfBytes": "96"
					},
					"t_struct(Transaction)21_storage": {
						"encoding": "inplace",
						"label": "struct MultisigWallet.Transaction",
						"members": [
							{
								"astId": 12,
								"contract": "contracts/MultisigWallet.sol:MultisigWallet",
								"label": "to",
								"offset": 0,
								"slot": "0",
								"type": "t_address"
							},
							{
								"astId": 14,
								"contract": "contracts/MultisigWallet.sol:MultisigWallet",
								"label": "value",
								"offset": 0,
								"slot": "1",
								"type": "t_uint256"
							},
							{
								"astId": 16,
								"contract": "contracts/MultisigWallet.sol:MultisigWallet",
								"label": "data",
								"offset": 0,
								"slot": "2",
								"type": "t_bytes_storage"
							},
							{
								"astId": 18,
								"contract": "contracts/MultisigWallet.sol:MultisigWallet",
								"label": "executed",
								"offset": 0,
								"slot": "3",
								"type": "t_bool"
							},
							{
								"astId": 20,
								"contract": "contracts/MultisigWallet.sol:MultisigWallet",
								"label": "confirmations",
								"offset": 0,
								"slot": "4",
								"type": "t_uint256"
							}
						],
						"numberOfBytes": "160"
					},
					"t_uint256": {
						"encoding": "inplace",
						"label": "uint256",
						"numberOfBytes": "32"
					}
				}
			},
			"userdoc": {
				"kind": "user",
				"methods": {},
				"version": 1
			}
		}
	}
}