{
	"data": {
		"bytecode": {
			"linkReferences": {},
			"object": "608060405234801561000f575f80fd5b50604051612f32380380612f328339818101604052810190610031919061043b565b5f815111610074576040517f08c379a000000000000000000000000000000000000000000000000000000000815260040161006b906104dc565b60405180910390fd5b5f5b8151811015610256575f828281518110610093576100926104fa565b5b602002602001015190505f73ffffffffffffffffffffffffffffffffffffffff168173ffffffffffffffffffffffffffffffffffffffff160361010b576040517f08c379a000000000000000000000000000000000000000000000000000000000815260040161010290610571565b60405180910390fd5b60015f8273ffffffffffffffffffffffffffffffffffffffff1673ffffffffffffffffffffffffffffffffffffffff1681526020019081526020015f205f9054906101000a900460ff1615610195576040517f08c379a000000000000000000000000000000000000000000000000000000000815260040161018c906105d9565b60405180910390fd5b6001805f8373ffffffffffffffffffffffffffffffffffffffff1673ffffffffffffffffffffffffffffffffffffffff1681526020019081526020015f205f6101000a81548160ff0219169083151502179055505f81908060018154018082558091505060019003905f5260205f20015f9091909190916101000a81548173ffffffffffffffffffffffffffffffffffffffff021916908373ffffffffffffffffffffffffffffffffffffffff160217905550508080600101915050610076565b50600160025f8054905061026a919061065a565b610274919061068a565b600281905550506106bd565b5f604051905090565b5f80fd5b5f80fd5b5f80fd5b5f601f19601f8301169050919050565b7f4e487b71000000000000000000000000000000000000000000000000000000005f52604160045260245ffd5b6102db82610295565b810181811067ffffffffffffffff821117156102fa576102f96102a5565b5b80604052505050565b5f61030c610280565b905061031882826102d2565b919050565b5f67ffffffffffffffff821115610337576103366102a5565b5b602082029050602081019050919050565b5f80fd5b5f73ffffffffffffffffffffffffffffffffffffffff82169050919050565b5f6103758261034c565b9050919050565b6103858161036b565b811461038f575f80fd5b50565b5f815190506103a08161037c565b92915050565b5f6103b86103b38461031d565b610303565b905080838252602082019050602084028301858111156103db576103da610348565b5b835b8181101561040457806103f08882610392565b8452602084019350506020810190506103dd565b5050509392505050565b5f82601f83011261042257610421610291565b5b81516104328482602086016103a6565b91505092915050565b5f602082840312156104505761044f610289565b5b5f82015167ffffffffffffffff81111561046d5761046c61028d565b5b6104798482850161040e565b91505092915050565b5f82825260208201905092915050565b7f4f776e65727320726571756972656400000000000000000000000000000000005f82015250565b5f6104c6600f83610482565b91506104d182610492565b602082019050919050565b5f6020820190508181035f8301526104f3816104ba565b9050919050565b7f4e487b71000000000000000000000000000000000000000000000000000000005f52603260045260245ffd5b7f496e76616c6964206f776e6572206164647265737300000000000000000000005f82015250565b5f61055b601583610482565b915061056682610527565b602082019050919050565b5f6020820190508181035f8301526105888161054f565b9050919050565b7f4f776e6572206e6f7420756e69717565000000000000000000000000000000005f82015250565b5f6105c3601083610482565b91506105ce8261058f565b602082019050919050565b5f6020820190508181035f8301526105f0816105b7565b9050919050565b5f819050919050565b7f4e487b71000000000000000000000000000000000000000000000000000000005f52601260045260245ffd5b7f4e487b71000000000000000000000000000000000000000000000000000000005f52601160045260245ffd5b5f610664826105f7565b915061066f836105f7565b92508261067f5761067e610600565b5b828204905092915050565b5f610694826105f7565b915061069f836105f7565b92508282019050808211156106b7576106b661062d565b5b92915050565b612868806106ca5f395ff3fe6080604052600436106100e0575f3560e01c80633411c81c1161007e5780639a1645f7116100585780639a1645f71461033a5780639ace38c214610376578063a9496e75146103b6578063c01a8c84146103de57610135565b80633411c81c146102ac5780636e4e91b7146102e85780638d0680431461031057610135565b80632d3fabd0116100ba5780632d3fabd0146101c95780632f54bf6e146101f157806333259df11461022d57806333ea3dc81461026c57610135565b8063025e7c271461013957806312065fe01461017557806327506f531461019f57610135565b36610135573373ffffffffffffffffffffffffffffffffffffffff167fe1fffcc4923d04b559f4d29a8bfc6cda04eb5b0d3c460751c2402c5c5cc9109c3460405161012b919061185e565b60405180910390a2005b5f80fd5b348015610144575f80fd5b5061015f600480360381019061015a91906118b2565b610406565b60405161016c919061191c565b60405180910390f35b348015610180575f80fd5b50610189610440565b604051610196919061185e565b60405180910390f35b3480156101aa575f80fd5b506101b3610447565b6040516101c09190611b0b565b60405180910390f35b3480156101d4575f80fd5b506101ef60048036038101906101ea91906118b2565b6105b5565b005b3480156101fc575f80fd5b5061021760048036038101906102129190611b55565b610cf1565b6040516102249190611b8f565b60405180910390f35b348015610238575f80fd5b50610253600480360381019061024e91906118b2565b610d0e565b6040516102639493929190611ba8565b60405180910390f35b348015610277575f80fd5b50610292600480360381019061028d91906118b2565b610d80565b6040516102a3959493929190611c33565b60405180910390f35b3480156102b7575f80fd5b506102d260048036038101906102cd9190611c8b565b610e89565b6040516102df9190611b8f565b60405180910390f35b3480156102f3575f80fd5b5061030e60048036038101906103099190611cf3565b610eb3565b005b34801561031b575f80fd5b5061032461118e565b604051610331919061185e565b60405180910390f35b348015610345575f80fd5b50610360600480360381019061035b9190611c8b565b611194565b60405161036d9190611b8f565b60405180910390f35b348015610381575f80fd5b5061039c600480360381019061039791906118b2565b6111be565b6040516103ad959493929190611c33565b60405180910390f35b3480156103c1575f80fd5b506103dc60048036038101906103d79190611e5d565b6112b0565b005b3480156103e9575f80fd5b5061040460048036038101906103ff91906118b2565b611496565b005b5f8181548110610414575f80fd5b905f5260205f20015f915054906101000a900473ffffffffffffffffffffffffffffffffffffffff1681565b5f47905090565b60606003805480602002602001604051908101604052809291908181526020015f905b828210156105ac578382905f5260205f2090600502016040518060a00160405290815f82015f9054906101000a900473ffffffffffffffffffffffffffffffffffffffff1673ffffffffffffffffffffffffffffffffffffffff1673ffffffffffffffffffffffffffffffffffffffff168152602001600182015481526020016002820180546104f990611ef6565b80601f016020809104026020016040519081016040528092919081815260200182805461052590611ef6565b80156105705780601f1061054757610100808354040283529160200191610570565b820191905f5260205f20905b81548152906001019060200180831161055357829003601f168201915b50505050508152602001600382015f9054906101000a900460ff161515151581526020016004820154815250508152602001906001019061046a565b50505050905090565b60015f3373ffffffffffffffffffffffffffffffffffffffff1673ffffffffffffffffffffffffffffffffffffffff1681526020019081526020015f205f9054906101000a900460ff1661063e576040517f08c379a000000000000000000000000000000000000000000000000000000000815260040161063590611f80565b60405180910390fd5b6005805490508110610685576040517f08c379a000000000000000000000000000000000000000000000000000000000815260040161067c90611fe8565b60405180910390fd5b5f6005828154811061069a57610699612006565b5b905f5260205f2090600302019050806002015f9054906101000a900460ff16156106f9576040517f08c379a00000000000000000000000000000000000000000000000000000000081526004016106f09061207d565b60405180910390fd5b60065f8381526020019081526020015f205f3373ffffffffffffffffffffffffffffffffffffffff1673ffffffffffffffffffffffffffffffffffffffff1681526020019081526020015f205f9054906101000a900460ff1615610792576040517f08c379a0000000000000000000000000000000000000000000000000000000008152600401610789906120e5565b60405180910390fd5b600160065f8481526020019081526020015f205f3373ffffffffffffffffffffffffffffffffffffffff1673ffffffffffffffffffffffffffffffffffffffff1681526020019081526020015f205f6101000a81548160ff0219169083151502179055506001816001015f82825461080a9190612130565b925050819055503373ffffffffffffffffffffffffffffffffffffffff16827f4e6b2f9f89753bbf282a9339c429ec93e3eda4fb3df050ac65448100fa72f9f260405160405180910390a3600254816001015410610ced576001816002015f6101000a81548160ff021916908315150217905550805f0160149054906101000a900460ff1615610990575f815f015f9054906101000a900473ffffffffffffffffffffffffffffffffffffffff16908060018154018082558091505060019003905f5260205f20015f9091909190916101000a81548173ffffffffffffffffffffffffffffffffffffffff021916908373ffffffffffffffffffffffffffffffffffffffff1602179055506001805f835f015f9054906101000a900473ffffffffffffffffffffffffffffffffffffffff1673ffffffffffffffffffffffffffffffffffffffff1673ffffffffffffffffffffffffffffffffffffffff1681526020019081526020015f205f6101000a81548160ff021916908315150217905550610c48565b60015f825f015f9054906101000a900473ffffffffffffffffffffffffffffffffffffffff1673ffffffffffffffffffffffffffffffffffffffff1673ffffffffffffffffffffffffffffffffffffffff1681526020019081526020015f205f9054906101000a900460ff16610a3b576040517f08c379a0000000000000000000000000000000000000000000000000000000008152600401610a32906121ad565b60405180910390fd5b5f60015f835f015f9054906101000a900473ffffffffffffffffffffffffffffffffffffffff1673ffffffffffffffffffffffffffffffffffffffff1673ffffffffffffffffffffffffffffffffffffffff1681526020019081526020015f205f6101000a81548160ff0219169083151502179055505f5b5f80549050811015610c4657815f015f9054906101000a900473ffffffffffffffffffffffffffffffffffffffff1673ffffffffffffffffffffffffffffffffffffffff165f8281548110610b0b57610b0a612006565b5b905f5260205f20015f9054906101000a900473ffffffffffffffffffffffffffffffffffffffff1673ffffffffffffffffffffffffffffffffffffffff1603610c39575f60015f80549050610b6091906121cb565b81548110610b7157610b70612006565b5b905f5260205f20015f9054906101000a900473ffffffffffffffffffffffffffffffffffffffff165f8281548110610bac57610bab612006565b5b905f5260205f20015f6101000a81548173ffffffffffffffffffffffffffffffffffffffff021916908373ffffffffffffffffffffffffffffffffffffffff1602179055505f805480610c0257610c016121fe565b5b600190038181905f5260205f20015f6101000a81549073ffffffffffffffffffffffffffffffffffffffff02191690559055610c46565b8080600101915050610ab3565b505b600160025f80549050610c5b9190612258565b610c659190612130565b600281905550805f015f9054906101000a900473ffffffffffffffffffffffffffffffffffffffff1673ffffffffffffffffffffffffffffffffffffffff16827f89dd07c152fcf1761facddb0608fc4c57a27b9e8e4677e682e80bf549bd5375f835f0160149054906101000a900460ff16604051610ce49190611b8f565b60405180910390a35b5050565b6001602052805f5260405f205f915054906101000a900460ff1681565b60058181548110610d1d575f80fd5b905f5260205f2090600302015f91509050805f015f9054906101000a900473ffffffffffffffffffffffffffffffffffffffff1690805f0160149054906101000a900460ff1690806001015490806002015f9054906101000a900460ff16905084565b5f8060605f805f60038781548110610d9b57610d9a612006565b5b905f5260205f2090600502019050805f015f9054906101000a900473ffffffffffffffffffffffffffffffffffffffff16816001015482600201836003015f9054906101000a900460ff168460040154828054610df790611ef6565b80601f0160208091040260200160405190810160405280929190818152602001828054610e2390611ef6565b8015610e6e5780601f10610e4557610100808354040283529160200191610e6e565b820191905f5260205f20905b815481529060010190602001808311610e5157829003601f168201915b50505050509250955095509550955095505091939590929450565b6004602052815f5260405f20602052805f5260405f205f915091509054906101000a900460ff1681565b60015f3373ffffffffffffffffffffffffffffffffffffffff1673ffffffffffffffffffffffffffffffffffffffff1681526020019081526020015f205f9054906101000a900460ff16610f3c576040517f08c379a0000000000000000000000000000000000000000000000000000000008152600401610f3390611f80565b60405180910390fd5b5f73ffffffffffffffffffffffffffffffffffffffff168273ffffffffffffffffffffffffffffffffffffffff1603610faa576040517f08c379a0000000000000000000000000000000000000000000000000000000008152600401610fa1906122d2565b60405180910390fd5b80151560015f8473ffffffffffffffffffffffffffffffffffffffff1673ffffffffffffffffffffffffffffffffffffffff1681526020019081526020015f205f9054906101000a900460ff16151503611039576040517f08c379a00000000000000000000000000000000000000000000000000000000081526004016110309061233a565b60405180910390fd5b600560405180608001604052808473ffffffffffffffffffffffffffffffffffffffff16815260200183151581526020015f81526020015f1515815250908060018154018082558091505060019003905f5260205f2090600302015f909190919091505f820151815f015f6101000a81548173ffffffffffffffffffffffffffffffffffffffff021916908373ffffffffffffffffffffffffffffffffffffffff1602179055506020820151815f0160146101000a81548160ff021916908315150217905550604082015181600101556060820151816002015f6101000a81548160ff02191690831515021790555050508173ffffffffffffffffffffffffffffffffffffffff16600160058054905061115391906121cb565b7f2b4ba558ce06f8a12392a1517213de0a24d8fdb07a6c8a66c23d16321a328bde836040516111829190611b8f565b60405180910390a35050565b60025481565b6006602052815f5260405f20602052805f5260405f205f915091509054906101000a900460ff1681565b600381815481106111cd575f80fd5b905f5260205f2090600502015f91509050805f015f9054906101000a900473ffffffffffffffffffffffffffffffffffffffff169080600101549080600201805461121790611ef6565b80601f016020809104026020016040519081016040528092919081815260200182805461124390611ef6565b801561128e5780601f106112655761010080835404028352916020019161128e565b820191905f5260205f20905b81548152906001019060200180831161127157829003601f168201915b505050505090806003015f9054906101000a900460ff16908060040154905085565b60015f3373ffffffffffffffffffffffffffffffffffffffff1673ffffffffffffffffffffffffffffffffffffffff1681526020019081526020015f205f9054906101000a900460ff16611339576040517f08c379a000000000000000000000000000000000000000000000000000000000815260040161133090611f80565b60405180910390fd5b60036040518060a001604052808573ffffffffffffffffffffffffffffffffffffffff1681526020018481526020018381526020015f151581526020015f815250908060018154018082558091505060019003905f5260205f2090600502015f909190919091505f820151815f015f6101000a81548173ffffffffffffffffffffffffffffffffffffffff021916908373ffffffffffffffffffffffffffffffffffffffff16021790555060208201518160010155604082015181600201908161140391906124f5565b506060820151816003015f6101000a81548160ff0219169083151502179055506080820151816004015550508273ffffffffffffffffffffffffffffffffffffffff16600160038054905061145891906121cb565b7f453e07a951b5abb44cc647534a150065e3a308fec0dc01fda6ca43a4984f835b84846040516114899291906125c4565b60405180910390a3505050565b60015f3373ffffffffffffffffffffffffffffffffffffffff1673ffffffffffffffffffffffffffffffffffffffff1681526020019081526020015f205f9054906101000a900460ff1661151f576040517f08c379a000000000000000000000000000000000000000000000000000000000815260040161151690611f80565b60405180910390fd5b806003805490508110611567576040517f08c379a000000000000000000000000000000000000000000000000000000000815260040161155e9061263c565b60405180910390fd5b816003818154811061157c5761157b612006565b5b905f5260205f2090600502016003015f9054906101000a900460ff16156115d8576040517f08c379a00000000000000000000000000000000000000000000000000000000081526004016115cf906126a4565b60405180910390fd5b8260045f8281526020019081526020015f205f3373ffffffffffffffffffffffffffffffffffffffff1673ffffffffffffffffffffffffffffffffffffffff1681526020019081526020015f205f9054906101000a900460ff1615611672576040517f08c379a00000000000000000000000000000000000000000000000000000000081526004016116699061270c565b60405180910390fd5b5f6003858154811061168757611686612006565b5b905f5260205f2090600502019050600160045f8781526020019081526020015f205f3373ffffffffffffffffffffffffffffffffffffffff1673ffffffffffffffffffffffffffffffffffffffff1681526020019081526020015f205f6101000a81548160ff0219169083151502179055506001816004015f82825461170d9190612130565b9250508190555060025481600401541061183f576001816003015f6101000a81548160ff0219169083151502179055505f815f015f9054906101000a900473ffffffffffffffffffffffffffffffffffffffff1673ffffffffffffffffffffffffffffffffffffffff1682600101548360020160405161178d91906127b4565b5f6040518083038185875af1925050503d805f81146117c7576040519150601f19603f3d011682016040523d82523d5f602084013e6117cc565b606091505b5050905080611810576040517f08c379a000000000000000000000000000000000000000000000000000000000815260040161180790612814565b60405180910390fd5b857f15ed165a284872ea7017f03df402a0cadfbfab588320ffaf83f160c2f82781c760405160405180910390a2505b5050505050565b5f819050919050565b61185881611846565b82525050565b5f6020820190506118715f83018461184f565b92915050565b5f604051905090565b5f80fd5b5f80fd5b61189181611846565b811461189b575f80fd5b50565b5f813590506118ac81611888565b92915050565b5f602082840312156118c7576118c6611880565b5b5f6118d48482850161189e565b91505092915050565b5f73ffffffffffffffffffffffffffffffffffffffff82169050919050565b5f611906826118dd565b9050919050565b611916816118fc565b82525050565b5f60208201905061192f5f83018461190d565b92915050565b5f81519050919050565b5f82825260208201905092915050565b5f819050602082019050919050565b611967816118fc565b82525050565b61197681611846565b82525050565b5f81519050919050565b5f82825260208201905092915050565b8281835e5f83830152505050565b5f601f19601f8301169050919050565b5f6119be8261197c565b6119c88185611986565b93506119d8818560208601611996565b6119e1816119a4565b840191505092915050565b5f8115159050919050565b611a00816119ec565b82525050565b5f60a083015f830151611a1b5f86018261195e565b506020830151611a2e602086018261196d565b5060408301518482036040860152611a4682826119b4565b9150506060830151611a5b60608601826119f7565b506080830151611a6e608086018261196d565b508091505092915050565b5f611a848383611a06565b905092915050565b5f602082019050919050565b5f611aa282611935565b611aac818561193f565b935083602082028501611abe8561194f565b805f5b85811015611af95784840389528151611ada8582611a79565b9450611ae583611a8c565b925060208a01995050600181019050611ac1565b50829750879550505050505092915050565b5f6020820190508181035f830152611b238184611a98565b905092915050565b611b34816118fc565b8114611b3e575f80fd5b50565b5f81359050611b4f81611b2b565b92915050565b5f60208284031215611b6a57611b69611880565b5b5f611b7784828501611b41565b91505092915050565b611b89816119ec565b82525050565b5f602082019050611ba25f830184611b80565b92915050565b5f608082019050611bbb5f83018761190d565b611bc86020830186611b80565b611bd5604083018561184f565b611be26060830184611b80565b95945050505050565b5f82825260208201905092915050565b5f611c058261197c565b611c0f8185611beb565b9350611c1f818560208601611996565b611c28816119a4565b840191505092915050565b5f60a082019050611c465f83018861190d565b611c53602083018761184f565b8181036040830152611c658186611bfb565b9050611c746060830185611b80565b611c81608083018461184f565b9695505050505050565b5f8060408385031215611ca157611ca0611880565b5b5f611cae8582860161189e565b9250506020611cbf85828601611b41565b9150509250929050565b611cd2816119ec565b8114611cdc575f80fd5b50565b5f81359050611ced81611cc9565b92915050565b5f8060408385031215611d0957611d08611880565b5b5f611d1685828601611b41565b9250506020611d2785828601611cdf565b9150509250929050565b5f80fd5b5f80fd5b7f4e487b71000000000000000000000000000000000000000000000000000000005f52604160045260245ffd5b611d6f826119a4565b810181811067ffffffffffffffff82111715611d8e57611d8d611d39565b5b80604052505050565b5f611da0611877565b9050611dac8282611d66565b919050565b5f67ffffffffffffffff821115611dcb57611dca611d39565b5b611dd4826119a4565b9050602081019050919050565b828183375f83830152505050565b5f611e01611dfc84611db1565b611d97565b905082815260208101848484011115611e1d57611e1c611d35565b5b611e28848285611de1565b509392505050565b5f82601f830112611e4457611e43611d31565b5b8135611e54848260208601611def565b91505092915050565b5f805f60608486031215611e7457611e73611880565b5b5f611e8186828701611b41565b9350506020611e928682870161189e565b925050604084013567ffffffffffffffff811115611eb357611eb2611884565b5b611ebf86828701611e30565b9150509250925092565b7f4e487b71000000000000000000000000000000000000000000000000000000005f52602260045260245ffd5b5f6002820490506001821680611f0d57607f821691505b602082108103611f2057611f1f611ec9565b5b50919050565b5f82825260208201905092915050565b7f4e6f7420616e206f776e657200000000000000000000000000000000000000005f82015250565b5f611f6a600c83611f26565b9150611f7582611f36565b602082019050919050565b5f6020820190508181035f830152611f9781611f5e565b9050919050565b7f5265717565737420646f6573206e6f74206578697374000000000000000000005f82015250565b5f611fd2601683611f26565b9150611fdd82611f9e565b602082019050919050565b5f6020820190508181035f830152611fff81611fc6565b9050919050565b7f4e487b71000000000000000000000000000000000000000000000000000000005f52603260045260245ffd5b7f5265717565737420616c726561647920657865637574656400000000000000005f82015250565b5f612067601883611f26565b915061207282612033565b602082019050919050565b5f6020820190508181035f8301526120948161205b565b9050919050565b7f5265717565737420616c726561647920636f6e6669726d6564000000000000005f82015250565b5f6120cf601983611f26565b91506120da8261209b565b602082019050919050565b5f6020820190508181035f8301526120fc816120c3565b9050919050565b7f4e487b71000000000000000000000000000000000000000000000000000000005f52601160045260245ffd5b5f61213a82611846565b915061214583611846565b925082820190508082111561215d5761215c612103565b5b92915050565b7f4f776e657220646f6573206e6f742065786973740000000000000000000000005f82015250565b5f612197601483611f26565b91506121a282612163565b602082019050919050565b5f6020820190508181035f8301526121c48161218b565b9050919050565b5f6121d582611846565b91506121e083611846565b92508282039050818111156121f8576121f7612103565b5b92915050565b7f4e487b71000000000000000000000000000000000000000000000000000000005f52603160045260245ffd5b7f4e487b71000000000000000000000000000000000000000000000000000000005f52601260045260245ffd5b5f61226282611846565b915061226d83611846565b92508261227d5761227c61222b565b5b828204905092915050565b7f496e76616c6964206f776e6572206164647265737300000000000000000000005f82015250565b5f6122bc601583611f26565b91506122c782612288565b602082019050919050565b5f6020820190508181035f8301526122e9816122b0565b9050919050565b7f526564756e64616e7420726571756573740000000000000000000000000000005f82015250565b5f612324601183611f26565b915061232f826122f0565b602082019050919050565b5f6020820190508181035f83015261235181612318565b9050919050565b5f819050815f5260205f209050919050565b5f6020601f8301049050919050565b5f82821b905092915050565b5f600883026123b47fffffffffffffffffffffffffffffffffffffffffffffffffffffffffffffffff82612379565b6123be8683612379565b95508019841693508086168417925050509392505050565b5f819050919050565b5f6123f96123f46123ef84611846565b6123d6565b611846565b9050919050565b5f819050919050565b612412836123df565b61242661241e82612400565b848454612385565b825550505050565b5f90565b61243a61242e565b612445818484612409565b505050565b5b818110156124685761245d5f82612432565b60018101905061244b565b5050565b601f8211156124ad5761247e81612358565b6124878461236a565b81016020851015612496578190505b6124aa6124a28561236a565b83018261244a565b50505b505050565b5f82821c905092915050565b5f6124cd5f19846008026124b2565b1980831691505092915050565b5f6124e583836124be565b9150826002028217905092915050565b6124fe8261197c565b67ffffffffffffffff81111561251757612516611d39565b5b6125218254611ef6565b61252c82828561246c565b5f60209050601f83116001811461255d575f841561254b578287015190505b61255585826124da565b8655506125bc565b601f19841661256b86612358565b5f5b828110156125925784890151825560018201915060208501945060208101905061256d565b868310156125af57848901516125ab601f8916826124be565b8355505b6001600288020188555050505b505050505050565b5f6040820190506125d75f83018561184f565b81810360208301526125e98184611bfb565b90509392505050565b7f5472616e73616374696f6e20646f6573206e6f742065786973740000000000005f82015250565b5f612626601a83611f26565b9150612631826125f2565b602082019050919050565b5f6020820190508181035f8301526126538161261a565b9050919050565b7f5472616e73616374696f6e20616c7265616479206578656375746564000000005f82015250565b5f61268e601c83611f26565b91506126998261265a565b602082019050919050565b5f6020820190508181035f8301526126bb81612682565b9050919050565b7f5472616e73616374696f6e20616c726561647920636f6e6669726d65640000005f82015250565b5f6126f6601d83611f26565b9150612701826126c2565b602082019050919050565b5f6020820190508181035f830152612723816126ea565b9050919050565b5f81905092915050565b5f815461274081611ef6565b61274a818661272a565b9450600182165f81146127645760018114612779576127ab565b60ff19831686528115158202860193506127ab565b61278285612358565b5f5b838110156127a357815481890152600182019150602081019050612784565b838801955050505b50505092915050565b5f6127bf8284612734565b915081905092915050565b7f5472616e73616374696f6e206661696c656400000000000000000000000000005f82015250565b5f6127fe601283611f26565b9150612809826127ca565b602082019050919050565b5f6020820190508181035f83015261282b816127f2565b905091905056fea264697066735822122029e805ff8db15dfb016b31829f571a5fd0e62b85c2a97efb4f3298fa20fac96864736f6c634300081a0033",
			"opcodes": "PUSH1 0x80 PUSH1 0x40 MSTORE CALLVALUE DUP1 ISZERO PUSH2 0xF JUMPI PUSH0 DUP1 REVERT JUMPDEST POP PUSH1 0x40 MLOAD PUSH2 0x2F32 CODESIZE SUB DUP1 PUSH2 0x2F32 DUP4 CODECOPY DUP2 DUP2 ADD PUSH1 0x40 MSTORE DUP2 ADD SWAP1 PUSH2 0x31 SWAP2 SWAP1 PUSH2 0x43B JUMP JUMPDEST PUSH0 DUP2 MLOAD GT PUSH2 0x74 JUMPI PUSH1 0x40 MLOAD PUSH32 0x8C379A000000000000000000000000000000000000000000000000000000000 DUP2 MSTORE PUSH1 0x4 ADD PUSH2 0x6B SWAP1 PUSH2 0x4DC JUMP JUMPDEST PUSH1 0x40 MLOAD DUP1 SWAP2 SUB SWAP1 REVERT JUMPDEST PUSH0 JUMPDEST DUP2 MLOAD DUP2 LT ISZERO PUSH2 0x256 JUMPI PUSH0 DUP3 DUP3 DUP2 MLOAD DUP2 LT PUSH2 0x93 JUMPI PUSH2 0x92 PUSH2 0x4FA JUMP JUMPDEST JUMPDEST PUSH1 0x20 MUL PUSH1 0x20 ADD ADD MLOAD SWAP1 POP PUSH0 PUSH20 0xFFFFFFFFFFFFFFFFFFFFFFFFFFFFFFFFFFFFFFFF AND DUP2 PUSH20 0xFFFFFFFFFFFFFFFFFFFFFFFFFFFFFFFFFFFFFFFF AND SUB PUSH2 0x10B JUMPI PUSH1 0x40 MLOAD PUSH32 0x8C379A000000000000000000000000000000000000000000000000000000000 DUP2 MSTORE PUSH1 0x4 ADD PUSH2 0x102 SWAP1 PUSH2 0x571 JUMP JUMPDEST PUSH1 0x40 MLOAD DUP1 SWAP2 SUB SWAP1 REVERT JUMPDEST PUSH1 0x1 PUSH0 DUP3 PUSH20 0xFFFFFFFFFFFFFFFFFFFFFFFFFFFFFFFFFFFFFFFF AND PUSH20 0xFFFFFFFFFFFFFFFFFFFFFFFFFFFFFFFFFFFFFFFF AND DUP2 MSTORE PUSH1 0x20 ADD SWAP1 DUP2 MSTORE PUSH1 0x20 ADD PUSH0 KECCAK256 PUSH0 SWAP1 SLOAD SWAP1 PUSH2 0x100 EXP SWAP1 DIV PUSH1 0xFF AND ISZERO PUSH2 0x195 JUMPI PUSH1 0x40 MLOAD PUSH32 0x8C379A000000000000000000000000000000000000000000000000000000000 DUP2 MSTORE PUSH1 0x4 ADD PUSH2 0x18C SWAP1 PUSH2 0x5D9 JUMP JUMPDEST PUSH1 0x40 MLOAD DUP1 SWAP2 SUB SWAP1 REVERT JUMPDEST PUSH1 0x1 DUP1 PUSH0 DUP4 PUSH20 0xFFFFFFFFFFFFFFFFFFFFFFFFFFFFFFFFFFFFFFFF AND PUSH20 0xFFFFFFFFFFFFFFFFFFFFFFFFFFFFFFFFFFFFFFFF AND DUP2 MSTORE PUSH1 0x20 ADD SWAP1 DUP2 MSTORE PUSH1 0x20 ADD PUSH0 KECCAK256 PUSH0 PUSH2 0x100 EXP DUP2 SLOAD DUP2 PUSH1 0xFF MUL NOT AND SWAP1 DUP4 ISZERO ISZERO MUL OR SWAP1 SSTORE POP PUSH0 DUP2 SWAP1 DUP1 PUSH1 0x1 DUP2 SLOAD ADD DUP1 DUP3 SSTORE DUP1 SWAP2 POP POP PUSH1 0x1 SWAP1 SUB SWAP1 PUSH0 MSTORE PUSH1 0x20 PUSH0 KECCAK256 ADD PUSH0 SWAP1 SWAP2 SWAP1 SWAP2 SWAP1 SWAP2 PUSH2 0x100 EXP DUP2 SLOAD DUP2 PUSH20 0xFFFFFFFFFFFFFFFFFFFFFFFFFFFFFFFFFFFFFFFF MUL NOT AND SWAP1 DUP4 PUSH20 0xFFFFFFFFFFFFFFFFFFFFFFFFFFFFFFFFFFFFFFFF AND MUL OR SWAP1 SSTORE POP POP DUP1 DUP1 PUSH1 0x1 ADD SWAP2 POP POP PUSH2 0x76 JUMP JUMPDEST POP PUSH1 0x1 PUSH1 0x2 PUSH0 DUP1 SLOAD SWAP1 POP PUSH2 0x26A SWAP2 SWAP1 PUSH2 0x65A JUMP JUMPDEST PUSH2 0x274 SWAP2 SWAP1 PUSH2 0x68A JUMP JUMPDEST PUSH1 0x2 DUP2 SWAP1 SSTORE POP POP PUSH2 0x6BD JUMP JUMPDEST PUSH0 PUSH1 0x40 MLOAD SWAP1 POP SWAP1 JUMP JUMPDEST PUSH0 DUP1 REVERT JUMPDEST PUSH0 DUP1 REVERT JUMPDEST PUSH0 DUP1 REVERT JUMPDEST PUSH0 PUSH1 0x1F NOT PUSH1 0x1F DUP4 ADD AND SWAP1 POP SWAP2 SWAP1 POP JUMP JUMPDEST PUSH32 0x4E487B7100000000000000000000000000000000000000000000000000000000 PUSH0 MSTORE PUSH1 0x41 PUSH1 0x4 MSTORE PUSH1 0x24 PUSH0 REVERT JUMPDEST PUSH2 0x2DB DUP3 PUSH2 0x295 JUMP JUMPDEST DUP2 ADD DUP2 DUP2 LT PUSH8 0xFFFFFFFFFFFFFFFF DUP3 GT OR ISZERO PUSH2 0x2FA JUMPI PUSH2 0x2F9 PUSH2 0x2A5 JUMP JUMPDEST JUMPDEST DUP1 PUSH1 0x40 MSTORE POP POP POP JUMP JUMPDEST PUSH0 PUSH2 0x30C PUSH2 0x280 JUMP JUMPDEST SWAP1 POP PUSH2 0x318 DUP3 DUP3 PUSH2 0x2D2 JUMP JUMPDEST SWAP2 SWAP1 POP JUMP JUMPDEST PUSH0 PUSH8 0xFFFFFFFFFFFFFFFF DUP3 GT ISZERO PUSH2 0x337 JUMPI PUSH2 0x336 PUSH2 0x2A5 JUMP JUMPDEST JUMPDEST PUSH1 0x20 DUP3 MUL SWAP1 POP PUSH1 0x20 DUP2 ADD SWAP1 POP SWAP2 SWAP1 POP JUMP JUMPDEST PUSH0 DUP1 REVERT JUMPDEST PUSH0 PUSH20 0xFFFFFFFFFFFFFFFFFFFFFFFFFFFFFFFFFFFFFFFF DUP3 AND SWAP1 POP SWAP2 SWAP1 POP JUMP JUMPDEST PUSH0 PUSH2 0x375 DUP3 PUSH2 0x34C JUMP JUMPDEST SWAP1 POP SWAP2 SWAP1 POP JUMP JUMPDEST PUSH2 0x385 DUP2 PUSH2 0x36B JUMP JUMPDEST DUP2 EQ PUSH2 0x38F JUMPI PUSH0 DUP1 REVERT JUMPDEST POP JUMP JUMPDEST PUSH0 DUP2 MLOAD SWAP1 POP PUSH2 0x3A0 DUP2 PUSH2 0x37C JUMP JUMPDEST SWAP3 SWAP2 POP POP JUMP JUMPDEST PUSH0 PUSH2 0x3B8 PUSH2 0x3B3 DUP5 PUSH2 0x31D JUMP JUMPDEST PUSH2 0x303 JUMP JUMPDEST SWAP1 POP DUP1 DUP4 DUP3 MSTORE PUSH1 0x20 DUP3 ADD SWAP1 POP PUSH1 0x20 DUP5 MUL DUP4 ADD DUP6 DUP2 GT ISZERO PUSH2 0x3DB JUMPI PUSH2 0x3DA PUSH2 0x348 JUMP JUMPDEST JUMPDEST DUP4 JUMPDEST DUP2 DUP2 LT ISZERO PUSH2 0x404 JUMPI DUP1 PUSH2 0x3F0 DUP9 DUP3 PUSH2 0x392 JUMP JUMPDEST DUP5 MSTORE PUSH1 0x20 DUP5 ADD SWAP4 POP POP PUSH1 0x20 DUP2 ADD SWAP1 POP PUSH2 0x3DD JUMP JUMPDEST POP POP POP SWAP4 SWAP3 POP POP POP JUMP JUMPDEST PUSH0 DUP3 PUSH1 0x1F DUP4 ADD SLT PUSH2 0x422 JUMPI PUSH2 0x421 PUSH2 0x291 JUMP JUMPDEST JUMPDEST DUP2 MLOAD PUSH2 0x432 DUP5 DUP3 PUSH1 0x20 DUP7 ADD PUSH2 0x3A6 JUMP JUMPDEST SWAP2 POP POP SWAP3 SWAP2 POP POP JUMP JUMPDEST PUSH0 PUSH1 0x20 DUP3 DUP5 SUB SLT ISZERO PUSH2 0x450 JUMPI PUSH2 0x44F PUSH2 0x289 JUMP JUMPDEST JUMPDEST PUSH0 DUP3 ADD MLOAD PUSH8 0xFFFFFFFFFFFFFFFF DUP2 GT ISZERO PUSH2 0x46D JUMPI PUSH2 0x46C PUSH2 0x28D JUMP JUMPDEST JUMPDEST PUSH2 0x479 DUP5 DUP3 DUP6 ADD PUSH2 0x40E JUMP JUMPDEST SWAP2 POP POP SWAP3 SWAP2 POP POP JUMP JUMPDEST PUSH0 DUP3 DUP3 MSTORE PUSH1 0x20 DUP3 ADD SWAP1 POP SWAP3 SWAP2 POP POP JUMP JUMPDEST PUSH32 0x4F776E6572732072657175697265640000000000000000000000000000000000 PUSH0 DUP3 ADD MSTORE POP JUMP JUMPDEST PUSH0 PUSH2 0x4C6 PUSH1 0xF DUP4 PUSH2 0x482 JUMP JUMPDEST SWAP2 POP PUSH2 0x4D1 DUP3 PUSH2 0x492 JUMP JUMPDEST PUSH1 0x20 DUP3 ADD SWAP1 POP SWAP2 SWAP1 POP JUMP JUMPDEST PUSH0 PUSH1 0x20 DUP3 ADD SWAP1 POP DUP2 DUP2 SUB PUSH0 DUP4 ADD MSTORE PUSH2 0x4F3 DUP2 PUSH2 0x4BA JUMP JUMPDEST SWAP1 POP SWAP2 SWAP1 POP JUMP JUMPDEST PUSH32 0x4E487B7100000000000000000000000000000000000000000000000000000000 PUSH0 MSTORE PUSH1 0x32 PUSH1 0x4 MSTORE PUSH1 0x24 PUSH0 REVERT JUMPDEST PUSH32 0x496E76616C6964206F776E657220616464726573730000000000000000000000 PUSH0 DUP3 ADD MSTORE POP JUMP JUMPDEST PUSH0 PUSH2 0x55B PUSH1 0x15 DUP4 PUSH2 0x482 JUMP JUMPDEST SWAP2 POP PUSH2 0x566 DUP3 PUSH2 0x527 JUMP JUMPDEST PUSH1 0x20 DUP3 ADD SWAP1 POP SWAP2 SWAP1 POP JUMP JUMPDEST PUSH0 PUSH1 0x20 DUP3 ADD SWAP1 POP DUP2 DUP2 SUB PUSH0 DUP4 ADD MSTORE PUSH2 0x588 DUP2 PUSH2 0x54F JUMP JUMPDEST SWAP1 POP SWAP2 SWAP1 POP JUMP JUMPDEST PUSH32 0x4F776E6572206E6F7420756E6971756500000000000000000000000000000000 PUSH0 DUP3 ADD MSTORE POP JUMP JUMPDEST PUSH0 PUSH2 0x5C3 PUSH1 0x10 DUP4 PUSH2 0x482 JUMP JUMPDEST SWAP2 POP PUSH2 0x5CE DUP3 PUSH2 0x58F JUMP JUMPDEST PUSH1 0x20 DUP3 ADD SWAP1 POP SWAP2 SWAP1 POP JUMP JUMPDEST PUSH0 PUSH1 0x20 DUP3 ADD SWAP1 POP DUP2 DUP2 SUB PUSH0 DUP4 ADD MSTORE PUSH2 0x5F0 DUP2 PUSH2 0x5B7 JUMP JUMPDEST SWAP1 POP SWAP2 SWAP1 POP JUMP JUMPDEST PUSH0 DUP2 SWAP1 POP SWAP2 SWAP1 POP JUMP JUMPDEST PUSH32 0x4E487B7100000000000000000000000000000000000000000000000000000000 PUSH0 MSTORE PUSH1 0x12 PUSH1 0x4 MSTORE PUSH1 0x24 PUSH0 REVERT JUMPDEST PUSH32 0x4E487B7100000000000000000000000000000000000000000000000000000000 PUSH0 MSTORE PUSH1 0x11 PUSH1 0x4 MSTORE PUSH1 0x24 PUSH0 REVERT JUMPDEST PUSH0 PUSH2 0x664 DUP3 PUSH2 0x5F7 JUMP JUMPDEST SWAP2 POP PUSH2 0x66F DUP4 PUSH2 0x5F7 JUMP JUMPDEST SWAP3 POP DUP3 PUSH2 0x67F JUMPI PUSH2 0x67E PUSH2 0x600 JUMP JUMPDEST JUMPDEST DUP3 DUP3 DIV SWAP1 POP SWAP3 SWAP2 POP POP JUMP JUMPDEST PUSH0 PUSH2 0x694 DUP3 PUSH2 0x5F7 JUMP JUMPDEST SWAP2 POP PUSH2 0x69F DUP4 PUSH2 0x5F7 JUMP JUMPDEST SWAP3 POP DUP3 DUP3 ADD SWAP1 POP DUP1 DUP3 GT ISZERO PUSH2 0x6B7 JUMPI PUSH2 0x6B6 PUSH2 0x62D JUMP JUMPDEST JUMPDEST SWAP3 SWAP2 POP POP JUMP JUMPDEST PUSH2 0x2868 DUP1 PUSH2 0x6CA PUSH0 CODECOPY PUSH0 RETURN INVALID PUSH1 0x80 PUSH1 0x40 MSTORE PUSH1 0x4 CALLDATASIZE LT PUSH2 0xE0 JUMPI PUSH0 CALLDATALOAD PUSH1 0xE0 SHR DUP1 PUSH4 0x3411C81C GT PUSH2 0x7E JUMPI DUP1 PUSH4 0x9A1645F7 GT PUSH2 0x58 JUMPI DUP1 PUSH4 0x9A1645F7 EQ PUSH2 0x33A JUMPI DUP1 PUSH4 0x9ACE38C2 EQ PUSH2 0x376 JUMPI DUP1 PUSH4 0xA9496E75 EQ PUSH2 0x3B6 JUMPI DUP1 PUSH4 0xC01A8C84 EQ PUSH2 0x3DE JUMPI PUSH2 0x135 JUMP JUMPDEST DUP1 PUSH4 0x3411C81C EQ PUSH2 0x2AC JUMPI DUP1 PUSH4 0x6E4E91B7 EQ PUSH2 0x2E8 JUMPI DUP1 PUSH4 0x8D068043 EQ PUSH2 0x310 JUMPI PUSH2 0x135 JUMP JUMPDEST DUP1 PUSH4 0x2D3FABD0 GT PUSH2 0xBA JUMPI DUP1 PUSH4 0x2D3FABD0 EQ PUSH2 0x1C9 JUMPI DUP1 PUSH4 0x2F54BF6E EQ PUSH2 0x1F1 JUMPI DUP1 PUSH4 0x33259DF1 EQ PUSH2 0x22D JUMPI DUP1 PUSH4 0x33EA3DC8 EQ PUSH2 0x26C JUMPI PUSH2 0x135 JUMP JUMPDEST DUP1 PUSH4 0x25E7C27 EQ PUSH2 0x139 JUMPI DUP1 PUSH4 0x12065FE0 EQ PUSH2 0x175 JUMPI DUP1 PUSH4 0x27506F53 EQ PUSH2 0x19F JUMPI PUSH2 0x135 JUMP JUMPDEST CALLDATASIZE PUSH2 0x135 JUMPI CALLER PUSH20 0xFFFFFFFFFFFFFFFFFFFFFFFFFFFFFFFFFFFFFFFF AND PUSH32 0xE1FFFCC4923D04B559F4D29A8BFC6CDA04EB5B0D3C460751C2402C5C5CC9109C CALLVALUE PUSH1 0x40 MLOAD PUSH2 0x12B SWAP2 SWAP1 PUSH2 0x185E JUMP JUMPDEST PUSH1 0x40 MLOAD DUP1 SWAP2 SUB SWAP1 LOG2 STOP JUMPDEST PUSH0 DUP1 REVERT JUMPDEST CALLVALUE DUP1 ISZERO PUSH2 0x144 JUMPI PUSH0 DUP1 REVERT JUMPDEST POP PUSH2 0x15F PUSH1 0x4 DUP1 CALLDATASIZE SUB DUP2 ADD SWAP1 PUSH2 0x15A SWAP2 SWAP1 PUSH2 0x18B2 JUMP JUMPDEST PUSH2 0x406 JUMP JUMPDEST PUSH1 0x40 MLOAD PUSH2 0x16C SWAP2 SWAP1 PUSH2 0x191C JUMP JUMPDEST PUSH1 0x40 MLOAD DUP1 SWAP2 SUB SWAP1 RETURN JUMPDEST CALLVALUE DUP1 ISZERO PUSH2 0x180 JUMPI PUSH0 DUP1 REVERT JUMPDEST POP PUSH2 0x189 PUSH2 0x440 JUMP JUMPDEST PUSH1 0x40 MLOAD PUSH2 0x196 SWAP2 SWAP1 PUSH2 0x185E JUMP JUMPDEST PUSH1 0x40 MLOAD DUP1 SWAP2 SUB SWAP1 RETURN JUMPDEST CALLVALUE DUP1 ISZERO PUSH2 0x1AA JUMPI PUSH0 DUP1 REVERT JUMPDEST POP PUSH2 0x1B3 PUSH2 0x447 JUMP JUMPDEST PUSH1 0x40 MLOAD PUSH2 0x1C0 SWAP2 SWAP1 PUSH2 0x1B0B JUMP JUMPDEST PUSH1 0x40 MLOAD DUP1 SWAP2 SUB SWAP1 RETURN JUMPDEST CALLVALUE DUP1 ISZERO PUSH2 0x1D4 JUMPI PUSH0 DUP1 REVERT JUMPDEST POP PUSH2 0x1EF PUSH1 0x4 DUP1 CALLDATASIZE SUB DUP2 ADD SWAP1 PUSH2 0x1EA SWAP2 SWAP1 PUSH2 0x18B2 JUMP JUMPDEST PUSH2 0x5B5 JUMP JUMPDEST STOP JUMPDEST CALLVALUE DUP1 ISZERO PUSH2 0x1FC JUMPI PUSH0 DUP1 REVERT JUMPDEST POP PUSH2 0x217 PUSH1 0x4 DUP1 CALLDATASIZE SUB DUP2 ADD SWAP1 PUSH2 0x212 SWAP2 SWAP1 PUSH2 0x1B55 JUMP JUMPDEST PUSH2 0xCF1 JUMP JUMPDEST PUSH1 0x40 MLOAD PUSH2 0x224 SWAP2 SWAP1 PUSH2 0x1B8F JUMP JUMPDEST PUSH1 0x40 MLOAD DUP1 SWAP2 SUB SWAP1 RETURN JUMPDEST CALLVALUE DUP1 ISZERO PUSH2 0x238 JUMPI PUSH0 DUP1 REVERT JUMPDEST POP PUSH2 0x253 PUSH1 0x4 DUP1 CALLDATASIZE SUB DUP2 ADD SWAP1 PUSH2 0x24E SWAP2 SWAP1 PUSH2 0x18B2 JUMP JUMPDEST PUSH2 0xD0E JUMP JUMPDEST PUSH1 0x40 MLOAD PUSH2 0x263 SWAP5 SWAP4 SWAP3 SWAP2 SWAP1 PUSH2 0x1BA8 JUMP JUMPDEST PUSH1 0x40 MLOAD DUP1 SWAP2 SUB SWAP1 RETURN JUMPDEST CALLVALUE DUP1 ISZERO PUSH2 0x277 JUMPI PUSH0 DUP1 REVERT JUMPDEST POP PUSH2 0x292 PUSH1 0x4 DUP1 CALLDATASIZE SUB DUP2 ADD SWAP1 PUSH2 0x28D SWAP2 SWAP1 PUSH2 0x18B2 JUMP JUMPDEST PUSH2 0xD80 JUMP JUMPDEST PUSH1 0x40 MLOAD PUSH2 0x2A3 SWAP6 SWAP5 SWAP4 SWAP3 SWAP2 SWAP1 PUSH2 0x1C33 JUMP JUMPDEST PUSH1 0x40 MLOAD DUP1 SWAP2 SUB SWAP1 RETURN JUMPDEST CALLVALUE DUP1 ISZERO PUSH2 0x2B7 JUMPI PUSH0 DUP1 REVERT JUMPDEST POP PUSH2 0x2D2 PUSH1 0x4 DUP1 CALLDATASIZE SUB DUP2 ADD SWAP1 PUSH2 0x2CD SWAP2 SWAP1 PUSH2 0x1C8B JUMP JUMPDEST PUSH2 0xE89 JUMP JUMPDEST PUSH1 0x40 MLOAD PUSH2 0x2DF SWAP2 SWAP1 PUSH2 0x1B8F JUMP JUMPDEST PUSH1 0x40 MLOAD DUP1 SWAP2 SUB SWAP1 RETURN JUMPDEST CALLVALUE DUP1 ISZERO PUSH2 0x2F3 JUMPI PUSH0 DUP1 REVERT JUMPDEST POP PUSH2 0x30E PUSH1 0x4 DUP1 CALLDATASIZE SUB DUP2 ADD SWAP1 PUSH2 0x309 SWAP2 SWAP1 PUSH2 0x1CF3 JUMP JUMPDEST PUSH2 0xEB3 JUMP JUMPDEST STOP JUMPDEST CALLVALUE DUP1 ISZERO PUSH2 0x31B JUMPI PUSH0 DUP1 REVERT JUMPDEST POP PUSH2 0x324 PUSH2 0x118E JUMP JUMPDEST PUSH1 0x40 MLOAD PUSH2 0x331 SWAP2 SWAP1 PUSH2 0x185E JUMP JUMPDEST PUSH1 0x40 MLOAD DUP1 SWAP2 SUB SWAP1 RETURN JUMPDEST CALLVALUE DUP1 ISZERO PUSH2 0x345 JUMPI PUSH0 DUP1 REVERT JUMPDEST POP PUSH2 0x360 PUSH1 0x4 DUP1 CALLDATASIZE SUB DUP2 ADD SWAP1 PUSH2 0x35B SWAP2 SWAP1 PUSH2 0x1C8B JUMP JUMPDEST PUSH2 0x1194 JUMP JUMPDEST PUSH1 0x40 MLOAD PUSH2 0x36D SWAP2 SWAP1 PUSH2 0x1B8F JUMP JUMPDEST PUSH1 0x40 MLOAD DUP1 SWAP2 SUB SWAP1 RETURN JUMPDEST CALLVALUE DUP1 ISZERO PUSH2 0x381 JUMPI PUSH0 DUP1 REVERT JUMPDEST POP PUSH2 0x39C PUSH1 0x4 DUP1 CALLDATASIZE SUB DUP2 ADD SWAP1 PUSH2 0x397 SWAP2 SWAP1 PUSH2 0x18B2 JUMP JUMPDEST PUSH2 0x11BE JUMP JUMPDEST PUSH1 0x40 MLOAD PUSH2 0x3AD SWAP6 SWAP5 SWAP4 SWAP3 SWAP2 SWAP1 PUSH2 0x1C33 JUMP JUMPDEST PUSH1 0x40 MLOAD DUP1 SWAP2 SUB SWAP1 RETURN JUMPDEST CALLVALUE DUP1 ISZERO PUSH2 0x3C1 JUMPI PUSH0 DUP1 REVERT JUMPDEST POP PUSH2 0x3DC PUSH1 0x4 DUP1 CALLDATASIZE SUB DUP2 ADD SWAP1 PUSH2 0x3D7 SWAP2 SWAP1 PUSH2 0x1E5D JUMP JUMPDEST PUSH2 0x12B0 JUMP JUMPDEST STOP JUMPDEST CALLVALUE DUP1 ISZERO PUSH2 0x3E9 JUMPI PUSH0 DUP1 REVERT JUMPDEST POP PUSH2 0x404 PUSH1 0x4 DUP1 CALLDATASIZE SUB DUP2 ADD SWAP1 PUSH2 0x3FF SWAP2 SWAP1 PUSH2 0x18B2 JUMP JUMPDEST PUSH2 0x1496 JUMP JUMPDEST STOP JUMPDEST PUSH0 DUP2 DUP2 SLOAD DUP2 LT PUSH2 0x414 JUMPI PUSH0 DUP1 REVERT JUMPDEST SWAP1 PUSH0 MSTORE PUSH1 0x20 PUSH0 KECCAK256 ADD PUSH0 SWAP2 POP SLOAD SWAP1 PUSH2 0x100 EXP SWAP1 DIV PUSH20 0xFFFFFFFFFFFFFFFFFFFFFFFFFFFFFFFFFFFFFFFF AND DUP2 JUMP JUMPDEST PUSH0 SELFBALANCE SWAP1 POP SWAP1 JUMP JUMPDEST PUSH1 0x60 PUSH1 0x3 DUP1 SLOAD DUP1 PUSH1 0x20 MUL PUSH1 0x20 ADD PUSH1 0x40 MLOAD SWAP1 DUP2 ADD PUSH1 0x40 MSTORE DUP1 SWAP3 SWAP2 SWAP1 DUP2 DUP2 MSTORE PUSH1 0x20 ADD PUSH0 SWAP1 JUMPDEST DUP3 DUP3 LT ISZERO PUSH2 0x5AC JUMPI DUP4 DUP3 SWAP1 PUSH0 MSTORE PUSH1 0x20 PUSH0 KECCAK256 SWAP1 PUSH1 0x5 MUL ADD PUSH1 0x40 MLOAD DUP1 PUSH1 0xA0 ADD PUSH1 0x40 MSTORE SWAP1 DUP2 PUSH0 DUP3 ADD PUSH0 SWAP1 SLOAD SWAP1 PUSH2 0x100 EXP SWAP1 DIV PUSH20 0xFFFFFFFFFFFFFFFFFFFFFFFFFFFFFFFFFFFFFFFF AND PUSH20 0xFFFFFFFFFFFFFFFFFFFFFFFFFFFFFFFFFFFFFFFF AND PUSH20 0xFFFFFFFFFFFFFFFFFFFFFFFFFFFFFFFFFFFFFFFF AND DUP2 MSTORE PUSH1 0x20 ADD PUSH1 0x1 DUP3 ADD SLOAD DUP2 MSTORE PUSH1 0x20 ADD PUSH1 0x2 DUP3 ADD DUP1 SLOAD PUSH2 0x4F9 SWAP1 PUSH2 0x1EF6 JUMP JUMPDEST DUP1 PUSH1 0x1F ADD PUSH1 0x20 DUP1 SWAP2 DIV MUL PUSH1 0x20 ADD PUSH1 0x40 MLOAD SWAP1 DUP2 ADD PUSH1 0x40 MSTORE DUP1 SWAP3 SWAP2 SWAP1 DUP2 DUP2 MSTORE PUSH1 0x20 ADD DUP3 DUP1 SLOAD PUSH2 0x525 SWAP1 PUSH2 0x1EF6 JUMP JUMPDEST DUP1 ISZERO PUSH2 0x570 JUMPI DUP1 PUSH1 0x1F LT PUSH2 0x547 JUMPI PUSH2 0x100 DUP1 DUP4 SLOAD DIV MUL DUP4 MSTORE SWAP2 PUSH1 0x20 ADD SWAP2 PUSH2 0x570 JUMP JUMPDEST DUP3 ADD SWAP2 SWAP1 PUSH0 MSTORE PUSH1 0x20 PUSH0 KECCAK256 SWAP1 JUMPDEST DUP2 SLOAD DUP2 MSTORE SWAP1 PUSH1 0x1 ADD SWAP1 PUSH1 0x20 ADD DUP1 DUP4 GT PUSH2 0x553 JUMPI DUP3 SWAP1 SUB PUSH1 0x1F AND DUP3 ADD SWAP2 JUMPDEST POP POP POP POP POP DUP2 MSTORE PUSH1 0x20 ADD PUSH1 0x3 DUP3 ADD PUSH0 SWAP1 SLOAD SWAP1 PUSH2 0x100 EXP SWAP1 DIV PUSH1 0xFF AND ISZERO ISZERO ISZERO ISZERO DUP2 MSTORE PUSH1 0x20 ADD PUSH1 0x4 DUP3 ADD SLOAD DUP2 MSTORE POP POP DUP2 MSTORE PUSH1 0x20 ADD SWAP1 PUSH1 0x1 ADD SWAP1 PUSH2 0x46A JUMP JUMPDEST POP POP POP POP SWAP1 POP SWAP1 JUMP JUMPDEST PUSH1 0x1 PUSH0 CALLER PUSH20 0xFFFFFFFFFFFFFFFFFFFFFFFFFFFFFFFFFFFFFFFF AND PUSH20 0xFFFFFFFFFFFFFFFFFFFFFFFFFFFFFFFFFFFFFFFF AND DUP2 MSTORE PUSH1 0x20 ADD SWAP1 DUP2 MSTORE PUSH1 0x20 ADD PUSH0 KECCAK256 PUSH0 SWAP1 SLOAD SWAP1 PUSH2 0x100 EXP SWAP1 DIV PUSH1 0xFF AND PUSH2 0x63E JUMPI PUSH1 0x40 MLOAD PUSH32 0x8C379A000000000000000000000000000000000000000000000000000000000 DUP2 MSTORE PUSH1 0x4 ADD PUSH2 0x635 SWAP1 PUSH2 0x1F80 JUMP JUMPDEST PUSH1 0x40 MLOAD DUP1 SWAP2 SUB SWAP1 REVERT JUMPDEST PUSH1 0x5 DUP1 SLOAD SWAP1 POP DUP2 LT PUSH2 0x685 JUMPI PUSH1 0x40 MLOAD PUSH32 0x8C379A000000000000000000000000000000000000000000000000000000000 DUP2 MSTORE PUSH1 0x4 ADD PUSH2 0x67C SWAP1 PUSH2 0x1FE8 JUMP JUMPDEST PUSH1 0x40 MLOAD DUP1 SWAP2 SUB SWAP1 REVERT JUMPDEST PUSH0 PUSH1 0x5 DUP3 DUP2 SLOAD DUP2 LT PUSH2 0x69A JUMPI PUSH2 0x699 PUSH2 0x2006 JUMP JUMPDEST JUMPDEST SWAP1 PUSH0 MSTORE PUSH1 0x20 PUSH0 KECCAK256 SWAP1 PUSH1 0x3 MUL ADD SWAP1 POP DUP1 PUSH1 0x2 ADD PUSH0 SWAP1 SLOAD SWAP1 PUSH2 0x100 EXP SWAP1 DIV PUSH1 0xFF AND ISZERO PUSH2 0x6F9 JUMPI PUSH1 0x40 MLOAD PUSH32 0x8C379A000000000000000000000000000000000000000000000000000000000 DUP2 MSTORE PUSH1 0x4 ADD PUSH2 0x6F0 SWAP1 PUSH2 0x207D JUMP JUMPDEST PUSH1 0x40 MLOAD DUP1 SWAP2 SUB SWAP1 REVERT JUMPDEST PUSH1 0x6 PUSH0 DUP4 DUP2 MSTORE PUSH1 0x20 ADD SWAP1 DUP2 MSTORE PUSH1 0x20 ADD PUSH0 KECCAK256 PUSH0 CALLER PUSH20 0xFFFFFFFFFFFFFFFFFFFFFFFFFFFFFFFFFFFFFFFF AND PUSH20 0xFFFFFFFFFFFFFFFFFFFFFFFFFFFFFFFFFFFFFFFF AND DUP2 MSTORE PUSH1 0x20 ADD SWAP1 DUP2 MSTORE PUSH1 0x20 ADD PUSH0 KECCAK256 PUSH0 SWAP1 SLOAD SWAP1 PUSH2 0x100 EXP SWAP1 DIV PUSH1 0xFF AND ISZERO PUSH2 0x792 JUMPI PUSH1 0x40 MLOAD PUSH32 0x8C379A000000000000000000000000000000000000000000000000000000000 DUP2 MSTORE PUSH1 0x4 ADD PUSH2 0x789 SWAP1 PUSH2 0x20E5 JUMP JUMPDEST PUSH1 0x40 MLOAD DUP1 SWAP2 SUB SWAP1 REVERT JUMPDEST PUSH1 0x1 PUSH1 0x6 PUSH0 DUP5 DUP2 MSTORE PUSH1 0x20 ADD SWAP1 DUP2 MSTORE PUSH1 0x20 ADD PUSH0 KECCAK256 PUSH0 CALLER PUSH20 0xFFFFFFFFFFFFFFFFFFFFFFFFFFFFFFFFFFFFFFFF AND PUSH20 0xFFFFFFFFFFFFFFFFFFFFFFFFFFFFFFFFFFFFFFFF AND DUP2 MSTORE PUSH1 0x20 ADD SWAP1 DUP2 MSTORE PUSH1 0x20 ADD PUSH0 KECCAK256 PUSH0 PUSH2 0x100 EXP DUP2 SLOAD DUP2 PUSH1 0xFF MUL NOT AND SWAP1 DUP4 ISZERO ISZERO MUL OR SWAP1 SSTORE POP PUSH1 0x1 DUP2 PUSH1 0x1 ADD PUSH0 DUP3 DUP3 SLOAD PUSH2 0x80A SWAP2 SWAP1 PUSH2 0x2130 JUMP JUMPDEST SWAP3 POP POP DUP2 SWAP1 SSTORE POP CALLER PUSH20 0xFFFFFFFFFFFFFFFFFFFFFFFFFFFFFFFFFFFFFFFF AND DUP3 PUSH32 0x4E6B2F9F89753BBF282A9339C429EC93E3EDA4FB3DF050AC65448100FA72F9F2 PUSH1 0x40 MLOAD PUSH1 0x40 MLOAD DUP1 SWAP2 SUB SWAP1 LOG3 PUSH1 0x2 SLOAD DUP2 PUSH1 0x1 ADD SLOAD LT PUSH2 0xCED JUMPI PUSH1 0x1 DUP2 PUSH1 0x2 ADD PUSH0 PUSH2 0x100 EXP DUP2 SLOAD DUP2 PUSH1 0xFF MUL NOT AND SWAP1 DUP4 ISZERO ISZERO MUL OR SWAP1 SSTORE POP DUP1 PUSH0 ADD PUSH1 0x14 SWAP1 SLOAD SWAP1 PUSH2 0x100 EXP SWAP1 DIV PUSH1 0xFF AND ISZERO PUSH2 0x990 JUMPI PUSH0 DUP2 PUSH0 ADD PUSH0 SWAP1 SLOAD SWAP1 PUSH2 0x100 EXP SWAP1 DIV PUSH20 0xFFFFFFFFFFFFFFFFFFFFFFFFFFFFFFFFFFFFFFFF AND SWAP1 DUP1 PUSH1 0x1 DUP2 SLOAD ADD DUP1 DUP3 SSTORE DUP1 SWAP2 POP POP PUSH1 0x1 SWAP1 SUB SWAP1 PUSH0 MSTORE PUSH1 0x20 PUSH0 KECCAK256 ADD PUSH0 SWAP1 SWAP2 SWAP1 SWAP2 SWAP1 SWAP2 PUSH2 0x100 EXP DUP2 SLOAD DUP2 PUSH20 0xFFFFFFFFFFFFFFFFFFFFFFFFFFFFFFFFFFFFFFFF MUL NOT AND SWAP1 DUP4 PUSH20 0xFFFFFFFFFFFFFFFFFFFFFFFFFFFFFFFFFFFFFFFF AND MUL OR SWAP1 SSTORE POP PUSH1 0x1 DUP1 PUSH0 DUP4 PUSH0 ADD PUSH0 SWAP1 SLOAD SWAP1 PUSH2 0x100 EXP SWAP1 DIV PUSH20 0xFFFFFFFFFFFFFFFFFFFFFFFFFFFFFFFFFFFFFFFF AND PUSH20 0xFFFFFFFFFFFFFFFFFFFFFFFFFFFFFFFFFFFFFFFF AND PUSH20 0xFFFFFFFFFFFFFFFFFFFFFFFFFFFFFFFFFFFFFFFF AND DUP2 MSTORE PUSH1 0x20 ADD SWAP1 DUP2 MSTORE PUSH1 0x20 ADD PUSH0 KECCAK256 PUSH0 PUSH2 0x100 EXP DUP2 SLOAD DUP2 PUSH1 0xFF MUL NOT AND SWAP1 DUP4 ISZERO ISZERO MUL OR SWAP1 SSTORE POP PUSH2 0xC48 JUMP JUMPDEST PUSH1 0x1 PUSH0 DUP3 PUSH0 ADD PUSH0 SWAP1 SLOAD SWAP1 PUSH2 0x100 EXP SWAP1 DIV PUSH20 0xFFFFFFFFFFFFFFFFFFFFFFFFFFFFFFFFFFFFFFFF AND PUSH20 0xFFFFFFFFFFFFFFFFFFFFFFFFFFFFFFFFFFFFFFFF AND PUSH20 0xFFFFFFFFFFFFFFFFFFFFFFFFFFFFFFFFFFFFFFFF AND DUP2 MSTORE PUSH1 0x20 ADD SWAP1 DUP2 MSTORE PUSH1 0x20 ADD PUSH0 KECCAK256 PUSH0 SWAP1 SLOAD SWAP1 PUSH2 0x100 EXP SWAP1 DIV PUSH1 0xFF AND PUSH2 0xA3B JUMPI PUSH1 0x40 MLOAD PUSH32 0x8C379A000000000000000000000000000000000000000000000000000000000 DUP2 MSTORE PUSH1 0x4 ADD PUSH2 0xA32 SWAP1 PUSH2 0x21AD JUMP JUMPDEST PUSH1 0x40 MLOAD DUP1 SWAP2 SUB SWAP1 REVERT JUMPDEST PUSH0 PUSH1 0x1 PUSH0 DUP4 PUSH0 ADD PUSH0 SWAP1 SLOAD SWAP1 PUSH2 0x100 EXP SWAP1 DIV PUSH20 0xFFFFFFFFFFFFFFFFFFFFFFFFFFFFFFFFFFFFFFFF AND PUSH20 0xFFFFFFFFFFFFFFFFFFFFFFFFFFFFFFFFFFFFFFFF AND PUSH20 0xFFFFFFFFFFFFFFFFFFFFFFFFFFFFFFFFFFFFFFFF AND DUP2 MSTORE PUSH1 0x20 ADD SWAP1 DUP2 MSTORE PUSH1 0x20 ADD PUSH0 KECCAK256 PUSH0 PUSH2 0x100 EXP DUP2 SLOAD DUP2 PUSH1 0xFF MUL NOT AND SWAP1 DUP4 ISZERO ISZERO MUL OR SWAP1 SSTORE POP PUSH0 JUMPDEST PUSH0 DUP1 SLOAD SWAP1 POP DUP2 LT ISZERO PUSH2 0xC46 JUMPI DUP2 PUSH0 ADD PUSH0 SWAP1 SLOAD SWAP1 PUSH2 0x100 EXP SWAP1 DIV PUSH20 0xFFFFFFFFFFFFFFFFFFFFFFFFFFFFFFFFFFFFFFFF AND PUSH20 0xFFFFFFFFFFFFFFFFFFFFFFFFFFFFFFFFFFFFFFFF AND PUSH0 DUP3 DUP2 SLOAD DUP2 LT PUSH2 0xB0B JUMPI PUSH2 0xB0A PUSH2 0x2006 JUMP JUMPDEST JUMPDEST SWAP1 PUSH0 MSTORE PUSH1 0x20 PUSH0 KECCAK256 ADD PUSH0 SWAP1 SLOAD SWAP1 PUSH2 0x100 EXP SWAP1 DIV PUSH20 0xFFFFFFFFFFFFFFFFFFFFFFFFFFFFFFFFFFFFFFFF AND PUSH20 0xFFFFFFFFFFFFFFFFFFFFFFFFFFFFFFFFFFFFFFFF AND SUB PUSH2 0xC39 JUMPI PUSH0 PUSH1 0x1 PUSH0 DUP1 SLOAD SWAP1 POP PUSH2 0xB60 SWAP2 SWAP1 PUSH2 0x21CB JUMP JUMPDEST DUP2 SLOAD DUP2 LT PUSH2 0xB71 JUMPI PUSH2 0xB70 PUSH2 0x2006 JUMP JUMPDEST JUMPDEST SWAP1 PUSH0 MSTORE PUSH1 0x20 PUSH0 KECCAK256 ADD PUSH0 SWAP1 SLOAD SWAP1 PUSH2 0x100 EXP SWAP1 DIV PUSH20 0xFFFFFFFFFFFFFFFFFFFFFFFFFFFFFFFFFFFFFFFF AND PUSH0 DUP3 DUP2 SLOAD DUP2 LT PUSH2 0xBAC JUMPI PUSH2 0xBAB PUSH2 0x2006 JUMP JUMPDEST JUMPDEST SWAP1 PUSH0 MSTORE PUSH1 0x20 PUSH0 KECCAK256 ADD PUSH0 PUSH2 0x100 EXP DUP2 SLOAD DUP2 PUSH20 0xFFFFFFFFFFFFFFFFFFFFFFFFFFFFFFFFFFFFFFFF MUL NOT AND SWAP1 DUP4 PUSH20 0xFFFFFFFFFFFFFFFFFFFFFFFFFFFFFFFFFFFFFFFF AND MUL OR SWAP1 SSTORE POP PUSH0 DUP1 SLOAD DUP1 PUSH2 0xC02 JUMPI PUSH2 0xC01 PUSH2 0x21FE JUMP JUMPDEST JUMPDEST PUSH1 0x1 SWAP1 SUB DUP2 DUP2 SWAP1 PUSH0 MSTORE PUSH1 0x20 PUSH0 KECCAK256 ADD PUSH0 PUSH2 0x100 EXP DUP2 SLOAD SWAP1 PUSH20 0xFFFFFFFFFFFFFFFFFFFFFFFFFFFFFFFFFFFFFFFF MUL NOT AND SWAP1 SSTORE SWAP1 SSTORE PUSH2 0xC46 JUMP JUMPDEST DUP1 DUP1 PUSH1 0x1 ADD SWAP2 POP POP PUSH2 0xAB3 JUMP JUMPDEST POP JUMPDEST PUSH1 0x1 PUSH1 0x2 PUSH0 DUP1 SLOAD SWAP1 POP PUSH2 0xC5B SWAP2 SWAP1 PUSH2 0x2258 JUMP JUMPDEST PUSH2 0xC65 SWAP2 SWAP1 PUSH2 0x2130 JUMP JUMPDEST PUSH1 0x2 DUP2 SWAP1 SSTORE POP DUP1 PUSH0 ADD PUSH0 SWAP1 SLOAD SWAP1 PUSH2 0x100 EXP SWAP1 DIV PUSH20 0xFFFFFFFFFFFFFFFFFFFFFFFFFFFFFFFFFFFFFFFF AND PUSH20 0xFFFFFFFFFFFFFFFFFFFFFFFFFFFFFFFFFFFFFFFF AND DUP3 PUSH32 0x89DD07C152FCF1761FACDDB0608FC4C57A27B9E8E4677E682E80BF549BD5375F DUP4 PUSH0 ADD PUSH1 0x14 SWAP1 SLOAD SWAP1 PUSH2 0x100 EXP SWAP1 DIV PUSH1 0xFF AND PUSH1 0x40 MLOAD PUSH2 0xCE4 SWAP2 SWAP1 PUSH2 0x1B8F JUMP JUMPDEST PUSH1 0x40 MLOAD DUP1 SWAP2 SUB SWAP1 LOG3 JUMPDEST POP POP JUMP JUMPDEST PUSH1 0x1 PUSH1 0x20 MSTORE DUP1 PUSH0 MSTORE PUSH1 0x40 PUSH0 KECCAK256 PUSH0 SWAP2 POP SLOAD SWAP1 PUSH2 0x100 EXP SWAP1 DIV PUSH1 0xFF AND DUP2 JUMP JUMPDEST PUSH1 0x5 DUP2 DUP2 SLOAD DUP2 LT PUSH2 0xD1D JUMPI PUSH0 DUP1 REVERT JUMPDEST SWAP1 PUSH0 MSTORE PUSH1 0x20 PUSH0 KECCAK256 SWAP1 PUSH1 0x3 MUL ADD PUSH0 SWAP2 POP SWAP1 POP DUP1 PUSH0 ADD PUSH0 SWAP1 SLOAD SWAP1 PUSH2 0x100 EXP SWAP1 DIV PUSH20 0xFFFFFFFFFFFFFFFFFFFFFFFFFFFFFFFFFFFFFFFF AND SWAP1 DUP1 PUSH0 ADD PUSH1 0x14 SWAP1 SLOAD SWAP1 PUSH2 0x100 EXP SWAP1 DIV PUSH1 0xFF AND SWAP1 DUP1 PUSH1 0x1 ADD SLOAD SWAP1 DUP1 PUSH1 0x2 ADD PUSH0 SWAP1 SLOAD SWAP1 PUSH2 0x100 EXP SWAP1 DIV PUSH1 0xFF AND SWAP1 POP DUP5 JUMP JUMPDEST PUSH0 DUP1 PUSH1 0x60 PUSH0 DUP1 PUSH0 PUSH1 0x3 DUP8 DUP2 SLOAD DUP2 LT PUSH2 0xD9B JUMPI PUSH2 0xD9A PUSH2 0x2006 JUMP JUMPDEST JUMPDEST SWAP1 PUSH0 MSTORE PUSH1 0x20 PUSH0 KECCAK256 SWAP1 PUSH1 0x5 MUL ADD SWAP1 POP DUP1 PUSH0 ADD PUSH0 SWAP1 SLOAD SWAP1 PUSH2 0x100 EXP SWAP1 DIV PUSH20 0xFFFFFFFFFFFFFFFFFFFFFFFFFFFFFFFFFFFFFFFF AND DUP2 PUSH1 0x1 ADD SLOAD DUP3 PUSH1 0x2 ADD DUP4 PUSH1 0x3 ADD PUSH0 SWAP1 SLOAD SWAP1 PUSH2 0x100 EXP SWAP1 DIV PUSH1 0xFF AND DUP5 PUSH1 0x4 ADD SLOAD DUP3 DUP1 SLOAD PUSH2 0xDF7 SWAP1 PUSH2 0x1EF6 JUMP JUMPDEST DUP1 PUSH1 0x1F ADD PUSH1 0x20 DUP1 SWAP2 DIV MUL PUSH1 0x20 ADD PUSH1 0x40 MLOAD SWAP1 DUP2 ADD PUSH1 0x40 MSTORE DUP1 SWAP3 SWAP2 SWAP1 DUP2 DUP2 MSTORE PUSH1 0x20 ADD DUP3 DUP1 SLOAD PUSH2 0xE23 SWAP1 PUSH2 0x1EF6 JUMP JUMPDEST DUP1 ISZERO PUSH2 0xE6E JUMPI DUP1 PUSH1 0x1F LT PUSH2 0xE45 JUMPI PUSH2 0x100 DUP1 DUP4 SLOAD DIV MUL DUP4 MSTORE SWAP2 PUSH1 0x20 ADD SWAP2 PUSH2 0xE6E JUMP JUMPDEST DUP3 ADD SWAP2 SWAP1 PUSH0 MSTORE PUSH1 0x20 PUSH0 KECCAK256 SWAP1 JUMPDEST DUP2 SLOAD DUP2 MSTORE SWAP1 PUSH1 0x1 ADD SWAP1 PUSH1 0x20 ADD DUP1 DUP4 GT PUSH2 0xE51 JUMPI DUP3 SWAP1 SUB PUSH1 0x1F AND DUP3 ADD SWAP2 JUMPDEST POP POP POP POP POP SWAP3 POP SWAP6 POP SWAP6 POP SWAP6 POP SWAP6 POP SWAP6 POP POP SWAP2 SWAP4 SWAP6 SWAP1 SWAP3 SWAP5 POP JUMP JUMPDEST PUSH1 0x4 PUSH1 0x20 MSTORE DUP2 PUSH0 MSTORE PUSH1 0x40 PUSH0 KECCAK256 PUSH1 0x20 MSTORE DUP1 PUSH0 MSTORE PUSH1 0x40 PUSH0 KECCAK256 PUSH0 SWAP2 POP SWAP2 POP SWAP1 SLOAD SWAP1 PUSH2 0x100 EXP SWAP1 DIV PUSH1 0xFF AND DUP2 JUMP JUMPDEST PUSH1 0x1 PUSH0 CALLER PUSH20 0xFFFFFFFFFFFFFFFFFFFFFFFFFFFFFFFFFFFFFFFF AND PUSH20 0xFFFFFFFFFFFFFFFFFFFFFFFFFFFFFFFFFFFFFFFF AND DUP2 MSTORE PUSH1 0x20 ADD SWAP1 DUP2 MSTORE PUSH1 0x20 ADD PUSH0 KECCAK256 PUSH0 SWAP1 SLOAD SWAP1 PUSH2 0x100 EXP SWAP1 DIV PUSH1 0xFF AND PUSH2 0xF3C JUMPI PUSH1 0x40 MLOAD PUSH32 0x8C379A000000000000000000000000000000000000000000000000000000000 DUP2 MSTORE PUSH1 0x4 ADD PUSH2 0xF33 SWAP1 PUSH2 0x1F80 JUMP JUMPDEST PUSH1 0x40 MLOAD DUP1 SWAP2 SUB SWAP1 REVERT JUMPDEST PUSH0 PUSH20 0xFFFFFFFFFFFFFFFFFFFFFFFFFFFFFFFFFFFFFFFF AND DUP3 PUSH20 0xFFFFFFFFFFFFFFFFFFFFFFFFFFFFFFFFFFFFFFFF AND SUB PUSH2 0xFAA JUMPI PUSH1 0x40 MLOAD PUSH32 0x8C379A000000000000000000000000000000000000000000000000000000000 DUP2 MSTORE PUSH1 0x4 ADD PUSH2 0xFA1 SWAP1 PUSH2 0x22D2 JUMP JUMPDEST PUSH1 0x40 MLOAD DUP1 SWAP2 SUB SWAP1 REVERT JUMPDEST DUP1 ISZERO ISZERO PUSH1 0x1 PUSH0 DUP5 PUSH20 0xFFFFFFFFFFFFFFFFFFFFFFFFFFFFFFFFFFFFFFFF AND PUSH20 0xFFFFFFFFFFFFFFFFFFFFFFFFFFFFFFFFFFFFFFFF AND DUP2 MSTORE PUSH1 0x20 ADD SWAP1 DUP2 MSTORE PUSH1 0x20 ADD PUSH0 KECCAK256 PUSH0 SWAP1 SLOAD SWAP1 PUSH2 0x100 EXP SWAP1 DIV PUSH1 0xFF AND ISZERO ISZERO SUB PUSH2 0x1039 JUMPI PUSH1 0x40 MLOAD PUSH32 0x8C379A000000000000000000000000000000000000000000000000000000000 DUP2 MSTORE PUSH1 0x4 ADD PUSH2 0x1030 SWAP1 PUSH2 0x233A JUMP JUMPDEST PUSH1 0x40 MLOAD DUP1 SWAP2 SUB SWAP1 REVERT JUMPDEST PUSH1 0x5 PUSH1 0x40 MLOAD DUP1 PUSH1 0x80 ADD PUSH1 0x40 MSTORE DUP1 DUP5 PUSH20 0xFFFFFFFFFFFFFFFFFFFFFFFFFFFFFFFFFFFFFFFF AND DUP2 MSTORE PUSH1 0x20 ADD DUP4 ISZERO ISZERO DUP2 MSTORE PUSH1 0x20 ADD PUSH0 DUP2 MSTORE PUSH1 0x20 ADD PUSH0 ISZERO ISZERO DUP2 MSTORE POP SWAP1 DUP1 PUSH1 0x1 DUP2 SLOAD ADD DUP1 DUP3 SSTORE DUP1 SWAP2 POP POP PUSH1 0x1 SWAP1 SUB SWAP1 PUSH0 MSTORE PUSH1 0x20 PUSH0 KECCAK256 SWAP1 PUSH1 0x3 MUL ADD PUSH0 SWAP1 SWAP2 SWAP1 SWAP2 SWAP1 SWAP2 POP PUSH0 DUP3 ADD MLOAD DUP2 PUSH0 ADD PUSH0 PUSH2 0x100 EXP DUP2 SLOAD DUP2 PUSH20 0xFFFFFFFFFFFFFFFFFFFFFFFFFFFFFFFFFFFFFFFF MUL NOT AND SWAP1 DUP4 PUSH20 0xFFFFFFFFFFFFFFFFFFFFFFFFFFFFFFFFFFFFFFFF AND MUL OR SWAP1 SSTORE POP PUSH1 0x20 DUP3 ADD MLOAD DUP2 PUSH0 ADD PUSH1 0x14 PUSH2 0x100 EXP DUP2 SLOAD DUP2 PUSH1 0xFF MUL NOT AND SWAP1 DUP4 ISZERO ISZERO MUL OR SWAP1 SSTORE POP PUSH1 0x40 DUP3 ADD MLOAD DUP2 PUSH1 0x1 ADD SSTORE PUSH1 0x60 DUP3 ADD MLOAD DUP2 PUSH1 0x2 ADD PUSH0 PUSH2 0x100 EXP DUP2 SLOAD DUP2 PUSH1 0xFF MUL NOT AND SWAP1 DUP4 ISZERO ISZERO MUL OR SWAP1 SSTORE POP POP POP DUP2 PUSH20 0xFFFFFFFFFFFFFFFFFFFFFFFFFFFFFFFFFFFFFFFF AND PUSH1 0x1 PUSH1 0x5 DUP1 SLOAD SWAP1 POP PUSH2 0x1153 SWAP2 SWAP1 PUSH2 0x21CB JUMP JUMPDEST PUSH32 0x2B4BA558CE06F8A12392A1517213DE0A24D8FDB07A6C8A66C23D16321A328BDE DUP4 PUSH1 0x40 MLOAD PUSH2 0x1182 SWAP2 SWAP1 PUSH2 0x1B8F JUMP JUMPDEST PUSH1 0x40 MLOAD DUP1 SWAP2 SUB SWAP1 LOG3 POP POP JUMP JUMPDEST PUSH1 0x2 SLOAD DUP2 JUMP JUMPDEST PUSH1 0x6 PUSH1 0x20 MSTORE DUP2 PUSH0 MSTORE PUSH1 0x40 PUSH0 KECCAK256 PUSH1 0x20 MSTORE DUP1 PUSH0 MSTORE PUSH1 0x40 PUSH0 KECCAK256 PUSH0 SWAP2 POP SWAP2 POP SWAP1 SLOAD SWAP1 PUSH2 0x100 EXP SWAP1 DIV PUSH1 0xFF AND DUP2 JUMP JUMPDEST PUSH1 0x3 DUP2 DUP2 SLOAD DUP2 LT PUSH2 0x11CD JUMPI PUSH0 DUP1 REVERT JUMPDEST SWAP1 PUSH0 MSTORE PUSH1 0x20 PUSH0 KECCAK256 SWAP1 PUSH1 0x5 MUL ADD PUSH0 SWAP2 POP SWAP1 POP DUP1 PUSH0 ADD PUSH0 SWAP1 SLOAD SWAP1 PUSH2 0x100 EXP SWAP1 DIV PUSH20 0xFFFFFFFFFFFFFFFFFFFFFFFFFFFFFFFFFFFFFFFF AND SWAP1 DUP1 PUSH1 0x1 ADD SLOAD SWAP1 DUP1 PUSH1 0x2 ADD DUP1 SLOAD PUSH2 0x1217 SWAP1 PUSH2 0x1EF6 JUMP JUMPDEST DUP1 PUSH1 0x1F ADD PUSH1 0x20 DUP1 SWAP2 DIV MUL PUSH1 0x20 ADD PUSH1 0x40 MLOAD SWAP1 DUP2 ADD PUSH1 0x40 MSTORE DUP1 SWAP3 SWAP2 SWAP1 DUP2 DUP2 MSTORE PUSH1 0x20 ADD DUP3 DUP1 SLOAD PUSH2 0x1243 SWAP1 PUSH2 0x1EF6 JUMP JUMPDEST DUP1 ISZERO PUSH2 0x128E JUMPI DUP1 PUSH1 0x1F LT PUSH2 0x1265 JUMPI PUSH2 0x100 DUP1 DUP4 SLOAD DIV MUL DUP4 MSTORE SWAP2 PUSH1 0x20 ADD SWAP2 PUSH2 0x128E JUMP JUMPDEST DUP3 ADD SWAP2 SWAP1 PUSH0 MSTORE PUSH1 0x20 PUSH0 KECCAK256 SWAP1 JUMPDEST DUP2 SLOAD DUP2 MSTORE SWAP1 PUSH1 0x1 ADD SWAP1 PUSH1 0x20 ADD DUP1 DUP4 GT PUSH2 0x1271 JUMPI DUP3 SWAP1 SUB PUSH1 0x1F AND DUP3 ADD SWAP2 JUMPDEST POP POP POP POP POP SWAP1 DUP1 PUSH1 0x3 ADD PUSH0 SWAP1 SLOAD SWAP1 PUSH2 0x100 EXP SWAP1 DIV PUSH1 0xFF AND SWAP1 DUP1 PUSH1 0x4 ADD SLOAD SWAP1 POP DUP6 JUMP JUMPDEST PUSH1 0x1 PUSH0 CALLER PUSH20 0xFFFFFFFFFFFFFFFFFFFFFFFFFFFFFFFFFFFFFFFF AND PUSH20 0xFFFFFFFFFFFFFFFFFFFFFFFFFFFFFFFFFFFFFFFF AND DUP2 MSTORE PUSH1 0x20 ADD SWAP1 DUP2 MSTORE PUSH1 0x20 ADD PUSH0 KECCAK256 PUSH0 SWAP1 SLOAD SWAP1 PUSH2 0x100 EXP SWAP1 DIV PUSH1 0xFF AND PUSH2 0x1339 JUMPI PUSH1 0x40 MLOAD PUSH32 0x8C379A000000000000000000000000000000000000000000000000000000000 DUP2 MSTORE PUSH1 0x4 ADD PUSH2 0x1330 SWAP1 PUSH2 0x1F80 JUMP JUMPDEST PUSH1 0x40 MLOAD DUP1 SWAP2 SUB SWAP1 REVERT JUMPDEST PUSH1 0x3 PUSH1 0x40 MLOAD DUP1 PUSH1 0xA0 ADD PUSH1 0x40 MSTORE DUP1 DUP6 PUSH20 0xFFFFFFFFFFFFFFFFFFFFFFFFFFFFFFFFFFFFFFFF AND DUP2 MSTORE PUSH1 0x20 ADD DUP5 DUP2 MSTORE PUSH1 0x20 ADD DUP4 DUP2 MSTORE PUSH1 0x20 ADD PUSH0 ISZERO ISZERO DUP2 MSTORE PUSH1 0x20 ADD PUSH0 DUP2 MSTORE POP SWAP1 DUP1 PUSH1 0x1 DUP2 SLOAD ADD DUP1 DUP3 SSTORE DUP1 SWAP2 POP POP PUSH1 0x1 SWAP1 SUB SWAP1 PUSH0 MSTORE PUSH1 0x20 PUSH0 KECCAK256 SWAP1 PUSH1 0x5 MUL ADD PUSH0 SWAP1 SWAP2 SWAP1 SWAP2 SWAP1 SWAP2 POP PUSH0 DUP3 ADD MLOAD DUP2 PUSH0 ADD PUSH0 PUSH2 0x100 EXP DUP2 SLOAD DUP2 PUSH20 0xFFFFFFFFFFFFFFFFFFFFFFFFFFFFFFFFFFFFFFFF MUL NOT AND SWAP1 DUP4 PUSH20 0xFFFFFFFFFFFFFFFFFFFFFFFFFFFFFFFFFFFFFFFF AND MUL OR SWAP1 SSTORE POP PUSH1 0x20 DUP3 ADD MLOAD DUP2 PUSH1 0x1 ADD SSTORE PUSH1 0x40 DUP3 ADD MLOAD DUP2 PUSH1 0x2 ADD SWAP1 DUP2 PUSH2 0x1403 SWAP2 SWAP1 PUSH2 0x24F5 JUMP JUMPDEST POP PUSH1 0x60 DUP3 ADD MLOAD DUP2 PUSH1 0x3 ADD PUSH0 PUSH2 0x100 EXP DUP2 SLOAD DUP2 PUSH1 0xFF MUL NOT AND SWAP1 DUP4 ISZERO ISZERO MUL OR SWAP1 SSTORE POP PUSH1 0x80 DUP3 ADD MLOAD DUP2 PUSH1 0x4 ADD SSTORE POP POP DUP3 PUSH20 0xFFFFFFFFFFFFFFFFFFFFFFFFFFFFFFFFFFFFFFFF AND PUSH1 0x1 PUSH1 0x3 DUP1 SLOAD SWAP1 POP PUSH2 0x1458 SWAP2 SWAP1 PUSH2 0x21CB JUMP JUMPDEST PUSH32 0x453E07A951B5ABB44CC647534A150065E3A308FEC0DC01FDA6CA43A4984F835B DUP5 DUP5 PUSH1 0x40 MLOAD PUSH2 0x1489 SWAP3 SWAP2 SWAP1 PUSH2 0x25C4 JUMP JUMPDEST PUSH1 0x40 MLOAD DUP1 SWAP2 SUB SWAP1 LOG3 POP POP POP JUMP JUMPDEST PUSH1 0x1 PUSH0 CALLER PUSH20 0xFFFFFFFFFFFFFFFFFFFFFFFFFFFFFFFFFFFFFFFF AND PUSH20 0xFFFFFFFFFFFFFFFFFFFFFFFFFFFFFFFFFFFFFFFF AND DUP2 MSTORE PUSH1 0x20 ADD SWAP1 DUP2 MSTORE PUSH1 0x20 ADD PUSH0 KECCAK256 PUSH0 SWAP1 SLOAD SWAP1 PUSH2 0x100 EXP SWAP1 DIV PUSH1 0xFF AND PUSH2 0x151F JUMPI PUSH1 0x40 MLOAD PUSH32 0x8C379A000000000000000000000000000000000000000000000000000000000 DUP2 MSTORE PUSH1 0x4 ADD PUSH2 0x1516 SWAP1 PUSH2 0x1F80 JUMP JUMPDEST PUSH1 0x40 MLOAD DUP1 SWAP2 SUB SWAP1 REVERT JUMPDEST DUP1 PUSH1 0x3 DUP1 SLOAD SWAP1 POP DUP2 LT PUSH2 0x1567 JUMPI PUSH1 0x40 MLOAD PUSH32 0x8C379A000000000000000000000000000000000000000000000000000000000 DUP2 MSTORE PUSH1 0x4 ADD PUSH2 0x155E SWAP1 PUSH2 0x263C JUMP JUMPDEST PUSH1 0x40 MLOAD DUP1 SWAP2 SUB SWAP1 REVERT JUMPDEST DUP2 PUSH1 0x3 DUP2 DUP2 SLOAD DUP2 LT PUSH2 0x157C JUMPI PUSH2 0x157B PUSH2 0x2006 JUMP JUMPDEST JUMPDEST SWAP1 PUSH0 MSTORE PUSH1 0x20 PUSH0 KECCAK256 SWAP1 PUSH1 0x5 MUL ADD PUSH1 0x3 ADD PUSH0 SWAP1 SLOAD SWAP1 PUSH2 0x100 EXP SWAP1 DIV PUSH1 0xFF AND ISZERO PUSH2 0x15D8 JUMPI PUSH1 0x40 MLOAD PUSH32 0x8C379A000000000000000000000000000000000000000000000000000000000 DUP2 MSTORE PUSH1 0x4 ADD PUSH2 0x15CF SWAP1 PUSH2 0x26A4 JUMP JUMPDEST PUSH1 0x40 MLOAD DUP1 SWAP2 SUB SWAP1 REVERT JUMPDEST DUP3 PUSH1 0x4 PUSH0 DUP3 DUP2 MSTORE PUSH1 0x20 ADD SWAP1 DUP2 MSTORE PUSH1 0x20 ADD PUSH0 KECCAK256 PUSH0 CALLER PUSH20 0xFFFFFFFFFFFFFFFFFFFFFFFFFFFFFFFFFFFFFFFF AND PUSH20 0xFFFFFFFFFFFFFFFFFFFFFFFFFFFFFFFFFFFFFFFF AND DUP2 MSTORE PUSH1 0x20 ADD SWAP1 DUP2 MSTORE PUSH1 0x20 ADD PUSH0 KECCAK256 PUSH0 SWAP1 SLOAD SWAP1 PUSH2 0x100 EXP SWAP1 DIV PUSH1 0xFF AND ISZERO PUSH2 0x1672 JUMPI PUSH1 0x40 MLOAD PUSH32 0x8C379A000000000000000000000000000000000000000000000000000000000 DUP2 MSTORE PUSH1 0x4 ADD PUSH2 0x1669 SWAP1 PUSH2 0x270C JUMP JUMPDEST PUSH1 0x40 MLOAD DUP1 SWAP2 SUB SWAP1 REVERT JUMPDEST PUSH0 PUSH1 0x3 DUP6 DUP2 SLOAD DUP2 LT PUSH2 0x1687 JUMPI PUSH2 0x1686 PUSH2 0x2006 JUMP JUMPDEST JUMPDEST SWAP1 PUSH0 MSTORE PUSH1 0x20 PUSH0 KECCAK256 SWAP1 PUSH1 0x5 MUL ADD SWAP1 POP PUSH1 0x1 PUSH1 0x4 PUSH0 DUP8 DUP2 MSTORE PUSH1 0x20 ADD SWAP1 DUP2 MSTORE PUSH1 0x20 ADD PUSH0 KECCAK256 PUSH0 CALLER PUSH20 0xFFFFFFFFFFFFFFFFFFFFFFFFFFFFFFFFFFFFFFFF AND PUSH20 0xFFFFFFFFFFFFFFFFFFFFFFFFFFFFFFFFFFFFFFFF AND DUP2 MSTORE PUSH1 0x20 ADD SWAP1 DUP2 MSTORE PUSH1 0x20 ADD PUSH0 KECCAK256 PUSH0 PUSH2 0x100 EXP DUP2 SLOAD DUP2 PUSH1 0xFF MUL NOT AND SWAP1 DUP4 ISZERO ISZERO MUL OR SWAP1 SSTORE POP PUSH1 0x1 DUP2 PUSH1 0x4 ADD PUSH0 DUP3 DUP3 SLOAD PUSH2 0x170D SWAP2 SWAP1 PUSH2 0x2130 JUMP JUMPDEST SWAP3 POP POP DUP2 SWAP1 SSTORE POP PUSH1 0x2 SLOAD DUP2 PUSH1 0x4 ADD SLOAD LT PUSH2 0x183F JUMPI PUSH1 0x1 DUP2 PUSH1 0x3 ADD PUSH0 PUSH2 0x100 EXP DUP2 SLOAD DUP2 PUSH1 0xFF MUL NOT AND SWAP1 DUP4 ISZERO ISZERO MUL OR SWAP1 SSTORE POP PUSH0 DUP2 PUSH0 ADD PUSH0 SWAP1 SLOAD SWAP1 PUSH2 0x100 EXP SWAP1 DIV PUSH20 0xFFFFFFFFFFFFFFFFFFFFFFFFFFFFFFFFFFFFFFFF AND PUSH20 0xFFFFFFFFFFFFFFFFFFFFFFFFFFFFFFFFFFFFFFFF AND DUP3 PUSH1 0x1 ADD SLOAD DUP4 PUSH1 0x2 ADD PUSH1 0x40 MLOAD PUSH2 0x178D SWAP2 SWAP1 PUSH2 0x27B4 JUMP JUMPDEST PUSH0 PUSH1 0x40 MLOAD DUP1 DUP4 SUB DUP2 DUP6 DUP8 GAS CALL SWAP3 POP POP POP RETURNDATASIZE DUP1 PUSH0 DUP2 EQ PUSH2 0x17C7 JUMPI PUSH1 0x40 MLOAD SWAP2 POP PUSH1 0x1F NOT PUSH1 0x3F RETURNDATASIZE ADD AND DUP3 ADD PUSH1 0x40 MSTORE RETURNDATASIZE DUP3 MSTORE RETURNDATASIZE PUSH0 PUSH1 0x20 DUP5 ADD RETURNDATACOPY PUSH2 0x17CC JUMP JUMPDEST PUSH1 0x60 SWAP2 POP JUMPDEST POP POP SWAP1 POP DUP1 PUSH2 0x1810 JUMPI PUSH1 0x40 MLOAD PUSH32 0x8C379A000000000000000000000000000000000000000000000000000000000 DUP2 MSTORE PUSH1 0x4 ADD PUSH2 0x1807 SWAP1 PUSH2 0x2814 JUMP JUMPDEST PUSH1 0x40 MLOAD DUP1 SWAP2 SUB SWAP1 REVERT JUMPDEST DUP6 PUSH32 0x15ED165A284872EA7017F03DF402A0CADFBFAB588320FFAF83F160C2F82781C7 PUSH1 0x40 MLOAD PUSH1 0x40 MLOAD DUP1 SWAP2 SUB SWAP1 LOG2 POP JUMPDEST POP POP POP POP POP JUMP JUMPDEST PUSH0 DUP2 SWAP1 POP SWAP2 SWAP1 POP JUMP JUMPDEST PUSH2 0x1858 DUP2 PUSH2 0x1846 JUMP JUMPDEST DUP3 MSTORE POP POP JUMP JUMPDEST PUSH0 PUSH1 0x20 DUP3 ADD SWAP1 POP PUSH2 0x1871 PUSH0 DUP4 ADD DUP5 PUSH2 0x184F JUMP JUMPDEST SWAP3 SWAP2 POP POP JUMP JUMPDEST PUSH0 PUSH1 0x40 MLOAD SWAP1 POP SWAP1 JUMP JUMPDEST PUSH0 DUP1 REVERT JUMPDEST PUSH0 DUP1 REVERT JUMPDEST PUSH2 0x1891 DUP2 PUSH2 0x1846 JUMP JUMPDEST DUP2 EQ PUSH2 0x189B JUMPI PUSH0 DUP1 REVERT JUMPDEST POP JUMP JUMPDEST PUSH0 DUP2 CALLDATALOAD SWAP1 POP PUSH2 0x18AC DUP2 PUSH2 0x1888 JUMP JUMPDEST SWAP3 SWAP2 POP POP JUMP JUMPDEST PUSH0 PUSH1 0x20 DUP3 DUP5 SUB SLT ISZERO PUSH2 0x18C7 JUMPI PUSH2 0x18C6 PUSH2 0x1880 JUMP JUMPDEST JUMPDEST PUSH0 PUSH2 0x18D4 DUP5 DUP3 DUP6 ADD PUSH2 0x189E JUMP JUMPDEST SWAP2 POP POP SWAP3 SWAP2 POP POP JUMP JUMPDEST PUSH0 PUSH20 0xFFFFFFFFFFFFFFFFFFFFFFFFFFFFFFFFFFFFFFFF DUP3 AND SWAP1 POP SWAP2 SWAP1 POP JUMP JUMPDEST PUSH0 PUSH2 0x1906 DUP3 PUSH2 0x18DD JUMP JUMPDEST SWAP1 POP SWAP2 SWAP1 POP JUMP JUMPDEST PUSH2 0x1916 DUP2 PUSH2 0x18FC JUMP JUMPDEST DUP3 MSTORE POP POP JUMP JUMPDEST PUSH0 PUSH1 0x20 DUP3 ADD SWAP1 POP PUSH2 0x192F PUSH0 DUP4 ADD DUP5 PUSH2 0x190D JUMP JUMPDEST SWAP3 SWAP2 POP POP JUMP JUMPDEST PUSH0 DUP2 MLOAD SWAP1 POP SWAP2 SWAP1 POP JUMP JUMPDEST PUSH0 DUP3 DUP3 MSTORE PUSH1 0x20 DUP3 ADD SWAP1 POP SWAP3 SWAP2 POP POP JUMP JUMPDEST PUSH0 DUP2 SWAP1 POP PUSH1 0x20 DUP3 ADD SWAP1 POP SWAP2 SWAP1 POP JUMP JUMPDEST PUSH2 0x1967 DUP2 PUSH2 0x18FC JUMP JUMPDEST DUP3 MSTORE POP POP JUMP JUMPDEST PUSH2 0x1976 DUP2 PUSH2 0x1846 JUMP JUMPDEST DUP3 MSTORE POP POP JUMP JUMPDEST PUSH0 DUP2 MLOAD SWAP1 POP SWAP2 SWAP1 POP JUMP JUMPDEST PUSH0 DUP3 DUP3 MSTORE PUSH1 0x20 DUP3 ADD SWAP1 POP SWAP3 SWAP2 POP POP JUMP JUMPDEST DUP3 DUP2 DUP4 MCOPY PUSH0 DUP4 DUP4 ADD MSTORE POP POP POP JUMP JUMPDEST PUSH0 PUSH1 0x1F NOT PUSH1 0x1F DUP4 ADD AND SWAP1 POP SWAP2 SWAP1 POP JUMP JUMPDEST PUSH0 PUSH2 0x19BE DUP3 PUSH2 0x197C JUMP JUMPDEST PUSH2 0x19C8 DUP2 DUP6 PUSH2 0x1986 JUMP JUMPDEST SWAP4 POP PUSH2 0x19D8 DUP2 DUP6 PUSH1 0x20 DUP7 ADD PUSH2 0x1996 JUMP JUMPDEST PUSH2 0x19E1 DUP2 PUSH2 0x19A4 JUMP JUMPDEST DUP5 ADD SWAP2 POP POP SWAP3 SWAP2 POP POP JUMP JUMPDEST PUSH0 DUP2 ISZERO ISZERO SWAP1 POP SWAP2 SWAP1 POP JUMP JUMPDEST PUSH2 0x1A00 DUP2 PUSH2 0x19EC JUMP JUMPDEST DUP3 MSTORE POP POP JUMP JUMPDEST PUSH0 PUSH1 0xA0 DUP4 ADD PUSH0 DUP4 ADD MLOAD PUSH2 0x1A1B PUSH0 DUP7 ADD DUP3 PUSH2 0x195E JUMP JUMPDEST POP PUSH1 0x20 DUP4 ADD MLOAD PUSH2 0x1A2E PUSH1 0x20 DUP7 ADD DUP3 PUSH2 0x196D JUMP JUMPDEST POP PUSH1 0x40 DUP4 ADD MLOAD DUP5 DUP3 SUB PUSH1 0x40 DUP7 ADD MSTORE PUSH2 0x1A46 DUP3 DUP3 PUSH2 0x19B4 JUMP JUMPDEST SWAP2 POP POP PUSH1 0x60 DUP4 ADD MLOAD PUSH2 0x1A5B PUSH1 0x60 DUP7 ADD DUP3 PUSH2 0x19F7 JUMP JUMPDEST POP PUSH1 0x80 DUP4 ADD MLOAD PUSH2 0x1A6E PUSH1 0x80 DUP7 ADD DUP3 PUSH2 0x196D JUMP JUMPDEST POP DUP1 SWAP2 POP POP SWAP3 SWAP2 POP POP JUMP JUMPDEST PUSH0 PUSH2 0x1A84 DUP4 DUP4 PUSH2 0x1A06 JUMP JUMPDEST SWAP1 POP SWAP3 SWAP2 POP POP JUMP JUMPDEST PUSH0 PUSH1 0x20 DUP3 ADD SWAP1 POP SWAP2 SWAP1 POP JUMP JUMPDEST PUSH0 PUSH2 0x1AA2 DUP3 PUSH2 0x1935 JUMP JUMPDEST PUSH2 0x1AAC DUP2 DUP6 PUSH2 0x193F JUMP JUMPDEST SWAP4 POP DUP4 PUSH1 0x20 DUP3 MUL DUP6 ADD PUSH2 0x1ABE DUP6 PUSH2 0x194F JUMP JUMPDEST DUP1 PUSH0 JUMPDEST DUP6 DUP2 LT ISZERO PUSH2 0x1AF9 JUMPI DUP5 DUP5 SUB DUP10 MSTORE DUP2 MLOAD PUSH2 0x1ADA DUP6 DUP3 PUSH2 0x1A79 JUMP JUMPDEST SWAP5 POP PUSH2 0x1AE5 DUP4 PUSH2 0x1A8C JUMP JUMPDEST SWAP3 POP PUSH1 0x20 DUP11 ADD SWAP10 POP POP PUSH1 0x1 DUP2 ADD SWAP1 POP PUSH2 0x1AC1 JUMP JUMPDEST POP DUP3 SWAP8 POP DUP8 SWAP6 POP POP POP POP POP POP SWAP3 SWAP2 POP POP JUMP JUMPDEST PUSH0 PUSH1 0x20 DUP3 ADD SWAP1 POP DUP2 DUP2 SUB PUSH0 DUP4 ADD MSTORE PUSH2 0x1B23 DUP2 DUP5 PUSH2 0x1A98 JUMP JUMPDEST SWAP1 POP SWAP3 SWAP2 POP POP JUMP JUMPDEST PUSH2 0x1B34 DUP2 PUSH2 0x18FC JUMP JUMPDEST DUP2 EQ PUSH2 0x1B3E JUMPI PUSH0 DUP1 REVERT JUMPDEST POP JUMP JUMPDEST PUSH0 DUP2 CALLDATALOAD SWAP1 POP PUSH2 0x1B4F DUP2 PUSH2 0x1B2B JUMP JUMPDEST SWAP3 SWAP2 POP POP JUMP JUMPDEST PUSH0 PUSH1 0x20 DUP3 DUP5 SUB SLT ISZERO PUSH2 0x1B6A JUMPI PUSH2 0x1B69 PUSH2 0x1880 JUMP JUMPDEST JUMPDEST PUSH0 PUSH2 0x1B77 DUP5 DUP3 DUP6 ADD PUSH2 0x1B41 JUMP JUMPDEST SWAP2 POP POP SWAP3 SWAP2 POP POP JUMP JUMPDEST PUSH2 0x1B89 DUP2 PUSH2 0x19EC JUMP JUMPDEST DUP3 MSTORE POP POP JUMP JUMPDEST PUSH0 PUSH1 0x20 DUP3 ADD SWAP1 POP PUSH2 0x1BA2 PUSH0 DUP4 ADD DUP5 PUSH2 0x1B80 JUMP JUMPDEST SWAP3 SWAP2 POP POP JUMP JUMPDEST PUSH0 PUSH1 0x80 DUP3 ADD SWAP1 POP PUSH2 0x1BBB PUSH0 DUP4 ADD DUP8 PUSH2 0x190D JUMP JUMPDEST PUSH2 0x1BC8 PUSH1 0x20 DUP4 ADD DUP7 PUSH2 0x1B80 JUMP JUMPDEST PUSH2 0x1BD5 PUSH1 0x40 DUP4 ADD DUP6 PUSH2 0x184F JUMP JUMPDEST PUSH2 0x1BE2 PUSH1 0x60 DUP4 ADD DUP5 PUSH2 0x1B80 JUMP JUMPDEST SWAP6 SWAP5 POP POP POP POP POP JUMP JUMPDEST PUSH0 DUP3 DUP3 MSTORE PUSH1 0x20 DUP3 ADD SWAP1 POP SWAP3 SWAP2 POP POP JUMP JUMPDEST PUSH0 PUSH2 0x1C05 DUP3 PUSH2 0x197C JUMP JUMPDEST PUSH2 0x1C0F DUP2 DUP6 PUSH2 0x1BEB JUMP JUMPDEST SWAP4 POP PUSH2 0x1C1F DUP2 DUP6 PUSH1 0x20 DUP7 ADD PUSH2 0x1996 JUMP JUMPDEST PUSH2 0x1C28 DUP2 PUSH2 0x19A4 JUMP JUMPDEST DUP5 ADD SWAP2 POP POP SWAP3 SWAP2 POP POP JUMP JUMPDEST PUSH0 PUSH1 0xA0 DUP3 ADD SWAP1 POP PUSH2 0x1C46 PUSH0 DUP4 ADD DUP9 PUSH2 0x190D JUMP JUMPDEST PUSH2 0x1C53 PUSH1 0x20 DUP4 ADD DUP8 PUSH2 0x184F JUMP JUMPDEST DUP2 DUP2 SUB PUSH1 0x40 DUP4 ADD MSTORE PUSH2 0x1C65 DUP2 DUP7 PUSH2 0x1BFB JUMP JUMPDEST SWAP1 POP PUSH2 0x1C74 PUSH1 0x60 DUP4 ADD DUP6 PUSH2 0x1B80 JUMP JUMPDEST PUSH2 0x1C81 PUSH1 0x80 DUP4 ADD DUP5 PUSH2 0x184F JUMP JUMPDEST SWAP7 SWAP6 POP POP POP POP POP POP JUMP JUMPDEST PUSH0 DUP1 PUSH1 0x40 DUP4 DUP6 SUB SLT ISZERO PUSH2 0x1CA1 JUMPI PUSH2 0x1CA0 PUSH2 0x1880 JUMP JUMPDEST JUMPDEST PUSH0 PUSH2 0x1CAE DUP6 DUP3 DUP7 ADD PUSH2 0x189E JUMP JUMPDEST SWAP3 POP POP PUSH1 0x20 PUSH2 0x1CBF DUP6 DUP3 DUP7 ADD PUSH2 0x1B41 JUMP JUMPDEST SWAP2 POP POP SWAP3 POP SWAP3 SWAP1 POP JUMP JUMPDEST PUSH2 0x1CD2 DUP2 PUSH2 0x19EC JUMP JUMPDEST DUP2 EQ PUSH2 0x1CDC JUMPI PUSH0 DUP1 REVERT JUMPDEST POP JUMP JUMPDEST PUSH0 DUP2 CALLDATALOAD SWAP1 POP PUSH2 0x1CED DUP2 PUSH2 0x1CC9 JUMP JUMPDEST SWAP3 SWAP2 POP POP JUMP JUMPDEST PUSH0 DUP1 PUSH1 0x40 DUP4 DUP6 SUB SLT ISZERO PUSH2 0x1D09 JUMPI PUSH2 0x1D08 PUSH2 0x1880 JUMP JUMPDEST JUMPDEST PUSH0 PUSH2 0x1D16 DUP6 DUP3 DUP7 ADD PUSH2 0x1B41 JUMP JUMPDEST SWAP3 POP POP PUSH1 0x20 PUSH2 0x1D27 DUP6 DUP3 DUP7 ADD PUSH2 0x1CDF JUMP JUMPDEST SWAP2 POP POP SWAP3 POP SWAP3 SWAP1 POP JUMP JUMPDEST PUSH0 DUP1 REVERT JUMPDEST PUSH0 DUP1 REVERT JUMPDEST PUSH32 0x4E487B7100000000000000000000000000000000000000000000000000000000 PUSH0 MSTORE PUSH1 0x41 PUSH1 0x4 MSTORE PUSH1 0x24 PUSH0 REVERT JUMPDEST PUSH2 0x1D6F DUP3 PUSH2 0x19A4 JUMP JUMPDEST DUP2 ADD DUP2 DUP2 LT PUSH8 0xFFFFFFFFFFFFFFFF DUP3 GT OR ISZERO PUSH2 0x1D8E JUMPI PUSH2 0x1D8D PUSH2 0x1D39 JUMP JUMPDEST JUMPDEST DUP1 PUSH1 0x40 MSTORE POP POP POP JUMP JUMPDEST PUSH0 PUSH2 0x1DA0 PUSH2 0x1877 JUMP JUMPDEST SWAP1 POP PUSH2 0x1DAC DUP3 DUP3 PUSH2 0x1D66 JUMP JUMPDEST SWAP2 SWAP1 POP JUMP JUMPDEST PUSH0 PUSH8 0xFFFFFFFFFFFFFFFF DUP3 GT ISZERO PUSH2 0x1DCB JUMPI PUSH2 0x1DCA PUSH2 0x1D39 JUMP JUMPDEST JUMPDEST PUSH2 0x1DD4 DUP3 PUSH2 0x19A4 JUMP JUMPDEST SWAP1 POP PUSH1 0x20 DUP2 ADD SWAP1 POP SWAP2 SWAP1 POP JUMP JUMPDEST DUP3 DUP2 DUP4 CALLDATACOPY PUSH0 DUP4 DUP4 ADD MSTORE POP POP POP JUMP JUMPDEST PUSH0 PUSH2 0x1E01 PUSH2 0x1DFC DUP5 PUSH2 0x1DB1 JUMP JUMPDEST PUSH2 0x1D97 JUMP JUMPDEST SWAP1 POP DUP3 DUP2 MSTORE PUSH1 0x20 DUP2 ADD DUP5 DUP5 DUP5 ADD GT ISZERO PUSH2 0x1E1D JUMPI PUSH2 0x1E1C PUSH2 0x1D35 JUMP JUMPDEST JUMPDEST PUSH2 0x1E28 DUP5 DUP3 DUP6 PUSH2 0x1DE1 JUMP JUMPDEST POP SWAP4 SWAP3 POP POP POP JUMP JUMPDEST PUSH0 DUP3 PUSH1 0x1F DUP4 ADD SLT PUSH2 0x1E44 JUMPI PUSH2 0x1E43 PUSH2 0x1D31 JUMP JUMPDEST JUMPDEST DUP2 CALLDATALOAD PUSH2 0x1E54 DUP5 DUP3 PUSH1 0x20 DUP7 ADD PUSH2 0x1DEF JUMP JUMPDEST SWAP2 POP POP SWAP3 SWAP2 POP POP JUMP JUMPDEST PUSH0 DUP1 PUSH0 PUSH1 0x60 DUP5 DUP7 SUB SLT ISZERO PUSH2 0x1E74 JUMPI PUSH2 0x1E73 PUSH2 0x1880 JUMP JUMPDEST JUMPDEST PUSH0 PUSH2 0x1E81 DUP7 DUP3 DUP8 ADD PUSH2 0x1B41 JUMP JUMPDEST SWAP4 POP POP PUSH1 0x20 PUSH2 0x1E92 DUP7 DUP3 DUP8 ADD PUSH2 0x189E JUMP JUMPDEST SWAP3 POP POP PUSH1 0x40 DUP5 ADD CALLDATALOAD PUSH8 0xFFFFFFFFFFFFFFFF DUP2 GT ISZERO PUSH2 0x1EB3 JUMPI PUSH2 0x1EB2 PUSH2 0x1884 JUMP JUMPDEST JUMPDEST PUSH2 0x1EBF DUP7 DUP3 DUP8 ADD PUSH2 0x1E30 JUMP JUMPDEST SWAP2 POP POP SWAP3 POP SWAP3 POP SWAP3 JUMP JUMPDEST PUSH32 0x4E487B7100000000000000000000000000000000000000000000000000000000 PUSH0 MSTORE PUSH1 0x22 PUSH1 0x4 MSTORE PUSH1 0x24 PUSH0 REVERT JUMPDEST PUSH0 PUSH1 0x2 DUP3 DIV SWAP1 POP PUSH1 0x1 DUP3 AND DUP1 PUSH2 0x1F0D JUMPI PUSH1 0x7F DUP3 AND SWAP2 POP JUMPDEST PUSH1 0x20 DUP3 LT DUP2 SUB PUSH2 0x1F20 JUMPI PUSH2 0x1F1F PUSH2 0x1EC9 JUMP JUMPDEST JUMPDEST POP SWAP2 SWAP1 POP JUMP JUMPDEST PUSH0 DUP3 DUP3 MSTORE PUSH1 0x20 DUP3 ADD SWAP1 POP SWAP3 SWAP2 POP POP JUMP JUMPDEST PUSH32 0x4E6F7420616E206F776E65720000000000000000000000000000000000000000 PUSH0 DUP3 ADD MSTORE POP JUMP JUMPDEST PUSH0 PUSH2 0x1F6A PUSH1 0xC DUP4 PUSH2 0x1F26 JUMP JUMPDEST SWAP2 POP PUSH2 0x1F75 DUP3 PUSH2 0x1F36 JUMP JUMPDEST PUSH1 0x20 DUP3 ADD SWAP1 POP SWAP2 SWAP1 POP JUMP JUMPDEST PUSH0 PUSH1 0x20 DUP3 ADD SWAP1 POP DUP2 DUP2 SUB PUSH0 DUP4 ADD MSTORE PUSH2 0x1F97 DUP2 PUSH2 0x1F5E JUMP JUMPDEST SWAP1 POP SWAP2 SWAP1 POP JUMP JUMPDEST PUSH32 0x5265717565737420646F6573206E6F7420657869737400000000000000000000 PUSH0 DUP3 ADD MSTORE POP JUMP JUMPDEST PUSH0 PUSH2 0x1FD2 PUSH1 0x16 DUP4 PUSH2 0x1F26 JUMP JUMPDEST SWAP2 POP PUSH2 0x1FDD DUP3 PUSH2 0x1F9E JUMP JUMPDEST PUSH1 0x20 DUP3 ADD SWAP1 POP SWAP2 SWAP1 POP JUMP JUMPDEST PUSH0 PUSH1 0x20 DUP3 ADD SWAP1 POP DUP2 DUP2 SUB PUSH0 DUP4 ADD MSTORE PUSH2 0x1FFF DUP2 PUSH2 0x1FC6 JUMP JUMPDEST SWAP1 POP SWAP2 SWAP1 POP JUMP JUMPDEST PUSH32 0x4E487B7100000000000000000000000000000000000000000000000000000000 PUSH0 MSTORE PUSH1 0x32 PUSH1 0x4 MSTORE PUSH1 0x24 PUSH0 REVERT JUMPDEST PUSH32 0x5265717565737420616C72656164792065786563757465640000000000000000 PUSH0 DUP3 ADD MSTORE POP JUMP JUMPDEST PUSH0 PUSH2 0x2067 PUSH1 0x18 DUP4 PUSH2 0x1F26 JUMP JUMPDEST SWAP2 POP PUSH2 0x2072 DUP3 PUSH2 0x2033 JUMP JUMPDEST PUSH1 0x20 DUP3 ADD SWAP1 POP SWAP2 SWAP1 POP JUMP JUMPDEST PUSH0 PUSH1 0x20 DUP3 ADD SWAP1 POP DUP2 DUP2 SUB PUSH0 DUP4 ADD MSTORE PUSH2 0x2094 DUP2 PUSH2 0x205B JUMP JUMPDEST SWAP1 POP SWAP2 SWAP1 POP JUMP JUMPDEST PUSH32 0x5265717565737420616C726561647920636F6E6669726D656400000000000000 PUSH0 DUP3 ADD MSTORE POP JUMP JUMPDEST PUSH0 PUSH2 0x20CF PUSH1 0x19 DUP4 PUSH2 0x1F26 JUMP JUMPDEST SWAP2 POP PUSH2 0x20DA DUP3 PUSH2 0x209B JUMP JUMPDEST PUSH1 0x20 DUP3 ADD SWAP1 POP SWAP2 SWAP1 POP JUMP JUMPDEST PUSH0 PUSH1 0x20 DUP3 ADD SWAP1 POP DUP2 DUP2 SUB PUSH0 DUP4 ADD MSTORE PUSH2 0x20FC DUP2 PUSH2 0x20C3 JUMP JUMPDEST SWAP1 POP SWAP2 SWAP1 POP JUMP JUMPDEST PUSH32 0x4E487B7100000000000000000000000000000000000000000000000000000000 PUSH0 MSTORE PUSH1 0x11 PUSH1 0x4 MSTORE PUSH1 0x24 PUSH0 REVERT JUMPDEST PUSH0 PUSH2 0x213A DUP3 PUSH2 0x1846 JUMP JUMPDEST SWAP2 POP PUSH2 0x2145 DUP4 PUSH2 0x1846 JUMP JUMPDEST SWAP3 POP DUP3 DUP3 ADD SWAP1 POP DUP1 DUP3 GT ISZERO PUSH2 0x215D JUMPI PUSH2 0x215C PUSH2 0x2103 JUMP JUMPDEST JUMPDEST SWAP3 SWAP2 POP POP JUMP JUMPDEST PUSH32 0x4F776E657220646F6573206E6F74206578697374000000000000000000000000 PUSH0 DUP3 ADD MSTORE POP JUMP JUMPDEST PUSH0 PUSH2 0x2197 PUSH1 0x14 DUP4 PUSH2 0x1F26 JUMP JUMPDEST SWAP2 POP PUSH2 0x21A2 DUP3 PUSH2 0x2163 JUMP JUMPDEST PUSH1 0x20 DUP3 ADD SWAP1 POP SWAP2 SWAP1 POP JUMP JUMPDEST PUSH0 PUSH1 0x20 DUP3 ADD SWAP1 POP DUP2 DUP2 SUB PUSH0 DUP4 ADD MSTORE PUSH2 0x21C4 DUP2 PUSH2 0x218B JUMP JUMPDEST SWAP1 POP SWAP2 SWAP1 POP JUMP JUMPDEST PUSH0 PUSH2 0x21D5 DUP3 PUSH2 0x1846 JUMP JUMPDEST SWAP2 POP PUSH2 0x21E0 DUP4 PUSH2 0x1846 JUMP JUMPDEST SWAP3 POP DUP3 DUP3 SUB SWAP1 POP DUP2 DUP2 GT ISZERO PUSH2 0x21F8 JUMPI PUSH2 0x21F7 PUSH2 0x2103 JUMP JUMPDEST JUMPDEST SWAP3 SWAP2 POP POP JUMP JUMPDEST PUSH32 0x4E487B7100000000000000000000000000000000000000000000000000000000 PUSH0 MSTORE PUSH1 0x31 PUSH1 0x4 MSTORE PUSH1 0x24 PUSH0 REVERT JUMPDEST PUSH32 0x4E487B7100000000000000000000000000000000000000000000000000000000 PUSH0 MSTORE PUSH1 0x12 PUSH1 0x4 MSTORE PUSH1 0x24 PUSH0 REVERT JUMPDEST PUSH0 PUSH2 0x2262 DUP3 PUSH2 0x1846 JUMP JUMPDEST SWAP2 POP PUSH2 0x226D DUP4 PUSH2 0x1846 JUMP JUMPDEST SWAP3 POP DUP3 PUSH2 0x227D JUMPI PUSH2 0x227C PUSH2 0x222B JUMP JUMPDEST JUMPDEST DUP3 DUP3 DIV SWAP1 POP SWAP3 SWAP2 POP POP JUMP JUMPDEST PUSH32 0x496E76616C6964206F776E657220616464726573730000000000000000000000 PUSH0 DUP3 ADD MSTORE POP JUMP JUMPDEST PUSH0 PUSH2 0x22BC PUSH1 0x15 DUP4 PUSH2 0x1F26 JUMP JUMPDEST SWAP2 POP PUSH2 0x22C7 DUP3 PUSH2 0x2288 JUMP JUMPDEST PUSH1 0x20 DUP3 ADD SWAP1 POP SWAP2 SWAP1 POP JUMP JUMPDEST PUSH0 PUSH1 0x20 DUP3 ADD SWAP1 POP DUP2 DUP2 SUB PUSH0 DUP4 ADD MSTORE PUSH2 0x22E9 DUP2 PUSH2 0x22B0 JUMP JUMPDEST SWAP1 POP SWAP2 SWAP1 POP JUMP JUMPDEST PUSH32 0x526564756E64616E742072657175657374000000000000000000000000000000 PUSH0 DUP3 ADD MSTORE POP JUMP JUMPDEST PUSH0 PUSH2 0x2324 PUSH1 0x11 DUP4 PUSH2 0x1F26 JUMP JUMPDEST SWAP2 POP PUSH2 0x232F DUP3 PUSH2 0x22F0 JUMP JUMPDEST PUSH1 0x20 DUP3 ADD SWAP1 POP SWAP2 SWAP1 POP JUMP JUMPDEST PUSH0 PUSH1 0x20 DUP3 ADD SWAP1 POP DUP2 DUP2 SUB PUSH0 DUP4 ADD MSTORE PUSH2 0x2351 DUP2 PUSH2 0x2318 JUMP JUMPDEST SWAP1 POP SWAP2 SWAP1 POP JUMP JUMPDEST PUSH0 DUP2 SWAP1 POP DUP2 PUSH0 MSTORE PUSH1 0x20 PUSH0 KECCAK256 SWAP1 POP SWAP2 SWAP1 POP JUMP JUMPDEST PUSH0 PUSH1 0x20 PUSH1 0x1F DUP4 ADD DIV SWAP1 POP SWAP2 SWAP1 POP JUMP JUMPDEST PUSH0 DUP3 DUP3 SHL SWAP1 POP SWAP3 SWAP2 POP POP JUMP JUMPDEST PUSH0 PUSH1 0x8 DUP4 MUL PUSH2 0x23B4 PUSH32 0xFFFFFFFFFFFFFFFFFFFFFFFFFFFFFFFFFFFFFFFFFFFFFFFFFFFFFFFFFFFFFFFF DUP3 PUSH2 0x2379 JUMP JUMPDEST PUSH2 0x23BE DUP7 DUP4 PUSH2 0x2379 JUMP JUMPDEST SWAP6 POP DUP1 NOT DUP5 AND SWAP4 POP DUP1 DUP7 AND DUP5 OR SWAP3 POP POP POP SWAP4 SWAP3 POP POP POP JUMP JUMPDEST PUSH0 DUP2 SWAP1 POP SWAP2 SWAP1 POP JUMP JUMPDEST PUSH0 PUSH2 0x23F9 PUSH2 0x23F4 PUSH2 0x23EF DUP5 PUSH2 0x1846 JUMP JUMPDEST PUSH2 0x23D6 JUMP JUMPDEST PUSH2 0x1846 JUMP JUMPDEST SWAP1 POP SWAP2 SWAP1 POP JUMP JUMPDEST PUSH0 DUP2 SWAP1 POP SWAP2 SWAP1 POP JUMP JUMPDEST PUSH2 0x2412 DUP4 PUSH2 0x23DF JUMP JUMPDEST PUSH2 0x2426 PUSH2 0x241E DUP3 PUSH2 0x2400 JUMP JUMPDEST DUP5 DUP5 SLOAD PUSH2 0x2385 JUMP JUMPDEST DUP3 SSTORE POP POP POP POP JUMP JUMPDEST PUSH0 SWAP1 JUMP JUMPDEST PUSH2 0x243A PUSH2 0x242E JUMP JUMPDEST PUSH2 0x2445 DUP2 DUP5 DUP5 PUSH2 0x2409 JUMP JUMPDEST POP POP POP JUMP JUMPDEST JUMPDEST DUP2 DUP2 LT ISZERO PUSH2 0x2468 JUMPI PUSH2 0x245D PUSH0 DUP3 PUSH2 0x2432 JUMP JUMPDEST PUSH1 0x1 DUP2 ADD SWAP1 POP PUSH2 0x244B JUMP JUMPDEST POP POP JUMP JUMPDEST PUSH1 0x1F DUP3 GT ISZERO PUSH2 0x24AD JUMPI PUSH2 0x247E DUP2 PUSH2 0x2358 JUMP JUMPDEST PUSH2 0x2487 DUP5 PUSH2 0x236A JUMP JUMPDEST DUP2 ADD PUSH1 0x20 DUP6 LT ISZERO PUSH2 0x2496 JUMPI DUP2 SWAP1 POP JUMPDEST PUSH2 0x24AA PUSH2 0x24A2 DUP6 PUSH2 0x236A JUMP JUMPDEST DUP4 ADD DUP3 PUSH2 0x244A JUMP JUMPDEST POP POP JUMPDEST POP POP POP JUMP JUMPDEST PUSH0 DUP3 DUP3 SHR SWAP1 POP SWAP3 SWAP2 POP POP JUMP JUMPDEST PUSH0 PUSH2 0x24CD PUSH0 NOT DUP5 PUSH1 0x8 MUL PUSH2 0x24B2 JUMP JUMPDEST NOT DUP1 DUP4 AND SWAP2 POP POP SWAP3 SWAP2 POP POP JUMP JUMPDEST PUSH0 PUSH2 0x24E5 DUP4 DUP4 PUSH2 0x24BE JUMP JUMPDEST SWAP2 POP DUP3 PUSH1 0x2 MUL DUP3 OR SWAP1 POP SWAP3 SWAP2 POP POP JUMP JUMPDEST PUSH2 0x24FE DUP3 PUSH2 0x197C JUMP JUMPDEST PUSH8 0xFFFFFFFFFFFFFFFF DUP2 GT ISZERO PUSH2 0x2517 JUMPI PUSH2 0x2516 PUSH2 0x1D39 JUMP JUMPDEST JUMPDEST PUSH2 0x2521 DUP3 SLOAD PUSH2 0x1EF6 JUMP JUMPDEST PUSH2 0x252C DUP3 DUP3 DUP6 PUSH2 0x246C JUMP JUMPDEST PUSH0 PUSH1 0x20 SWAP1 POP PUSH1 0x1F DUP4 GT PUSH1 0x1 DUP2 EQ PUSH2 0x255D JUMPI PUSH0 DUP5 ISZERO PUSH2 0x254B JUMPI DUP3 DUP8 ADD MLOAD SWAP1 POP JUMPDEST PUSH2 0x2555 DUP6 DUP3 PUSH2 0x24DA JUMP JUMPDEST DUP7 SSTORE POP PUSH2 0x25BC JUMP JUMPDEST PUSH1 0x1F NOT DUP5 AND PUSH2 0x256B DUP7 PUSH2 0x2358 JUMP JUMPDEST PUSH0 JUMPDEST DUP3 DUP2 LT ISZERO PUSH2 0x2592 JUMPI DUP5 DUP10 ADD MLOAD DUP3 SSTORE PUSH1 0x1 DUP3 ADD SWAP2 POP PUSH1 0x20 DUP6 ADD SWAP5 POP PUSH1 0x20 DUP2 ADD SWAP1 POP PUSH2 0x256D JUMP JUMPDEST DUP7 DUP4 LT ISZERO PUSH2 0x25AF JUMPI DUP5 DUP10 ADD MLOAD PUSH2 0x25AB PUSH1 0x1F DUP10 AND DUP3 PUSH2 0x24BE JUMP JUMPDEST DUP4 SSTORE POP JUMPDEST PUSH1 0x1 PUSH1 0x2 DUP9 MUL ADD DUP9 SSTORE POP POP POP JUMPDEST POP POP POP POP POP POP JUMP JUMPDEST PUSH0 PUSH1 0x40 DUP3 ADD SWAP1 POP PUSH2 0x25D7 PUSH0 DUP4 ADD DUP6 PUSH2 0x184F JUMP JUMPDEST DUP2 DUP2 SUB PUSH1 0x20 DUP4 ADD MSTORE PUSH2 0x25E9 DUP2 DUP5 PUSH2 0x1BFB JUMP JUMPDEST SWAP1 POP SWAP4 SWAP3 POP POP POP JUMP JUMPDEST PUSH32 0x5472616E73616374696F6E20646F6573206E6F74206578697374000000000000 PUSH0 DUP3 ADD MSTORE POP JUMP JUMPDEST PUSH0 PUSH2 0x2626 PUSH1 0x1A DUP4 PUSH2 0x1F26 JUMP JUMPDEST SWAP2 POP PUSH2 0x2631 DUP3 PUSH2 0x25F2 JUMP JUMPDEST PUSH1 0x20 DUP3 ADD SWAP1 POP SWAP2 SWAP1 POP JUMP JUMPDEST PUSH0 PUSH1 0x20 DUP3 ADD SWAP1 POP DUP2 DUP2 SUB PUSH0 DUP4 ADD MSTORE PUSH2 0x2653 DUP2 PUSH2 0x261A JUMP JUMPDEST SWAP1 POP SWAP2 SWAP1 POP JUMP JUMPDEST PUSH32 0x5472616E73616374696F6E20616C726561647920657865637574656400000000 PUSH0 DUP3 ADD MSTORE POP JUMP JUMPDEST PUSH0 PUSH2 0x268E PUSH1 0x1C DUP4 PUSH2 0x1F26 JUMP JUMPDEST SWAP2 POP PUSH2 0x2699 DUP3 PUSH2 0x265A JUMP JUMPDEST PUSH1 0x20 DUP3 ADD SWAP1 POP SWAP2 SWAP1 POP JUMP JUMPDEST PUSH0 PUSH1 0x20 DUP3 ADD SWAP1 POP DUP2 DUP2 SUB PUSH0 DUP4 ADD MSTORE PUSH2 0x26BB DUP2 PUSH2 0x2682 JUMP JUMPDEST SWAP1 POP SWAP2 SWAP1 POP JUMP JUMPDEST PUSH32 0x5472616E73616374696F6E20616C726561647920636F6E6669726D6564000000 PUSH0 DUP3 ADD MSTORE POP JUMP JUMPDEST PUSH0 PUSH2 0x26F6 PUSH1 0x1D DUP4 PUSH2 0x1F26 JUMP JUMPDEST SWAP2 POP PUSH2 0x2701 DUP3 PUSH2 0x26C2 JUMP JUMPDEST PUSH1 0x20 DUP3 ADD SWAP1 POP SWAP2 SWAP1 POP JUMP JUMPDEST PUSH0 PUSH1 0x20 DUP3 ADD SWAP1 POP DUP2 DUP2 SUB PUSH0 DUP4 ADD MSTORE PUSH2 0x2723 DUP2 PUSH2 0x26EA JUMP JUMPDEST SWAP1 POP SWAP2 SWAP1 POP JUMP JUMPDEST PUSH0 DUP2 SWAP1 POP SWAP3 SWAP2 POP POP JUMP JUMPDEST PUSH0 DUP2 SLOAD PUSH2 0x2740 DUP2 PUSH2 0x1EF6 JUMP JUMPDEST PUSH2 0x274A DUP2 DUP7 PUSH2 0x272A JUMP JUMPDEST SWAP5 POP PUSH1 0x1 DUP3 AND PUSH0 DUP2 EQ PUSH2 0x2764 JUMPI PUSH1 0x1 DUP2 EQ PUSH2 0x2779 JUMPI PUSH2 0x27AB JUMP JUMPDEST PUSH1 0xFF NOT DUP4 AND DUP7 MSTORE DUP2 ISZERO ISZERO DUP3 MUL DUP7 ADD SWAP4 POP PUSH2 0x27AB JUMP JUMPDEST PUSH2 0x2782 DUP6 PUSH2 0x2358 JUMP JUMPDEST PUSH0 JUMPDEST DUP4 DUP2 LT ISZERO PUSH2 0x27A3 JUMPI DUP2 SLOAD DUP2 DUP10 ADD MSTORE PUSH1 0x1 DUP3 ADD SWAP2 POP PUSH1 0x20 DUP2 ADD SWAP1 POP PUSH2 0x2784 JUMP JUMPDEST DUP4 DUP9 ADD SWAP6 POP POP POP JUMPDEST POP POP POP SWAP3 SWAP2 POP POP JUMP JUMPDEST PUSH0 PUSH2 0x27BF DUP3 DUP5 PUSH2 0x2734 JUMP JUMPDEST SWAP2 POP DUP2 SWAP1 POP SWAP3 SWAP2 POP POP JUMP JUMPDEST PUSH32 0x5472616E73616374696F6E206661696C65640000000000000000000000000000 PUSH0 DUP3 ADD MSTORE POP JUMP JUMPDEST PUSH0 PUSH2 0x27FE PUSH1 0x12 DUP4 PUSH2 0x1F26 JUMP JUMPDEST SWAP2 POP PUSH2 0x2809 DUP3 PUSH2 0x27CA JUMP JUMPDEST PUSH1 0x20 DUP3 ADD SWAP1 POP SWAP2 SWAP1 POP JUMP JUMPDEST PUSH0 PUSH1 0x20 DUP3 ADD SWAP1 POP DUP2 DUP2 SUB PUSH0 DUP4 ADD MSTORE PUSH2 0x282B DUP2 PUSH2 0x27F2 JUMP JUMPDEST SWAP1 POP SWAP2 SWAP1 POP JUMP INVALID LOG2 PUSH5 0x6970667358 0x22 SLT KECCAK256 0x29 0xE8 SDIV SELFDESTRUCT DUP14 0xB1 TSTORE 0xFB ADD PUSH12 0x31829F571A5FD0E62B85C2A9 PUSH31 0xFB4F3298FA20FAC96864736F6C634300081A00330000000000000000000000 "
		},
		"gasEstimates": {
			"creation": {
				"codeDepositCost": "2068800",
				"executionCost": "infinite",
				"totalCost": "infinite"
			},
			"external": {
				"confirmOwnerChangeRequest(uint256)": "infinite",
				"confirmTransaction(uint256)": "infinite",
				"confirmations(uint256,address)": "3094",
				"createOwnerChangeRequest(address,bool)": "infinite",
				"createTransaction(address,uint256,bytes)": "infinite",
				"getAllTransactions()": "infinite",
				"getBalance()": "380",
				"getTransaction(uint256)": "infinite",
				"isOwner(address)": "2878",
				"ownerChangeConfirmations(uint256,address)": "3093",
				"ownerChangeRequests(uint256)": "infinite",
				"owners(uint256)": "4967",
				"requiredSignatures()": "2492",
				"transactions(uint256)": "infinite"
			}
		},
		"methodIdentifiers": {
			"confirmOwnerChangeRequest(uint256)": "2d3fabd0",
			"confirmTransaction(uint256)": "c01a8c84",
			"confirmations(uint256,address)": "3411c81c",
			"createOwnerChangeRequest(address,bool)": "6e4e91b7",
			"createTransaction(address,uint256,bytes)": "a9496e75",
			"getAllTransactions()": "27506f53",
			"getBalance()": "12065fe0",
			"getTransaction(uint256)": "33ea3dc8",
			"isOwner(address)": "2f54bf6e",
			"ownerChangeConfirmations(uint256,address)": "9a1645f7",
			"ownerChangeRequests(uint256)": "33259df1",
			"owners(uint256)": "025e7c27",
			"requiredSignatures()": "8d068043",
			"transactions(uint256)": "9ace38c2"
		}
	},
	"abi": [
		{
			"inputs": [
				{
					"internalType": "address[]",
					"name": "_owners",
					"type": "address[]"
				}
			],
			"stateMutability": "nonpayable",
			"type": "constructor"
		},
		{
			"anonymous": false,
			"inputs": [
				{
					"indexed": true,
					"internalType": "address",
					"name": "sender",
					"type": "address"
				},
				{
					"indexed": false,
					"internalType": "uint256",
					"name": "value",
					"type": "uint256"
				}
			],
			"name": "Deposit",
			"type": "event"
		},
		{
			"anonymous": false,
			"inputs": [
				{
					"indexed": true,
					"internalType": "uint256",
					"name": "requestIndex",
					"type": "uint256"
				},
				{
					"indexed": true,
					"internalType": "address",
					"name": "confirmer",
					"type": "address"
				}
			],
			"name": "OwnerChangeRequestConfirmed",
			"type": "event"
		},
		{
			"anonymous": false,
			"inputs": [
				{
					"indexed": true,
					"internalType": "uint256",
					"name": "requestIndex",
					"type": "uint256"
				},
				{
					"indexed": true,
					"internalType": "address",
					"name": "owner",
					"type": "address"
				},
				{
					"indexed": false,
					"internalType": "bool",
					"name": "isAdding",
					"type": "bool"
				}
			],
			"name": "OwnerChangeRequestCreated",
			"type": "event"
		},
		{
			"anonymous": false,
			"inputs": [
				{
					"indexed": true,
					"internalType": "uint256",
					"name": "requestIndex",
					"type": "uint256"
				},
				{
					"indexed": true,
					"internalType": "address",
					"name": "owner",
					"type": "address"
				},
				{
					"indexed": false,
					"internalType": "bool",
					"name": "isAdding",
					"type": "bool"
				}
			],
			"name": "OwnerChangeRequestExecuted",
			"type": "event"
		},
		{
			"anonymous": false,
			"inputs": [
				{
					"indexed": true,
					"internalType": "uint256",
					"name": "txIndex",
					"type": "uint256"
				},
				{
					"indexed": true,
					"internalType": "address",
					"name": "owner",
					"type": "address"
				}
			],
			"name": "TransactionConfirmed",
			"type": "event"
		},
		{
			"anonymous": false,
			"inputs": [
				{
					"indexed": true,
					"internalType": "uint256",
					"name": "txIndex",
					"type": "uint256"
				},
				{
					"indexed": true,
					"internalType": "address",
					"name": "to",
					"type": "address"
				},
				{
					"indexed": false,
					"internalType": "uint256",
					"name": "value",
					"type": "uint256"
				},
				{
					"indexed": false,
					"internalType": "bytes",
					"name": "data",
					"type": "bytes"
				}
			],
			"name": "TransactionCreated",
			"type": "event"
		},
		{
			"anonymous": false,
			"inputs": [
				{
					"indexed": true,
					"internalType": "uint256",
					"name": "txIndex",
					"type": "uint256"
				}
			],
			"name": "TransactionExecuted",
			"type": "event"
		},
		{
			"inputs": [
				{
					"internalType": "uint256",
					"name": "_requestIndex",
					"type": "uint256"
				}
			],
			"name": "confirmOwnerChangeRequest",
			"outputs": [],
			"stateMutability": "nonpayable",
			"type": "function"
		},
		{
			"inputs": [
				{
					"internalType": "uint256",
					"name": "_txIndex",
					"type": "uint256"
				}
			],
			"name": "confirmTransaction",
			"outputs": [],
			"stateMutability": "nonpayable",
			"type": "function"
		},
		{
			"inputs": [
				{
					"internalType": "uint256",
					"name": "",
					"type": "uint256"
				},
				{
					"internalType": "address",
					"name": "",
					"type": "address"
				}
			],
			"name": "confirmations",
			"outputs": [
				{
					"internalType": "bool",
					"name": "",
					"type": "bool"
				}
			],
			"stateMutability": "view",
			"type": "function"
		},
		{
			"inputs": [
				{
					"internalType": "address",
					"name": "_owner",
					"type": "address"
				},
				{
					"internalType": "bool",
					"name": "_isAdding",
					"type": "bool"
				}
			],
			"name": "createOwnerChangeRequest",
			"outputs": [],
			"stateMutability": "nonpayable",
			"type": "function"
		},
		{
			"inputs": [
				{
					"internalType": "address",
					"name": "_to",
					"type": "address"
				},
				{
					"internalType": "uint256",
					"name": "_value",
					"type": "uint256"
				},
				{
					"internalType": "bytes",
					"name": "_data",
					"type": "bytes"
				}
			],
			"name": "createTransaction",
			"outputs": [],
			"stateMutability": "nonpayable",
			"type": "function"
		},
		{
			"inputs": [],
			"name": "getAllTransactions",
			"outputs": [
				{
					"components": [
						{
							"internalType": "address",
							"name": "to",
							"type": "address"
						},
						{
							"internalType": "uint256",
							"name": "value",
							"type": "uint256"
						},
						{
							"internalType": "bytes",
							"name": "data",
							"type": "bytes"
						},
						{
							"internalType": "bool",
							"name": "executed",
							"type": "bool"
						},
						{
							"internalType": "uint256",
							"name": "confirmations",
							"type": "uint256"
						}
					],
					"internalType": "struct MultisigWallet.Transaction[]",
					"name": "",
					"type": "tuple[]"
				}
			],
			"stateMutability": "view",
			"type": "function"
		},
		{
			"inputs": [],
			"name": "getBalance",
			"outputs": [
				{
					"internalType": "uint256",
					"name": "",
					"type": "uint256"
				}
			],
			"stateMutability": "view",
			"type": "function"
		},
		{
			"inputs": [
				{
					"internalType": "uint256",
					"name": "_txIndex",
					"type": "uint256"
				}
			],
			"name": "getTransaction",
			"outputs": [
				{
					"internalType": "address",
					"name": "to",
					"type": "address"
				},
				{
					"internalType": "uint256",
					"name": "value",
					"type": "uint256"
				},
				{
					"internalType": "bytes",
					"name": "data",
					"type": "bytes"
				},
				{
					"internalType": "bool",
					"name": "executed",
					"type": "bool"
				},
				{
					"internalType": "uint256",
					"name": "confirmationsCount",
					"type": "uint256"
				}
			],
			"stateMutability": "view",
			"type": "function"
		},
		{
			"inputs": [
				{
					"internalType": "address",
					"name": "",
					"type": "address"
				}
			],
			"name": "isOwner",
			"outputs": [
				{
					"internalType": "bool",
					"name": "",
					"type": "bool"
				}
			],
			"stateMutability": "view",
			"type": "function"
		},
		{
			"inputs": [
				{
					"internalType": "uint256",
					"name": "",
					"type": "uint256"
				},
				{
					"internalType": "address",
					"name": "",
					"type": "address"
				}
			],
			"name": "ownerChangeConfirmations",
			"outputs": [
				{
					"internalType": "bool",
					"name": "",
					"type": "bool"
				}
			],
			"stateMutability": "view",
			"type": "function"
		},
		{
			"inputs": [
				{
					"internalType": "uint256",
					"name": "",
					"type": "uint256"
				}
			],
			"name": "ownerChangeRequests",
			"outputs": [
				{
					"internalType": "address",
					"name": "owner",
					"type": "address"
				},
				{
					"internalType": "bool",
					"name": "isAdding",
					"type": "bool"
				},
				{
					"internalType": "uint256",
					"name": "confirmations",
					"type": "uint256"
				},
				{
					"internalType": "bool",
					"name": "executed",
					"type": "bool"
				}
			],
			"stateMutability": "view",
			"type": "function"
		},
		{
			"inputs": [
				{
					"internalType": "uint256",
					"name": "",
					"type": "uint256"
				}
			],
			"name": "owners",
			"outputs": [
				{
					"internalType": "address",
					"name": "",
					"type": "address"
				}
			],
			"stateMutability": "view",
			"type": "function"
		},
		{
			"inputs": [],
			"name": "requiredSignatures",
			"outputs": [
				{
					"internalType": "uint256",
					"name": "",
					"type": "uint256"
				}
			],
			"stateMutability": "view",
			"type": "function"
		},
		{
			"inputs": [
				{
					"internalType": "uint256",
					"name": "",
					"type": "uint256"
				}
			],
			"name": "transactions",
			"outputs": [
				{
					"internalType": "address",
					"name": "to",
					"type": "address"
				},
				{
					"internalType": "uint256",
					"name": "value",
					"type": "uint256"
				},
				{
					"internalType": "bytes",
					"name": "data",
					"type": "bytes"
				},
				{
					"internalType": "bool",
					"name": "executed",
					"type": "bool"
				},
				{
					"internalType": "uint256",
					"name": "confirmations",
					"type": "uint256"
				}
			],
			"stateMutability": "view",
			"type": "function"
		},
		{
			"stateMutability": "payable",
			"type": "receive"
		}
	]
}